:020000040800F2
:1000000008120020A101000845720008614F000895
:10001000417200084D090008517E000800000000F0
:100020000000000000000000000000001175000842
:10003000BF11000800000000B57200087D750008BF
:10004000BB010008BB010008BB010008BB010008A0
:10005000BB010008BB010008BB010008BB01000890
:10006000251B0008391B0008BB010008BB01000864
:10007000BB010008BB010008BB010008BB01000870
:10008000BB01000895100008BB010008BB01000877
:10009000BB010008BB010008BB010008BB01000850
:1000A0004D760008BB010008BB010008BB01000839
:1000B0006576000875760008BB010008BB010008E2
:1000C000BB010008BB010008BB010008BB01000820
:1000D000BB010008BB010008BB010008BB01000810
:1000E000051B0008BB010008BB010008BB0100089C
:1000F000BB010008BB010008BB010008BB010008F0
:10010000BB010008BB010008BB010008BB010008DF
:10011000BB010008BB010008BB010008BB010008CF
:10012000BB010008BB010008A5100008BB010008C6
:10013000BB010008BB010008BB010008BB010008AF
:10014000BB010008BB010008BB010008BB0100089F
:10015000BB010008BB010008BB010008BB0100088F
:10016000BB010008BB010008BB010008BB0100087F
:10017000BB010008BB010008BB0100080000000033
:10018000BB010008BB010008DFF810D000F0D6FA70
:1001900000480047ED8B0008AFF3008008120020F4
:1001A0000648804706480047FEE7FEE7FEE7FEE711
:1001B000FEE7FEE7FEE7FEE7FEE7FEE7397600082A
:1001C000890100082DE9F05F0546002092469B4614
:1001D00088460646814640241BE02846414647465D
:1001E000224600F0F0F853465A46C01A914110D307
:1001F00011461846224600F0D7F82D1A67EB010881
:100200004F4622460120002100F0CEF817EB0009EE
:100210004E41201EA4F10104DFDC484631462A4647
:100220004346BDE8F09FD2B201E000F8012B491E21
:10023000FBD270470022F6E710B513460A46044683
:100240001946FFF7F0FF204610BD10B5002200E070
:10025000521C835C8C5CA34201D1002BF8D1D8B234
:10026000E1B2401A10BD2DE9FE4F81EA030404F00B
:10027000004421F0004100944FF0000B23F00043B4
:1002800050EA01045ED052EA03045BD0C3F30A547F
:10029000C1F30A552C44A4F2F3340194A0FB025498
:1002A000C1F3130141F48011C3F3130343F480132A
:1002B00001FB024400FB034E840A970A44EA81547E
:1002C00047EA8357A4FB076802958D0A05FB07855B
:1002D0004FEA932C04FB0C542705029D4FEA065865
:1002E00047EA1637B5EB08056EEB070C870E920E42
:1002F00047EA811742EA8312A7FB0201B6EB0B0122
:1003000064EB00042B0D43EA0C335E1844EB1C50E5
:10031000DA465146E7FB0201C5F313044FEA0B33FB
:1003200043EA14534FEA0432019C43EA0603A4F162
:100330000C040294009CCDE900B400F09AF803B0DC
:10034000BDE8F08F00200146F9E700F0004230F0F0
:1003500000400AD0C10D01F56071C0F3160042EAF9
:100360000151C20840071143704700200146704701
:1003700001F0004330B421F0004150EA010206D000
:100380000A0DA2F56072C1F31301002A02DC30BC31
:1003900000207047440F44EAC104C100E01830BC9B
:1003A00000EBC25000F01FB8202A04DB203A00FA0C
:1003B00002F1002070479140C2F1200320FA03F3BC
:1003C000194390407047202A04DB203A21FA02F0BA
:1003D0000021704721FA02F3D040C2F1200291407F
:1003E0000843194670470029A8BF7047401C4900C0
:1003F00008BF20F00100704710B4B0FA80FC00FA8A
:100400000CF050EA010404BF10BC704749B1CCF1B4
:10041000200421FA04F411FA0CF118BF0121214340
:100420000843A3EB0C01CB1D4FEA00614FEA1020FB
:1004300042BF002010BC704700EBC350104400299D
:10044000A4BF10BC7047401C490008BF20F0010049
:1004500010BC704710B5141E73F1000408DA401C7C
:1004600041F1000192185B411A4301D120F00100D3
:1004700010BD2DE9F04D92469B4611B1B1FA81F2C3
:1004800002E0B0FA80F220329046FFF78DFF04467A
:100490000F4640EA0A0041EA0B0153465A46084318
:1004A00013D0114653EA010019D0C8F1400250465A
:1004B000FFF789FF05460E46504659464246FFF76C
:1004C00073FF084305D0012004E020463946BDE80B
:1004D000F08D0020054346EAE0762C4337430A9826
:1004E0006305E40AA0EB08000022FD0A44EA475431
:1004F0000A3002D500200146E9E7010510196941DB
:10050000DDE9084500196941BDE8F04DA2E72DE994
:10051000FE4F804681EA0300C00F0C46009021F098
:10052000004123F00045B8EB0200A94105D2404646
:10053000214690461C460B46024623F000401043DD
:1005400047D0270DC7F30A00C3F30A510290401A9F
:10055000019040286BDAC3F3130040F4801B00982D
:10056000924620B10023D2EB030A63EB0B0B0198F8
:100570005946C0F140025046FFF716FF06460D46A9
:1005800050465946019A00F0EBF810EB0800614123
:10059000002487EA115284EAE7731A4340D0009A94
:1005A00062B3019A012A4FEA075215DC001B61EB86
:1005B00002014FF0004202EA0752CDE90042001C5E
:1005C00041F5801132462B46FFF753FF03B0BDE8DB
:1005D000F08F40462146F9E7001B61EB0201001C49
:1005E00041F5801300185B412018A2F5001747EB76
:1005F000030140EAD570B6196D4111E06D084FEA6C
:10060000360645EAC0754FEA0752001B61EB02014E
:10061000001C41F5801149084FEA30000019514192
:1006200032462B4603B0BDE8F04FFFF713BF0098EA
:10063000012240000023D0EB020263EBE07300983C
:1006400021464FEAE074B8EB000061EB0401E9E7F2
:1006500083F000435BE781F0004158E72DE9F04D5E
:1006600081EA030404F0004B21F0004514464FF0EA
:10067000000A23F0004150EA050220D054EA0102AA
:100680001DD0C5F30A570246C5F31303C1F3130087
:10069000C1F30A5640F4801543F48013A7EB060813
:1006A000101BD64608F2FD3873EB050002D308F1A3
:1006B000010801E092185B41B8F1000F03DA002055
:1006C0000146BDE8F08D00204FF4801106468446B7
:1006D0000EE0171B73EB050705D3121B63EB050335
:1006E00006434CEA010C49084FEA300092185B417E
:1006F00050EA0107EDD152EA030012D082EA040069
:1007000083EA0501084305D0101BAB4106D2012244
:10071000002306E000224FF0004302E06FF00102E8
:1007200053101AEB06004CEB085110EB0A0041EB9A
:100730000B01BDE8F04DFFF78DBE0000064C074DE4
:1007400006E0E06840F0010394E8070098471034A1
:10075000AC42F6D3FFF71CFDE0D7000800D8000834
:10076000202A06DBCB17203A41FA02F043EAE07375
:1007700006E041FA02F3D040C2F120029140084362
:10078000194670472DE9F04D00231A461B1A8A417D
:1007900003DB00200146BDE8F08DC1F30A52C1F32E
:1007A000130141F480154FF0000BD10702D100185E
:1007B0006D41521E0027044640F2FF11384601EBFE
:1007C000620A3E468046024600204FF48011FFF741
:1007D000FAFDC2197141BB1846EB0100B4EB030CE2
:1007E00075EB000C04D3E41A65EB000517460E46C2
:1007F000241908F101006D4180463428E3DDF91920
:1008000046EB0600091BA84103D24FF0FF32134606
:1008100001E0002213461BEB070046EB0A51BDE83E
:10082000F04DFFF717BE70B58C1810F8015B15F08E
:10083000070301D110F8013B2A1106D110F8012B52
:1008400003E010F8016B01F8016B5B1EF9D12B0777
:1008500005D40023521E0DD401F8013BFAE710F82D
:10086000013BCB1A921C03E013F8015B01F8015B1A
:10087000521EF9D5A142D8D3002070BD10B5044650
:10088000214607A0FFF7E1FC40B90848C0780849B5
:1008900031F810000749088000F0AAFC10BD0000E4
:1008A0004C43445F425F636F6C6F72004C050020E5
:1008B000360000203400002010B5044621460AA06E
:1008C000FFF7C3FC78B90B49097801EB81010A4AAB
:1008D000126802EBC101087B0422084901F0C8F844
:1008E0002046FFF7CBFF10BD4C43445F425F636F70
:1008F0006C6F720031000020280000204C050020A1
:1009000010B5044621460AA0FFF79FFC78B90C49B0
:10091000097801EB81010B4A126802EBC101087BE7
:100920000422094901F0A4F8204600F045F810BD62
:100930004C43445F4272696768746E65737300006C
:1009400031000020280000204C05002000BFFEE7F9
:100950000EB54FF478408C23AA225F2100904B20E3
:1009600005F0F8FB002018214FF478424FF6FF7392
:10097000CDE9002102900CA26721572005F0E3FF8A
:1009800040F2DC5000F01CFC094800888C23AA22AD
:100990005F2100904B2005F0DDFB00200549087029
:1009A00000F026FC0EBD000043616E636C65000024
:1009B000340000203000002010B50446214605A078
:1009C000FFF743FC20B90748C078074909688863E6
:1009D00010BD00004C43445F4272696768746E65E5
:1009E000737300004C050020580B0020FEB5FC4935
:1009F000097801EB8101FB4A126802EBC101087B17
:100A00000422F94901F034F800242FE30421F748C7
:100A100001F068FC00287CD1F348C078F0490978DF
:100A200001EB8101EF4A126802EBC10109698842BA
:100A300003D10020EC49C87004E0EB48C078401CAA
:100A4000E949C870E649097801EB8101E54A126875
:100A500002EBC1018868FFF711FFE149097801EB5A
:100A60008101E04A126802EBC1018868FFF7A4FF28
:100A700045F25840DB4A00901268D28CD84D2D7850
:100A8000C5EB051502EB4502183293B2D54A126840
:100A9000D28CD34D2D78C5EB051502EB450291B2F2
:100AA000CF4A127802EB8202CE4D2D6805EBC202CE
:100AB000908CE62205F04EFB0020182145F25842AA
:100AC000C84DCDE9002102902D68ED8CC44E3678DA
:100AD000C6EB061605EB4605A9B2C14D2D7805EB10
:100AE0008505C04E366806EBC5056B8CBC4D2D7870
:100AF00005EB8505BB4E366806EBC505AA68B84D03
:100B00002D7805EB8505B74E366806EBC505A88C34
:100B100000E020E005F017FF182145F25842B048E8
:100B2000007800EB8000AF4B1B6803EBC000408CEB
:100B3000CDE901210090AB480068C08CA84B1B7820
:100B4000C3EB031300EB430081B2A748C278032331
:100B5000C32005F0ADFE0821A44801F0C3FB002826
:100B60007DD1A148C07858B99D48007800EB80003D
:100B70009C49096801EBC000007C9B49C87004E0F7
:100B80009948C078401E9849C8709549097801EB8A
:100B90008101944A126802EBC1018868FFF76EFE7A
:100BA0008F49097801EB81018E4A126802EBC1017D
:100BB0008868FFF701FF45F258408A4A00901268A2
:100BC000D28C874D2D78C5EB051502EB4502183206
:100BD00093B2844A1268D28C814D2D78C5EB0515ED
:100BE00002EB450291B27E4A127802EB82027D4D01
:100BF0002D6805EBC202908CE62205F0ABFA0020CE
:100C0000182145F25842774DCDE9002102902D6818
:100C1000ED8C734E3678C6EB061605EB4605A9B289
:100C20006F4D2D7805EB85056E4E366806EBC505D4
:100C30006B8C6B4D2D7805EB85056A4E366806EB9F
:100C4000C505AA68664D2D7805EB8505654E3668A5
:100C500006EBC505A88C05F076FE182200E01CE026
:100C600045F258415E48007800EB80005D4B1B6800
:100C700003EBC000408C8DE807005A480068C08C28
:100C8000574B1B78C3EB031300EB430081B256486C
:100C9000C2780323C32005F00BFE4FF48051544863
:100CA00001F020FB00287CD14D49097801EB81013E
:100CB0004C4A126802EBC1018868FFF7FDFD484904
:100CC000097801EB8101474A126802EBC10188688B
:100CD000FFF716FE47480088424A00901268D28CFF
:100CE0003F4D2D78C5EB051502EB4502183293B246
:100CF0003C4A1268D28C3A4D2D78C5EB051502EBB3
:100D0000450291B2364A127802EB8202354D2D68C7
:100D100005EBC202908CE62205F01CFA30490978F6
:100D200001EB81012F4A126802EBC101087B04220A
:100D30002D4900F09DFE18222E4801882848007891
:100D400000EB8000274B1B6803EBC000408C8DE854
:100D5000070024480068C08C214B1B78C3EB0313A9
:100D600000EB430081B22048C2780323C32005F082
:100D70009FFD002018211F4A12881A4DCDE900213D
:100D800002902D68ED8C164E3678C6EB061605EBF4
:100D90004605A9B2124D2D7805EB8505114E366832
:100DA00000E02BE006EBC5056B8C0D4D2D7805EBB7
:100DB00085050C4E366806EBC505AA68084D2D78EA
:100DC00005EB8505074E366806EBC505A88C05F0D2
:100DD000BAFD00200849087000F00AFA47E1000057
:100DE00031000020280000204C05002000080240AF
:100DF0000004024034000020300000204FF4005175
:100E00009C4801F06FFA012800D101244FF40051F1
:100E1000984801F067FA00287ED1012CFCD1964950
:100E2000097801EB8101954A126802EBC101087B48
:100E30000422934900F04EFE01286ED04FF4487012
:100E40008C23AA225F210090462005F083F9002020
:100E500018214FF448724FF6FF73CDE9002102903C
:100E600088A267214E2005F06EFD40F2DC5000F0B4
:100E7000A7F9864800888C23AA225F21009046208B
:100E800005F068F9814800887C4A00901268D28C8D
:100E9000794D2D78C5EB051502EB4502183293B25A
:100EA000764A1268D28C744D2D78C5EB051502EB8D
:100EB000450291B2704A127802EB82026F4D2D68A2
:100EC00005EBC202908CE62205F044F96A490978E4
:100ED00001EB8101694A126802EBC101087B04221F
:100EE000674900F0C5FD182268480188624800780B
:100EF00000EB8000614B1B6803EBC000408C8DE869
:100F000007005E480068C08C5B4B1B78C3EB031383
:100F100000EB430081B201E0A5E05BE05848C278F5
:100F20000323C32005F0C4FC00201821574A12886F
:100F3000524DCDE9002102902D68ED8C4E4E367851
:100F4000C6EB061605EB4605A9B24B4D2D7805EB11
:100F500085054A4E366806EBC5056B8C464D2D78E7
:100F600005EB8505454E366806EBC505AA68424D7A
:100F70002D7805EB8505414E366806EBC505A88C36
:100F800005F0E1FC3C49097801EB81013B4A12681C
:100F900002EBC1018868FFF771FC3749097801EB62
:100FA0008101364A126802EBC1018868FFF704FD2F
:100FB0003149097801EB8101304A126802EBC10125
:100FC000886806F079F900203149087000F010F9BE
:100FD000002447E02D4800888C23AA225F2100903E
:100FE000462005F0B7F829480088244A0090126886
:100FF000D28C214D2D78C5EB051502EB4502183238
:1010000093B21E4A1268D28C1B4D2D78C5EB051584
:1010100002EB450291B2184A127802EB8202174D98
:101020002D6805EBC202908CE62205F093F800F0E3
:1010300013FEFC20164908700F49097801EB810165
:101040000E4A126802EBC1018868FFF735FC0A49B5
:10105000097801EB8101094A126802EBC101886835
:10106000FFF74EFC03E0642000F0AAF8CEE400BFD6
:10107000FEBD0000000402403100002028000020D6
:101080004C050020537563636573730034000020C2
:101090003000002010B5024800F026FE10BD000010
:1010A000C00C002010B5024800F01EFE10BD00006C
:1010B000680D00200146087810381823B0FBF3F2C1
:1010C0000848805CC865032A05D908686FF30900E1
:1010D000001D886503E008686FF309008865886D66
:1010E00070470000DCD50008014600208A6A8B6941
:1010F000CBB932B1012A0DD0022A03D0032A10D174
:101100000EE000BFCB6A03F08073B3F1807F00D1A3
:10111000012007E0CB6AB3F1C07F00D1012001E0DC
:1011200000E000BF34E08B69B3F5005F1AD132B143
:10113000012A07D0022A03D0032A11D10AE000BFF6
:1011400001200EE0CB6A03F08073B3F1807F00D101
:10115000012006E0CB6AB3F1C07F00D1012000E09E
:1011600000BF15E032B1012A05D0022A04D0032ABB
:101170000CD103E000BF00BF012008E0CB6A03F000
:101180008073B3F1807F00D1012000E000BF00BF79
:10119000704730B50468246824F4802405682C6006
:1011A000046863608468402C04D10468A260046809
:1011B000E16003E00468A1600468E26030BD70474C
:1011C00010B5044603E04FF47A7000F005F8201ED5
:1011D000A4F10104F7D110BDA82242430523B2FBBC
:1011E000F3F100E000BF0A1EA1F10101FAD170473E
:1011F0002DE9FF41C2480078FD2803D0C04800789F
:10120000FC2811D1BF480088F0231A460021009025
:10121000084604F09FFF45F258403223F022002197
:101220000090084604F096FFB7480068057800244F
:10123000062D01DD062000E028460646B34800786A
:10124000062803DAB1480078A84214DBAF480078DA
:10125000FF2802D1681EAD490870AC480078A8424A
:1012600002DB0020A9490870A8480078062802DBA4
:101270000020A6490870A4490968486800F0DAFA15
:1012800004EB8400A049096801EBC00090F820003D
:10129000002878D1002472E004EB84009A490968A0
:1012A00001EBC000C08C98BB00201821974A12782F
:1012B000944202D145F2584201E0924A1288924F7C
:1012C000CDE9002102903F68FF8CC4EB041C07EBC2
:1012D0004C07B9B204EB8407DFF82CC2DCF800C07D
:1012E0000CEBC7077B8C04EB8407DFF81CC2DCF82F
:1012F00000C00CEBC707BA6804EB8407DFF808C22C
:10130000DCF800C00CEBC707B88C05F00BF834E034
:10131000FFE7002018217D4A1278944202D145F25D
:10132000584201E0774A128804EB8407DFF8D8C1FD
:10133000CDE900210290DCF800C00CEBC7077B8CE4
:1013400004EB8407DFF8C0C1DCF800C00CEBC70772
:10135000BA6804EB8407DFF8B0C1DCF800C00CEB1E
:10136000C707F98C04EB8407DFF89CC1DCF800C0E8
:101370000CEBC707B88C04F0D5FF601CC4B2B442B4
:101380008ADBBBE0FFE704EB84005F49096801EBFF
:10139000C00090F820000128F3D10024ABE004EB5A
:1013A00084005949096801EBC000C08C98BB00213A
:1013B0001820564A1278944202D145F2584201E070
:1013C000504A1288504FCDE9002002913F68FF8CAF
:1013D000C4EB041C07EB4C07B9B204EB8407DFF83D
:1013E00028C1DCF800C00CEBC7077B8C04EB84073A
:1013F000DFF814C1DCF800C00CEBC707BA6804EBD7
:101400008407DFF804C1DCF800C00CEBC707B88C18
:1014100005F099FA34E0FFE7002018213B4A1278E2
:10142000944202D145F2584201E0364A128804EB58
:101430008407DFF8D4C0CDE900210290DCF800C0B9
:101440000CEBC7077B8C04EB8407DFF8BCC0DCF82F
:1014500000C00CEBC707BA6804EB8407DFF8A8C02C
:10146000DCF800C00CEBC707F98C04EB8407DFF84D
:1014700098C0DCF800C00CEBC707B88C05F063FA25
:1014800004EB84002049096801EBC000007B65285B
:101490002FD004EB84001C49096801EBC000007BDD
:1014A000662826D004EB8401174A126802EBC101BA
:1014B000087B042203A900F0DBFA182111480288F6
:1014C00004EB8400104B1B6803EBC000408CCDE99B
:1014D000012100900C480068C08CC4EB041300EBA1
:1014E000430081B29DF80F200323C32005F0E0F9EB
:1014F00000BF601CC4B2B442FFF651AFBDE8FF812B
:10150000300000203400002028000020310000209E
:101510007FB5C2480078FF280BD0C0480078FE286D
:1015200007D0BE480078FD2803D0BC480078FC28CE
:101530007ED1BA480078FC287BD0FD2813D0FE2845
:1015400009D0FF2876D1B6480078401EB44908700B
:10155000FFF74EFE5DE1B2480078401CB0490870CC
:10156000FFF746FE55E1AE48007800EB8000AD493C
:10157000096801EBC000007B652824D1A8480078E9
:1015800000EB8000A749096801EBC0008069C0B189
:10159000A4480068A4490860A148007800EB8000D6
:1015A000A049096801EBC00080699E4908609C4819
:1015B00000789E490870002099490870FFF718FECE
:1015C00000E00EE10DE19648007800EB80009549BF
:1015D000096801EBC000406900287DD09048007880
:1015E00000EB80008F49096801EBC000007B662892
:1015F00072D045F258408B4A00901268D28C884CC9
:101600002478C4EB041402EB4402183293B2854AE6
:101610001268D28C824C2478C4EB041402EB44028E
:1016200091B27F4A127802EB82027E4C246802E07B
:10163000F0E0D8E0ECE004EBC202908CE62204F08B
:1016400089FD7749097801EB8101764A126802EB3E
:10165000C101087B042203A900F00AFA182145F20F
:1016600058426F48007800EB80006E4B1B6803EB1C
:10167000C000408CCDE9012100906A480068C08C10
:10168000674B1B78C3EB031300EB430081B29DF85B
:101690000F200323C32005F00BF90020182145F289
:1016A0005842604CCDE9002102902468E48C5C4DE6
:1016B0002D78C5EB051504EB4504A1B2584C2478F0
:1016C00004EB8404574D2D6805EBC404638C544C23
:1016D000247804EB840400E020E0524D2D6805EBF3
:1016E000C404A2684E4C247804EB84044D4D2D684C
:1016F00005EBC404A08C05F026F901204C490870C4
:101700004749097801EB8101464A126802EBC101A1
:101710004869804700204649087061E00020182190
:1017200045F258423F4CCDE9002102902468E48CF8
:101730003B4D2D78C5EB051504EB4504A1B2384CA3
:10174000247804EB8404374D2D6805EBC404638CC6
:10175000334C247804EB8404324D2D6805EBC4042B
:10176000A2682F4C247804EB84042E4D2D6805EBE1
:10177000C404A08C05F0E7F845F25840294A0090CF
:101780001268D28C264C2478C4EB041402EB440279
:10179000183293B2234A1268D28C214C2478C4EBBD
:1017A000041402EB440291B21D4A127802EB820249
:1017B0001C4C246804EBC202908CE62204F0CAFCA4
:1017C00001201B4908701649097801EB8101154A6F
:1017D000126802EBC1014869804700201449087073
:1017E00000BF00BF15E01048006878B10E480068DF
:1017F0000C49086008460068C0690B4908600B483E
:10180000007807490870FFF7F3FC00E001E000E012
:1018100000BF00BF0020014908707FBD30000020DC
:1018200031000020280000202C0000203200002081
:10183000330000203EB504460020202145F25842E6
:101840004FF6FF73CDE90021029022460A21322093
:1018500004F068FD3EBD00003EB500F077F94FF49E
:1018600078408C23AA225F2100904B2004F072FC68
:10187000002018214FF478424FF6FF73CDE9002184
:10188000029015A26721572005F05DF8002420E0A2
:101890004FF40051124800F025FD012800D1012429
:1018A0004FF400510E4800F01DFD30B9012C04D159
:1018B00000F0BAF905F02EFE0CE04FF48051084814
:1018C00000F010FD10B9FFF743F803E00A20FFF71E
:1018D00077FCDDE700BF3EBD5265737572650000A1
:1018E0000004024008B500F031F90020009069467C
:1018F000FE2000F0A7F89DF80000122808D105F09E
:10190000A3FC10B100F0A8F908BD06F06DFAFBE7E2
:101910009DF8000040B905F0B1FC10B100F09CF951
:10192000F2E705F085F8EFE700BFEDE700B5C5B0D9
:1019300000F00CF94FF48053332230A13C4803F0FF
:10194000B0FA012817D045F258408C23AA225F2113
:101950000090462004F0FEFB0020182145F258427A
:101960004FF6FF73CDE90021029032A267214E208D
:1019700004F0E9FF03E000F06FF945B000BD00207E
:1019800044906423012244A9294803F029FA9DF8D0
:101990001001592803D09DF8100179282AD145F269
:1019A00058408C23AA225F210090462004F0D2FBED
:1019B0000020182145F258424FF6FF73CDE900216F
:1019C00002901EA267214E2004F0BDFF4FF48072EA
:1019D00004A9002000F04CF84FF480531A1104A918
:1019E000134803F05EFA10B905F094FDC5E700F066
:1019F00033F9C2E700F030F900BFBEE762617564F9
:101A00005F726174655F3131353230302C66726FD0
:101A10006D5F307830305F746F5F307866662C733E
:101A2000656E64275927746F5F7665726966790001
:101A3000200D002057616974696E670053656E64FC
:101A4000696E67003EB504460D464FF47A70012179
:101A50000B462246CDE900510290A121034800F037
:101A60003DFD08B900203EBD0120FCE7C40900206F
:101A7000FEB504460D4616464FF47A700123224601
:101A8000A121CDE900560290034800F027FD08B9D6
:101A90000020FEBD0120FCE7C409002013B584B07E
:101AA00004464FF47A70012105AA0B46CDE90021C6
:101AB00002902246A021064800F094FE28B9052095
:101AC000FFF77EFB002006B010BD0120FBE7000001
:101AD000C40900202DE9F04105460E4617460020B6
:101AE00004460AE0315D2A1990B2FFF7D7FF10B122
:101AF0000120BDE8F081601C0446BC42F2DB00BF5F
:101B0000F7E7000010B5064802F03AF94FF48050AC
:101B100000F0E0FA4FF4005000F0DCFA10BD0000D5
:101B2000580B002010B5034802F02AF9042000F0F9
:101B3000D1FA10BD580B002010B5034802F020F96F
:101B4000082000F0C7FA10BD580B0020FEB5002495
:101B5000002C60D14FF400512F4800F0C3FB002847
:101B600059D100BF4FF400512B4800F0BBFB0028B7
:101B7000F8D02A4800882A4A00901268D28C294D51
:101B80002D78C5EB051502EB4502183293B2244AB5
:101B90001268D28C234D2D78C5EB051502EB45025A
:101BA00091B2204A127802EB82021D4D2D6805EB9E
:101BB000C202908CE62204F0CDFA00201821174AC8
:101BC0001288174DCDE9002102902D68ED8C154E3D
:101BD0003678C6EB061605EB4605A9B2114D2D78F1
:101BE00005EB85050E4E366806EBC5056B8C0D4D75
:101BF0002D7805EB85050A4E366806EBC505AA6803
:101C0000084D2D7805EB8505054E366806EBC505B4
:101C1000A88C04F098FEFEBD0004024034000020B1
:101C2000280000203100002070B500224FF48071A0
:101C3000064800F05FFB0025002404E0A0B229461E
:101C4000FFF72CFF641CFF2CF8DD70BD000802407C
:101C500072B600BFFEE700000EB54FF478408C234B
:101C6000AA225F2100904B2004F074FA0020182172
:101C70004FF478424FF6FF73CDE9002102900CA299
:101C80006721572004F05FFE40F2DC50FFF798FA1E
:101C9000094800888C23AA225F2100904B2004F081
:101CA00059FA002005490870FFF7A2FA0EBD00009E
:101CB0004661696C6564000034000020300000203B
:101CC000014691F83500022803D0802048650120A4
:101CD0007047052081F835000868006820F0010091
:101CE0000A6810600020F3E7F8B504460020009071
:101CF0008C4800684FF41651B0FBF1F7A56D2E68C3
:101D000094F85C1008208840304098B12068006842
:101D100000F0040070B12068006820F00400216821
:101D2000086094F85C1008208840A860606D40F05E
:101D30000100606594F85C1001208840304068B173
:101D40002068406900F0800040B194F85C100120E8
:101D50008840A860606D40F00200606594F85C10F7
:101D600004208840304068B12068006800F002001C
:101D700040B194F85C1004208840A860606D40F089
:101D80000400606594F85C1010208840304078B3FF
:101D90002068006800F0080050B394F85C10102030
:101DA0008840A8602068006800F4802080B1206826
:101DB000006800F4002028B9206CC8B12046216CCE
:101DC000884715E0A06C98B12046A16C88470FE0C9
:101DD0002068006800F4807028B92068006820F04E
:101DE000080021680860206C10B12046216C8847EB
:101DF00094F85C10202088403040002865D020688E
:101E0000006800F0100000285FD094F85C102020DB
:101E10008840A86094F83500052828D1206800681B
:101E200020F01600216808602068406920F08000DA
:101E300021684861206C08B9A06C28B1206800684E
:101E400020F008002168086094F85C103F2088406A
:101E5000A860012084F8350000BF002084F8340019
:101E600000BF206D10B12046216D8847F8BD206865
:101E7000006800F4802080B12068006800F4002031
:101E800028B9606C10B12046616C88471DE0E06B9A
:101E9000D8B12046E16B884717E02068006800F45D
:101EA000807068B92068006820F010002168086020
:101EB000012084F8350000BF002084F8340000BF02
:101EC000E06B10B12046E16B8847606D38B3606D00
:101ED00000F00100F0B1052084F8350020680068AA
:101EE00020F001002168086000BF0098401C0090AD
:101EF000B84200D905E02068006800F00100002821
:101F0000F3D100BF012084F8350000BF002084F821
:101F1000340000BFE06C10B12046E16C884700BF80
:101F2000A4E700005C0500202DE9F04104460025EF
:101F300000F0E6F9074614B90120BDE8F081606AB7
:101F400000B100BF022084F8350000BF002084F8F3
:101F5000340000BF2068006820F00100216808609C
:101F60000AE000F0CDF9C01B052805D920206065E6
:101F7000032084F83500E0E72068006800F00100E5
:101F80000028EED12068056821480540D4E9010108
:101F90000843E16808432169084361690843A1696E
:101FA0000843E1690843216A08430543606A04283D
:101FB00003D1D4E90B01084305432068056020687C
:101FC000456925F00705606A0543606A04280DD15C
:101FD000A06A0543E06A48B12046FFF785F828B1BA
:101FE00040206065012084F83500A6E7206845613F
:101FF0002046FFF75FF8064694F85C103F208840C3
:10200000B06000206065012084F83500002094E76E
:102010003F8010F02DE9F04704460D4616461F4656
:102020004FF00008D4F8589000BF94F8340001280D
:1020300002D10220BDE8F087012084F8340000BFFF
:1020400094F83500012825D1022084F835000020BD
:1020500060653B46324629462046FFF79AF894F8D9
:102060005C103F208840C9F808002068006840F0F4
:10207000160021680860206C28B12068006840F0D4
:102080000800216808602068006840F001002168AD
:10209000086006E000BF002084F8340000BF4FF065
:1020A00002084046C6E7000070B5044600F028F973
:1020B00006462546681C10B104480078054400BF58
:1020C00000F01EF9801BA842FAD370BD580500200D
:1020D0007047000010B5044604480068204020B155
:1020E000024804602046FFF7F3FF10BD143C014096
:1020F000F8B502460B460025002400200021D6E05A
:10210000012606FA01F51E6806EA0504AC4274D100
:102110001E7906F00306012E04D01E7906F0030690
:10212000022E13D190684F000326BE40B0434F00EB
:10213000DE68BE4030439060506801268E40B04358
:102140001E79C6F300168E40304350601E7906F0AB
:102150000306032E09D0D0684F000326BE40B043CB
:102160004F009E68BE403043D0601E7906F00306E3
:10217000022E13D1CF0802F1200656F827004E0791
:10218000F70E0F26BE40B0434F07FF0E1E69BE403C
:102190003043CF0802F1200646F8270010684F00B0
:1021A0000326BE40B0431E7906F003064F00BE4032
:1021B000304310605E6806F44036002E76D000BFD3
:1021C000002600963C4E366846F480463A4F3E6004
:1021D0003E46366806F48046009600BF00BF374E84
:1021E0008F0856F827008E07370F0F26BE40B043E2
:1021F000334EB24202D1002624E057E0314EB242C3
:1022000001D101261EE0304EB24201D1022619E072
:102210002E4EB24201D1032614E02D4EB24201D11E
:1022200004260FE02B4EB24201D105260AE02A4EC9
:10223000B24201D1062605E0284EB24201D107265E
:1022400000E008268F073F0FBE4030431B4E8F082B
:1022500046F82700224E3068A0435E6806F48016D8
:1022600006B120431E4E3060361D3068A0435E68C4
:1022700006F4001606B12043194E361D3060184E84
:10228000361F3068A0435E6806F4003606B120436E
:10229000134E361F3060361F3068A0435E6806F468
:1022A000803606B120430E4E083E3060491C10298E
:1022B000FFF426AFF8BD0000443802400838014062
:1022C000000002400004024000080240000C0240EE
:1022D000001002400014024000180240001C02409E
:1022E000083C0140024613690B400BB1012000E09D
:1022F000002070470AB1816101E00B0483617047DF
:1023000001480068704700005005002070B5044681
:102310000CB9012070BD94F83D0028B9002084F864
:102320003C00204600F010FB242084F83D0020688B
:10233000006820F00100216808602068006840F40F
:102340000040216808602068006820F4004021688F
:10235000086000F0FFFC05465C496068884206D8CA
:102360005B48854201D2012007E0002005E0594882
:10237000854201D2012000E00020012800D1C9E7F8
:102380005548B5FBF0F62068406820F03F00304328
:10239000216848604D496068884201D8701C07E098
:1023A0004FF4967070434FF47A71B0FBF1F0401C1B
:1023B0002168096A21F03F01084321680862434906
:1023C0006068884214D8681E61684900B0FBF1F06B
:1023D000401CC0F30B00042801D204203DE0681E1D
:1023E00061684900B0FBF1F0401CC0F30B0034E021
:1023F000A06838B9681E616801EB4101B0FBF1F0DB
:10240000401C0AE0681E616801EBC10202EB011189
:10241000B0FBF1F0401C40F48040C0F30B0008B961
:1024200001201AE0A06848B9681E616801EB41010B
:10243000B0FBF1F0401CC0F30B000CE0681E6168BB
:1024400001EBC10202EB0111B0FBF1F0401CC0F343
:102450000B0040F4804040F400402168C9694CF60C
:10246000FF72914308432168C861D4E9070108431A
:102470002168096821F0C001084321680860D4E997
:10248000031008432168896848F2FF3291430843EA
:1024900021688860D4E9050108432168C96821F0F2
:1024A000FF0108432168C8602068006840F001000F
:1024B0002168086000202064202084F83D0000206E
:1024C000206384F83E0000BF24E70000A0860100DE
:1024D00080841E0000093D0040420F002DE9FC5F92
:1024E00004460F4690469946DDE90CAB0E9EFFF779
:1024F00007FF054694F83D00202870D119230122DA
:10250000B5492046009502F0A0FE10B10220BDE8BA
:10251000FC9F00BF94F83C00012801D10220F6E79F
:10252000012084F83C0000BF2068006800F0010032
:1025300028B92068006840F0010021680860206820
:10254000006820F4006021680860222084F83D00C3
:10255000402084F83E0000202064C4F824A0A4F8A1
:102560002AB0608D20859D48E0624B464246394640
:102570002046CDE9006502F015FD08B10120C6E74F
:10258000208D88B900BF002001902068406901902B
:1025900020688069019000BF00BF2068006840F497
:1025A00000702168086040E0208D012818D1206863
:1025B000006820F480602168086000BF002001905E
:1025C00020684069019020688069019000BF00BFC9
:1025D0002068006840F400702168086025E0F8E099
:1025E000208D022816D12068006820F480602168C0
:1025F00008602068006840F400602168086000BF3F
:102600000020019020684069019020688069019055
:1026100000BF0AE000BF00200190206840690190DF
:1026200020688069019000BF00BFC3E0208D0328AF
:102630007ED8208D012815D12A463146204602F049
:10264000E0FE08B1012062E720680069616A087055
:10265000606A401C6062208D401E2085608D401E97
:102660006085A7E0208D02282AD1334600225C49EC
:102670002046009502F0E9FD08B1012047E72068F7
:10268000006840F400702168086020680069616A91
:102690000870606A401C6062208D401E2085608D3D
:1026A000401E608520680069616A0870606A401C8D
:1026B0006062208D401E2085608D401E608579E01F
:1026C0003346002246492046009502F0BEFD08B17F
:1026D00001201CE72068006820F480602168086001
:1026E00020680069616A0870606A401C6062208D21
:1026F000401E2085608D401E60853346002238498B
:102700002046009502F0A1FD08B10120FFE62068F7
:10271000006840F400702168086020680069616A00
:102720000870606A401C6062208D401E208500E0B9
:1027300010E0608D401E608520680069616A087045
:10274000606A401C6062208D401E2085608D401EA6
:1027500060852FE02A463146204602F052FE08B13D
:102760000120D4E620680069616A0870606A401C34
:102770006062208D401E2085608D401E608520682F
:102780004069C0F38000A8B1208D032805D12068DE
:10279000006820F480602168086020680069616A30
:1027A0000870606A401C6062208D401E2085608D2C
:1027B000401E6085208D00287FF438AF202084F8EB
:1027C0003D00002084F83E0000BF84F83C0000BFBC
:1027D0009DE602209BE60000020010000000FFFFC3
:1027E000040001002DE9FC5F04460F46904699461F
:1027F000DDE90CAB0E9EFFF783FD054694F83D0026
:1028000020287DD1192301224D492046009502F050
:102810001CFD10B10220BDE8FC9F00BF94F83C00F5
:10282000012801D10220F6E7012084F83C0000BF16
:102830002068006800F0010028B92068006840F0B6
:102840000100216808602068006820F400602168A9
:102850000860212084F83D00402084F83E000020DC
:102860002064C4F824A0A4F82AB0608D20853548DF
:10287000E0624B46424639462046CDE9006502F00B
:1028800041FC08B10120C6E731E02A463146204626
:1028900002F0FCFD50B1206C042805D120680068CE
:1028A00040F40070216808600120B4E7606A007895
:1028B00021680861606A401C6062208D401E20858E
:1028C000608D401E608520684069C0F3800070B153
:1028D000208D60B1606A007821680861606A401CE0
:1028E0006062208D401E2085608D401E6085208D99
:1028F0000028CAD12A463146204602F073FC00E087
:102900001CE050B1206C042805D12068006840F418
:1029100000702168086001207DE72068006840F4AD
:10292000007021680860202084F83D00002084F8B1
:102930003E0000BF84F83C0000BF6CE702206AE75D
:10294000020010000000FFFF10B586B004461421FD
:1029500001A8FDF76FFC2A49206888424DD100BFCD
:10296000002000902748006840F0040025490860D6
:102970000846006800F00400009000BF00BF00BFE0
:10298000002000900846006840F0010008600846FA
:10299000006800F00100009000BF00BF48150190E2
:1029A000122002900120039003200490042005903F
:1029B00001A91548FFF79CFB4FF48070019012208D
:1029C000029001200390032004900420059001A9A7
:1029D0000E48FFF78DFB00BF002000900948103023
:1029E000006840F40000074910310860084600689C
:1029F00000F40000009000BF00BF06B010BD000052
:102A0000005C0040303802400008024000000240F4
:102A10000348006803490978084401490860704781
:102A2000500500205805002010B50D48006840F4FE
:102A300000700B4908600846006840F48060086038
:102A40000846006840F480700860032000F0A6F893
:102A50000F2000F007F800F02BF8002010BD000058
:102A6000003C024070B504460E4800784FF47A717D
:102A7000B1FBF0F00C490968B1FBF0F5284600F015
:102A8000D7FF08B1012070BD102C07D200222146CB
:102A9000501E00F045F80548046001E00120F2E70F
:102AA0000020F0E7580500205C05002054050020B8
:102AB00008B500BF002000900E48006840F4804038
:102AC0000C4908600846006800F48040009000BF90
:102AD00000BF00BF00200090081F006840F0805039
:102AE000091F08600846006800F08050009000BF91
:102AF00000BF08BD443802400146084600280DDBEF
:102B000000BF00BF00F01F0301229A4043099B0051
:102B100003F1E023C3F8002100BF00BF00BF7047EE
:102B20002DE9F05F80460D461646002705F028FA8D
:102B3000074639462A46334601F00700C0F1070A26
:102B4000BAF1040F02D94FF0040A01E0C0F1070AFC
:102B5000D14600F1040ABAF1070F02D24FF0000A81
:102B600001E0A0F1030AD4464FF0010A0AFA09FA7B
:102B7000AAF1010A0AEA020A0AFA0CFA4FF0010B5A
:102B80000BFA0CFBABF1010B0BEA030B4AEA0B044B
:102B90002146404605F0FCF9BDE8F09F00BF00F07B
:102BA0000702064B19684FF6FF031940044B0B430D
:102BB00043EA0221014B196000BF70470CED00E0B1
:102BC0000000FA0570B504460D460CB9012070BD31
:102BD0005848006800F00700A84209D255490D7016
:102BE0000846006800F00700A84201D00120EEE787
:102BF000207800F0020002281DD1207800F00400A7
:102C0000042805D14C48006840F4E0504A49086067
:102C1000207800F00800082805D14748006840F4F3
:102C20006040454908604448006820F0F000A16811
:102C3000084341490860207800F00100A8B36068AB
:102C4000012807D13C4808380068C0F34040B8B9B3
:102C50000120BCE76068022802D06068032807D121
:102C6000354808380068C0F3406048B90120AEE735
:102C7000314808380068C0F3400008B90120A6E7D1
:102C80002D48006820F00300616808432A49086065
:102C9000FFF736FB064609E0FFF732FB801B41F2E7
:102CA0008831884202D9032091E707E02248006872
:102CB00000F00C006168B0EB810FEDD11D48006899
:102CC00000F00700A84209D91A490D7008460068AB
:102CD00000F00700A84201D0012078E7207800F03A
:102CE0000400042807D11448006820F4E050E1688B
:102CF000084311490860207800F00800082808D12E
:102D00000D48006820F46040216940EAC1000A498A
:102D1000086000F03FF808490968C1F30311074A49
:102D2000515CC8400649086006480068FFF79AFEF3
:102D300000204CE7003C024008380240E4D500087F
:102D40005C05002054050020014800687047000021
:102D50005C05002000B5FFF7F7FF04490968C1F3DF
:102D60008221034A515CC84000BD0000083802407F
:102D7000F4D5000800B5FFF7E7FF04490968C1F37F
:102D80004231034A515CC84000BD0000083802408F
:102D9000F4D500082DE9F047002400250026A146BF
:102DA0002548006800F00C0020B1042805D0082850
:102DB0003AD105E0DFF8849039E0DFF8849036E01E
:102DC0001D48001F006800F03F041B48001F0068FA
:102DD00000F4800078B11A481749091F0968C1F347
:102DE0008811A0FB01700146224600233846FDF7FA
:102DF000E9F905460EE011480F49091F0968C1F3BA
:102E00008811A0FB01700146224600233846FDF7D9
:102E1000D9F905460848001F0068C0F30140401C6E
:102E20004600B5FBF6F902E0DFF8109000BF00BFE6
:102E30004846BDE8F0870000083802400024F4004E
:102E400000127A00F8B504460CB90120F8BD2078CC
:102E500000F00100002874D0F948006800F00C0070
:102E600004280DD0F648006800F00C00082813D1A3
:102E7000F348001F006800F48000B0F5800F0BD10C
:102E8000EF4808380068C0F34040002859D0606817
:102E9000002856D10120D9E700BF6068B0F5803F17
:102EA00008D1E7480838006840F48030E449083920
:102EB00008601EE06068B0F5A02F0DD1E04808382A
:102EC000006840F48020DE49083908600846006840
:102ED00040F4803008600CE0D9480838006820F4DD
:102EE0008030D749083908600846006820F48020FF
:102EF000086000BF606890B1FFF702FA054606E07F
:102F0000FFF7FEF9401B642801D903209EE7CC4857
:102F100008380068C0F340400028F1D011E0FFF706
:102F2000EFF9054606E0FFF7EBF9401B642801D9ED
:102F300003208BE7C24808380068C0F340400028EF
:102F4000F1D1207800F0020002285FD1BC4800686F
:102F500000F00C0058B1BA48006800F00C000828D6
:102F60001CD1B748001F006800F48000B0B9B44815
:102F700008380068C0F3400020B1E068012801D0A3
:102F8000012063E7AE480838006820F0F8002169A6
:102F900040EAC100AA490839086037E0E06800B398
:102FA0000120A8490860FFF7ABF9054606E0FFF7E6
:102FB000A7F9401B022801D9032047E7A048083899
:102FC0000068C0F340000028F1D09D480838006830
:102FD00020F0F800216940EAC100994908390860E9
:102FE00014E0002097490860FFF78AF9054606E0DB
:102FF000FFF786F9401B022801D9032026E79048F5
:1030000008380068C0F340000028F1D1207800F0B3
:10301000080008282CD16069A8B101208A490860FD
:10302000FFF76EF9054606E0FFF76AF9401B022834
:1030300001D903200AE782486C300068C0F34000E1
:103040000028F1D014E000207F490860FFF758F90C
:10305000054606E0FFF754F9401B022801D903207A
:10306000F4E677486C300068C0F340000028F1D1E6
:10307000207800F00400042870D100277048383010
:10308000006800F0805090B900BF002000906C48AC
:103090003830006840F0805069493831086008468F
:1030A000006800F08050009000BF00BF0127674813
:1030B000006800F48070B0B96448006840F4807023
:1030C00062490860FFF71CF9054606E0FFF718F9AA
:1030D000401B022801D90320B8E65C48006800F4D0
:1030E00080700028F2D000BFA068012808D15448A1
:1030F0006830006840F001005149683108601DE007
:10310000A06805280DD14E486830006840F00400E2
:103110004B49683108600846006840F001000860CB
:103120000CE047486830006820F0010044496831ED
:1031300008600846006820F00400086000BFA0682E
:10314000A8B1FFF7DDF8054609E0FFF7D9F8401B05
:1031500041F28831884202D9032077E626E03848D8
:1031600068300068C0F340000028EED013E0FFF79D
:10317000C7F8054608E0FFF7C3F8401B41F2883165
:10318000884201D9032061E62D4868300068C0F309
:1031900040000028EFD1012F07D1294838300068BE
:1031A00020F0805026493831086000BFA06900280F
:1031B00045D02348006800F00C0008285DD0A069C5
:1031C000022845D100201F490866FFF799F80546F7
:1031D00006E0FFF795F8401B022801D9032035E6E9
:1031E000174808380068C0F340600028F1D1D4E9DE
:1031F00007010843616A40EA81110122A06AC2EB1B
:10320000500041EA00412C20005D41EA00600C4979
:10321000091F086001200B490866FFF771F8054691
:1032200006E0FFF76DF8401B022801D903200DE6E8
:10323000034808380068C0F340600028F1D049E036
:103240000838024000004742800E474200700040AC
:10325000002021490866FFF753F8054606E0FFF70E
:103260004FF8401B022801D90320EFE51B480068F6
:10327000C0F340600028F2D12CE0A069012800D101
:10328000E4E51648001D0668A069012820D006F470
:103290008001E06981421BD106F03F01206A814232
:1032A00016D147F6C0703040616AB0EB811F0FD174
:1032B00006F440310122A06AC2EB5000B1EB004F8E
:1032C00006D106F070612C20005DB1EB006F01D0DB
:1032D0000120BBE50020B9E500004742003802406C
:1032E00010B504460CB9012010BD606A38B9606899
:1032F000B0F5827F00D105E00021E16102E000210C
:10330000216161610021A16294F8510028B9002077
:1033100084F85000204600F047F8022084F851005D
:103320002068006820F0400021680860A08800F450
:103330008270218901F404410843A18901F40061EC
:103340000843217C01F002010843217D01F00101C5
:103350000843218B01F400710843217F01F03801FB
:1033600008432021095D01F080010843218D01F40B
:1033700000510843216808600421A06901EA104057
:1033800094F8241001F01001084321684860206877
:10339000C06920F400602168C861002060650120D8
:1033A00084F8510000209FE710B586B00446142130
:1033B00001A8FCF73FFF37492068884230D100BFA1
:1033C000002000903448006840F480503249086082
:1033D0000846006800F48050009000BF00BF00BFA6
:1033E000002000902C481438006840F001002A4961
:1033F000143908600846006800F00100009000BF22
:1034000000BFE020019002200290002003900320E2
:1034100004900520059001A92048FEF769FE36E0DA
:103420001F492068884232D100BF002000901A480E
:10343000001F006840F400401749091F0860084653
:10344000006800F40040009000BF00BF00BF0020F3
:10345000009011481438006840F004000E491439F7
:1034600008600846006800F00400009000BF00BF3C
:103470004FF4A050019002200290002003900320FE
:1034800004900620059001A90648FEF731FE06B01B
:1034900010BD0000003001404438024000000240EE
:1034A000003C0040000802402DE9F84304468846ED
:1034B00016461D4694F85100012802D00220BDE8AE
:1034C000F8836068B0F5827F0CD1A06850B9042001
:1034D00084F851003346424641462046009500F0AC
:1034E00083F9ECE7FEF70CFF0746B8F1000F00D0B8
:1034F0000EB90120E3E700BF94F85000012801D184
:103500000220DCE7012084F8500000BF042084F88A
:10351000510000206065C4F83880A687E6872063E4
:10352000A086E08620646064A068B0F5004F0BD1EF
:103530002068006820F0400021680860206800686A
:1035400020F48040216808602068006800F0400096
:10355000402805D02068006840F0400021680860DD
:10356000E06830BB21E02068806800F0010050B1C5
:103570002068007BA16B0870A06B401CA063E08FEB
:10358000401EE08711E0FEF7BBFEC01BA84201D33E
:10359000681C00B94DB9012084F8510000BF00201B
:1035A00084F8500000BF032089E7E08F0028DAD1BB
:1035B00025E021E02068806800F0010050B120681B
:1035C000C068A16B0880A06B801CA063E08F401EC8
:1035D000E08711E0FEF794FEC01BA84201D3681CEF
:1035E00000B94DB9012084F8510000BF002084F8D3
:1035F000500000BF032062E7E08F0028DAD13A468E
:103600002946204603F08AFE08B12020606501208B
:1036100084F8510000BF002084F8500000BF606DA6
:1036200008B101204BE7002049E72DE9F8430446A3
:103630000F4616461D46FEF763FE8046B14694F8D7
:103640005100012802D00220BDE8F88307B10EB96D
:103650000120F9E700BF94F85000012801D10220B1
:10366000F2E7012084F8500000BF032084F85100E5
:10367000002060652763A686E686A063A087E087B2
:1036800060642064A068B0F5004F0BD1206800682A
:1036900020F04000216808602068006840F4804005
:1036A000216808602068006800F04000402805D0CC
:1036B0002068006840F0400021680860E068B0F5CC
:1036C000006F37D1606810B1B9F1010F09D1206BDB
:1036D00000882168C860206B801C2063E08E401E3B
:1036E000E08623E02068806800F0020002280AD10A
:1036F000206B00882168C860206B801C2063E08EEE
:10370000401EE08612E0FEF7FBFDA0EB0800A84299
:1037100001D3681C00B94DB9012084F8510000BFE5
:10372000002084F8500000BF03208DE7E08E0028C1
:10373000D8D136E0606810B1B9F1010F09D1206B22
:10374000007821680873206B401C2063E08E401EC7
:10375000E08623E02068806800F0020002280AD199
:10376000206B007821680873206B401C2063E08E7A
:10377000401EE08612E0FEF7C3FDA0EB0800A84261
:1037800001D3681C00B94DB9012084F8510000BF75
:10379000002084F8500000BF032055E7E08E002889
:1037A000D8D142462946204603F002FE08B1202027
:1037B0006065A06850B900BF002000902068C06814
:1037C000009020688068009000BF00BF012084F84E
:1037D000510000BF002084F8500000BF606D08B1A8
:1037E000012031E700202FE72DE9FE4F04460F4668
:1037F00090461D460C9E01200190FEF781FD8146FA
:1038000094F851B060680290AA46BBF1010F0BD04A
:103810000298B0F5827F04D1A06810B9BBF1040F03
:1038200002D00220BDE8FE8F1FB1B8F1000F00D01A
:103830000DB90120F6E700BF94F85000012801D12E
:103840000220EFE7012084F8500000BF94F85100F7
:10385000042802D0052084F8510000206065C4F8D7
:103860003880E587A5872763E586A58620646064A0
:103870002068006800F04000402805D020680068FB
:1038800040F0400021680860E068B0F5006F52D158
:10389000606810B1BAF1010F09D1206B008821686E
:1038A000C860206B801C2063E08E401EE0863BE0F9
:1038B0002068806800F00200022810D1E08E70B10C
:1038C000019801280BD1206B00882168C860206B0B
:1038D000801C2063E08E401EE0860020019020685E
:1038E000806800F0010068B1E08F58B12068C068BE
:1038F000A16B0880A06B801CA063E08F401EE08756
:1039000001200190FEF7FCFCA0EB0900B0420BD3B4
:10391000701C48B1012084F8510000BF002084F8D9
:10392000500000BF03207DE7E08E0028C0D1E08F6B
:103930000028BDD152E0606810B1BAF1010F09D181
:10394000206B007821680873206B401C2063E08E98
:10395000401EE0863CE02068806800F002000228FB
:1039600010D1E08E70B1019801280BD1206B007846
:1039700021680873206B401C2063E08E401EE086A7
:10398000002001902068806800F0010068B1E08F9D
:1039900058B12068C068A16B0870A06B401CA06380
:1039A000E08F401EE08701200190FEF7A9FCA0EB0C
:1039B0000900B04201D3701C00B94EB9012084F84F
:1039C000510000BF002084F8500000BF032029E709
:1039D000E08E0028BFD1E08F0028BCD14A46314696
:1039E000204603F0E5FC40B12020606500BF0020C8
:1039F00084F8500000BF012014E7A06850B900BF50
:103A0000002000902068C0680090206880680090C6
:103A100000BF00BF012084F8510000BF002084F8DF
:103A2000500000BF606D08B10120FBE60020F9E600
:103A300070B504462546681EB0F1807F01D3012091
:103A40000FE0681E4FF0E02148610F214FF0FF307A
:103A500004F09EFA00204FF0E02188610720086101
:103A6000002070BD7047704710B50346002200BFAC
:103A700093F83C00012801D1022010BD012083F8F9
:103A80003C0000BF22F0FF00CC6840EA040222F4B0
:103A900040708C6840EA040222F480604C6840EA7E
:103AA000040222F400600C6840EA040222F4805010
:103AB0000C6940EA040222F400504C6940EA040216
:103AC00022F48040CC6940EA04021868426400BFD6
:103AD000002083F83C0000BF00BFCEE730B50246AF
:103AE0000B4600BF92F83C00012801D1022030BDF6
:103AF000012082F83C0000BF022082F83D001068DF
:103B000044681068816824F07004186804431068E1
:103B10004460184D1068A8421BD01068B0F1804F67
:103B200017D0154D1068A84213D0144D1068A84244
:103B30000FD0134D1068A8420BD0124D1068A84248
:103B400007D0114D1068A84203D0104D1068A8424C
:103B500005D121F08001586801431068816001207F
:103B600082F83D0000BF002082F83C0000BF00BF8B
:103B7000BDE70000000001400004004000080040D4
:103B8000000C0040000401400040014000180040CB
:103B900010B504460CB9012010BD94F83D0028B9B9
:103BA000002084F83C00204600F026F8022084F82B
:103BB0003D00211D206803F065FD012084F84600CA
:103BC00000BF84F83E0001213F20015540200155EF
:103BD0004120015500BF00BF012084F8420043206E
:103BE0000155442001554520015500BF012084F8AE
:103BF0003D000020D0E7000038B504465949206850
:103C0000884218D100BF002000905748006840F05B
:103C10000100554908600846006800F00100009066
:103C200000BF00BF002211461820FEF779FF1820C0
:103C3000FEF762FF95E02068B0F1804F40D100BFF1
:103C4000002000904848001F006840F001004649ED
:103C5000091F08600846006800F00100009000BFDE
:103C600000BF4248424908604FF0C06048604021B0
:103C70003F4881600021C1604FF48061016189008B
:103C80004161890081618911C16100210162416244
:103C9000FEF74AF908B1FDF7DBFF00BF3449A16226
:103CA0000846846300BF00BF2163846300BF002215
:103CB00011461C20FEF734FF1C20FEF71DFF50E0CC
:103CC0002C49206888421AD100BF00200090264865
:103CD000001F006840F002002349091F08600846E1
:103CE000006800F00200009000BF00BF00221146F3
:103CF0001D20FEF715FF1D20FEF7FEFE31E01E49D8
:103D00002068884211D100BF002000901648001F93
:103D1000006840F008001449091F08600846006860
:103D200000F00800009000BF1BE0144920688842A2
:103D300017D100BF002000900B48006840F480308D
:103D4000094908600846006800F48030009000BF10
:103D500000BF002211461820FEF7E2FE1820FEF7F1
:103D6000CBFE38BD0000014044380240A060024054
:103D7000C00C002000040040000C00400040014046
:103D8000014691F83D00012801D001207047022032
:103D900081F83D000868C06840F001000B68D860F9
:103DA0001A4B086898421BD00868B0F1804F17D0B2
:103DB000174B0868984213D0164B086898420FD0EA
:103DC000154B086898420BD0144B0868984207D0EE
:103DD000134B0868984203D0124B086898420CD1E4
:103DE0000868806800F00702062A0CD0086800689E
:103DF00040F001000B68186005E00868006840F0BA
:103E000001000B6818600020C0E7000000000140BE
:103E10000004004000080040000C00400004014085
:103E2000004001400018004001460868C06820F0CA
:103E300001000A68D06000BF0868006A41F21112F0
:103E4000104050B90868006A9210104028B90868FC
:103E5000006820F001000A68106000BF012081F8AE
:103E60003D00002070472DE9F04104460D46002733
:103E700000BF94F83C00012802D10220BDE8F08187
:103E8000012084F83C0000BF022084F83D00206837
:103E9000866826F0770626F47F46206886602868C4
:103EA000502833D00CDC202850D004DC00284BD024
:103EB000102851D149E0302849D040284CD139E070
:103EC00060282DD0702807D0B0F5805F03D0B0F502
:103ED000005F41D10DE041E0D5E902136A68206836
:103EE00003F0D8FC2068866846F077062068866074
:103EF00034E0D5E902136A68206803F0CBFC20683F
:103F0000806840F480402168886027E0EA6869683A
:103F1000206803F0AFFD5021206803F0C6FC1DE0CF
:103F2000EA686968206803F0B8FD6021206803F042
:103F3000BCFC13E0EA686968206803F09BFD40213F
:103F4000206803F0B2FC09E000BF00BF00BF296891
:103F5000206803F0AAFC01E0012700BF00BF012098
:103F600084F83D0000BF002084F83C0000BF3846C4
:103F700084E72DE9F04104460D4614B90120BDE85F
:103F8000F08194F83D0028B9002084F83C002046D8
:103F900000F054F8022084F83D002068806844F264
:103FA0000701884321688860211D206803F06AFBAF
:103FB0002068D0F80880206886692068076A286829
:103FC00040EA080840F203308643A969A86840EA3D
:103FD0000120064340F60C4086434FF2F000864332
:103FE000E969E86840EA0120064328690001296A76
:103FF00040EA0130064327F0220727F08807696965
:10400000686840EA011007432068C0F8088020680B
:10401000866120680762012084F8460084F83E002B
:1040200001213F200155012084F842004320015521
:10403000012084F83D000020A1E7000010B586B003
:104040000446142101A8FCF7F5F836492068884297
:1040500030D100BF002000903348006840F00400D9
:10406000314908600846006800F00400009000BF75
:1040700000BF00BF002000902B481038006840F0BF
:1040800008002949103908600846006800F0080057
:10409000009000BF00BF4FF44050019002200290FA
:1040A0000020039004900220059001A91F48FEF70C
:1040B0001FF834E01E492068884230D100BF00203C
:1040C00000901948001D006840F002001649091DC3
:1040D00008600846006800F00200009000BF00BFC2
:1040E00000BF0020009010481038006840F0040025
:1040F0000D49103908600846006800F0040000907F
:1041000000BF00BFC0200190022002900020039059
:1041100004900320059001A90648FDF7E9FF06B0C9
:1041200010BD00000008004040380240000C024072
:1041300000040140000802402DE9F04304460D460A
:1041400094F83E603F20075D94F84280432010F8C9
:1041500004906DB9012E02D1B8F1010F02D00120F7
:10416000BDE8F083022084F83E0084F8420025E098
:10417000042D0CD1012F02D1B9F1010F01D0012082
:10418000EEE702213F2001554320015516E0012EA4
:1041900007D1012F05D1B8F1010F02D1B9F1010FFB
:1041A00001D00120DCE7022084F83E0002213F20FC
:1041B0000155022084F842004320015515B1042D19
:1041C0000CD105E001220021206803F0CFFA10E0B5
:1041D00001220421206803F0C9FA0AE0012200212B
:1041E000206803F0C3FA01220421206803F0BEFA1C
:1041F00000BF00BF2068006840F00100216808602F
:104200000020ADE77047704770B504462068C56868
:104210002068066906F00200022819D105F00200A4
:10422000022815D1401F21680861012020772068ED
:10423000806900F0030018B12046FFF7E4FF05E0B5
:10424000204600F035F9204600F0E9F900202077FB
:1042500006F00400042819D105F00400042815D143
:10426000C04321680861022020772068806900F43B
:10427000407018B12046FFF7C6FF05E0204600F069
:1042800017F9204600F0CBF90020207706F008004F
:10429000082819D105F00800082815D1C043216865
:1042A0000861042020772068C06900F0030018B17D
:1042B0002046FFF7A8FF05E0204600F0F9F8204669
:1042C00000F0ADF90020207706F01000102819D179
:1042D00005F01000102815D1C0432168086108209E
:1042E00020772068C06900F4407018B12046FFF7BD
:1042F0008AFF05E0204600F0DBF8204600F08FF949
:104300000020207706F0010048B105F0010030B12F
:104310006FF0010021680861204600F033FB06F0D1
:104320008000802809D105F08000802805D1C04395
:10433000216808612046FFF795FB06F04000402801
:1043400009D105F04000402805D1C043216808612B
:10435000204600F0A3FC06F02000202809D105F03B
:104360002000202805D1C043216808612046FFF7BE
:104370007AFB70BD10B586B00446142101A8FBF786
:1043800059FF4449206888421DD100BF0020009099
:104390004148006840F010003F4908600846006846
:1043A00000F01000009000BF00BF481501900220EF
:1043B00002900020039004900120059001A9374845
:1043C000FDF796FE64E02068B0F1804F1DD100BF7C
:1043D000002000903048006840F001002E4908603D
:1043E0000846006800F00100009000BF00BF0820F0
:1043F000019002200290002003900490012005907B
:1044000001A92748FDF774FE42E02649206888424A
:104410001DD100BF002000901F48006840F002003E
:104420001D4908600846006800F00200009000BFC7
:1044300000BF2020019002200290002003900490F1
:104440000220059001A91848FDF752FE20E0174907
:10445000206888421CD100BF002000900E480068F0
:1044600040F001000C4908600846006800F00100B7
:10447000009000BF00BF01200190022002900020A8
:10448000039004900220059001A90548FDF730FE35
:1044900006B010BD0000014030380240001002405C
:1044A000000002400004004000040240000C0040F4
:1044B00070472DE9F04104460D461646002700BF1F
:1044C00094F83C00012802D10220BDE8F0810120CF
:1044D00084F83C0000BF36B1042E1BD0082E31D02A
:1044E0000C2E5ED145E02946206803F0E7F92068EC
:1044F000806940F00800216888612068806920F0A8
:10450000040021688861206880692969084321685E
:10451000886148E02946206803F008FA206880692D
:1045200040F40060216888612068806920F4806020
:104530002168886120688069296940EA0120216832
:10454000886130E02946206803F02EFA2068C069AF
:1045500040F008002168C8612068C06920F00400AC
:104560002168C8612068C069296908432168C86159
:1045700019E02946206803F053FA2068C06940F426
:1045800000602168C8612068C06920F480602168EB
:10459000C8612068C069296940EA01202168C861B2
:1045A00001E0012700BF00BF00BF002084F83C00ED
:1045B00000BF384689E710B504460CB9012010BD8C
:1045C00094F83D0028B9002084F83C00204600F013
:1045D00025F8022084F83D00211D206803F052F8E0
:1045E000012084F8460000BF84F83E0001213F20EE
:1045F0000155402001554120015500BF00BF012059
:1046000084F84200432001554420015545200155BE
:1046100000BF012084F83D000020D0E770477047BC
:10462000704700002DE9F04704460D4616461F4628
:104630004FF0000815B994F83E000BE0042D02D1AC
:104640003F20005D06E0082D02D14020005D01E022
:104650004120005D022801D1BDE8F08715B994F82A
:104660003E000BE0042D02D13F20005D06E0082D46
:1046700002D14020005D01E04120005D012818D1F9
:1046800006B10FB90120E7E71DB9022084F83E000A
:1046900011E0042D03D102213F2001550BE0082D2C
:1046A00003D102214020015505E00221412001559E
:1046B00001E00120D0E735B1042D1FD0082D38D0FE
:1046C0000C2D6CD150E06049606AC1635F49606A3B
:1046D00001645F49606AC164216801F134023B46AC
:1046E0003146606AFDF796FC08B10120B4E7206806
:1046F000C06840F400702168C86053E05249A06A65
:10470000C1635249A06A01645149A06AC164216829
:1047100001F138023B463146A06AFDF77BFC08B147
:10472000012099E72068C06840F480602168C86073
:1047300038E04549E06AC1634449E06A016444499C
:10474000E06AC164216801F13C023B463146E06AFF
:10475000FDF760FC08B101207EE72068C06840F4E6
:1047600000602168C8601DE03749206BC16337498C
:10477000206B01643649206BC164216801F140025D
:104780003B463146206BFDF745FC08B1012063E74D
:104790002068C06840F480502168C86002E04FF093
:1047A000010800BF00BFB8F1000F4AD1012229461D
:1047B000206802F0DBFF27492068884203D02649A1
:1047C0002068884201D1012000E0002028B1206843
:1047D000406C40F40040216848641E4920688842CB
:1047E0001BD02068B0F1804F17D01C492068884248
:1047F00013D01B49206888420FD01A49206888428C
:104800000BD015492068884207D017492068884294
:1048100003D01649206888420DD12068806800F0D6
:104820000709B9F1060F0CD02068006840F00100BC
:104830002168086005E02068006840F001002168F8
:104840000860404608E700008F770008F777000807
:1048500037780008000001400004014000040040D7
:1048600000080040000C00400040014000180040DB
:1048700070B504460D46002635B1042D0ED0082D26
:1048800016D00C2D28D11DE02068C06820F40070DF
:104890002168C860606AFDF713FA1FE02068C068ED
:1048A00020F480602168C860A06AFDF709FA15E06D
:1048B0002068C06820F400602168C860E06AFDF7E5
:1048C000FFF90BE02068C06820F480502168C860C0
:1048D000206BFDF7F5F901E0012600BF00BF002EB7
:1048E0004AD100222946206802F040FF234920686F
:1048F000884203D022492068884201D1012000E08B
:10490000002090B100BF2068006A41F211110840F8
:1049100050B92068006A8910084028B92068406CA6
:1049200020F400402168486400BF00BF2068006A8E
:1049300041F21111084050B92068006A89100840FE
:1049400028B92068006820F001002168086000BFD5
:104950001DB9012084F83E000EE0042D03D1012191
:104960003F20015508E0082D03D1012140200155C9
:1049700002E0012141200155304670BD0000014098
:10498000000401402DE9F0410446B048844209D1B9
:10499000AF480068401CAE490860AE480068401C43
:1049A000AC490860AB480068AB49884208D1002098
:1049B000A849086001F012F89FEDA80A01F00CF96F
:1049C000A3480068B0F5FA5F7ED10020A0490860D6
:1049D000A3480068406AA3490860A3480068406A89
:1049E000A24908609F4800684042A14909680844FC
:1049F000A0490860084600684EF66021884206DD3E
:104A00009C480068A0F57F40FF389A4908609948A3
:104A100000689949884205DA96480068090C0844FC
:104A2000944908609148006894490968401A94497B
:104A30000860084600684EF66021884206DD90480E
:104A40000068A0F57F40FF388D4908608C480068F9
:104A50008949884205DA8A480068090C084488496F
:104A6000086080480068824908608048006883497F
:104A70000860002506E0A8B200231A46194603F094
:104A8000FDF96D1C082DF6DB7E480068032818D858
:104A90007D4840780A2190FBF1F0C5B27A48007851
:104AA00090FBF1F0C6B27848807890FBF1F0C7B285
:104AB0007449097801F003002B463246394603F069
:104AC000DDF97048006800E093E070B16D4800685F
:104AD00004280AD86C4D6B782A78A978694D2D780E
:104AE0006D1E05F0030003F0C9F96648006802284E
:104AF0001DD364480068052819D8634840780A2106
:104B000090FBF1F0C5B26048007890FBF1F0C6B2BE
:104B10005D48807890FBF1F0C7B25A490978891E48
:104B200001F003002B463246394603F0A7F95548F9
:104B3000006803281AD8544840780A2190FBF1F005
:104B4000C5B25148007890FBF1F0C6B24E4880786B
:104B500090FBF1F0C7B24B49097801F00301C1F1B4
:104B600007002B463246394603F088F9454800686D
:104B700080B14448006804280CD8434D6B782A78EB
:104B8000A978404D2D786D1E05F00305C5F107008D
:104B900003F074F93B48006802281FD339480068C5
:104BA00005281BD8384840780A2190FBF1F0C5B29F
:104BB0003548007890FBF1F0C6B23348807890FB1E
:104BC000F1F0C7B22F490978891E01F00301C1F144
:104BD00007002B463246394603F050F92948006851
:104BE000401C2849086008460068082801D10020B8
:104BF00008602648844226D14FF480512448FDF7AE
:104C000071FB10B9FC20234908704FF40051204873
:104C1000FDF768FB10B9FD201E49087004211E48ED
:104C2000FDF760FB10B9FF201A49087008211A48E7
:104C3000FDF758FB10B9FE2016490870FCF768FC18
:104C40001248FFF7F1F8BDE8F0810000100B0020DA
:104C50000C0000201400002080380100CDCCCC3D99
:104C6000A00B002018000020300C002020000020A5
:104C70001C00002004000020A015FFFF24000020DD
:104C8000080000201000002000000020780C002008
:104C9000000402403000002000080240704710B5B8
:104CA00004460CB9012010BDA06900B100E000BFAE
:104CB00094F8410028B9002084F84000204600F014
:104CC00029F8242084F841002068C06820F40050AE
:104CD0002168C860204602F02BFF2068006920F49C
:104CE0009040216808612068406920F02A0021680E
:104CF00048612068C06840F400502168C860002006
:104D00006064202084F8410084F842000020606341
:104D100000BFC8E710B586B00446142101A8FBF710
:104D200089FA2A49206888424DD100BF00200090AE
:104D30002748006840F010002549086008460068D0
:104D400000F01000009000BF00BF00BF00200090E6
:104D50001F481438006840F001001D4914390860EC
:104D60000846006800F00100009000BF00BF4FF44B
:104D7000C060019002200290002003900320049064
:104D80000720059001A91348FDF7B2F9124813490D
:104D900008604FF000604860002110488160C160E9
:104DA0004FF480610161002141618161C161016253
:104DB0004162FDF7B9F808B1FCF74AFF00BF0748A8
:104DC000E063846300BF06B010BD00000010014026
:104DD000443802400000024040640240680D002058
:104DE0002DE9F84F04460E46174699464FF0000A43
:104DF00094F84200202852D106B117B90120BDE82D
:104E0000F88F00206064222084F842000020206394
:104E1000FDF776FA8246A785E785A068B0F5805F42
:104E200004D1206910B90025B04602E035464FF0A4
:104E300000082CE05346002220212046CDF80090A7
:104E400002F08CFF20B1202084F842000320D6E736
:104E500045B920684068C0F30800A8F8000008F1D0
:104E6000020811E0A068B0F5805F03D0A06828B9FF
:104E7000206918B920684068287004E020684068FC
:104E800000F07F0028706D1CE08D401EE085E08DF5
:104E90000028CFD1202084F842000020AFE7022074
:104EA000ADE72DE9F84F04460E46174699464FF0F8
:104EB000000A94F84100202850D106B117B901200A
:104EC000BDE8F88F00206064212084F84100FDF7E0
:104ED00017FA8246A784E784A068B0F5805F04D102
:104EE000206910B90025B04602E035464FF00008B1
:104EF0001EE05346002280212046CDF8009002F0AB
:104F00002DFF20B1202084F841000320D8E745B9C7
:104F1000B8F80000C0F308002168486008F10208F2
:104F200003E02878216848606D1CE08C401EE08416
:104F3000E08C0028DDD15346002240212046CDF8E8
:104F4000009002F00BFF20B1202084F841000320E4
:104F5000B6E7202084F841000020B1E70220AFE747
:104F600000BFFEE7014608684069C0F38020B0B189
:104F70006FF480600A68506100200863202081F887
:104F80003D00002081F83E00086C40F004000864F9
:104F900000BF002081F83C0000BF012070470020C6
:104FA000FCE700002DE9F84304460F4615469946F4
:104FB000DDE908862068006840F4806021680860A8
:104FC0002068006840F48070216808604346002231
:104FD0004FF001112046009600F037F960B12068CB
:104FE000006800F48070B0F5807F02D14FF400704B
:104FF00020640320BDE8F88307F0FE002168086103
:10500000334642463E49204600F07EF908B1012071
:10501000F0E700BF00200090206840690090206801
:105020008069009000BF00BF32464146204600F034
:105030002DFA50B1206C042805D12068006840F496
:105040000070216808600120D4E7B9F1010F03D195
:10505000E8B22168086117E0C5F3072021680861FC
:1050600032464146204600F011FA50B1206C042827
:1050700005D12068006840F40070216808600120B4
:10508000B8E7E8B22168086132464146204600F0A0
:10509000FDF950B1206C042805D12068006840F467
:1050A0000070216808600120A4E72068006840F4CF
:1050B000807021680860434600224FF001112046AD
:1050C000009600F0C2F858B12068006800F48070C3
:1050D000B0F5807F02D14FF400702064032089E78F
:1050E000F8B240F0010021680861334642460449A5
:1050F000204600F009F908B101207BE7002079E79C
:10510000020001002DE9F8430446884615469946F9
:10511000DDE908672068006840F480702168086055
:10512000334600224FF001112046009700F08DF821
:1051300060B12068006800F48070B0F5807F02D113
:105140004FF4007020640320BDE8F88308F0FE00EF
:10515000216808613B4632462149204600F0D4F8D8
:1051600008B10120F0E700BF0020009020684069EE
:10517000009020688069009000BF00BF3A46314629
:10518000204600F083F950B1206C042805D1206836
:10519000006840F40070216808600120D4E7B9F18C
:1051A000010F03D1E8B22168086117E0C5F30720B9
:1051B000216808613A463146204600F067F950B14F
:1051C000206C042805D12068006840F40070216834
:1051D00008600120B8E7E8B2216808610020B3E761
:1051E0000200010070B504460D46164625E0204633
:1051F000FFF7B8FE08B1012070BD681CE8B1FDF7EB
:105200007FF8801BA84200D8BDB920684069C0F370
:10521000800090B900202063202084F83D00002009
:1052200084F83E00206C40F02000206400BF002085
:1052300084F83C0000BF0120DEE720684069C0F32D
:1052400080000028D3D00020D6E72DE9F0410446A5
:105250000D4617461E46DDF8188038E0701CA8B3CE
:10526000FDF74EF8A0EB0800B04200D876BBC5F3BE
:10527000074001280AD120684069A9B20840A9B2B4
:10528000884201D101200BE0002009E020688069FC
:10529000A9B20840A9B2884201D1012000E0002053
:1052A000B84214D100202063202084F83D00002063
:1052B00084F83E00206C40F02000206400BF0020F5
:1052C00084F83C0000BF0120BDE8F081FFE7C5F392
:1052D000074001280AD120684069A9B20840A9B254
:1052E000884201D101200BE0002009E0206880699C
:1052F000A9B20840A9B2884201D1012000E00020F3
:10530000B842ABD00020DFE72DE9F04104460D465E
:1053100016461F4658E020684069C0F38020E8B177
:105320002068006840F40070216808606FF48060B5
:105330002168486100202063202084F83D0000207F
:1053400084F83E00206C40F00400206400BF002080
:1053500084F83C0000BF0120BDE8F081701C90B3D0
:10536000FCF7CEFFC01BB04200D866BBC5F30740B8
:1053700001280AD120684069A9B20840A9B2884230
:1053800001D101200BE0002009E020688069A9B26A
:105390000840A9B2884201D1012000E0002090B964
:1053A00000202063202084F83D00002084F83E0087
:1053B000206C40F02000206400BF002084F83C00F6
:1053C00000BF0120C8E7FFE7C5F3074001280AD165
:1053D00020684069A9B20840A9B2884201D10120E1
:1053E0000BE0002009E020688069A9B20840A9B25A
:1053F000884201D1012000E0002000288BD000204D
:10540000AAE770B504460D46164637E020684069A5
:10541000C0F30010A0B16FF01000216848610020B7
:105420002063202084F83D00002084F83E00206C9A
:10543000206400BF002084F83C0000BF012070BD44
:10544000FCF75EFF801BA84200D8BDB92068406908
:10545000C0F3801090B900202063202084F83D0024
:10546000002084F83E00206C40F02000206400BF43
:10547000002084F83C0000BF0120E0E7206840697C
:10548000C0F380100028C1D00020D8E770B50446D2
:105490000D46164625E02046FFF764FD08B10120C1
:1054A00070BD681CE8B1FCF72BFF801BA84200D838
:1054B000BDB920684069C0F3C01090B900202063D6
:1054C000202084F83D00002084F83E00206C40F04D
:1054D0002000206400BF002084F83C0000BF0120B1
:1054E000DEE720684069C0F3C0100028D3D0002058
:1054F000D6E7000010B5ADF5BA6D00240020459048
:1055000046904790429043904490039004900590B9
:1055100000900190029000BF9FEDFE0A8DED450ABC
:105520009FEDFC0A8DED460A9FEDFA0A8DED470AC4
:105530009FEDF80A8DED420A9FEDF60A8DED430AC4
:105540009FEDF40A8DED440A0020F3490883002101
:10555000F148418381839FEDEF0A8DED030A9FEDB2
:10556000ED0A8DED040A9FEDEB0A8DED050A9FED26
:10557000E90A8DED000A9FEDE70A8DED010A9FED26
:10558000E50A8DED020A0020E34948820021E24845
:105590008182C182002452E003F02CF9DF48B0F987
:1055A000000000EE100AB8EEC00A04EB440048A95F
:1055B00001EB800080ED000AD848B0F9020000EE4F
:1055C000100AB8EEC00A04EB440001EB800080ED45
:1055D000010AD248B0F9040000EE100AB8EEC00A81
:1055E00004EB440001EB800080ED020A9DED450ACA
:1055F00004EB440001EB8000D0ED000A30EE200AFD
:105600008DED450A9DED460A04EB440001EB800058
:10561000D0ED010A30EE200A8DED460A9DED470AD5
:1056200004EB440001EB8000D0ED020A30EE200ACA
:105630008DED470A0520FCF737FD601C84B2642C11
:10564000AADB9DED450ADFEDB60A80EE201A8DED4E
:10565000451A9DED460ADFEDB20A80EE201A8DED67
:10566000461A9DED470ADFEDAE0A80EE201A8DED59
:10567000471A002452E003F099F8A848B0F9060050
:1056800000EE100AB8EEC00A04EB440006A901EBD4
:10569000800080ED000AA148B0F9080000EE100A71
:1056A000B8EEC00A04EB440001EB800080ED010A73
:1056B0009A48B0F90A0000EE100AB8EEC00A04EBEE
:1056C000440001EB800080ED020A9DED030A04EB2B
:1056D000440001EB8000D0ED000A30EE200A8DED91
:1056E000030A9DED040A04EB440001EB8000D0EDB9
:1056F000010A30EE200A8DED040A9DED050A04EB47
:10570000440001EB8000D0ED020A30EE200A8DED5E
:10571000050A0A20FCF7C8FC601C84B2142CAADB22
:105720009DED030AF3EE040A80EE201A8DED031AB4
:105730009DED040AF3EE040A80EE201A8DED041AA2
:105740009DED050AF3EE040A80EE201A8DED051A90
:1057500000245CE004EB440048A901EB800090EDDC
:10576000000ADDED450A30EE600ADFED6E0A60EEFC
:10577000200A04EB440001EB800090ED000A9DED4F
:10578000451A30EE411A9DED420A00EE810A8DED78
:10579000420A04EB440001EB800090ED010ADDEDCC
:1057A000460A30EE600ADFED5F0A60EE200A04EB85
:1057B000440001EB800090ED010A9DED461A30EEA9
:1057C000411A9DED430A00EE810A8DED430A04EB78
:1057D000440001EB800090ED020ADDED470A30EE57
:1057E000600ADFED500A60EE200A04EB440001EB92
:1057F000800090ED020A9DED471A30EE411A9DEDB2
:10580000440A00EE810A8DED440A601C84B2642CC7
:10581000A0DB00245CE004EB440006A901EB80005F
:1058200090ED000ADDED030A30EE600ADFED3E0A7E
:1058300060EE200A04EB440001EB800090ED000ACA
:105840009DED031A30EE411A9DED000A00EE810A2B
:105850008DED000A04EB440001EB800090ED010A9D
:10586000DDED040A30EE600ADFED2F0A60EE200A5B
:1058700004EB440001EB800090ED010A9DED041A59
:1058800030EE411A9DED010A00EE810A8DED010A0C
:1058900004EB440001EB800090ED020ADDED050A07
:1058A00030EE600ADFED200A60EE200A04EB4400CF
:1058B00001EB800090ED020A9DED051A30EE411AD1
:1058C0009DED020A00EE810A8DED020A601C84B291
:1058D000142CA0DB9DED420ADFED140AB4EEE00AC1
:1058E000F1EE10FA77D29DED430ADFED100AB4EE27
:1058F000E00AF1EE10FA6ED29DED440ADFED0B0ADC
:10590000B4EEE00AF1EE10FA65D29DED000ADFED8B
:10591000080A0FE000000000C80D0020B4090020B4
:105920000000C842B57E253C3694573D00004842F1
:105930000000FA44B4EEE00AF1EE10FA4BD29DED0D
:10594000010A5FED050AB4EEE00AF1EE10FA42D268
:105950009DED020A5FED0A0AB4EEE00AF1EE10FADC
:1059600039D29DED450ABDEEC00A10EE100A00B214
:10597000194908839DED460ABDEEC00A10EE100AD3
:1059800001B2154841839DED470ABDEEC00A10EEF5
:10599000100A01B2104881839DED030ABDEEC00AD2
:1059A00010EE100A00B20C4948829DED040ABDEECB
:1059B000C00A10EE100A01B2074881829DED050A67
:1059C000BDEEC00A10EE100A01B20348C1820DF507
:1059D000BA6D10BDFFE79FE5C80D002010B590B06F
:1059E00000200D900E900F900A900B900C90079055
:1059F0000890099004900590069002F0FBFE02F0DA
:105A0000D5FE7048B0F9000000EE900AF8EEE00A0A
:105A1000B0EE600A6C4803F0B7F86B4890ED020AEC
:105A2000BDEEC00A10EE100A00B200EE100AB8EE89
:105A3000C00A8DED0A0A9DED0A0AF2EE040A80EE14
:105A4000201AB2EE040A21EE000A8DED0A0A5D4822
:105A5000B0F9020000EE900AF8EEE00AB0EE600A3B
:105A60005948183003F090F8574890ED080ABDEEF9
:105A7000C00A10EE100A00B200EE100AB8EEC00A1A
:105A80008DED0B0A9DED0B0AB2EE041AC0EE010A71
:105A9000B2EE040A20EE800A8DED0B0A4948B0F9F7
:105AA000040000EE900AF8EEE00AB0EE600A464804
:105AB000303003F069F8444890ED0E0ABDEEC00A9C
:105AC00010EE100A00B200EE100AB8EEC00A8DED1A
:105AD0000C0A9DED0C0AF2EE040A80EE201AB2EEDA
