:020000040800F2
:10000000600F0020A10100088D4800083131000870
:100010009D47000837030008515000080000000009
:10002000000000000000000000000000F54900088A
:100030002B0400080000000091480008F749000860
:10004000BB010008BB010008BB010008BB010008A0
:10005000BB010008BB010008BB010008BB01000890
:10006000F90700080D080008BB010008BB010008E3
:10007000BB010008BB010008BB010008BB01000870
:10008000BB0100083D030008BB010008BB010008DC
:10009000BB010008BB010008BB010008BB01000850
:1000A000BB010008BB010008BB010008BB01000840
:1000B000C94A0008D94A0008BB010008BB01000872
:1000C000BB010008BB010008BB010008BB01000820
:1000D000BB010008BB010008BB010008BB01000810
:1000E000D9070008BB010008BB010008BB010008DC
:1000F000BB010008BB010008BB010008BB010008F0
:10010000BB010008BB010008BB010008BB010008DF
:10011000BB010008BB010008BB010008BB010008CF
:10012000BB010008BB010008BB010008BB010008BF
:10013000BB010008BB010008BB010008BB010008AF
:10014000BB010008BB010008BB010008BB0100089F
:10015000BB010008BB010008BB010008BB0100088F
:10016000BB010008BB010008BB010008BB0100087F
:10017000BB010008BB010008BB0100080000000033
:10018000BB010008BB010008DFF810D000F092F8B6
:1001900000480047A5520008AFF30080600F002020
:1001A0000648804706480047FEE7FEE7FEE7FEE711
:1001B000FEE7FEE7FEE7FEE7FEE7FEE7B54A0008DA
:1001C000890100082DE9F05F0546002092469B4614
:1001D00088460646814640241BE02846414647465D
:1001E000224600F057F853465A46C01A914110D3A0
:1001F00011461846224600F03EF82D1A67EB01081A
:100200004F4622460120002100F035F817EB000987
:100210004E41201EA4F10104DFDC484631462A4647
:100220004346BDE8F09FD2B201E000F8012B491E21
:10023000FBD270470022F6E710B513460A46044683
:100240001946FFF7F0FF204610BD30B50B460146BA
:1002500000202022012409E021FA02F59D4205D365
:1002600003FA02F5491B04FA02F52844151EA2F10F
:100270000102F1DC30BD202A04DB203A00FA02F151
:10028000002070479140C2F1200320FA03F3194384
:1002900090407047202A04DB203A21FA02F0002126
:1002A000704721FA02F3D040C2F120029140084386
:1002B00019467047064C074D06E0E06840F0010320
:1002C00094E8070098471034AC42F6D3FFF760FF7C
:1002D000489E0008689E000870B58D1810F8014B04
:1002E00014F0030201D110F8012B231106D110F8EC
:1002F000013B03E010F8016B01F8016B521EF9D1CC
:10030000ABB110F8012B04F00C048A1A0C2C03D0AA
:10031000A2EB84129B1C08E010F8014BA2EB042214
:10032000F8E712F8014B01F8014B5B1EF9D5A94221
:10033000D4D3002070BD00BFFEE7000010B5024816
:1003400000F072FA10BD0000B80A002001460878DB
:1003500010381823B0FBF3F20848805CC865032A04
:1003600005D908686FF30900001D886503E0086877
:100370006FF309008865886D70470000969C00083F
:10038000014600208A6A8B69CBB932B1012A0DD0AF
:10039000022A03D0032A10D10EE000BFCB6A03F07B
:1003A0008073B3F1807F00D1012007E0CB6AB3F105
:1003B000C07F00D1012001E000E000BF34E08B6984
:1003C000B3F5005F1AD132B1012A07D0022A03D057
:1003D000032A11D10AE000BF01200EE0CB6A03F02E
:1003E0008073B3F1807F00D1012006E0CB6AB3F1C6
:1003F000C07F00D1012000E000BF15E032B1012A2A
:1004000005D0022A04D0032A0CD103E000BF00BFAC
:10041000012008E0CB6A03F08073B3F1807F00D144
:10042000012000E000BF00BF70477047FEB5804864
:100430000078FD2803D07E480078FC280FD10020EA
:10044000F0231A460146009003F066F945F2584041
:100450003223F02200210090084603F05DF9754830
:10046000006805780024062D01DD062000E02846FE
:10047000064671480078062803DA6F480078A842DB
:1004800014DB6D480078FF2802D1681E6A490870A5
:1004900069480078A84202DB002067490870664876
:1004A0000078062802DB002063490870614909686A
:1004B000486800F04DF95F48006800EB4410007E8A
:1004C000002856D1002451E05A48006800EB44103F
:1004D000C08B30BB00211820574A1278944202D1B9
:1004E00045F2584200E00022524FCDE9002002912F
:1004F0003F68FF8BC4EB041C07EB4C07B9B24D4FB0
:100500003F6807EB44177B8B4A4F3F6807EB441764
:10051000BA68484F3F6807EB4417B88B03F094FA6A
:1005200022E000201821444A1278944202D145F278
:10053000584200E000223F4FCDE9002102903F6881
:1005400007EB44177B8B3B4F3F6807EB4417BA68B8
:10055000384F3F6807EB4417F98B364F3F6807EB7E
:100560004417B88B03F070FA601CC4B2B442ABDB22
:100570005CE03048006800EB4410007E012855D153
:10058000002451E02B48006800EB4410C08B30BBC6
:1005900000211820284A1278944202D145F258428C
:1005A00000E00022234FCDE9002002913F68FF8B3D
:1005B000C4EB041C07EB4C07B9B21E4F3F6807EBB6
:1005C00044177B8B1B4F3F6807EB4417BA68194FE2
:1005D0003F6807EB4417B88B03F0FCFC22E00020D7
:1005E0001821154A1278944202D145F2584200E08F
:1005F0000022104FCDE9002102903F6807EB44171D
:100600007B8B0C4F3F6807EB4417BA68094F3F6874
:1006100007EB4417F98B074F3F6807EB4417B88B7C
:1006200003F0D8FC601CC4B2B442ABDBFEBD0000DA
:1006300028000020200000202900002010B53F489D
:100640000078FF280BD03D480078FE2807D03B48B3
:100650000078FD2803D039480078FC286AD1374853
:100660000078FC284FD0FD2813D0FE2809D0FF28A1
:100670005ED133480078401E31490870FFF7D6FE3E
:1006800057E02F480078401C2D490870FFF7CEFE38
:100690004FE02C4800682A49097800EB4110007BA4
:1006A000652802D066282BD120E02648006824491E
:1006B000097800EB41100069B0B122480068224976
:1006C0000860204800681E49097800EB4110006965
:1006D0001C4908601A4800781C4908700020184915
:1006E0000870FFF7A3FE00E00BE00AE01548006881
:1006F0001349097800EB4110407B00B901E000E0AC
:1007000000BF00BF15E01048006878B10E480068CF
:100710000C4908600846006840690B4908600B48AE
:10072000007807490870FFF781FE00E001E000E073
:1007300000BF00BF00200149087010BD2800002044
:100740002900002020000020240000202A00002092
:100750003EB504460020202145F258424FF6FF7373
:10076000CDE90021029022460A21322003F06CF9E3
:100770003EBD00003EB504460D464FF47A7001219F
:100780000B462246CDE900510290A121034800F01A
:10079000FBFB08B900203EBD0120FCE70408002057
:1007A00013B584B004464FF47A70012105AA0B46B4
:1007B000CDE9002102902246A021064800F068FD04
:1007C00028B9052000F0C6F9002006B010BD0120B0
:1007D000FBE700000408002010B5064801F01CFEED
:1007E0004FF4805000F0CCF94FF4005000F0C8F9FD
:1007F00010BD00009809002010B5034801F00CFE60
:10080000042000F0BDF910BD9809002010B5034880
:1008100001F002FE082000F0B3F910BD9809002095
:1008200072B600BFFEE70000F8B504460020009055
:100830008C4800684FF41651B0FBF1F7A56D2E6897
:1008400094F85C1008208840304098B12068006817
:1008500000F0040070B12068006820F004002168F6
:10086000086094F85C1008208840A860606D40F033
:100870000100606594F85C1001208840304068B148
:100880002068406900F0800040B194F85C100120BD
:100890008840A860606D40F00200606594F85C10CC
:1008A00004208840304068B12068006800F00200F1
:1008B00040B194F85C1004208840A860606D40F05E
:1008C0000400606594F85C1010208840304078B3D4
:1008D0002068006800F0080050B394F85C10102005
:1008E0008840A8602068006800F4802080B12068FB
:1008F000006800F4002028B9206CC8B12046216CA3
:10090000884715E0A06C98B12046A16C88470FE09D
:100910002068006800F4807028B92068006820F022
:10092000080021680860206C10B12046216C8847BF
:1009300094F85C10202088403040002865D0206862
:10094000006800F0100000285FD094F85C102020B0
:100950008840A86094F83500052828D120680068F0
:1009600020F01600216808602068406920F08000AF
:1009700021684861206C08B9A06C28B12068006823
:1009800020F008002168086094F85C103F2088403F
:10099000A860012084F8350000BF002084F83400EE
:1009A00000BF206D10B12046216D8847F8BD20683A
:1009B000006800F4802080B12068006800F4002006
:1009C00028B9606C10B12046616C88471DE0E06B6F
:1009D000D8B12046E16B884717E02068006800F432
:1009E000807068B92068006820F0100021680860F5
:1009F000012084F8350000BF002084F8340000BFD7
:100A0000E06B10B12046E16B8847606D38B3606DD4
:100A100000F00100F0B1052084F83500206800687E
:100A200020F001002168086000BF0098401C009081
:100A3000B84200D905E02068006800F001000028F5
:100A4000F3D100BF012084F8350000BF002084F8F6
:100A5000340000BFE06C10B12046E16C884700BF55
:100A6000A4E70000380400202DE9F04104460025E9
:100A700000F09CF9074614B90120BDE8F081606AD6
:100A800000B100BF022084F8350000BF002084F8C8
:100A9000340000BF2068006820F001002168086071
:100AA0000AE000F083F9C01B052805D92020606505
:100AB000032084F83500E0E72068006800F00100BA
:100AC0000028EED12068056821480540D4E90101DD
:100AD0000843E16808432169084361690843A16943
:100AE0000843E1690843216A08430543606A042812
:100AF00003D1D4E90B010843054320680560206851
:100B0000456925F00705606A0543606A04280DD130
:100B1000A06A0543E06A48B12046FFF731FC28B1DE
:100B200040206065012084F83500A6E72068456113
:100B30002046FFF70BFC064694F85C103F208840E7
:100B4000B06000206065012084F83500002094E743
:100B50003F8010F070B5044600F028F9064625469F
:100B6000681C10B104480078054400BF00F01EF96D
:100B7000801BA842FAD370BD3404002070470000E7
:100B800010B5044604480068204020B102480460C3
:100B90002046FFF7F3FF10BD143C0140F8B50246B4
:100BA0000B460025002400200021D6E0012606FA8D
:100BB00001F51E6806EA0504AC4274D11E7906F000
:100BC0000306012E04D01E7906F00306022E13D16F
:100BD00090684F000326BE40B0434F00DE68BE4021
:100BE00030439060506801268E40B0431E79C6F3B2
:100BF00000168E40304350601E7906F00306032E27
:100C000009D0D0684F000326BE40B0434F009E6815
:100C1000BE403043D0601E7906F00306022E13D189
:100C2000CF0802F1200656F827004E07F70E0F26D0
:100C3000BE40B0434F07FF0E1E69BE403043CF0891
:100C400002F1200646F8270010684F000326BE4038
:100C5000B0431E7906F003064F00BE4030431060DB
:100C60005E6806F44036002E76D000BF002600965F
:100C70003C4E366846F480463A4F3E603E46366803
:100C800006F48046009600BF00BF374E8F0856F826
:100C900027008E07370F0F26BE40B043334EB242B7
:100CA00002D1002624E057E0314EB24201D10126A4
:100CB0001EE0304EB24201D1022619E02E4EB24261
:100CC00001D1032614E02D4EB24201D104260FE0DB
:100CD0002B4EB24201D105260AE02A4EB24201D182
:100CE000062605E0284EB24201D1072600E008267C
:100CF0008F073F0FBE4030431B4E8F0846F827003A
:100D0000224E3068A0435E6806F4801606B1204388
:100D10001E4E3060361D3068A0435E6806F4001633
:100D200006B12043194E361D3060184E361F30680C
:100D3000A0435E6806F4003606B12043134E361F0A
:100D40003060361F3068A0435E6806F4803606B116
:100D500020430E4E083E3060491C1029FFF426AF98
:100D6000F8BD00004438024008380140000002404D
:100D70000004024000080240000C02400010024043
:100D80000014024000180240001C0240083C0140D0
:100D9000024613690B400BB1012000E000207047B0
:100DA0000AB1816101E00B0483617047014800686A
:100DB000704700002C04002070B504460CB90120D7
:100DC00070BD94F83D0028B9002084F83C0020460E
:100DD00000F010FB242084F83D002068006820F01B
:100DE0000100216808602068006840F40040216824
:100DF00008602068006820F400402168086000F066
:100E0000FFFC05465C496068884206D85B4885421D
:100E100001D2012007E0002005E05948854201D2B7
:100E2000012000E00020012800D1C9E75548B5FBAA
:100E3000F0F62068406820F03F00304321684860A9
:100E40004D496068884201D8701C07E04FF49670E5
:100E500070434FF47A71B0FBF1F0401C2168096ACD
:100E600021F03F01084321680862434960688842D5
:100E700014D8681E61684900B0FBF1F0401CC0F353
:100E80000B00042801D204203DE0681E616849007F
:100E9000B0FBF1F0401CC0F30B0034E0A06838B99F
:100EA000681E616801EB4101B0FBF1F0401C0AE0F3
:100EB000681E616801EBC10202EB0111B0FBF1F0A9
:100EC000401C40F48040C0F30B0008B901201AE038
:100ED000A06848B9681E616801EB4101B0FBF1F000
:100EE000401CC0F30B000CE0681E616801EBC102FE
:100EF00002EB0111B0FBF1F0401CC0F30B0040F419
:100F0000804040F400402168C9694CF6FF7291436B
:100F100008432168C861D4E90701084321680968CA
:100F200021F0C001084321680860D4E90310084398
:100F30002168896848F2FF3291430843216888603C
:100F4000D4E9050108432168C96821F0FF0108437D
:100F50002168C8602068006840F0010021680860CE
:100F600000202064202084F83D000020206384F8C5
:100F70003E0000BF24E70000A086010080841E0020
:100F800000093D0040420F002DE9FC5F04460F467A
:100F900090469946DDE90CAB0E9EFFF707FF05462C
:100FA00094F83D00202870D119230122B54920462C
:100FB000009502F032FA10B10220BDE8FC9F00BF9C
:100FC00094F83C00012801D10220F6E7012084F8C2
:100FD0003C0000BF2068006800F0010028B92068CC
:100FE000006840F00100216808602068006820F473
:100FF000006021680860222084F83D00402084F8C9
:101000003E0000202064C4F824A0A4F82AB0608D1B
:1010100020859D48E0624B46424639462046CDE950
:10102000006502F0A7F808B10120C6E7208D88B955
:1010300000BF00200190206840690190206880690D
:10104000019000BF00BF2068006840F40070216874
:10105000086040E0208D012818D12068006820F445
:1010600080602168086000BF00200190206840690E
:10107000019020688069019000BF00BF206800686F
:1010800040F400702168086025E0F8E0208D022817
:1010900016D12068006820F480602168086020680C
:1010A000006840F400602168086000BF00200190E3
:1010B00020684069019020688069019000BF0AE0C3
:1010C00000BF00200190206840690190206880697D
:1010D000019000BF00BFC3E0208D03287ED8208D83
:1010E000012815D12A463146204602F072FA08B18D
:1010F000012062E720680069616A0870606A401C2C
:101100006062208D401E2085608D401E6085A7E0B6
:10111000208D02282AD1334600225C4920460095C2
:1011200002F07BF908B1012047E72068006840F42D
:1011300000702168086020680069616A0870606A50
:10114000401C6062208D401E2085608D401E6085A1
:1011500020680069616A0870606A401C6062208DC6
:10116000401E2085608D401E608579E03346002258
:1011700046492046009502F050F908B101201CE7CD
:101180002068006820F48060216808602068006999
:10119000616A0870606A401C6062208D401E208574
:1011A000608D401E608533460022384920460095F8
:1011B00002F033F908B10120FFE62068006840F42E
:1011C00000702168086020680069616A0870606AC0
:1011D000401C6062208D401E208500E010E0608D84
:1011E000401E608520680069616A0870606A401C62
:1011F0006062208D401E2085608D401E60852FE03E
:101200002A463146204602F0E4F908B10120D4E62E
:1012100020680069616A0870606A401C6062208D05
:10122000401E2085608D401E608520684069C0F3A7
:101230008000A8B1208D032805D12068006820F423
:1012400080602168086020680069616A0870606ACF
:10125000401C6062208D401E2085608D401E608590
:10126000208D00287FF438AF202084F83D00002036
:1012700084F83E0000BF84F83C0000BF9DE60220D9
:101280009BE60000020010000000FFFF04000100C8
:101290002DE9FC5F04460F4690469946DDE90CAB0C
:1012A0000E9EFFF783FD054694F83D0020287DD172
:1012B000192301224D492046009502F0AEF810B1E5
:1012C0000220BDE8FC9F00BF94F83C00012801D13A
:1012D0000220F6E7012084F83C0000BF2068006887
:1012E00000F0010028B92068006840F00100216882
:1012F00008602068006820F40060216808602120F0
:1013000084F83D00402084F83E0000202064C4F8AA
:1013100024A0A4F82AB0608D20853548E0624B46B1
:10132000424639462046CDE9006501F0D3FF08B1B9
:101330000120C6E731E02A463146204602F08EF908
:1013400050B1206C042805D12068006840F400707A
:10135000216808600120B4E7606A007821680861AC
:10136000606A401C6062208D401E2085608D401E9A
:10137000608520684069C0F3800070B1208D60B145
:10138000606A007821680861606A401C6062208D94
:10139000401E2085608D401E6085208D0028CAD1AA
:1013A0002A463146204602F005F800E01CE050B124
:1013B000206C042805D12068006840F40070216882
:1013C000086001207DE72068006840F40070216813
:1013D0000860202084F83D00002084F83E0000BF13
:1013E00084F83C0000BF6CE702206AE702001000AE
:1013F0000000FFFF10B586B00446142101A8FEF7D7
:1014000019FF2A49206888424DD100BF0020009072
:101410002748006840F00400254908600846006835
:1014200000F00400009000BF00BF00BF002000904B
:101430000846006840F0010008600846006800F0B7
:101440000100009000BF00BF4815019012200290DB
:1014500001200390032004900420059001A9154861
:10146000FFF79CFB4FF48070019012200290012046
:101470000390032004900420059001A90E48FFF773
:101480008DFB00BF0020009009481030006840F438
:1014900000000749103108600846006800F40000A9
:1014A000009000BF00BF06B010BD0000005C00400F
:1014B0003038024000080240000002400348006843
:1014C0000349097808440149086070472C0400204A
:1014D0003404002010B50D48006840F400700B493A
:1014E00008600846006840F48060086008460068AC
:1014F00040F480700860032000F0A6F80F2000F090
:1015000007F800F02BF8002010BD0000003C02405E
:1015100070B504460E4800784FF47A71B1FBF0F0D4
:101520000C490968B1FBF0F5284600F0F2FD08B15E
:10153000012070BD102C07D200222146501E00F061
:1015400045F80548046001E00120F2E70020F0E7DB
:1015500034040020380400203004002008B500BF07
:10156000002000900E48006840F480400C4908605C
:101570000846006800F48040009000BF00BF00BF34
:1015800000200090081F006840F08050091F08608C
:101590000846006800F08050009000BF00BF08BD02
:1015A000443802400146084600280DDB00BF00BF5A
:1015B00000F01F0301229A4043099B0003F1E0233E
:1015C000C3F8002100BF00BF00BF70472DE9F05FE6
:1015D00080460D461646002703F088FD074639462B
:1015E0002A46334601F00700C0F1070ABAF1040F9A
:1015F00002D94FF0040A01E0C0F1070AD14600F118
:10160000040ABAF1070F02D24FF0000A01E0A0F17C
:10161000030AD4464FF0010A0AFA09FAAAF1010AAC
:101620000AEA020A0AFA0CFA4FF0010B0BFA0CFB59
:10163000ABF1010B0BEA030B4AEA0B0421464046CF
:1016400003F05CFDBDE8F09F00BF00F00702064B11
:1016500019684FF6FF031940044B0B4343EA02217C
:10166000014B196000BF70470CED00E00000FA0567
:1016700070B504460D460CB9012070BD584800688D
:1016800000F00700A84209D255490D7008460068CD
:1016900000F00700A84201D00120EEE7207800F01A
:1016A000020002281DD1207800F00400042805D192
:1016B0004C48006840F4E0504A490860207800F047
:1016C0000800082805D14748006840F460404549B3
:1016D00008604448006820F0F000A16808434149D0
:1016E0000860207800F00100A8B36068012807D1E5
:1016F0003C4808380068C0F34040B8B90120BCE756
:101700006068022802D06068032807D1354808388D
:101710000068C0F3406048B90120AEE7314808389E
:101720000068C0F3400008B90120A6E72D48006812
:1017300020F00300616808432A490860FFF736FB80
:10174000064609E0FFF732FB801B41F288318842F0
:1017500002D9032091E707E02248006800F00C005E
:101760006168B0EB810FEDD11D48006800F0070003
:10177000A84209D91A490D700846006800F0070010
:10178000A84201D0012078E7207800F00400042866
:1017900007D11448006820F4E050E168084311497B
:1017A0000860207800F00800082808D10D4800687B
:1017B00020F46040216940EAC1000A49086000F055
:1017C0003FF808490968C1F30311074A515CC84052
:1017D0000649086006480068FFF79AFE00204CE7BB
:1017E000003C0240083802409E9C0008380400205B
:1017F00030040020014800687047000038040020D1
:1018000000B5FFF7F7FF04490968C1F38221034AD5
:10181000515CC84000BD000008380240AE9C000882
:1018200000B5FFF7E7FF04490968C1F34231034AF5
:10183000515CC84000BD000008380240AE9C000862
:101840002DE9F047002400250026A1462548006820
:1018500000F00C0020B1042805D008283AD105E09A
:10186000DFF8849039E0DFF8849036E01D48001FEF
:10187000006800F03F041B48001F006800F480006F
:1018800078B11A481749091F0968C1F38811A0FBEC
:1018900001700146224600233846FEF793FC0546B8
:1018A0000EE011480F49091F0968C1F38811A0FB18
:1018B00001700146224600233846FEF783FC0546A8
:1018C0000848001F0068C0F30140401C4600B5FBFB
:1018D000F6F902E0DFF8109000BF00BF4846BDE80F
:1018E000F0870000083802400024F40000127A005B
:1018F000F8B504460CB90120F8BD207800F00100CD
:10190000002874D0F948006800F00C0004280DD0BD
:10191000F648006800F00C00082813D1F348001FB7
:10192000006800F48000B0F5800F0BD1EF48083854
:101930000068C0F34040002859D06068002856D1A4
:101940000120D9E700BF6068B0F5803F08D1E748C3
:101950000838006840F48030E449083908601EE027
:101960006068B0F5A02F0DD1E0480838006840F459
:101970008020DE49083908600846006840F480305D
:1019800008600CE0D9480838006820F48030D74956
:10199000083908600846006820F48020086000BF0D
:1019A000606890B1FFF702FA054606E0FFF7FEF91E
:1019B000401B642801D903209EE7CC480838006802
:1019C000C0F340400028F1D011E0FFF7EFF90546E1
:1019D00006E0FFF7EBF9401B642801D903208BE7F1
:1019E000C24808380068C0F340400028F1D1207890
:1019F00000F0020002285FD1BC48006800F00C0033
:101A000058B1BA48006800F00C0008281CD1B7484B
:101A1000001F006800F48000B0B9B44808380068BE
:101A2000C0F3400020B1E068012801D0012063E745
:101A3000AE480838006820F0F800216940EAC1008B
:101A4000AA490839086037E0E06800B30120A849D6
:101A50000860FFF7ABF9054606E0FFF7A7F9401B62
:101A6000022801D9032047E7A04808380068C0F3DE
:101A700040000028F1D09D480838006820F0F800A8
:101A8000216940EAC10099490839086014E0002042
:101A900097490860FFF78AF9054606E0FFF786F9DF
:101AA000401B022801D9032026E790480838006827
:101AB000C0F340000028F1D1207800F00800082889
:101AC0002CD16069A8B101208A490860FFF76EF93E
:101AD000054606E0FFF76AF9401B022801D90320FA
:101AE0000AE782486C300068C0F340000028F1D05B
:101AF00014E000207F490860FFF758F9054606E02A
:101B0000FFF754F9401B022801D90320F4E6774877
:101B10006C300068C0F340000028F1D1207800F05C
:101B20000400042870D1002770483830006800F0A5
:101B3000805090B900BF002000906C483830006899
:101B400040F080506949383108600846006800F06C
:101B50008050009000BF00BF01276748006800F474
:101B60008070B0B96448006840F4807062490860D1
:101B7000FFF71CF9054606E0FFF718F9401B02289D
:101B800001D90320B8E65C48006800F480700028A2
:101B9000F2D000BFA068012808D15448683000681E
:101BA00040F001005149683108601DE0A068052837
:101BB0000DD14E486830006840F004004B49683150
:101BC00008600846006840F0010008600CE04748E3
:101BD0006830006820F00100444968310860084618
:101BE000006820F00400086000BFA068A8B1FFF7FB
:101BF000DDF8054609E0FFF7D9F8401B41F28831CE
:101C0000884202D9032077E626E038486830006829
:101C1000C0F340000028EED013E0FFF7C7F80546F8
:101C200008E0FFF7C3F8401B41F28831884201D930
:101C3000032061E62D4868300068C0F340000028AA
:101C4000EFD1012F07D129483830006820F08050AB
:101C500026493831086000BFA069002845D02348D4
:101C6000006800F00C0008285DD0A069022845D16A
:101C700000201F490866FFF799F8054606E0FFF7C0
:101C800095F8401B022801D9032035E6174808388B
:101C90000068C0F340600028F1D1D4E9070108438F
:101CA000616A40EA81110122A06AC2EB500041EA58
:101CB00000412C20005D41EA00600C49091F0860CA
:101CC00001200B490866FFF771F8054606E0FFF7AB
:101CD0006DF8401B022801D903200DE6034808389F
:101CE0000068C0F340600028F1D049E008380240A5
:101CF00000004742800E474200700040002021490A
:101D00000866FFF753F8054606E0FFF74FF8401B5B
:101D1000022801D90320EFE51B480068C0F34060AA
:101D20000028F2D12CE0A069012800D1E4E5164892
:101D3000001D0668A069012820D006F48001E06932
:101D400081421BD106F03F01206A814216D147F63D
:101D5000C0703040616AB0EB811F0FD106F4403192
:101D60000122A06AC2EB5000B1EB004F06D106F091
:101D700070612C20005DB1EB006F01D00120BBE54C
:101D80000020B9E5000047420038024010B5044683
:101D90000CB9012010BD606A38B96068B0F5827F67
:101DA00000D105E00021E16102E0002121616161D3
:101DB0000021A16294F8510028B9002084F8500055
:101DC000204600F047F8022084F85100206800689F
:101DD00020F0400021680860A08800F4827021890A
:101DE00001F404410843A18901F400610843217C06
:101DF00001F002010843217D01F001010843218B1C
:101E000001F400710843217F01F0380108432021CB
:101E1000095D01F080010843218D01F40051084360
:101E2000216808600421A06901EA104094F8241098
:101E300001F010010843216848602068C06920F45F
:101E400000602168C86100206065012084F85100AD
:101E500000209FE710B586B00446142101A8FEF7C4
:101E6000E9F937492068884230D100BF002000904E
:101E70003448006840F480503249086008460068E1
:101E800000F48050009000BF00BF00BF0020009011
:101E90002C481438006840F001002A4914390860C1
:101EA0000846006800F00100009000BF00BFE0207D
:101EB000019002200290002003900320049005204E
:101EC000059001A92048FEF769FE36E01F49206809
:101ED000884232D100BF002000901A48001F0068DD
:101EE00040F400401749091F08600846006800F4E4
:101EF0000040009000BF00BF00BF002000901148CC
:101F00001438006840F004000E491439086008468F
:101F1000006800F00400009000BF00BF4FF4A05024
:101F200001900220029000200390032004900620DC
:101F3000059001A90648FEF731FE06B010BD00006D
:101F4000003001404438024000000240003C0040A4
:101F5000000802402DE9F84304460F4616461D4688
:101F6000FEF724FF8046B14694F85100012802D0C4
:101F70000220BDE8F88307B10EB90120F9E700BFE0
:101F800094F85000012801D10220F2E7012084F8E2
:101F9000500000BF032084F85100002060652763D3
:101FA000A686E686A063A087E08760642064A068B8
:101FB000B0F5004F0BD12068006820F04000216888
:101FC00008602068006840F480402168086020684C
:101FD000006800F04000402805D02068006840F00C
:101FE000400021680860E068B0F5006F37D1606894
:101FF00010B1B9F1010F09D1206B00882168C860C8
:10200000206B801C2063E08E401EE08623E0206869
:10201000806800F0020002280AD1206B0088216845
:10202000C860206B801C2063E08E401EE08612E0BA
:10203000FEF7BCFEA0EB0800A84201D3681C00B963
:102040004DB9012084F8510000BF002084F85000F1
:1020500000BF03208DE7E08E0028D8D136E060680D
:1020600010B1B9F1010F09D1206B00782168087314
:10207000206B401C2063E08E401EE08623E0206839
:10208000806800F0020002280AD1206B00782168E5
:102090000873206B401C2063E08E401EE08612E037
:1020A000FEF784FEA0EB0800A84201D3681C00B92B
:1020B0004DB9012084F8510000BF002084F8500081
:1020C00000BF032055E7E08E0028D8D142462946BC
:1020D000204602F0DFFB08B120206065A06850B9FF
:1020E00000BF002000902068C068009020688068D1
:1020F000009000BF00BF012084F8510000BF002005
:1021000084F8500000BF606D08B1012031E7002065
:102110002FE770B504462546681EB0F1807F01D3D5
:1021200001200FE0681E4FF0E02148610F214FF0C1
:10213000FF3002F0E3FF00204FF0E021886107202C
:102140000861002070BD7047704710B5034600223B
:1021500000BF93F83C00012801D1022010BD0120EE
:1021600083F83C0000BF22F0FF00CC6840EA040284
:1021700022F440708C6840EA040222F480604C68CB
:1021800040EA040222F400600C6840EA040222F4EF
:1021900080500C6940EA040222F400504C6940EA85
:1021A000040222F48040CC6940EA040218684264C8
:1021B00000BF002083F83C0000BF00BFCEE7000056
:1021C00030B502460B4600BF92F83C00012801D111
:1021D000022030BD012082F83C0000BF022082F8BE
:1021E0003D00106844681068816824F07004186825
:1021F000044310684460184D1068A8421BD0106852
:10220000B0F1804F17D0154D1068A84213D0144D6F
:102210001068A8420FD0134D1068A8420BD0124D81
:102220001068A84207D0114D1068A84203D0104D85
:102230001068A84205D121F0800158680143106858
:102240008160012082F83D0000BF002082F83C0040
:1022500000BF00BFBDE700000000014000040040D7
:1022600000080040000C0040000401400040014014
:102270000018004010B504460CB9012010BD94F8B8
:102280003D0028B9002084F83C00204600F026F8E4
:10229000022084F83D00211D206802F025FC012069
:1022A00084F8460000BF84F83E0001213F2001551C
:1022B000402001554120015500BF00BF012084F896
:1022C000420043200155442001554520015500BFDF
:1022D000012084F83D000020D0E7000038B5044616
:1022E0004749206888420FD100BF00200090454830
:1022F000006840F00100434908600846006800F0AB
:102300000100009000BF79E02068B0F1804F40D11B
:1023100000BF002000903B48001F006840F0010013
:102320003849091F08600846006800F00100009065
:1023300000BF00BF3448354908604FF0C0604860B6
:102340004021324881600021C1604FF48061016109
:1023500089004161890081618911C16100210162A7
:102360004162FEF781FB08B1FEF75AFA00BF274928
:10237000A1620846846300BF00BF2163846300BF7D
:10238000002211461C20FFF721F91C20FFF70AF953
:1023900034E01F49206888421AD100BF0020009015
:1023A0001848001F006840F002001649091F086025
:1023B0000846006800F00200009000BF00BF002245
:1023C00011461D20FFF702F91D20FFF7EBF815E07D
:1023D00010492068884211D100BF002000900948B0
:1023E000001F006840F008000649091F0860084601
:1023F000006800F00800009000BF00BF38BD00007A
:102400000000014044380240A0600240B80A0020A9
:1024100000040040000C0040014691F83D000128F6
:1024200001D001207047022081F83D000868C06893
:1024300040F001000B68D8601A4B086898421BD026
:102440000868B0F1804F17D0174B0868984213D036
:10245000164B086898420FD0154B086898420BD06D
:10246000144B0868984207D0134B0868984203D071
:10247000124B086898420CD10868806800F0070287
:10248000062A0CD00868006840F001000B6818604C
:1024900005E00868006840F001000B681860002043
:1024A000C0E70000000001400004004000080040B8
:1024B000000C0040000401400040014000180040B2
:1024C00001460868C06820F001000A68D06000BFBB
:1024D0000868006A41F21112104050B90868006A99
:1024E0009210104028B90868006820F001000A68BE
:1024F000106000BF012081F83D00002070472DE9E9
:10250000F04104460D46002700BF94F83C00012826
:1025100002D10220BDE8F081012084F83C0000BF18
:10252000022084F83D002068866826F0770626F4AD
:102530007F46206886602868502833D00CDC20282D
:1025400050D004DC00284BD0102851D149E030286D
:1025500049D040284CD139E060282DD0702807D0D0
:10256000B0F5805F03D0B0F5005F41D10DE041E0F0
:10257000D5E902136A68206802F03BFB2068866890
:1025800046F077062068866034E0D5E902136A6871
:10259000206802F02EFB2068806840F480402168AB
:1025A000886027E0EA686968206802F013FC50211F
:1025B000206802F029FB1DE0EA686968206802F0E3
:1025C0001CFC6021206802F01FFB13E0EA686968C8
:1025D000206802F0FFFB4021206802F015FB09E0B3
:1025E00000BF00BF00BF2968206802F00DFB01E0BA
:1025F000012700BF00BF012084F83D0000BF00207C
:1026000084F83C0000BF384684E72DE9F0410446D9
:102610000D4614B90120BDE8F08194F83D0028B9B9
:10262000002084F83C00204600F054F8022084F892
:102630003D002068806844F2070188432168886073
:10264000211D206802F050FA2068D0F80880206828
:1026500086692068076A286840EA080840F2033063
:102660008643A969A86840EA0120064340F60C4069
:1026700086434FF2F0008643E969E86840EA0120AA
:10268000064328690001296A40EA0130064327F021
:10269000220727F088076969686840EA0110074344
:1026A0002068C0F8088020688661206807620120E1
:1026B00084F8460084F83E0001213F2001550120A6
:1026C00084F8420043200155012084F83D00002099
:1026D000A1E7000010B586B00446142101A8FDF75B
:1026E000A9FD36492068884230D100BF0020009003
:1026F0003348006840F0040031490860084600682B
:1027000000F00400009000BF00BF00BF0020009058
:102710002B481038006840F008002949103908603B
:102720000846006800F00800009000BF00BF4FF4AA
:10273000405001900220029000200390049002205B
:10274000059001A91F48FEF729FA34E01E492068C8
:10275000884230D100BF002000901948001D006859
:1027600040F002001649091D08600846006800F0A4
:102770000200009000BF00BF00BF00200090104882
:102780001038006840F004000D4910390860084610
:10279000006800F00400009000BF00BFC02001905E
:1027A000022002900020039004900320059001A9CC
:1027B0000648FEF7F3F906B010BD0000000800401F
:1027C00040380240000C0240000401400008024072
:1027D0002DE9F04304460D4694F83E603F20075D26
:1027E00094F84280432010F804906DB9012E02D174
:1027F000B8F1010F02D00120BDE8F083022084F877
:102800003E0084F8420025E0042D0CD1012F02D1B6
:10281000B9F1010F01D00120EEE702213F2001555F
:102820004320015516E0012E07D1012F05D1B8F143
:10283000010F02D1B9F1010F01D00120DCE7022024
:1028400084F83E0002213F200155022084F8420016
:102850004320015515B1042D0CD105E001220021C2
:10286000206802F0B5F910E001220421206802F08E
:10287000AFF90AE001220021206802F0A9F9012243
:102880000421206802F0A4F900BF00BF206800689E
:1028900040F00100216808600020ADE7704770B586
:1028A00004462068C5682068066906F00200022810
:1028B00019D105F00200022815D1401F21680861D6
:1028C000012020772068806900F0030018B12046BD
:1028D000FFF7E4FF05E0204600F010F9204600F085
:1028E000C4F90020207706F00400042819D105F06F
:1028F0000400042815D1C043216808610220207714
:102900002068806900F4407018B12046FFF7C6FFC8
:1029100005E0204600F0F2F8204600F0A6F900207D
:10292000207706F00800082819D105F008000828CB
:1029300015D1C04321680861042020772068C06950
:1029400000F0030018B12046FFF7A8FF05E020467D
:1029500000F0D4F8204600F088F90020207706F037
:102960001000102819D105F01000102815D1C0430F
:1029700021680861082020772068C06900F4407051
:1029800018B12046FFF78AFF05E0204600F0B6F8B0
:10299000204600F06AF90020207706F0010048B1D7
:1029A00005F0010030B16FF0010021680861204698
:1029B00000F0E2F906F08000802809D105F08000DF
:1029C000802805D1C043216808612046FFF7BBFB82
:1029D00006F04000402809D105F04000402805D10C
:1029E000C04321680861204600F022FB06F0200069
:1029F000202809D105F02000202805D1C0432168F6
:102A000008612046FFF7A0FB70BD000010B586B03E
:102A10000446142101A8FDF70DFC334920688842C3
:102A20001DD100BF002000903048006840F0100029
:102A30002E4908600846006800F01000009000BFB2
:102A400000BF4815019002200290002003900490DE
:102A50000120059001A92648FEF7A0F842E0206871
:102A6000B0F1804F1DD100BF002000901F480068CA
:102A700040F001001D4908600846006800F00100B0
:102A8000009000BF00BF08200190022002900020AB
:102A9000039004900120059001A91648FEF77EF8E6
:102AA00020E01549206888421CD100BF002000901A
:102AB0000E48006840F001000C49086008460068B4
:102AC00000F00100009000BF00BF01200190022033
:102AD00002900020039004900220059001A905486F
:102AE000FEF75CF806B010BD00000140303802402F
:102AF0000010024000000240000C004070472DE929
:102B0000F04104460D461646002700BF94F83C00ED
:102B1000012802D10220BDE8F081012084F83C00A8
:102B200000BF36B1042E1BD0082E31D00C2E5ED142
:102B300045E02946206802F071F82068806940F07D
:102B40000800216888612068806920F004002168FD
:102B5000886120688069296908432168886148E0A4
:102B60002946206802F092F82068806940F40060ED
:102B7000216888612068806920F48060216888610C
:102B800020688069296940EA01202168886130E075
:102B90002946206802F0B8F82068C06940F00800B3
:102BA0002168C8612068C06920F004002168C861FC
:102BB0002068C069296908432168C86119E029466D
:102BC000206802F0DDF82068C06940F400602168E8
:102BD000C8612068C06920F480602168C8612068ED
:102BE000C069296940EA01202168C86101E0012724
:102BF00000BF00BF00BF002084F83C0000BF384683
:102C000089E710B504460CB9012010BD94F83D00C9
:102C100028B9002084F83C00204600F025F8022066
:102C200084F83D00211D206801F05EFF012084F83A
:102C3000460000BF84F83E0001213F20015540209E
:102C400001554120015500BF00BF012084F842001A
:102C500043200155442001554520015500BF012066
:102C600084F83D000020D0E77047704770B50446F7
:102C70000D4615B994F83E000BE0042D02D13F201B
:102C8000005D06E0082D02D14020005D01E04120FA
:102C9000005D012801D0012070BD1DB9022084F81B
:102CA0003E000EE0042D03D102213F20015508E033
:102CB000082D03D102214020015502E002214120CC
:102CC000015501222946206801F082FF234920682E
:102CD000884203D022492068884201D1012000E0C7
:102CE000002028B12068406C40F40040216848640E
:102CF0001A49206888421BD02068B0F1804F17D055
:102D000018492068884213D01749206888420FD09C
:102D10001649206888420BD011492068884207D0A4
:102D200013492068884203D01249206888420CD198
:102D30002068806800F00706062E0CD02068006826
:102D400040F001002168086005E02068006840F05C
:102D500001002168086000209EE70000000001409B
:102D6000000401400004004000080040000C004046
:102D700000400140001800402DE9F04104469B4806
:102D8000844204D19A480068401C994908609848D8
:102D90000068984988427DD100209549086096488E
:102DA0000068406A9549086095480068406A9549FE
:102DB00008609248008894490988401A934908801D
:102DC000084600884EF66021884206DD8F4800885C
:102DD0004FF6FF71081A8D4908808A4800888C498F
:102DE0000988401A8B490880084600884EF6602101
:102DF000884206DD874800884FF6FF71081A85492A
:102E000008807E480068804908607E4800688049E4
:102E10000860002506E0A8B200231A46194602F011
:102E200019F96D1C082DF6DB7B480068032818D8BB
:102E30007A4880780A2190FBF1F0C5B27748407853
:102E400090FBF1F0C6B27548007890FBF1F0C7B284
:102E50007149097801F003002B463246394602F0E9
:102E6000F9F86D48006870B16B48006804280AD80A
:102E70006A4DAB786A782978674D2D786D1E05F01C
:102E8000030002F0E7F86448006802281FD3624894
:102E9000006800E07DE0052819D8604880780A21A4
:102EA00090FBF1F0C5B25D48407890FBF1F0C6B2FE
:102EB0005A48007890FBF1F0C7B257490978891E4B
:102EC00001F003002B463246394602F0C3F852485F
:102ED000006803281AD8514880780A2190FBF1F045
:102EE000C5B24E48407890FBF1F0C6B24B4800782E
:102EF00090FBF1F0C7B24849097801F00301C1F134
:102F000007002B463246394602F0A4F842480068D2
:102F100080B14148006804280CD8404DAB786A78ED
:102F200029783D4D2D786D1E05F00305C5F107008C
:102F300002F090F83848006802281FD3364800682D
:102F400005281BD8354880780A2190FBF1F0C5B2DE
:102F50003248407890FBF1F0C6B23048007890FBE0
:102F6000F1F0C7B22C490978891E01F00301C1F1C3
:102F700007002B463246394602F06CF826480068B6
:102F8000401C2549086008460068082801D1002037
:102F900008602348844226D14FF480512148FDF730
:102FA000F7FE10B9FC20204908704FF400511D486D
:102FB000FDF7EEFE10B9FD201B49087004211B48E7
:102FC000FDF7E6FE10B9FF201749087008211748E1
:102FD000FDF7DEFE10B9FE2013490870FDF72EFB49
:102FE0000F48FFF76DFABDE8F0810000500900209E
:102FF0000800002080380100E009002010000020B7
:10300000700A002018000020140000200400002096
:103010001C000020060000200C0000200000002002
:103020009809002000040240280000200008024007
:10303000704710B504460CB9012010BDA06900B15D
:1030400000E000BF94F8410028B9002084F8400057
:10305000204600F029F8242084F841002068C06848
:1030600020F400502168C860204601F0DBFE206893
:10307000006920F49040216808612068406920F0D0
:103080002A00216848612068C06840F40050216827
:10309000C86000206064202084F8410084F8420069
:1030A0000020606300BFC8E710B586B00446142155
:1030B00001A8FDF7BFF81B492068884230D100BF46
:1030C000002000901848006840F010001649086081
:1030D0000846006800F01000009000BF00BF00BF6D
:1030E0000020009010481438006840F001000E499C
:1030F000143908600846006800F00100009000BF25
:1031000000BF4FF4C06001900220029000200390A5
:10311000032004900720059001A90448FDF73EFD17
:1031200006B010BD001001404438024000000240CB
:1031300000BFFEE7014608684069C0F38020B0B1D7
:103140006FF480600A68506100200863202081F8D5
:103150003D00002081F83E00086C40F00400086447
:1031600000BF002081F83C0000BF01207047002014
:10317000FCE700002DE9F84304460F461546994642
:10318000DDE908862068006840F4806021680860F6
:103190002068006840F4807021680860434600227F
:1031A0004FF001112046009600F037F960B1206819
:1031B000006800F48070B0F5807F02D14FF4007099
:1031C00020640320BDE8F88307F0FE002168086151
:1031D000334642463E49204600F07EF908B10120C0
:1031E000F0E700BF00200090206840690090206850
:1031F0008069009000BF00BF32464146204600F083
:103200002DFA50B1206C042805D12068006840F4E4
:103210000070216808600120D4E7B9F1010F03D1E3
:10322000E8B22168086117E0C5F30720216808614A
:1032300032464146204600F011FA50B1206C042875
:1032400005D12068006840F4007021680860012002
:10325000B8E7E8B22168086132464146204600F0EE
:10326000FDF950B1206C042805D12068006840F4B5
:103270000070216808600120A4E72068006840F41D
:10328000807021680860434600224FF001112046FB
:10329000009600F0C2F858B12068006800F4807011
:1032A000B0F5807F02D14FF400702064032089E7DD
:1032B000F8B240F0010021680861334642460449F3
:1032C000204600F009F908B101207BE7002079E7EA
:1032D000020001002DE9F843044688461546994648
:1032E000DDE908672068006840F4807021680860A4
:1032F000334600224FF001112046009700F08DF870
:1033000060B12068006800F48070B0F5807F02D161
:103310004FF4007020640320BDE8F88308F0FE003D
:10332000216808613B4632462149204600F0D4F826
:1033300008B10120F0E700BF00200090206840693C
:10334000009020688069009000BF00BF3A46314677
:10335000204600F083F950B1206C042805D1206884
:10336000006840F40070216808600120D4E7B9F1DA
:10337000010F03D1E8B22168086117E0C5F3072007
:10338000216808613A463146204600F067F950B19D
:10339000206C042805D12068006840F40070216882
:1033A00008600120B8E7E8B2216808610020B3E7AF
:1033B0000200010070B504460D46164625E0204681
:1033C000FFF7B8FE08B1012070BD681CE8B1FDF739
:1033D000EDFC801BA84200D8BDB920684069C0F34D
:1033E000800090B900202063202084F83D00002058
:1033F00084F83E00206C40F02000206400BF0020D4
:1034000084F83C0000BF0120DEE720684069C0F37B
:1034100080000028D3D00020D6E72DE9F0410446F3
:103420000D4617461E46DDF8188038E0701CA8B31C
:10343000FDF7BCFCA0EB0800B04200D876BBC5F39A
:10344000074001280AD120684069A9B20840A9B202
:10345000884201D101200BE0002009E0206880694A
:10346000A9B20840A9B2884201D1012000E00020A1
:10347000B84214D100202063202084F83D000020B1
:1034800084F83E00206C40F02000206400BF002043
:1034900084F83C0000BF0120BDE8F081FFE7C5F3E0
:1034A000074001280AD120684069A9B20840A9B2A2
:1034B000884201D101200BE0002009E020688069EA
:1034C000A9B20840A9B2884201D1012000E0002041
:1034D000B842ABD00020DFE72DE9F04104460D46AD
:1034E00016461F4658E020684069C0F38020E8B1C6
:1034F0002068006840F40070216808606FF4806004
:103500002168486100202063202084F83D000020CD
:1035100084F83E00206C40F00400206400BF0020CE
:1035200084F83C0000BF0120BDE8F081701C90B31E
:10353000FDF73CFCC01BB04200D866BBC5F307409A
:1035400001280AD120684069A9B20840A9B288427E
:1035500001D101200BE0002009E020688069A9B2B8
:103560000840A9B2884201D1012000E0002090B9B2
:1035700000202063202084F83D00002084F83E00D5
:10358000206C40F02000206400BF002084F83C0044
:1035900000BF0120C8E7FFE7C5F3074001280AD1B3
:1035A00020684069A9B20840A9B2884201D101202F
:1035B0000BE0002009E020688069A9B20840A9B2A8
:1035C000884201D1012000E0002000288BD000209B
:1035D000AAE770B504460D46164637E020684069F4
:1035E000C0F30010A0B16FF0100021684861002006
:1035F0002063202084F83D00002084F83E00206CE9
:10360000206400BF002084F83C0000BF012070BD92
:10361000FDF7CCFB801BA84200D8BDB920684069EB
:10362000C0F3801090B900202063202084F83D0072
:10363000002084F83E00206C40F02000206400BF91
:10364000002084F83C0000BF0120E0E720684069CA
:10365000C0F380100028C1D00020D8E770B5044620
:103660000D46164625E02046FFF764FD08B101200F
:1036700070BD681CE8B1FDF799FB801BA84200D81B
:10368000BDB920684069C0F3C01090B90020206324
:10369000202084F83D00002084F83E00206C40F09B
:1036A0002000206400BF002084F83C0000BF0120FF
:1036B000DEE720684069C0F3C0100028D3D00020A6
:1036C000D6E72DE9F04107460C4615461E462A204E
:1036D00000F0B0FC384600F09EFC284600F09BFC51
:1036E0002B2000F0A7FC204600F095FC304600F0AF
:1036F00092FC2C2000F09EFCBDE8F08170B50446E1
:103700000D4616462B46224629462046FFF7D9FF8E
:10371000304600F080FC70BD2DE9F04706460F46AC
:1037200014461D46DDF820A0681E83B2601E82B2DA
:1037300039463046FFF7C5FFB8460EE0B14606E011
:10374000504600F068FC09F101001FFA80F9A1451C
:10375000F6DB08F101001FFA80F8A845EEDBBDE8B2
:10376000F087704710B5FFF7FCFF6420FDF7F2F912
:103770006420FDF7EFF9012220215C48FDF710FBE2
:103780006420FDF7E7F9112000F054FC7820FDF7E4
:10379000E1F9362000F04EFC702000F045FC3A20A4
:1037A00000F048FC052000F03FFCB22000F042FC95
:1037B0000C2000F039FC0C2000F036FC002000F05A
:1037C00033FC332000F030FC332000F02DFCB72018
:1037D00000F030FC352000F027FCBB2000F02AFC74
:1037E000322000F021FCC22000F024FC012000F077
:1037F0001BFCC32000F01EFC152000F015FCC420AB
:1038000000F018FC202000F00FFCC62000F012FC95
:103810000F2000F009FCD02000F00CFCA42000F0E8
:1038200003FCA12000F000FCE02000F003FCD0200D
:1038300000F0FAFB082000F0F7FB0E2000F0F4FB8C
:10384000092000F0F1FB092000F0EEFB052000F05C
:10385000EBFB312000F0E8FB332000F0E5FB4820D3
:1038600000F0E2FB172000F0DFFB142000F0DCFB8F
:10387000152000F0D9FB312000F0D6FB342000F0F9
:10388000D3FBE12000F0D6FBD02000F0CDFB0820D8
:1038900000F0CAFB0E2000F0C7FB092000F0C4FBBB
:1038A000092000F0C1FB152000F0BEFB312000F024
:1038B000BBFB332000F0B8FB482000F0B5FB17201D
:1038C00000F0B2FB142000F0AFFB152000F0ACFBC1
:1038D000312000F0A9FB342000F0A6FB212000F0ED
:1038E000A9FB292000F0A6FB10BD00000004024047
:1038F0002DE9FF5F80468A4617469B460F9D0020B4
:103900000290CDF80080284605EBD071C1F3470442
:103910002046E21704EB5272D2102146E31704EB63
:103920005373DB10A4EBC3030BB1012300E00023AE
:103930001A446A4392B20192A7F12000C7B20AEB7F
:103940000500401E83B208EB0400401E82B25146BF
:103950004046FFF7B6FE002669E00C2D07D107EBC5
:103960004700354901EB8000805D03901BE0102D7E
:1039700005D1324800EB0710805D039013E0182D4D
:1039800007D107EB47002E4901EB0010805D039043
:1039900009E0202D05D12B4800EB8710805D0390B6
:1039A00001E0BDE8FF9F4FF000093AE01098C8B968
:1039B000012000FA09F00399084018B1584600F0B8
:1039C0002AFB02E00E9800F026FB0298401CC0B2D1
:1039D0000290029890FBF4F104FB1100E8B900207A
:1039E000029021E0012000FA09F00399084020B17B
:1039F0005A4651464046FFF781FE08F101001FFA82
:103A000080F80098A8EB0000A04206D1DDF8008005
:103A10000AF101001FFA80FA06E009F1010000F046
:103A2000FF09B9F1080FC1DB00BF701C86B2019815
:103A3000864292DB00BFB4E7B05300082458000868
:103A4000145E0008E46F00082DE9FE4F80468946A9
:103A500017469A46DDE90D460C9D36E00C2C09D13F
:103A600053463A4649464046CDE90146009500F0A6
:103A700031F825E0102C09D153463A4649464046D4
:103A8000CDE90146009500F0C9F819E0182C09D1DC
:103A900053463A4649464046CDE90146009500F076
:103AA00059F90DE0202C09D153463A464946404683
:103AB000CDE90146009500F0F1F901E0BDE8FE8F87
:103AC000BF1C08EB04001FFA80F838780028C5D125
:103AD00000BFF3E72DE9FF5F0646894692469B4605
:103AE0000F9C0020039000962046E21704EB5272D0
:103AF000D2102146E31704EB5373DB10A4EBC3038E
:103B00000BB1012300E000231A44624392B20192F8
:103B100005200290002579E005EB850000EBC5004B
:103B20003D4911F810009AF8001088426BD105EB5E
:103B3000850000EBC500384901EB400040789AF859
:103B4000011088425FD109EB0400401E83B2301996
:103B5000401E82B249463046FFF7B3FD00274FE0D2
:103B60004FF0000846E0109808BB05EB850000EB1D
:103B7000C500294901EB4000801CC05D012101FA0C
:103B800008F1084018B1584600F045FA02E00E98D6
:103B900000F041FA0398401CC0B20390039890FBD8
:103BA000F4F104FB110008BB0020039025E005EBB5
:103BB000850000EBC500184901EB4000801CC05D8A
:103BC000012101FA08F1084020B15A464946304621
:103BD000FFF794FD701C86B20098301AA04205D100
:103BE000009E09F101001FFA80F906E008F10100CA
:103BF00000F0FF08B8F1080FB5DB00BF781CC7B2B2
:103C000001988742ACDB00BF681C85B202988542F0
:103C100082DBBDE8FF9F0000A48700082DE9FF5F5D
:103C20000646894692469B460F9C002003900096CC
:103C30002046E21704EB5272D2102146E31704EB40
:103C40005373DB10A4EBC3030BB1012300E000238B
:103C50001A44624392B2019205200290002571E05D
:103C600005EB05103A4911F810009AF80010884247
:103C700065D105EB0510364901EB400040789AF814
:103C8000011088425BD109EB0400401E83B2301959
:103C9000401E82B249463046FFF713FD00274BE035
:103CA0004FF0000842E01098F8B905EB05102849DC
:103CB00001EB4000801CC05D012101FA08F10840C1
:103CC00018B1584600F0A7F902E00E9800F0A3F9E9
:103CD0000398401CC0B20390039890FBF4F104FBDE
:103CE0001100F8B90020039023E005EB05101849F6
:103CF00001EB4000801CC05D012101FA08F1084081
:103D000020B15A4649463046FFF7F8FC701C86B28F
:103D10000098301AA04205D1009E09F101001FFA57
:103D200080F906E008F1010000F0FF08B8F1080F83
:103D3000B9DB00BF781CC7B201988742B0DB00BF77
:103D4000681C85B2029885428ADBBDE8FF9F0000AF
:103D5000268800082DE9FF5F0646894692469B4665
:103D60000F9C0020039000962046E21704EB52724D
:103D7000D2102146E31704EB5373DB10A4EBC3030B
:103D80000BB1012300E000231A44624392B2019276
:103D90001C200290002579E005EB850000EB451022
:103DA0003D4911F810009AF8001088426BD105EBDC
:103DB000850000EB4510384901EB400040789AF847
:103DC000011088425FD109EB0400401E83B2301914
:103DD000401E82B249463046FFF773FC00274FE091
:103DE0004FF0000846E0109808BB05EB850000EB9B
:103DF0004510294901EB4000801CC05D012101FAFA
:103E000008F1084018B1584600F005F902E00E9894
:103E100000F001F90398401CC0B20390039890FB96
:103E2000F4F104FB110008BB0020039025E005EB32
:103E3000850000EB4510184901EB4000801CC05D77
:103E4000012101FA08F1084020B15A46494630469E
:103E5000FFF754FC701C86B20098301AA04205D1BE
:103E6000009E09F101001FFA80F906E008F1010047
:103E700000F0FF08B8F1080FB5DB00BF781CC7B22F
:103E800001988742ACDB00BF681C85B2029885426E
:103E900082DBBDE8FF9F0000D08800082DE9FF5FAE
:103EA0000646894692469B460F9C0020039000964A
:103EB0002046E21704EB5272D2102146E31704EBBE
:103EC0005373DB10A4EBC3030BB1012300E0002309
:103ED0001A44624392B2019217200290002571E0C9
:103EE00005EB85103A4911F810009AF80010884245
:103EF00065D105EB8510364901EB400040789AF812
:103F0000011088425BD109EB0400401E83B23019D6
:103F1000401E82B249463046FFF7D3FB00274BE0F4
:103F20004FF0000842E01098F8B905EB85102849D9
:103F300001EB4000801CC05D012101FA08F108403E
:103F400018B1584600F067F802E00E9800F063F8E8
:103F50000398401CC0B20390039890FBF4F104FB5B
:103F60001100F8B90020039023E005EB85101849F3
:103F700001EB4000801CC05D012101FA08F10840FE
:103F800020B15A4649463046FFF7B8FB701C86B24E
:103F90000098301AA04205D1009E09F101001FFAD5
:103FA00080F906E008F1010000F0FF08B8F1080F01
:103FB000B9DB00BF781CC7B201988742B0DB00BFF5
:103FC000681C85B2029885428ADBBDE8FF9F00002D
:103FD000E89000082DE9FE4F06460F461446984625
:103FE000DDE90D5ADDF8309010E0CDE9015ACDF849
:103FF00000902278434639463046FFF779FC284640
:1040000005EBD07106EB61018EB2641C20780028AC
:10401000EBD1BDE8FE8F10B50446201200F01EF86B
:10402000E0B200F01BF810BD10B50446204600F0C9
:1040300015F810BD10B5044600224FF40061064883
:10404000FCF7AEFE204600F009F80122D10202483A
:10405000FCF7A6FE10BD00000008024001B50022DA
:104060004FF400410748FCF79BFE4FF47A7301229E
:1040700069460548FDF76EFF0122D1030148FCF7B0
:104080008FFE08BD00000240B00800201CB50020D3
:10409000019001A9FE20FCF76DFB9DF80400122899
:1040A00004D1012211021248FCF77AFE0020009090
:1040B0006946FF20FCF75EFB9DF80000552801D102
:1040C00000201CBD9DF8040012280FD05524214665
:1040D000FF20FCF765FB6946FF20FCF74BFB9DF8D2
:1040E0000000552801D10020EBE700BF0120E8E7E0
:1040F0000008024008B500BF002000900A48006890
:1041000040F40010084908600846006800F40010F8
:10411000009000BF00BF002211461120FDF756FAA3
:104120001120FDF73FFA08BD3038024000B587B0D6
:10413000142102A8FCF77EF800BF002001906F4810
:10414000006840F010006D4908600846006800F003
:104150001000019000BF00BF00BF00200190084682
:10416000006840F0800008600846006800F08000A9
:10417000019000BF00BF00BF00200190084600680A
:1041800040F0040008600846006800F00400019058
:1041900000BF00BF00BF002001900846006840F04B
:1041A000010008600846006800F00100019000BFAF
:1041B00000BF00BF002001900846006840F00200E8
:1041C00008600846006800F00200019000BF00BFD0
:1041D00000BF002001900846006840F00800086019
:1041E0000846006800F00800019000BF00BF0122EF
:1041F00004214348FCF7D4FD002248F2060141485F
:10420000FCF7CEFD00224FF411613F48FCF7C8FDDA
:1042100000224FF4C0713A48FCF7C2FD0022202171
:104220003A48FCF7BDFD04200290112003900020C5
:104230000490059002A93248FCF7B0FC0C200290D3
:104240004FF4041003900120049002A92E48FCF7BB
:10425000A5FC48F206000290012003900020049083
:10426000059002A92748FCF799FC4FF411600290D1
:104270000120039000200490059002A92248FCF739
:104280008DFC4FF4C0700290012003900020049038
:10429000059002A91A48FCF781FC4FF440500290A7
:1042A0004FF4041003900120049002A91748FCF772
:1042B00075FC2020029001200390002004900590BE
:1042C00002A91248FCF76AFC002211460820FDF7FB
:1042D0007DF90820FDF766F9002211460920FDF757
:1042E00075F90920FDF75EF9002211462820FDF737
:1042F0006DF92820FDF756F907B000BD30380240AF
:104300000010024000000240000802400004024089
:1043100010B50B480B4908600B484860002109485C
:104320008160C1604FF48041016100214161816180
:10433000C1610162FCF740FD08B1FCF771FA10BDE4
:10434000005C004004080020A086010010B50F4862
:104350000F4908604FF48270486000210C4881606A
:10436000C16002210161012141614902816108218D
:10437000C16100210162416281620A21C162FDF7CF
:1043800005FD08B1FCF74CFA10BD000000300140FB
:104390005808002010B50F480F4908604FF482708C
:1043A00048604FF400410C4881600021C160016108
:1043B00041614FF4007181610021C161016241627C
:1043C00081620A21C162FDF7E1FC08B1FCF728FA1D
:1043D00010BD0000003C0040B008002000B595B0C2
:1043E000002011901290139014900F9010901C21A7
:1043F00008A8FBF71FFF20216846FBF71BFF2B488F
:104400002B4908605320486000212948816040F210
:10441000E731C1600021016141618161FDF72AFF3F
:1044200008B1FCF7FDF94FF48050119011A9204814
:10443000FEF765F808B1FCF7F3F91D48FEF7E1FB5C
:1044400008B1FCF7EDF900200F9010900FA9184863
:10445000FDF7B6FE08B1FCF7E3F9702008900020E4
:1044600009900A900B900C900D900E90002208A9D4
:104470000F48FEF744FB08B1FCF7D2F9002000908A
:1044800001900290039004904FF40050059000209A
:10449000079069460648FDF758FE08B1FCF7C0F9D9
:1044A0000348FEF7B3FA15B000BD0000000001405C
:1044B0000809002000B58DB0002009900A900B90EB
:1044C0000C90079008901C216846FBF7B3FE4FF054
:1044D0008040204908600020486000211D4881601C
:1044E0006821C1600021016180218161FDF7C2FE68
:1044F00008B1FCF795F94FF48050099009A91548C7
:10450000FDF7FDFF08B1FCF78BF91248FEF779FBC8
:1045100008B1FCF785F900200790089007A90D481D
:10452000FDF74EFE08B1FCF77BF9602000900020FB
:1045300001900290042004900C2269460548FEF781
:10454000DEFA08B1FCF76CF90248FEF75FFA0DB02D
:1045500000BD00005009002000B587B00020039086
:104560000490059006900190029015481549086046
:1045700042F2CF0048600021124881606321C1608F
:104580000021016180218161FDF774FE08B1FCF713
:1045900047F94FF48050039003A90A48FDF7AFFF95
:1045A00008B1FCF73DF900200190029001A90548EF
:1045B000FDF706FE08B1FCF733F907B000BD0000B7
:1045C000000400409809002000B58BB0242102A807
:1045D000FBF730FE00200090019018481849086051
:1045E000002048600021164881604FF6FF71C160CD
:1045F00000210161816101200290002003900120CF
:10460000049000200590069007900120089000205B
:1046100009900A9002A90A48FDF7F7FF08B1FCF7D4
:10462000FFF800200090019069460548FDF7C8FD9D
:1046300008B1FCF7F5F80BB000BD00000008004021
:10464000E009002000B58DB0002009900A900B9081
:104650000C90079008901C216846FBF7EBFD204862
:10466000204908605320486000211E48816040F2C4
:10467000E731C160002101618161FDF7FBFD08B1F7
:10468000FCF7CEF84FF48050099009A91548FDF7C2
:1046900036FF08B1FCF7C4F81248FEF7B2FA08B1C9
:1046A000FCF7BEF800200790089007A90D48FDF719
:1046B00087FD08B1FCF7B4F870200090002001904D
:1046C00002900490002269460648FEF718FA08B1E5
:1046D000FCF7A6F80348FEF799F90DB000BD0000FD
:1046E000000C0040280A002000B58BB0242102A84D
:1046F000FBF7A0FD002000900190184818490860C1
:10470000002048600021164881604FF6FF71C160AB
:10471000002101614161816101200290002003902C
:104720000120049000200590069007900120089039
:10473000002009900A9002A90948FDF766FF08B118
:10474000FCF76EF800200090019069460448FDF7E0
:1047500037FD08B1FCF764F80BB000BD0004014060
:10476000700A002010B50B480B4908604FF4E13087
:104770004860002108488160C16001610C214161ED
:1047800000218161C161FEF754FC08B1FCF748F8D3
:1047900010BD000000100140180B002000BFFEE714
:1047A0002DE9F04104460D4616460027002D3FDB5B
:1047B000B5F57A7F3CDCC5F57A77012E19D1012C4D
:1047C00009D1002204211B48FCF7EAFA0122022148
:1047D0001848FCF7E5FA4CB9012204211548FCF70A
:1047E000DFFA002202211348FCF7DAFA12480068C7
:1047F0004763D6B9012C09D1002280210F48FCF76C
:10480000CFFA012211020D48FCF7CAFA54B901226D
:1048100080210A48FCF7C4FA00224FF4807107484F
:10482000FCF7BEFA0648006847630020BDE8F08147
:104830000120FBE700000240280A0020001002408F
:104840000809002010B504462CB900210D48FEF7D8
:104850000DFA002010BD012C05D100210A48FEF7F9
:1048600005FA0020F6E7022C09D100210548FEF7E1
:10487000FDF900210448FEF7F9F90020EAE70120DC
:10488000E8E7000008090020280A002000BFFEE732
:10489000704700007CB504460E461546334601229B
:1048A00002212046009500F039F828B1606D40F0F3
:1048B0002000606503207CBD164800681821B0FB0D
:1048C000F1F01549B0FBF1F04FF47A7148430190D3
:1048D0006068B0F5827F0DD13346002280212046EA
:1048E000009500F01BF898B1606D40F02000606505
:1048F0000320E0E700BF019800B908E00198401EDE
:10490000019020688068C0F3C0100028F3D100BF78
:104910000020D0E73804002040420F002DE9F84F76
:1049200004460D4690461E46DDF82890FCF73EFAF8
:10493000A0EB0900371AFCF739FA82462C480068C8
:10494000C0F3CB307843009045E0701C002842D083
:10495000FCF72CFAA0EB0A00B84200D2A7BB2068F3
:10496000406820F0E000216848606068B0F5827F10
:104970000DD1A068B0F5004F03D0A068B0F5806FEE
:1049800005D12068006820F0400021680860A06A16
:10499000B0F5005F0DD100BF2068006820F4005022
:1049A000216808602068006840F4005021680860B1
:1049B00000BF012084F8510000BF002084F850009F
:1049C00000BF0320BDE8F88FFFE7009800B900277B
:1049D0000098401E0090206880682840A84201D1BD
:1049E000012000E000204045AFD10020EAE70000B0
:1049F00038040020704710B5FCF760FD10BD0000C2
:104A000000B593B0302107A8FBF714FC142102A8CD
:104A1000FBF710FC00BF002001902448006840F024
:104A20008050224908600846006800F080500190DC
:104A300000BF00BF00BF002001901D48006840F487
:104A400080401B4908600846006800F480400190DF
:104A500000BF00BF012007900004089002200D90C5
:104A600041050E9104210F91A8211091022111916D
:104A70000421129107A8FCF73BFF08B1FBF7D0FE19
:104A80000F20029002200390002004904FF4A050C9
:104A900005904FF480500690052102A8FCF7E8FD30
:104AA00008B1FBF7BDFE13B000BD00004038024066
:104AB000007000400348006840F47000014908603D
:104AC0007047000088ED00E010B50248FDF7E7FEF2
:104AD00010BD00005009002010B50248FDF7DFFEB0
:104AE00010BD00009809002010B502682D4B9842B7
:104AF0000ED0B0F1804F0BD02B4B984208D02B4BEF
:104B0000984205D02A4B984202D02A4B984203D1B2
:104B100022F070024B681A43224B984220D0B0F129
:104B2000804F1DD0204B98421AD0204B984217D06E
:104B30001F4B984214D01F4B984211D01E4B9842E5
:104B40000ED01E4B98420BD01D4B984208D01D4BE7
:104B5000984205D01C4B984202D01C4B984203D17E
:104B600022F44072CB681A4322F080034C6943EA76
:104B7000040202608B68C3620B688362094B98422F
:104B800002D00C4B984201D10B69036301234361AE
:104B9000036903F001031BB1036923F001030361FF
:104BA00010BD00000000014000040040000800406B
:104BB000000C00400004014000400140004401405E
:104BC0000048014000180040001C00400020004048
:104BD00030B501F01F05012404FA05F3046A9C4373
:104BE0000462046A01F01F0502FA05F52C43046211
:104BF00030BD30B50C46816821F47F4142EA03257F
:104C000025432943816030BD0A46816821F0700147
:104C100042F00703194381607047000030B5026A13
:104C2000056A25F0010505624368846924F0700473
:104C300024F003040D682C4322F002028D682A43FD
:104C4000104DA84200D103E00F4DA84206D100BF8D
:104C500022F00802CD682A4322F00402094DA8423E
:104C600002D0094DA84207D123F4807323F40073C6
:104C70004D692B438D692B43436084614D684563C7
:104C8000026230BD000001400004014030B5026AFC
:104C9000056A25F0100505624368846924F4E04440
:104CA00024F440740D6844EA052422F020028D6843
:104CB00042EA0512124DA84200D103E0114DA8426C
:104CC00007D100BF22F08002CD6842EA051222F02F
:104CD00040020B4DA84202D00A4DA84209D123F44C
:104CE000806323F400634D6943EA85038D6943EAD9
:104CF0008503436084614D688563026230BD0000B6
:104D0000000001400004014030B5026A056A25F444
:104D1000807505624368C46924F0700424F00304BC
:104D20000D682C4322F400728D6842EA0522124D70
:104D3000A84200D103E0114DA84207D100BF22F4E0
:104D40000062CD6842EA052222F480620A4DA84240
:104D500002D00A4DA84209D123F4805323F4005312
:104D60004D6943EA05138D6943EA05134360C46145
:104D70004D68C563026230BD00000140000401407F
:104D800030B5036A056A25F4805505624468C26936
:104D900022F4E04222F440720D6842EA052223F434
:104DA00000538D6843EA0533084DA84202D0084DF0
:104DB000A84204D124F480444D6944EA8514446037
:104DC000C2614D680564036230BD0000000001400F
:104DD0000004014030B50B461446026A056A25F00E
:104DE00001050562816921F0F00141EA041122F018
:104DF0000A021A438161026230BD30B50B46144687
:104E0000026A056A25F010050562816921F4704186
:104E100041EA043122F0A00242EA031281610262F7
:104E200030BD00002DE9F84F04462068006920F4E9
:104E30004050E1680843216808612169A06808437F
:104E400061690843E169084300902068C06849F23D
:104E50000C618843009908432168C8602068406954
:104E600020F44070A16908432168486176492068B0
:104E7000884203D075492068884203D1FCF7D0FCF2
:104E8000814602E0FCF7BCFC8146E069B0F5004FCA
:104E90006CD102206168A0FB015003461920A9FBD8
:104EA000007001462A463846FBF78CF96421B0FBB6
:104EB000F1F04FEA001A02206168A0FB01510B4695
:104EC0001920A9FB00712A463846FBF77BF9834677
:104ED00002206168A0FB015003461920A9FB007164
:104EE0002A463846FBF76EF96421B0FBF1F000EB7F
:104EF000C00101EB0010ABEB8000322101EBC000E0
:104F00006421B0FBF1F000F0F8000AEB400A022047
:104F10006168A0FB015003461920A9FB00700146FF
:104F20002A463846FBF74EF9834602206168A0FB0B
:104F3000015003461920A9FB00712A463846FBF7A9
:104F400041F96421B0FBF1F000EBC00101EB00106E
:104F5000ABEB8000322101EBC0006421B0FBF1F02B
:104F600000F007005044216888606AE0042061680E
:104F7000A0FB015003461920A9FB007001462A46F8
:104F80003846FBF71FF9824604206168A0FB0150F8
:104F900003461920A9FB007001462A463846FBF754
:104FA00011F96421B0FBF1F000EBC00101EB00103E
:104FB000AAEB8000322101EB00106421B0FBF1F07C
:104FC00000F0F00A04206168A0FB0170034619207C
:104FD000A9FB00513A462846FBF7F4F86421B0FBE0
:104FE000F1F00AEB001A04206168A0FB01510B46A6
:104FF0001920A9FB00712A463846FBF7E3F88346DF
:1050000004206168A0FB015003461920A9FB007031
:1050100001462A463846FBF7D5F86421B0FBF1F08B
:1050200000EBC00101EB0010ABEB8000322101EB83
:1050300000106421B0FBF1F000F00F005044216833
:105040008860BDE8F88F00000010014000140140A6
:1050500000BFFEE7F0B504460D4604EB4400C10076
:1050600000202AE002FA00F606F080060EB146267D
:1050700000E023260F18DFF848C04CF8276005FA37
:1050800000F606F080060EB1462700E023270E1832
:105090000836DFF82CC04CF8267003FA00F606F04C
:1050A00080060EB1462700E023270E181036DFF8E1
:1050B00010C04CF82670461CF0B20828D2DBF0BDB8
:1050C0003C0400200FB4084B10B504A902AA0398B1
:1050D00000F038F8044602A9002000F0DDF8204670
:1050E00010BC5DF814FB00009952000802480068EB
:1050F000C0F30220704700000CED00E010B500285E
:1051000004DB0A07130E054A135406E00A07140EBF
:10511000034A00F00F031B1FD45410BD00E400E04D
:1051200018ED00E002E008C8121F08C1002AFAD1F9
:1051300070477047002001E001C1121F002AFBD117
:10514000704700002DE9FF4F89B09B4604460025BB
:1051500006E025280BD05A460B999047641C6D1C1D
:1051600020780028F5D10DB02846BDE8F08F002743
:10517000B8460122474900E0074314F8013F203BAD
:1051800002FA03F00842F7D120782E2819D114F83A
:10519000010F47F004072A280ED06FF02F02207865
:1051A000A0F1300109290CD808EB880102EB41017C
:1051B00000EB0108641CF2E70A98641C50F8048BA9
:1051C0000A9020780028CED0642808D0692806D01C
:1051D00075281ED05A460B9990476D1C58E00A99C5
:1051E0004FF00A0901C90A91002802DA40422D2134
:1051F00002E0390504D52B218DF82010012103E0B0
:10520000F90704D02021F7E78A4608AE0DE0002117
:10521000FAE70A994FF00A0901C90A91F7E74946E6
:10522000FBF713F8303106F8011D0028F7D1ADEB7C
:10523000060000F12009780701D44FF00108C845A5
:1052400002DDA8EB090000E000208046002706E010
:1052500008A85A46C05D0B9990476D1C7F1C5745A6
:10526000F6DB04E030205A460B9990476D1CB8F1EC
:105270000001A8F10108F5DC05E016F8010B5A461B
:105280000B9990476D1CB9F10001A9F10109F4DCFB
:10529000641C65E7092801000A68531C0B60107044
:1052A000704700008AB0FCF715F9FFF7A9FBFEF77D
:1052B0003DFFFEF71FFFFFF72BF8FFF747F8FFF75B
:1052C00069F8FFF7F7F8FFF74DFAFFF787F8FFF7F0
:1052D0007BF9FFF7B7F9FFF707FAFFF73DF9FEF79C
:1052E00041FA0020F0231A4601460090FEF714FA16
:1052F0003C212948FDF76CFA3C212848FDF768FA63
:105300002748FDF789F8FEF7C1FE08B1FBF788FAD8
:1053100000200790089009900490059006900022C4
:10532000C8211046FFF73CFA0122C8210020FFF7F0
:1053300037FAC820FBF70EFC0220FFF783FA29E0BA
:105340001848028818A107A8FFF7BCFE002010210A
:10535000CDE900014FF6FF7307AA01460290FEF760
:1053600039FE1248028810A104A8FFF7ABFE002006
:105370001021CDE900014FF6FF7304AA0146029007
:105380005020FEF727FE00201423A02201460090A3
:10539000FEF7C2F9D4E70000E0090020700A0020FF
:1053A00050090020040000202564000006000020B1
:1053B00000000000000000000000000000000404E5
:1053C000040404000004000014140A00000000009B
:1053D0000000000000000A0A1F0A0A1F0A0A000053
:1053E00000040E1505060C14150E0400000012151D
:1053F0000D152E2C2A1200000000040A0A3615157D
:105400002916000002020100000000000000000058
:105410001008080404040404080810000204040826
:10542000080808080404020000000004150E0E1508
:105430000400000000000008083E0808000000000A
:105440000000000000000000020201000000000057
:10545000003F00000000000000000000000000000D
:1054600000020000002010100808040402020100DD
:1054700000000E1111111111110E000000000406A0
:1054800004040404040E000000000E1111080402BC
:10549000011F000000000E11100C1010110E000072
:1054A0000000080C0C0A091F081C000000001F0166
:1054B000010F1110110E000000000C12010D13114C
:1054C000110E000000001E1008080404040400006F
:1054D00000000E11110E1111110E000000000E112E
:1054E0001119161009060000000000000400000059
:1054F000000400000000000000040000000404009C
:10550000000010080402020408100000000000005F
:105510003F003F00000000000000020408101008D7
:105520000402000000000E11110804040004000031
:1055300000001C22292D2D1D221C00000000040447
:105540000C0A0A1E1233000000000F12120E121273
:10555000120F000000001E1101010101110E0000D8
:1055600000000F1212121212120F000000001F1280
:105570000A0E0A02121F000000001F120A0E0A0281
:105580000207000000001C1201013911120C00007A
:1055900000003312121E12121233000000001F040A
:1055A00004040404041F000000003E080808080862
:1055B00008080907000037120A060A12123700000D
:1055C0000000070202020202223F000000003B1B13
:1055D0001B1B15151535000000003B1216161A1A74
:1055E0001217000000000E1111111111110E000010
:1055F00000000F12120E02020207000000000E113E
:1056000011111117190E180000000F12120E0A12B4
:105610001237000000001E1101060810110F0000D3
:1056200000001F1504040404040E000000003312DF
:1056300012121212120C000000003312120A0A0C8D
:10564000040400000000151515150E0A0A0A0000D2
:1056500000001B0A0A04040A0A1B000000001B0ABF
:105660000A0A0404040E000000001F0908040402D2
:10567000121F00001C0404040404040404041C009D
:105680000002020404040808081010000E080808AC
:105690000808080808080E00040A000000000000BE
:1056A0000000000000000000000000000000003FBB
:1056B00002040000000000000000000000000000E4
:1056C000000C121C123C000000030202020E121217
:1056D000120E000000000000001C1202120C00005C
:1056E00000181010101C1212123C000000000000E4
:1056F000000C121E021C000000182404041E0404E6
:10570000041E000000000000003C120C021C221CC1
:1057100000030202020E12121237000000040400FD
:1057200000060404040E000000080800000C08082D
:105730000808080700030202021A0A060A130000FA
:105740000007040404040404041F00000000000017
:10575000000F15151515000000000000000F1212B3
:105760001237000000000000000C1212120C0000A2
:1057700000000000000F1212120E020700000000CD
:10578000001C1212121C103800000000001B060240
:105790000207000000000000001E020C101E0000A6
:1057A00000000004041E0404041C000000000000AB
:1057B000001B1212123C000000000000001B0A0A2D
:1057C00004040000000000000015150E0A0A000085
:1057D00000000000001B0A040A1B0000000000007B
:1057E000003312120C08040300000000001E08041D
:1057F000041E000018080808080C0808080818000B
:105800000808080808080808080808080604040426
:105810000408040404040600160900000000000047
:105820000000000000000000000000000000000078
:105830000000000000000008080808080808000030
:105840001818000000486C2412000000000000003E
:10585000000000000000002424247F1212127F1296
:10586000121200000000081C2A2A0A0C1828282AF4
:105870002A1C080800000022251515152A58545422
:10588000542200000000000C1212120A7625291181
:10589000916E0000000606040300000000000000F6
:1058A0000000000000402010100808080808081038
:1058B00010204000000204080810101010101008FA
:1058C000080402000000000008086B1C1C6B08089C
:1058D0000000000000000000080808087F08080811
:1058E00008000000000000000000000000000000B0
:1058F000060604030000000000000000FE00000097
:105900000000000000000000000000000000000097
:105910000606000000008040402020101008080407
:105920000402020000000018244242424242424265
:1059300024180000000000080E08080808080808DD
:10594000083E00000000003C4242422020100804B3
:10595000427E00000000003C4242201820404042AD
:10596000221C0000000000203028242422227E2057
:10597000207800000000007E0202021A2640404209
:10598000221C0000000000382402021A2642424273
:10599000241800000000007E2222101008080808C9
:1059A000080800000000003C424242241824424201
:1059B000423C00000000001824424242645840402B
:1059C000241C000000000000000018180000000067
:1059D000181800000000000000000008000000008F
:1059E0000008080400000040201008040204081009
:1059F000204000000000000000007F0000007F0049
:105A000000000000000000020408102040201008E0
:105A1000040200000000003C4242464020101000FA
:105A2000181800000000001C225A555555552D42EB
:105A3000221C00000000000808181414243C224214
:105A400042E700000000001F2222221E22424242A2
:105A5000221F00000000007C4242010101010142BE
:105A6000221C00000000001F2242424242424242E9
:105A7000221F00000000003F4212121E12120242BA
:105A8000423F00000000003F4212121E12120202AA
:105A9000020700000000003C2222010101712122C6
:105AA000221C0000000000E7424242427E42424285
:105AB00042E700000000003E08080808080808083F
:105AC000083E00000000007C101010101010101094
:105AD0001010110F0000007722120A0E0A12122273
