:020000040800F2
:10000000280F0020A1010008194A0008193400082F
:10001000154A0008030300086553000800000000AB
:10002000000000000000000000000000154C000867
:1000300023040008000000001D4A0008174C0008B7
:10004000BB010008BB010008BB010008BB010008A0
:10005000BB010008BB010008BB010008BB01000890
:100060004107000869070008BB010008BB01000840
:10007000BB010008BB010008BB010008BB01000870
:10008000BB01000809030008BB010008BB01000810
:10009000BB010008BB010008BB010008BB01000850
:1000A000BB010008BB010008BB010008BB01000840
:1000B000E94C0008BB010008BB010008BB010008B7
:1000C000BB010008BB010008BB010008BB01000820
:1000D000BB010008BB010008BB010008BB01000810
:1000E000FD060008BB010008BB010008BB010008B9
:1000F000BB010008BB010008BB010008BB010008F0
:10010000BB010008BB010008BB010008BB010008DF
:10011000BB010008BB010008BB010008BB010008CF
:10012000BB010008BB010008BB010008BB010008BF
:10013000BB010008BB010008BB010008BB010008AF
:10014000BB010008BB010008BB010008BB0100089F
:10015000BB010008BB010008BB010008BB0100088F
:10016000BB010008BB010008BB010008BB0100087F
:10017000BB010008BB010008BB0100080000000033
:10018000BB010008BB010008DFF810D000F07CF8CC
:10019000004800476D570008AFF30080280F00208B
:1001A0000648804706480047FEE7FEE7FEE7FEE711
:1001B000FEE7FEE7FEE7FEE7FEE7FEE7D54C0008B8
:1001C000890100082DE9F05F0546002092469B4614
:1001D00088460646814640241BE02846414647465D
:1001E000224600F041F853465A46C01A914110D3B6
:1001F00011461846224600F028F82D1A67EB010830
:100200004F4622460120002100F01FF817EB00099D
:100210004E41201EA4F10104DFDC484631462A4647
:100220004346BDE8F09FD2B201E000F8012B491E21
:10023000FBD270470022F6E710B513460A46044683
:100240001946FFF7F0FF204610BD202A04DB203AB4
:1002500000FA02F1002070479140C2F1200320FA19
:1002600003F3194390407047202A04DB203A21FA17
:1002700002F00021704721FA02F3D040C2F12002BF
:100280009140084319467047064C074D06E0E06868
:1002900040F0010394E8070098471034AC42F6D3CD
:1002A000FFF776FF94A20008B4A2000870B58C187E
:1002B00010F8015B15F0070301D110F8013B2A117A
:1002C00006D110F8012B03E010F8016B01F8016B67
:1002D0005B1EF9D12B0705D40023521E0DD401F863
:1002E000013BFAE710F8013BCB1A921C03E013F82C
:1002F000015B01F8015B521EF9D5A142D8D3002061
:1003000070BD00BFFEE7000010B5024800F044FADF
:1003100010BD0000800A002001460878103818231C
:10032000B0FBF3F20848805CC865032A05D9086869
:100330006FF30900001D886503E008686FF309008A
:100340008865886D70470000CEA000080146002037
:100350008A6A8B69CBB932B1012A0DD0022A03D047
:10036000032A10D10EE000BFCB6A03F08073B3F113
:10037000807F00D1012007E0CB6AB3F1C07F00D1BC
:10038000012001E000E000BF34E08B69B3F5005FBD
:100390001AD132B1012A07D0022A03D0032A11D17F
:1003A0000AE000BF01200EE0CB6A03F08073B3F1D6
:1003B000807F00D1012006E0CB6AB3F1C07F00D17D
:1003C000012000E000BF15E032B1012A05D0022A69
:1003D00004D0032A0CD103E000BF00BF012008E0D5
:1003E000CB6A03F08073B3F1807F00D1012000E07D
:1003F00000BF00BF704730B50468246824F480242F
:1004000005682C60046863608468402C04D104682B
:10041000A2600468E16003E00468A1600468E2602F
:1004200030BD7047FEB545480078FD2803D04348ED
:100430000078FC2807D10020F0231A4620210090E4
:100440003C2003F0DDFA3E480068057800240A2DC0
:1004500001DD0A2000E0284606463A4800780A28CE
:1004600003DA38480078A84214DB36480078FF28C1
:1004700002D1681E3349087032480078A84202DB76
:100480000020304908702F4800780A2802DB00203D
:100490002C4908702A490968486800F0EBF8284898
:1004A0000068C06920BB00241FE047F67C5700208D
:1004B0001821244A1278944201D13A4600E00022E1
:1004C000CDE9002102901E48006800EB44108268CC
:1004D000601CC0EB00100A2303EB40014FF6FF73D2
:1004E0003C2003F025FC601CC4B2B442DDDB23E0F9
:1004F00000241FE047F67C5700201821114A12788B
:10050000944201D13A4600E00022CDE90021029058
:100510000B48006800EB44108268601CC0EB0010C0
:100520000A2303EB40014FF6FF733C2003F0C6FEA5
:10053000601CC4B2B442DDDBFEBD0000150000202B
:100540000C0000201400002010B546480078FF2859
:100550000BD044480078FE2807D042480078FD2898
:1005600003D040480078FC2877D13E480078FC282A
:100570005BD0FD2813D0FE2809D0FF286BD13A4864
:100580000078401E38490870FFF74CFF64E0364899
:100590000078401C34490870FFF744FF5CE03348A2
:1005A00000683149097800EB4110007B652802D0D2
:1005B000662837D11CE02D4800682B49097800EBEC
:1005C0004110406990B129480068294908602748CE
:1005D00000682549097800EB41104069234908600B
:1005E000002021490870FFF71DFF00E01BE01AE022
:1005F0001E4800681C49097800EB4110006978B179
:100600001A4A1268184B1B7802EB43129068174A7B
:100610001268154B1B7802EB43121169884700E002
:1006200001E000E000BF00BF16E01148006880B1A3
:100630000F4800680D4908600846006880690C4949
:100640000860002008490870FFF7ECFE02E004E0B3
:1006500001E001E000E000BF00BF00200149087098
:1006600010BD000015000020140000200C00002028
:10067000100000203EB504460020202148F2304200
:100680004FF6FF73CDE900210290224601463C203F
:1006900003F04EFB3EBD00003EB504460D464FF450
:1006A0007A7001210B462246CDE900510290A1212A
:1006B000034800F06BFC08B900203EBD0120FCE7B8
:1006C0001408002013B584B004464FF47A70012159
:1006D00005AA0B46CDE9002102902246A02106483A
:1006E00000F0D8FD28B9052000F036FA002006B049
:1006F00010BD0120FBE700001408002010B54FF4E6
:1007000080510D4800F046FB10B9FC200B490870E1
:100710004FF40051084800F03DFB10B9FD20074997
:100720000870FFF711FF4FF4805000F02BFA4FF4E0
:10073000005000F027FA10BD000402401500002010
:1007400010B50421064800F025FB10B9FF2005492B
:100750000870FFF7F9FE042000F014FA10BD000045
:10076000000802401500002010B50821064800F0DE
:1007700011FB10B9FE2005490870FFF7E5FE0820BF
:1007800000F000FA10BD0000000802401500002033
:1007900072B600BFFEE70000F8B5044600200090E6
:1007A0008C4800684FF41651B0FBF1F7A56D2E6828
:1007B00094F85C1008208840304098B120680068A8
:1007C00000F0040070B12068006820F00400216887
:1007D000086094F85C1008208840A860606D40F0C4
:1007E0000100606594F85C1001208840304068B1D9
:1007F0002068406900F0800040B194F85C1001204E
:100800008840A860606D40F00200606594F85C105C
:1008100004208840304068B12068006800F0020081
:1008200040B194F85C1004208840A860606D40F0EE
:100830000400606594F85C1010208840304078B364
:100840002068006800F0080050B394F85C10102095
:100850008840A8602068006800F4802080B120688B
:10086000006800F4002028B9206CC8B12046216C33
:10087000884715E0A06C98B12046A16C88470FE02E
:100880002068006800F4807028B92068006820F0B3
:10089000080021680860206C10B12046216C884750
:1008A00094F85C10202088403040002865D02068F3
:1008B000006800F0100000285FD094F85C10202041
:1008C0008840A86094F83500052828D12068006881
:1008D00020F01600216808602068406920F0800040
:1008E00021684861206C08B9A06C28B120680068B4
:1008F00020F008002168086094F85C103F208840D0
:10090000A860012084F8350000BF002084F834007E
:1009100000BF206D10B12046216D8847F8BD2068CA
:10092000006800F4802080B12068006800F4002096
:1009300028B9606C10B12046616C88471DE0E06BFF
:10094000D8B12046E16B884717E02068006800F4C2
:10095000807068B92068006820F010002168086085
:10096000012084F8350000BF002084F8340000BF67
:10097000E06B10B12046E16B8847606D38B3606D65
:1009800000F00100F0B1052084F83500206800680F
:1009900020F001002168086000BF0098401C009012
:1009A000B84200D905E02068006800F00100002886
:1009B000F3D100BF012084F8350000BF002084F887
:1009C000340000BFE06C10B12046E16C884700BFE6
:1009D000A4E70000440400202DE9F041044600256E
:1009E00000F0E6F9074614B90120BDE8F081606A1D
:1009F00000B100BF022084F8350000BF002084F859
:100A0000340000BF2068006820F001002168086001
:100A10000AE000F0CDF9C01B052805D9202060654B
:100A2000032084F83500E0E72068006800F001004A
:100A30000028EED12068056821480540D4E901016D
:100A40000843E16808432169084361690843A169D3
:100A50000843E1690843216A08430543606A0428A2
:100A600003D1D4E90B0108430543206805602068E1
:100A7000456925F00705606A0543606A04280DD1C1
:100A8000A06A0543E06A48B12046FFF75FFC28B141
:100A900040206065012084F83500A6E720684561A4
:100AA0002046FFF739FC064694F85C103F2088404A
:100AB000B06000206065012084F83500002094E7D4
:100AC0003F8010F02DE9F04704460D4616461F46BC
:100AD0004FF00008D4F8589000BF94F83400012873
:100AE00002D10220BDE8F087012084F8340000BF65
:100AF00094F83500012825D1022084F83500002023
:100B000060653B46324629462046FFF774FC94F860
:100B10005C103F208840C9F808002068006840F059
:100B2000160021680860206C28B12068006840F039
:100B30000800216808602068006840F00100216812
:100B4000086006E000BF002084F8340000BF4FF0CA
:100B500002084046C6E7000070B5044600F028F9D8
:100B600006462546681C10B104480078054400BFBD
:100B700000F01EF9801BA842FAD370BD400400208B
:100B80007047000010B5044604480068204020B1BA
:100B9000024804602046FFF7F3FF10BD143C0140FB
:100BA000F8B502460B460025002400200021D6E0BF
:100BB000012606FA01F51E6806EA0504AC4274D166
:100BC0001E7906F00306012E04D01E7906F00306F6
:100BD000022E13D190684F000326BE40B0434F0051
:100BE000DE68BE4030439060506801268E40B043BE
:100BF0001E79C6F300168E40304350601E7906F011
:100C00000306032E09D0D0684F000326BE40B04330
:100C10004F009E68BE403043D0601E7906F0030648
:100C2000022E13D1CF0802F1200656F827004E07F6
:100C3000F70E0F26BE40B0434F07FF0E1E69BE40A1
:100C40003043CF0802F1200646F8270010684F0015
:100C50000326BE40B0431E7906F003064F00BE4097
:100C6000304310605E6806F44036002E76D000BF38
:100C7000002600963C4E366846F480463A4F3E6069
:100C80003E46366806F48046009600BF00BF374EE9
:100C90008F0856F827008E07370F0F26BE40B04347
:100CA000334EB24202D1002624E057E0314EB24228
:100CB00001D101261EE0304EB24201D1022619E0D8
:100CC0002E4EB24201D1032614E02D4EB24201D184
:100CD00004260FE02B4EB24201D105260AE02A4E2F
:100CE000B24201D1062605E0284EB24201D10726C4
:100CF00000E008268F073F0FBE4030431B4E8F0891
:100D000046F82700224E3068A0435E6806F480163D
:100D100006B120431E4E3060361D3068A0435E6829
:100D200006F4001606B12043194E361D3060184EE9
:100D3000361F3068A0435E6806F4003606B12043D3
:100D4000134E361F3060361F3068A0435E6806F4CD
:100D5000803606B120430E4E083E3060491C1029F3
:100D6000FFF426AFF8BD00004438024008380140C7
:100D7000000002400004024000080240000C024053
:100D8000001002400014024000180240001C024003
:100D9000083C0140024613690B400BB1012000E002
:100DA000002070470AB1816101E00B048361704744
:100DB00001480068704700003804002070B5044600
:100DC0000CB9012070BD94F83D0028B9002084F8CA
:100DD0003C00204600F010FB242084F83D002068F1
:100DE000006820F00100216808602068006840F475
:100DF0000040216808602068006820F400402168F5
:100E0000086000F0FFFC05465C496068884206D82F
:100E10005B48854201D2012007E0002005E05948E7
:100E2000854201D2012000E00020012800D1C9E75D
:100E30005548B5FBF0F62068406820F03F0030438D
:100E4000216848604D496068884201D8701C07E0FD
:100E50004FF4967070434FF47A71B0FBF1F0401C80
:100E60002168096A21F03F0108432168086243496B
:100E70006068884214D8681E61684900B0FBF1F0D0
:100E8000401CC0F30B00042801D204203DE0681E82
:100E900061684900B0FBF1F0401CC0F30B0034E086
:100EA000A06838B9681E616801EB4101B0FBF1F040
:100EB000401C0AE0681E616801EBC10202EB0111EF
:100EC000B0FBF1F0401C40F48040C0F30B0008B9C7
:100ED00001201AE0A06848B9681E616801EB410171
:100EE000B0FBF1F0401CC0F30B000CE0681E616821
:100EF00001EBC10202EB0111B0FBF1F0401CC0F3A9
:100F00000B0040F4804040F400402168C9694CF671
:100F1000FF72914308432168C861D4E9070108437F
:100F20002168096821F0C001084321680860D4E9FC
:100F3000031008432168896848F2FF32914308434F
:100F400021688860D4E9050108432168C96821F057
:100F5000FF0108432168C8602068006840F0010074
:100F60002168086000202064202084F83D000020D3
:100F7000206384F83E0000BF24E70000A086010043
:100F800080841E0000093D0040420F002DE9FC5FF7
:100F900004460F4690469946DDE90CAB0E9EFFF7DE
:100FA00007FF054694F83D00202870D1192301223F
:100FB000B5492046009502F0A4FB10B10220BDE81F
:100FC000FC9F00BF94F83C00012801D10220F6E705
:100FD000012084F83C0000BF2068006800F0010098
:100FE00028B92068006840F0010021680860206886
:100FF000006820F4006021680860222084F83D0029
:10100000402084F83E0000202064C4F824A0A4F806
:101010002AB0608D20859D48E0624B4642463946A5
:101020002046CDE9006502F019FA08B10120C6E7B3
:10103000208D88B900BF0020019020684069019090
:1010400020688069019000BF00BF2068006840F4FC
:1010500000702168086040E0208D012818D12068C8
:10106000006820F480602168086000BF00200190C3
:1010700020684069019020688069019000BF00BF2E
:101080002068006840F400702168086025E0F8E0FE
:10109000208D022816D12068006820F48060216825
:1010A00008602068006840F400602168086000BFA4
:1010B00000200190206840690190206880690190BB
:1010C00000BF0AE000BF0020019020684069019045
:1010D00020688069019000BF00BFC3E0208D032815
:1010E0007ED8208D012815D12A463146204602F0AF
:1010F000E4FB08B1012062E720680069616A0870BA
:10110000606A401C6062208D401E2085608D401EFC
:101110006085A7E0208D02282AD1334600225C4951
:101120002046009502F0EDFA08B1012047E720685B
:10113000006840F400702168086020680069616AF6
:101140000870606A401C6062208D401E2085608DA2
:10115000401E608520680069616A0870606A401CF2
:101160006062208D401E2085608D401E608579E084
:101170003346002246492046009502F0C2FA08B1E3
:1011800001201CE72068006820F480602168086066
:1011900020680069616A0870606A401C6062208D86
:1011A000401E2085608D401E6085334600223849F0
:1011B0002046009502F0A5FA08B10120FFE620685C
:1011C000006840F400702168086020680069616A66
:1011D0000870606A401C6062208D401E208500E01F
:1011E00010E0608D401E608520680069616A0870AB
:1011F000606A401C6062208D401E2085608D401E0C
:1012000060852FE02A463146204602F056FB08B1A1
:101210000120D4E620680069616A0870606A401C99
:101220006062208D401E2085608D401E6085206894
:101230004069C0F38000A8B1208D032805D1206843
:10124000006820F480602168086020680069616A95
:101250000870606A401C6062208D401E2085608D91
:10126000401E6085208D00287FF438AF202084F850
:101270003D00002084F83E0000BF84F83C0000BF21
:101280009DE602209BE60000020010000000FFFF28
:10129000040001002DE9FC5F04460F469046994684
:1012A000DDE90CAB0E9EFFF783FD054694F83D008B
:1012B00020287DD1192301224D492046009502F0B6
:1012C00020FA10B10220BDE8FC9F00BF94F83C005A
:1012D000012801D10220F6E7012084F83C0000BF7C
:1012E0002068006800F0010028B92068006840F01C
:1012F0000100216808602068006820F4006021680F
:101300000860212084F83D00402084F83E00002041
:101310002064C4F824A0A4F82AB0608D2085354844
:10132000E0624B46424639462046CDE9006502F070
:1013300045F908B10120C6E731E02A46314620468A
:1013400002F000FB50B1206C042805D12068006831
:1013500040F40070216808600120B4E7606A0078FA
:1013600021680861606A401C6062208D401E2085F3
:10137000608D401E608520684069C0F3800070B1B8
:10138000208D60B1606A007821680861606A401C45
:101390006062208D401E2085608D401E6085208DFE
:1013A0000028CAD12A463146204602F077F900E0EB
:1013B0001CE050B1206C042805D12068006840F47E
:1013C00000702168086001207DE72068006840F413
:1013D000007021680860202084F83D00002084F817
:1013E0003E0000BF84F83C0000BF6CE702206AE7C3
:1013F000020010000000FFFF10B586B00446142163
:1014000001A8FEF717FF2A49206888424DD100BF86
:10141000002000902748006840F00400254908603B
:101420000846006800F00400009000BF00BF00BF45
:10143000002000900846006840F00100086008465F
:10144000006800F00100009000BF00BF4815019047
:1014500012200290012003900320049004200590A4
:1014600001A91548FFF79CFB4FF4807001901220F2
:10147000029001200390032004900420059001A90C
:101480000E48FFF78DFB00BF002000900948103088
:10149000006840F400000749103108600846006801
:1014A00000F40000009000BF00BF06B010BD0000B7
:1014B000005C00403038024000080240000002405A
:1014C00003480068034909780844014908607047E7
:1014D000380400204004002010B50D48006840F496
:1014E00000700B4908600846006840F4806008609E
:1014F0000846006840F480700860032000F0A6F8F9
:101500000F2000F007F800F02BF8002010BD0000BD
:10151000003C024070B504460E4800784FF47A71E2
:10152000B1FBF0F00C490968B1FBF0F5284600F07A
:10153000D7FF08B1012070BD102C07D20022214630
:10154000501E00F045F80548046001E00120F2E774
:101550000020F0E740040020440400203C04002068
:1015600008B500BF002000900E48006840F480409D
:101570000C4908600846006800F48040009000BFF5
:1015800000BF00BF00200090081F006840F080509E
:10159000091F08600846006800F08050009000BFF6
:1015A00000BF08BD443802400146084600280DDB54
:1015B00000BF00BF00F01F0301229A4043099B00B7
:1015C00003F1E023C3F8002100BF00BF00BF704754
:1015D0002DE9F05F80460D461646002703F01CFFFC
:1015E000074639462A46334601F00700C0F1070A8C
:1015F000BAF1040F02D94FF0040A01E0C0F1070A62
:10160000D14600F1040ABAF1070F02D24FF0000AE6
:1016100001E0A0F1030AD4464FF0010A0AFA09FAE0
:10162000AAF1010A0AEA020A0AFA0CFA4FF0010BBF
:101630000BFA0CFBABF1010B0BEA030B4AEA0B04B0
:101640002146404603F0F0FEBDE8F09F00BF00F0E9
:101650000702064B19684FF6FF031940044B0B4372
:1016600043EA0221014B196000BF70470CED00E016
:101670000000FA0570B504460D460CB9012070BD96
:101680005848006800F00700A84209D255490D707B
:101690000846006800F00700A84201D00120EEE7EC
:1016A000207800F0020002281DD1207800F004000C
:1016B000042805D14C48006840F4E0504A490860CD
:1016C000207800F00800082805D14748006840F459
:1016D0006040454908604448006820F0F000A16877
:1016E000084341490860207800F00100A8B3606811
:1016F000012807D13C4808380068C0F34040B8B919
:101700000120BCE76068022802D06068032807D186
:10171000354808380068C0F3406048B90120AEE79A
:10172000314808380068C0F3400008B90120A6E736
:101730002D48006820F00300616808432A490860CA
:10174000FFF736FB064609E0FFF732FB801B41F24C
:101750008831884202D9032091E707E022480068D7
:1017600000F00C006168B0EB810FEDD11D480068FE
:1017700000F00700A84209D91A490D700846006810
:1017800000F00700A84201D0012078E7207800F09F
:101790000400042807D11448006820F4E050E168F0
:1017A000084311490860207800F00800082808D193
:1017B0000D48006820F46040216940EAC1000A49F0
:1017C000086000F03FF808490968C1F30311074AAF
:1017D000515CC8400649086006480068FFF79AFE59
:1017E00000204CE7003C024008380240D6A0000828
:1017F000440400203C0400200148006870470000B9
:101800004404002000B5FFF7F7FF04490968C1F35D
:101810008221034A515CC84000BD000008380240E4
:10182000E6A0000800B5FFF7E7FF04490968C1F327
:101830004231034A515CC84000BD000008380240F4
:10184000E6A000082DE9F047002400250026A14667
:101850002548006800F00C0020B1042805D00828B5
:101860003AD105E0DFF8849039E0DFF8849036E083
:101870001D48001F006800F03F041B48001F00685F
:1018800000F4800078B11A481749091F0968C1F3AC
:101890008811A0FB01700146224600233846FEF75E
:1018A00091FC05460EE011480F49091F0968C1F374
:1018B0008811A0FB01700146224600233846FEF73E
:1018C00081FC05460848001F0068C0F30140401C29
:1018D0004600B5FBF6F902E0DFF8109000BF00BF4C
:1018E0004846BDE8F0870000083802400024F400B4
:1018F00000127A00F8B504460CB90120F8BD207832
:1019000000F00100002874D0F948006800F00C00D5
:1019100004280DD0F648006800F00C00082813D108
:10192000F348001F006800F48000B0F5800F0BD171
:10193000EF4808380068C0F34040002859D060687C
:10194000002856D10120D9E700BF6068B0F5803F7C
:1019500008D1E7480838006840F48030E449083985
:1019600008601EE06068B0F5A02F0DD1E04808388F
:10197000006840F48020DE490839086008460068A5
:1019800040F4803008600CE0D9480838006820F442
:101990008030D749083908600846006820F4802064
:1019A000086000BF606890B1FFF702FA054606E0E4
:1019B000FFF7FEF9401B642801D903209EE7CC48BD
:1019C00008380068C0F340400028F1D011E0FFF76C
:1019D000EFF9054606E0FFF7EBF9401B642801D953
:1019E00003208BE7C24808380068C0F34040002855
:1019F000F1D1207800F0020002285FD1BC480068D5
:101A000000F00C0058B1BA48006800F00C0008283B
:101A10001CD1B748001F006800F48000B0B9B4487A
:101A200008380068C0F3400020B1E068012801D008
:101A3000012063E7AE480838006820F0F80021690B
:101A400040EAC100AA490839086037E0E06800B3FD
:101A50000120A8490860FFF7ABF9054606E0FFF74B
:101A6000A7F9401B022801D9032047E7A0480838FE
:101A70000068C0F340000028F1D09D480838006895
:101A800020F0F800216940EAC1009949083908604E
:101A900014E0002097490860FFF78AF9054606E040
:101AA000FFF786F9401B022801D9032026E790485A
:101AB00008380068C0F340000028F1D1207800F019
:101AC000080008282CD16069A8B101208A49086063
:101AD000FFF76EF9054606E0FFF76AF9401B02289A
:101AE00001D903200AE782486C300068C0F3400047
:101AF0000028F1D014E000207F490860FFF758F972
:101B0000054606E0FFF754F9401B022801D90320DF
:101B1000F4E677486C300068C0F340000028F1D14B
:101B2000207800F00400042870D100277048383075
:101B3000006800F0805090B900BF002000906C4811
:101B40003830006840F080506949383108600846F4
:101B5000006800F08050009000BF00BF0127674878
:101B6000006800F48070B0B96448006840F4807088
:101B700062490860FFF71CF9054606E0FFF718F90F
:101B8000401B022801D90320B8E65C48006800F435
:101B900080700028F2D000BFA068012808D1544806
:101BA0006830006840F001005149683108601DE06C
:101BB000A06805280DD14E486830006840F0040048
:101BC0004B49683108600846006840F00100086031
:101BD0000CE047486830006820F001004449683153
:101BE00008600846006820F00400086000BFA06894
:101BF000A8B1FFF7DDF8054609E0FFF7D9F8401B6B
:101C000041F28831884202D9032077E626E038483D
:101C100068300068C0F340000028EED013E0FFF702
:101C2000C7F8054608E0FFF7C3F8401B41F28831CA
:101C3000884201D9032061E62D4868300068C0F36E
:101C400040000028EFD1012F07D129483830006823
:101C500020F0805026493831086000BFA069002874
:101C600045D02348006800F00C0008285DD0A0692A
:101C7000022845D100201F490866FFF799F805465C
:101C800006E0FFF795F8401B022801D9032035E64E
:101C9000174808380068C0F340600028F1D1D4E943
:101CA00007010843616A40EA81110122A06AC2EB80
:101CB000500041EA00412C20005D41EA00600C49DF
:101CC000091F086001200B490866FFF771F80546F7
:101CD00006E0FFF76DF8401B022801D903200DE64E
:101CE000034808380068C0F340600028F1D049E09C
:101CF0000838024000004742800E47420070004012
:101D0000002021490866FFF753F8054606E0FFF773
:101D10004FF8401B022801D90320EFE51B4800685B
:101D2000C0F340600028F2D12CE0A069012800D166
:101D3000E4E51648001D0668A069012820D006F4D5
:101D40008001E06981421BD106F03F01206A814297
:101D500016D147F6C0703040616AB0EB811F0FD1D9
:101D600006F440310122A06AC2EB5000B1EB004FF3
:101D700006D106F070612C20005DB1EB006F01D040
:101D80000120BBE50020B9E50000474200380240D1
:101D900010B504460CB9012010BD606A38B96068FE
:101DA000B0F5827F00D105E00021E16102E0002171
:101DB000216161610021A16294F8510028B90020DD
:101DC00084F85000204600F047F8022084F85100C3
:101DD0002068006820F0400021680860A08800F4B6
:101DE0008270218901F404410843A18901F4006152
:101DF0000843217C01F002010843217D01F001012B
:101E00000843218B01F400710843217F01F0380160
:101E100008432021095D01F080010843218D01F470
:101E200000510843216808600421A06901EA1040BC
:101E300094F8241001F010010843216848602068DC
:101E4000C06920F400602168C8610020606501203D
:101E500084F8510000209FE710B586B00446142195
:101E600001A8FEF7E7F937492068884230D100BF62
:101E7000002000903448006840F4805032490860E7
:101E80000846006800F48050009000BF00BF00BF0B
:101E9000002000902C481438006840F001002A49C6
:101EA000143908600846006800F00100009000BF87
:101EB00000BFE02001900220029000200390032048
:101EC00004900520059001A92048FEF769FE36E040
:101ED0001F492068884232D100BF002000901A4874
:101EE000001F006840F400401749091F08600846B9
:101EF000006800F40040009000BF00BF00BF002059
:101F0000009011481438006840F004000E4914395C
:101F100008600846006800F00400009000BF00BFA1
:101F20004FF4A05001900220029000200390032063
:101F300004900620059001A90648FEF731FE06B080
:101F400010BD000000300140443802400000024053
:101F5000003C0040000802402DE9F8430446884652
:101F600016461D4694F85100012802D00220BDE813
:101F7000F8836068B0F5827F0CD1A06850B9042066
:101F800084F851003346424641462046009500F011
:101F900083F9ECE7FEF70CFF0746B8F1000F00D01D
:101FA0000EB90120E3E700BF94F85000012801D1E9
:101FB0000220DCE7012084F8500000BF042084F8F0
:101FC000510000206065C4F83880A687E68720634A
:101FD000A086E08620646064A068B0F5004F0BD155
:101FE0002068006820F040002168086020680068D0
:101FF00020F48040216808602068006800F04000FC
:10200000402805D02068006840F040002168086042
:10201000E06830BB21E02068806800F0010050B12A
:102020002068007BA16B0870A06B401CA063E08F50
:10203000401EE08711E0FEF7BBFEC01BA84201D3A3
:10204000681C00B94DB9012084F8510000BF002080
:1020500084F8500000BF032089E7E08F0028DAD120
:1020600025E021E02068806800F0010050B1206880
:10207000C068A16B0880A06B801CA063E08F401E2D
:10208000E08711E0FEF794FEC01BA84201D3681C54
:1020900000B94DB9012084F8510000BF002084F838
:1020A000500000BF032062E7E08F0028DAD13A46F3
:1020B0002946204602F0B3FC08B1202060650120CB
:1020C00084F8510000BF002084F8500000BF606D0C
:1020D00008B101204BE7002049E72DE9F843044609
:1020E0000F4616461D46FEF763FE8046B14694F83D
:1020F0005100012802D00220BDE8F88307B10EB9D3
:102100000120F9E700BF94F85000012801D1022016
:10211000F2E7012084F8500000BF032084F851004A
:10212000002060652763A686E686A063A087E08717
:1021300060642064A068B0F5004F0BD1206800688F
:1021400020F04000216808602068006840F480406A
:10215000216808602068006800F04000402805D031
:102160002068006840F0400021680860E068B0F531
:10217000006F37D1606810B1B9F1010F09D1206B40
:1021800000882168C860206B801C2063E08E401EA0
:10219000E08623E02068806800F0020002280AD16F
:1021A000206B00882168C860206B801C2063E08E53
:1021B000401EE08612E0FEF7FBFDA0EB0800A842FF
:1021C00001D3681C00B94DB9012084F8510000BF4B
:1021D000002084F8500000BF03208DE7E08E002827
:1021E000D8D136E0606810B1B9F1010F09D1206B88
:1021F000007821680873206B401C2063E08E401E2D
:10220000E08623E02068806800F0020002280AD1FE
:10221000206B007821680873206B401C2063E08EDF
:10222000401EE08612E0FEF7C3FDA0EB0800A842C6
:1022300001D3681C00B94DB9012084F8510000BFDA
:10224000002084F8500000BF032055E7E08E0028EE
:10225000D8D142462946204602F02CFC08B1202065
:102260006065A06850B900BF002000902068C06879
:10227000009020688068009000BF00BF012084F8B3
:10228000510000BF002084F8500000BF606D08B10D
:10229000012031E700202FE72DE9FE4F04460F46CD
:1022A00090461D460C9E01200190FEF781FD81465F
:1022B00094F851B060680290AA46BBF1010F0BD0B0
:1022C0000298B0F5827F04D1A06810B9BBF1040F69
:1022D00002D00220BDE8FE8F1FB1B8F1000F00D080
:1022E0000DB90120F6E700BF94F85000012801D194
:1022F0000220EFE7012084F8500000BF94F851005D
:10230000042802D0052084F8510000206065C4F83C
:102310003880E587A5872763E586A5862064606405
:102320002068006800F04000402805D02068006860
:1023300040F0400021680860E068B0F5006F52D1BD
:10234000606810B1BAF1010F09D1206B00882168D3
:10235000C860206B801C2063E08E401EE0863BE05E
:102360002068806800F00200022810D1E08E70B171
:10237000019801280BD1206B00882168C860206B70
:10238000801C2063E08E401EE086002001902068C3
:10239000806800F0010068B1E08F58B12068C06823
:1023A000A16B0880A06B801CA063E08F401EE087BB
:1023B00001200190FEF7FCFCA0EB0900B0420BD31A
:1023C000701C48B1012084F8510000BF002084F83F
:1023D000500000BF03207DE7E08E0028C0D1E08FD1
:1023E0000028BDD152E0606810B1BAF1010F09D1E7
:1023F000206B007821680873206B401C2063E08EFE
:10240000401EE0863CE02068806800F00200022860
:1024100010D1E08E70B1019801280BD1206B0078AB
:1024200021680873206B401C2063E08E401EE0860C
:10243000002001902068806800F0010068B1E08F02
:1024400058B12068C068A16B0870A06B401CA063E5
:10245000E08F401EE08701200190FEF7A9FCA0EB71
:102460000900B04201D3701C00B94EB9012084F8B4
:10247000510000BF002084F8500000BF032029E76E
:10248000E08E0028BFD1E08F0028BCD14A463146FB
:10249000204602F00FFB40B12020606500BF002005
:1024A00084F8500000BF012014E7A06850B900BFB5
:1024B000002000902068C06800902068806800902C
:1024C00000BF00BF012084F8510000BF002084F845
:1024D000500000BF606D08B10120FBE60020F9E666
:1024E00070B504462546681EB0F1807F01D30120F7
:1024F0000FE0681E4FF0E02148610F214FF0FF30E0
:1025000002F092FF00204FF0E0218861072008616F
:10251000002070BD7047704710B50346002200BF11
:1025200093F83C00012801D1022010BD012083F85E
:102530003C0000BF22F0FF00CC6840EA040222F415
:1025400040708C6840EA040222F480604C6840EAE3
:10255000040222F400600C6840EA040222F4805075
:102560000C6940EA040222F400504C6940EA04027B
:1025700022F48040CC6940EA04021868426400BF3B
:10258000002083F83C0000BF00BFCEE730B5024614
:102590000B4600BF92F83C00012801D1022030BD5B
:1025A000012082F83C0000BF022082F83D00106844
:1025B00044681068816824F0700418680443106847
:1025C0004460184D1068A8421BD01068B0F1804FCD
:1025D00017D0154D1068A84213D0144D1068A842AA
:1025E0000FD0134D1068A8420BD0124D1068A842AE
:1025F00007D0114D1068A84203D0104D1068A842B2
:1026000005D121F0800158680143106881600120E4
:1026100082F83D0000BF002082F83C0000BF00BFF0
:10262000BDE7000000000140000400400008004039
:10263000000C004000040140004001400018004030
:1026400010B504460CB9012010BD94F83D0028B91E
:10265000002084F83C00204600F026F8022084F890
:102660003D00211D206802F047FB012084F8460050
:1026700000BF84F83E0001213F2001554020015554
:102680004120015500BF00BF012084F842004320D3
:102690000155442001554520015500BF012084F813
:1026A0003D000020D0E7000038B5044637492068D7
:1026B00088420FD100BF002000903548006840F0EC
:1026C0000100334908600846006800F001000090EE
:1026D00000BF5AE02068B0F1804F40D100BF002019
:1026E00000902B48001F006840F001002849091F96
:1026F00008600846006800F00100009000BF00BFBD
:102700002448254908604FF0C060486040212248B5
:1027100081600021C1604FF48061016189004161E5
:10272000890081618911C161002101624162FEF766
:1027300053F908B1FEF72CF800BF1749A16208460B
:10274000846300BF00BF2163846300BF0022114681
:102750001C20FEF73DFF1C20FEF726FF15E00F4969
:102760002068884211D100BF002000900848001F57
:10277000006840F008000649091F08600846006824
:1027800000F00800009000BF00BF38BD000001400D
:1027900044380240A0600240800A0020000C004043
:1027A0002DE9F04104460D46002700BF94F83C0097
:1027B000012802D10220BDE8F081012084F83C000C
:1027C00000BF022084F83D002068866826F0770666
:1027D00026F47F46206886602868502833D00CDCB9
:1027E000202850D004DC00284BD0102851D149E0DB
:1027F000302849D040284CD139E060282DD07028AD
:1028000007D0B0F5805F03D0B0F5005F41D10DE097
:1028100041E0D5E902136A68206802F075FB206880
:10282000866846F077062068866034E0D5E90213B2
:102830006A68206802F068FB2068806840F4804085
:102840002168886027E0EA686968206802F04CFC2B
:102850005021206802F063FB1DE0EA686968206887
:1028600002F055FC6021206802F059FB13E0EA6891
:102870006968206802F038FC4021206802F04FFBB4
:1028800009E000BF00BF00BF2968206802F047FBD5
:1028900001E0012700BF00BF012084F83D0000BF18
:1028A000002084F83C0000BF384684E72DE9F04161
:1028B00004460D4614B90120BDE8F08194F83D00AE
:1028C00028B9002084F83C00204600F053F802208C
:1028D00084F83D002068806844F20701884321683D
:1028E0008860211D206802F007FA2068D0F808806F
:1028F000206886692068076A286840EA080840F26C
:1029000003308643A969A86840EA0120064340F6DF
:102910000C4086434FF2F0008643E969E86840EADC
:102920000120064328690001296A40EA0130064374
:1029300027F0220727F088076969686840EA0110D4
:1029400007432068C0F80880206886612068076215
:10295000012084F8460084F83E0001213F20015503
:10296000012084F8420043200155012084F83D00F5
:102970000020A1E710B586B00446142101A8FDF798
:1029800059FC36492068884230D100BF00200090B1
:102990003348006840F00400314908600846006888
:1029A00000F00400009000BF00BF00BF00200090B6
:1029B0002B481038006840F0080029491039086099
:1029C0000846006800F00800009000BF00BF4FF408
:1029D00040500190022002900020039004900220B9
:1029E000059001A91F48FEF7DBF834E01E49206876
:1029F000884230D100BF002000901948001D0068B7
:102A000040F002001649091D08600846006800F001
:102A10000200009000BF00BF00BF002000901048DF
:102A20001038006840F004000D491039086008466D
:102A3000006800F00400009000BF00BFC0200190BB
:102A4000022002900020039004900320059001A929
:102A50000648FEF7A5F806B010BD000000080040CB
:102A600040380240000C02400004014000080240CF
:102A70002DE9F04304460D4694F83E603F20075D83
:102A800094F84280432010F804906DB9012E02D1D1
:102A9000B8F1010F02D00120BDE8F083022084F8D4
:102AA0003E0084F8420025E0042D0CD1012F02D114
:102AB000B9F1010F01D00120EEE702213F200155BD
:102AC0004320015516E0012E07D1012F05D1B8F1A1
:102AD000010F02D1B9F1010F01D00120DCE7022082
:102AE00084F83E0002213F200155022084F8420074
:102AF0004320015515B1042D0CD105E00122002120
:102B0000206802F06DF910E001220421206802F033
:102B100067F90AE001220021206802F061F9012230
:102B20000421206802F05CF900BF00BF2068006843
:102B300040F00100216808600020ADE77047704751
:102B400070B504462068C5682068066906F0020072
:102B5000022819D105F00200022815D1401F216872
:102B60000861012020772068806900F0030018B117
:102B70002046FFF7E4FF05E0204600F00FF920466D
:102B800000F0C3F90020207706F00400042819D1D2
:102B900005F00400042815D1C04321680861022013
:102BA00020772068806900F4407018B12046FFF754
:102BB000C6FF05E0204600F0F1F8204600F0A5F938
:102BC0000020207706F00800082819D105F0080039
:102BD000082815D1C04321680861042020772068A7
:102BE000C06900F0030018B12046FFF7A8FF05E018
:102BF000204600F0D3F8204600F087F90020207727
:102C000006F01000102819D105F01000102815D179
:102C1000C04321680861082020772068C06900F45B
:102C2000407018B12046FFF78AFF05E0204600F00B
:102C3000B5F8204600F069F90020207706F0010081
:102C400048B105F0010030B16FF001002168086162
:102C5000204600F083FA06F08000802809D105F0B4
:102C60008000802805D1C043216808612046FFF715
:102C700051FC06F04000402809D105F040004028F2
:102C800005D1C04321680861204600F045FB06F0ED
:102C90002000202809D105F02000202805D1C043BC
:102CA000216808612046FFF736FC70BD10B586B07C
:102CB0000446142101A8FDF7BDFA33492068884273
:102CC0001DD100BF002000903048006840F0100087
:102CD0002E4908600846006800F01000009000BF10
:102CE00000BF48150190022002900020039004903C
:102CF0000120059001A92648FDF752FF42E0206817
:102D0000B0F1804F1DD100BF002000901F48006827
:102D100040F001001D4908600846006800F001000D
:102D2000009000BF00BF0820019002200290002008
:102D3000039004900120059001A91648FDF730FF8B
:102D400020E01549206888421CD100BF0020009077
:102D50000E48006840F001000C4908600846006811
:102D600000F00100009000BF00BF01200190022090
:102D700002900020039004900220059001A90548CC
:102D8000FDF70EFF06B010BD0000014030380240D4
:102D90000010024000000240000C004070472DE986
:102DA000F04104460D461646002700BF94F83C004B
:102DB000012802D10220BDE8F081012084F83C0006
:102DC00000BF36B1042E1BD0082E31D00C2E5ED1A0
:102DD00045E02946206802F0ABF82068806940F0A1
:102DE0000800216888612068806920F0040021685B
:102DF000886120688069296908432168886148E002
:102E00002946206802F0CCF82068806940F4006010
:102E1000216888612068806920F480602168886169
:102E200020688069296940EA01202168886130E0D2
:102E30002946206802F0F2F82068C06940F00800D6
:102E40002168C8612068C06920F004002168C86159
:102E50002068C069296908432168C86119E02946CA
:102E6000206802F017F92068C06940F4006021680A
:102E7000C8612068C06920F480602168C86120684A
:102E8000C069296940EA01202168C86101E0012781
:102E900000BF00BF00BF002084F83C0000BF3846E0
:102EA00089E710B504460CB9012010BD94F83D0027
:102EB00028B9002084F83C00204600F025F80220C4
:102EC00084F83D00211D206801F016FF012084F8E0
:102ED000460000BF84F83E0001213F2001554020FC
:102EE00001554120015500BF00BF012084F8420078
:102EF00043200155442001554520015500BF0120C4
:102F000084F83D000020D0E770477047704700000C
:102F10002DE9F04704460D4616461F464FF00008BF
:102F200015B994F83E000BE0042D02D13F20005D5E
:102F300006E0082D02D14020005D01E04120005D47
:102F4000022801D1BDE8F08715B994F83E000BE0E6
:102F5000042D02D13F20005D06E0082D02D1402063
:102F6000005D01E04120005D012818D106B10FB9D4
:102F70000120E7E71DB9022084F83E0011E0042D8E
:102F800003D102213F2001550BE0082D03D102217E
:102F90004020015505E002214120015501E00120BA
:102FA000D0E735B1042D1FD0082D38D00C2D6CD1B1
:102FB00050E06049606AC1635F49606A01645F49CB
:102FC000606AC164216801F134023B463146606A9F
:102FD000FDF778FD08B10120B4E72068C06840F42F
:102FE00000702168C86053E05249A06AC163524929
:102FF000A06A01645149A06AC164216801F13802E4
:103000003B463146A06AFDF75DFD08B1012099E716
:103010002068C06840F480602168C86038E0454995
:10302000E06AC1634449E06A01644449E06AC164FA
:10303000216801F13C023B463146E06AFDF742FD62
:1030400008B101207EE72068C06840F40060216874
:10305000C8601DE03749206BC1633749206B0164AC
:103060003649206BC164216801F140023B4631467C
:10307000206BFDF727FD08B1012063E72068C068D9
:1030800040F480502168C86002E04FF0010800BFA2
:1030900000BFB8F1000F4AD101222946206801F093
:1030A0009FFE27492068884203D02649206888422D
:1030B00001D1012000E0002028B12068406C40F4DC
:1030C0000040216848641E49206888421BD020685F
:1030D000B0F1804F17D01C492068884213D01B499B
:1030E000206888420FD01A49206888420BD01549C1
:1030F0002068884207D017492068884203D01649C3
:10310000206888420DD12068806800F00709B9F175
:10311000060F0CD02068006840F0010021680860AC
:1031200005E02068006840F0010021680860404622
:1031300008E70000034E00086B4E0008AB4E000885
:10314000000001400004014000040040000800406D
:10315000000C00400040014000180040F0B505465A
:103160006848854204D168480068401C6649086088
:1031700065480068654988427ED100206249086040
:10318000002406E0A0B200231A46194602F004F912
:10319000641C082CF6DB5E480068032818D85D48DC
:1031A00080780A2190FBF1F0C4B25A48407890FB35
:1031B000F1F0C6B25748007890FBF1F0C7B254491D
:1031C000097801F0030023463246394602F0E4F85C
:1031D0004F48006870B14E48006804280AD84D4C2A
:1031E000A378627821784A4C2478641E04F00300A6
:1031F00002F0D2F84648006802281DD3444800680F
:10320000052819D8434880780A2190FBF1F0C4B210
:103210004048407890FBF1F0C6B23E48007890FB01
:10322000F1F0C7B23A490978891E01F0030023463C
:103230003246394602F0B0F83548006803281AD8FB
:10324000344880780A2190FBF1F0C4B231484078CC
:1032500090FBF1F0C6B22F48007890FBF1F0C7B2B6
:103260002B49097801F00301C1F1070023463246DA
:10327000394602F091F800E042E02548006880B14C
:103280002348006804280CD8224CA378627821785F
:103290001F4C2478641E04F00304C4F1070002F0FC
:1032A0007BF81B48006802281FD3194800680528CE
:1032B0001BD8184880780A2190FBF1F0C4B2154859
:1032C000407890FBF1F0C6B21248007890FBF1F024
:1032D000C7B20F490978891E01F00301C1F1070047
:1032E00023463246394602F057F809480068401C28
:1032F0000749086008460068082801D100200860D6
:10330000F0BD0000600900200400002080380100AA
:103310000800002000000020704710B504460CB9DA
:10332000012010BDA06900B100E000BF94F8410089
:1033300028B9002084F84000204600F029F8242015
:1033400084F841002068C06820F400502168C860FB
:10335000204601F0F1FE2068006920F490402168C9
:1033600008612068406920F02A00216848612068CF
:10337000C06840F400502168C860002060642020CC
:1033800084F8410084F842000020606300BFC8E771
:1033900010B586B00446142101A8FCF74BFF1B4969
:1033A0002068884230D100BF002000901848006893
:1033B00040F01000164908600846006800F0100050
:1033C000009000BF00BF00BF0020009010481438DC
:1033D000006840F001000E49143908600846006892
:1033E00000F00100009000BF00BF4FF4C0600190EA
:1033F00002200290002003900320049007200590F3
:1034000001A90448FDF7CCFB06B010BD0010014037
:10341000443802400000024000BFFEE70146086851
:103420004069C0F38020B0B16FF480600A685061D9
:1034300000200863202081F83D00002081F83E0034
:10344000086C40F00400086400BF002081F83C00D4
:1034500000BF012070470020FCE700002DE9F84381
:1034600004460F4615469946DDE90886206800683F
:1034700040F48060216808602068006840F4807033
:1034800021680860434600224FF001112046009653
:1034900000F037F960B12068006800F48070B0F582
:1034A000807F02D14FF4007020640320BDE8F883D0
:1034B00007F0FE0021680861334642463E49204637
:1034C00000F07EF908B10120F0E700BF0020009075
:1034D00020684069009020688069009000BF00BFAC
:1034E00032464146204600F02DFA50B1206C0428A7
:1034F00005D12068006840F4007021680860012050
:10350000D4E7B9F1010F03D1E8B22168086117E0EF
:10351000C5F307202168086132464146204600F085
:1035200011FA50B1206C042805D12068006840F4DD
:103530000070216808600120B8E7E8B221680861DE
:1035400032464146204600F0FDF950B1206C042877
:1035500005D12068006840F40070216808600120EF
:10356000A4E72068006840F4807021680860434642
:1035700000224FF001112046009600F0C2F858B129
:103580002068006800F48070B0F5807F02D14FF4AD
:1035900000702064032089E7F8B240F00100216840
:1035A0000861334642460449204600F009F908B153
:1035B00001207BE7002079E7020001002DE9F843B4
:1035C0000446884615469946DDE908672068006884
:1035D00040F4807021680860334600224FF00111EA
:1035E0002046009700F08DF860B12068006800F474
:1035F0008070B0F5807F02D14FF40070206403200A
:10360000BDE8F88308F0FE00216808613B463246B9
:103610002149204600F0D4F808B10120F0E700BFAE
:103620000020009020684069009020688069009028
:1036300000BF00BF3A463146204600F083F950B142
:10364000206C042805D12068006840F400702168CF
:1036500008600120D4E7B9F1010F03D1E8B2216875
:10366000086117E0C5F30720216808613A46314632
:10367000204600F067F950B1206C042805D120687D
:10368000006840F40070216808600120B8E7E8B2E3
:10369000216808610020B3E70200010070B504460C
:1036A0000D46164625E02046FFF7B8FE08B101207A
:1036B00070BD681CE8B1FDF77BFB801BA84200D8F9
:1036C000BDB920684069C0F3800090B90020206334
:1036D000202084F83D00002084F83E00206C40F05B
:1036E0002000206400BF002084F83C0000BF0120BF
:1036F000DEE720684069C0F380000028D3D00020B6
:10370000D6E72DE9F04104460D4617461E46DDF882
:10371000188038E0701CA8B3FDF74AFBA0EB080046
:10372000B04200D876BBC5F3074001280AD1206813
:103730004069A9B20840A9B2884201D101200BE03A
:10374000002009E020688069A9B20840A9B2884237
:1037500001D1012000E00020B84214D100202063F4
:10376000202084F83D00002084F83E00206C40F0CA
:103770002000206400BF002084F83C0000BF01202E
:10378000BDE8F081FFE7C5F3074001280AD12068B2
:103790004069A9B20840A9B2884201D101200BE0DA
:1037A000002009E020688069A9B20840A9B28842D7
:1037B00001D1012000E00020B842ABD00020DFE7BB
:1037C0002DE9F04104460D4616461F4658E0206894
:1037D0004069C0F38020E8B12068006840F40070C0
:1037E000216808606FF480602168486100202063D0
:1037F000202084F83D00002084F83E00206C40F03A
:103800000400206400BF002084F83C0000BF0120B9
:10381000BDE8F081701C90B3FDF7CAFAC01BB0423E
:1038200000D866BBC5F3074001280AD1206840696B
:10383000A9B20840A9B2884201D101200BE00020C2
:1038400009E020688069A9B20840A9B2884201D184
:10385000012000E0002090B900202063202084F89F
:103860003D00002084F83E00206C40F020002064E1
:1038700000BF002084F83C0000BF0120C8E7FFE73C
:10388000C5F3074001280AD120684069A9B2084061
:10389000A9B2884201D101200BE0002009E0206894
:1038A0008069A9B20840A9B2884201D1012000E094
:1038B000002000288BD00020AAE770B504460D46F2
:1038C000164637E020684069C0F30010A0B16FF0E1
:1038D00010002168486100202063202084F83D000A
:1038E000002084F83E00206C206400BF002084F893
:1038F0003C0000BF012070BDFDF75AFA801BA842B2
:1039000000D8BDB920684069C0F3801090B900208C
:103910002063202084F83D00002084F83E00206CC5
:1039200040F02000206400BF002084F83C0000BF6D
:103930000120E0E720684069C0F380100028C1D072
:103940000020D8E770B504460D46164625E020460F
:10395000FFF764FD08B1012070BD681CE8B1FDF7F8
:1039600027FA801BA84200D8BDB920684069C0F37F
:10397000C01090B900202063202084F83D00002072
:1039800084F83E00206C40F02000206400BF00203E
:1039900084F83C0000BF0120DEE720684069C0F3E6
:1039A000C0100028D3D00020D6E72DE9F04107460B
:1039B0000C4615461E462A2000F0B0FC384600F0A2
:1039C0009EFC284600F09BFC2B2000F0A7FC204624
:1039D00000F095FC304600F092FC2C2000F09EFC9C
:1039E000BDE8F08170B504460D4616462B462246CA
:1039F00029462046FFF7D9FF304600F080FC70BD15
:103A00002DE9F04706460F4614461D46DDF820A076
:103A1000681E83B2601E82B239463046FFF7C5FF8A
:103A2000B8460EE0B14606E0504600F068FC09F1E9
:103A300001001FFA80F9A145F6DB08F101001FFA29
:103A400080F8A845EEDBBDE8F087704710B5FFF7BA
:103A5000FCFF6420FDF780F86420FDF77DF801226B
:103A600020215C48FDF79EF96420FDF775F81120D0
:103A700000F054FC7820FDF76FF8362000F04EFC83
:103A8000702000F045FC3A2000F048FC052000F0D2
:103A90003FFCB22000F042FC0C2000F039FC0C206E
:103AA00000F036FC002000F033FC332000F030FC46
:103AB000332000F02DFCB72000F030FC352000F062
:103AC00027FCBB2000F02AFC322000F021FCC220A1
:103AD00000F024FC012000F01BFCC32000F01EFCC1
:103AE000152000F015FCC42000F018FC202000F088
:103AF0000FFCC62000F012FC0F2000F009FCD020C3
:103B000000F00CFCA42000F003FCA12000F000FC5D
:103B1000E02000F003FCD02000F0FAFB082000F0C9
:103B2000F7FB0E2000F0F4FB092000F0F1FB092068
:103B300000F0EEFB052000F0EBFB312000F0E8FB8D
:103B4000332000F0E5FB482000F0E2FB172000F0F6
:103B5000DFFB142000F0DCFB152000F0D9FB312046
:103B600000F0D6FB342000F0D3FBE12000F0D6FBC0
:103B7000D02000F0CDFB082000F0CAFB0E2000F0A2
:103B8000C7FB092000F0C4FB092000F0C1FB152091
:103B900000F0BEFB312000F0BBFB332000F0B8FB8F
:103BA000482000F0B5FB172000F0B2FB142000F015
:103BB000AFFB152000F0ACFB312000F0A9FB342056
:103BC00000F0A6FB212000F0A9FB292000F0A6FBB5
:103BD00010BD0000000402402DE9FF5F80468A46C8
:103BE00017469B460F9D00200290CDF80080284686
:103BF00005EBD071C1F347042046E21704EB527283
:103C0000D2102146E31704EB5373DB10A4EBC3037C
:103C10000BB1012300E000231A446A4392B20192DF
:103C2000A7F12000C7B20AEB0500401E83B208EBE3
:103C30000400401E82B251464046FFF7B6FE002601
:103C400069E00C2D07D107EB4700354901EB8000F7
:103C5000805D03901BE0102D05D1324800EB07106A
:103C6000805D039013E0182D07D107EB47002E4924
:103C700001EB0010805D039009E0202D05D12B4859
:103C800000EB8710805D039001E0BDE8FF9F4FF0DF
:103C900000093AE01098C8B9012000FA09F0039928
:103CA000084018B1584600F02AFB02E00E9800F0D8
:103CB00026FB0298401CC0B20290029890FBF4F1DF
:103CC00004FB1100E8B90020029021E0012000FA75
:103CD00009F00399084020B15A4651464046FFF783
:103CE00081FE08F101001FFA80F80098A8EB00009F
:103CF000A04206D1DDF800800AF101001FFA80FA27
:103D000006E009F1010000F0FF09B9F1080FC1DB7D
:103D100000BF701C86B20198864292DB00BFB4E7F8
:103D2000E85700085C5C00084C6200081C7400083E
:103D30002DE9FE4F8046894617469A46DDE90D4635
:103D40000C9D36E00C2C09D153463A464946404674
:103D5000CDE90146009500F031F825E0102C09D19D
:103D600053463A4649464046CDE90146009500F0A3
:103D7000C9F819E0182C09D153463A46494640463D
:103D8000CDE90146009500F059F90DE0202C09D14C
:103D900053463A4649464046CDE90146009500F073
:103DA000F1F901E0BDE8FE8FBF1C08EB04001FFA2B
:103DB00080F838780028C5D100BFF3E72DE9FF5F10
:103DC0000646894692469B460F9C0020039000962B
:103DD0002046E21704EB5272D2102146E31704EB9F
:103DE0005373DB10A4EBC3030BB1012300E00023EA
:103DF0001A44624392B2019205200290002579E0B4
:103E000005EB850000EBC5003D4911F810009AF85C
:103E1000001088426BD105EB850000EBC5003849E6
:103E200001EB400040789AF8011088425FD109EB1D
:103E30000400401E83B23019401E82B2494630460B
:103E4000FFF7B3FD00274FE04FF0000846E0109861
:103E500008BB05EB850000EBC500294901EB4000DC
:103E6000801CC05D012101FA08F1084018B15846D4
:103E700000F045FA02E00E9800F041FA0398401C69
:103E8000C0B20390039890FBF4F104FB110008BB4F
:103E90000020039025E005EB850000EBC5001849E4
:103EA00001EB4000801CC05D012101FA08F10840CF
:103EB00020B15A4649463046FFF794FD701C86B241
:103EC0000098301AA04205D1009E09F101001FFAA6
:103ED00080F906E008F1010000F0FF08B8F1080FD2
:103EE000B5DB00BF781CC7B201988742ACDB00BFCE
:103EF000681C85B20298854282DBBDE8FF9F000006
:103F0000DC8B00082DE9FF5F0646894692469B46FA
:103F10000F9C0020039000962046E21704EB52729B
:103F2000D2102146E31704EB5373DB10A4EBC30359
:103F30000BB1012300E000231A44624392B20192C4
:103F400005200290002571E005EB05103A4911F8B3
:103F500010009AF80010884265D105EB051036492B
:103F600001EB400040789AF8011088425BD109EBE0
:103F70000400401E83B23019401E82B249463046CA
:103F8000FFF713FD00274BE04FF0000842E01098C8
:103F9000F8B905EB0510284901EB4000801CC05D15
:103FA000012101FA08F1084018B1584600F0A7F9BC
:103FB00002E00E9800F0A3F90398401CC0B20390F1
:103FC000039890FBF4F104FB1100F8B90020039072
:103FD00023E005EB0510184901EB4000801CC05D93
:103FE000012101FA08F1084020B15A4649463046FD
:103FF000FFF7F8FC701C86B20098301AA04205D179
:10400000009E09F101001FFA80F906E008F10100A5
:1040100000F0FF08B8F1080FB9DB00BF781CC7B289
:1040200001988742B0DB00BF681C85B202988542C8
:104030008ADBBDE8FF9F00005E8C00082DE9FF5F72
:104040000646894692469B460F9C002003900096A8
:104050002046E21704EB5272D2102146E31704EB1C
:104060005373DB10A4EBC3030BB1012300E0002367
:104070001A44624392B201921C200290002579E01A
:1040800005EB850000EB45103D4911F810009AF84A
:10409000001088426BD105EB850000EB45103849D4
:1040A00001EB400040789AF8011088425FD109EB9B
:1040B0000400401E83B23019401E82B24946304689
:1040C000FFF773FC00274FE04FF0000846E0109820
:1040D00008BB05EB850000EB4510294901EB4000CA
:1040E000801CC05D012101FA08F1084018B1584652
:1040F00000F005F902E00E9800F001F90398401C69
:10410000C0B20390039890FBF4F104FB110008BBCC
:104110000020039025E005EB850000EB45101849D1
:1041200001EB4000801CC05D012101FA08F108404C
:1041300020B15A4649463046FFF754FC701C86B2FF
:104140000098301AA04205D1009E09F101001FFA23
:1041500080F906E008F1010000F0FF08B8F1080F4F
:10416000B5DB00BF781CC7B201988742ACDB00BF4B
:10417000681C85B20298854282DBBDE8FF9F000083
:10418000088D00082DE9FF5F0646894692469B464A
:104190000F9C0020039000962046E21704EB527219
:1041A000D2102146E31704EB5373DB10A4EBC303D7
:1041B0000BB1012300E000231A44624392B2019242
:1041C00017200290002571E005EB85103A4911F89F
:1041D00010009AF80010884265D105EB8510364929
:1041E00001EB400040789AF8011088425BD109EB5E
:1041F0000400401E83B23019401E82B24946304648
:10420000FFF7D3FB00274BE04FF0000842E0109887
:10421000F8B905EB8510284901EB4000801CC05D12
:10422000012101FA08F1084018B1584600F067F87A
:1042300002E00E9800F063F80398401CC0B20390AF
:10424000039890FBF4F104FB1100F8B900200390EF
:1042500023E005EB8510184901EB4000801CC05D90
:10426000012101FA08F1084020B15A46494630467A
:10427000FFF7B8FB701C86B20098301AA04205D137
:10428000009E09F101001FFA80F906E008F1010023
:1042900000F0FF08B8F1080FB9DB00BF781CC7B207
:1042A00001988742B0DB00BF681C85B20298854246
:1042B0008ADBBDE8FF9F0000209500082DE9FE4F36
:1042C00006460F4614469846DDE90D5ADDF8309053
:1042D00010E0CDE9015ACDF80090227843463946E6
:1042E0003046FFF779FC284605EBD07106EB6101FB
:1042F0008EB2641C20780028EBD1BDE8FE8F10B58B
:104300000446201200F01EF8E0B200F01BF810BDC9
:1043100010B50446204600F015F810BD10B504464F
:1043200000224FF400610648FCF73CFD204600F0F7
:1043300009F80122D1020248FCF734FD10BD00004B
:104340000008024001B500224FF400410748FCF785
:1043500029FD4FF47A73012269460548FDF7BDFE39
:104360000122D1030148FCF71DFD08BD00000240F9
:10437000C00800201CB50020019001A9FE20FCF718
:104380008BF99DF80400122804D101221102124871
:10439000FCF708FD002000906946FF20FCF77CF93F
:1043A0009DF80000552801D100201CBD9DF8040097
:1043B00012280FD055242146FF20FCF783F96946C7
:1043C000FF20FCF769F99DF80000552801D1002075
:1043D000EBE700BF0120E8E70008024008B500BF96
:1043E000002000900A48006840F400100849086066
:1043F0000846006800F40010009000BF00BF0022D3
:1044000011461120FDF7E4F81120FDF7CDF808BDA5
:104410003038024000B587B0142102A8FBF70AFF2C
:1044200000BF002001906F48006840F010006D4907
:1044300008600846006800F01000019000BF00BF4F
:1044400000BF002001900846006840F0800008602E
:104450000846006800F08000019000BF00BF00BF68
:10446000002001900846006840F0040008600846FB
:10447000006800F00400019000BF00BF00BF0020F2
:1044800001900846006840F0010008600846006896
:1044900000F00100019000BF00BF00BF00200190AC
:1044A0000846006840F0020008600846006800F016
:1044B0000200019000BF00BF00BF0020019008462D
:1044C000006840F0080008600846006800F0080036
:1044D000019000BF00BF012204214348FCF762FCA9
:1044E000002248F206014148FCF75CFC00224FF430
:1044F00011613F48FCF756FC00224FF4C0713A4866
:10450000FCF750FC002220213A48FCF74BFC042029
:1045100002901120039000200490059002A93248D7
:10452000FCF73EFB0C2002904FF404100390012096
:10453000049002A92E48FCF733FB48F206000290D3
:104540000120039000200490059002A92748FCF761
:1045500027FB4FF41160029001200390002004908B
:10456000059002A92248FCF71BFB4FF4C070029093
:104570000120039000200490059002A91A48FCF73E
:104580000FFB4FF4405002904FF4041003900120B1
:10459000049002A91748FCF703FB20200290012099
:1045A000039000200490059002A91248FCF7F8FA45
:1045B000002211460820FDF70BF80820FCF7F4FF55
:1045C000002211460920FDF703F80920FCF7ECFF53
:1045D000002211462820FCF7FBFF2820FCF7E4FF0F
:1045E00007B000BD30380240001002400000024019
:1045F000000802400004024010B50B480B49086057
:104600000B484860002109488160C1604FF4804137
:104610000161002141618161C1610162FCF7CEFB52
:1046200008B1FCF7B5F810BD005C0040140800208C
:10463000A086010010B50F480F4908604FF4827042
:10464000486000210C488160C160022101610121A4
:104650004161490281610821C16100210162416219
:1046600081620A21C162FDF793FB08B1FCF790F863
:1046700010BD0000003001406808002010B50F4850
:104680000F4908604FF4827048604FF400410C48B5
:1046900081600021C160016141614FF4007181615D
:1046A0000021C1610162416281620A21C162FDF79C
:1046B0006FFB08B1FCF76CF810BD0000003C004037
:1046C000C008002000B595B0002011901290139002
:1046D00014900F9010901C2108A8FBF7ABFD20212F
:1046E0006846FBF7A7FD2B482B490860532048601C
:1046F00000212948816040F2E731C1600021016159
:1047000041618161FDF79CFF08B1FCF741F84FF46E
:104710008050119011A92048FEF742F808B1FCF72B
:1047200037F81D48FEF7BDFB08B1FCF731F8002053
:104730000F9010900FA91848FDF728FF08B1FCF75B
:1047400027F870200890002009900A900B900C9098
:104750000D900E90002208A90F48FEF720FB08B12B
:10476000FCF716F80020009001900290039004904E
:104770004FF4005005900020079069460648FDF769
:10478000CBFE08B1FCF704F80348FEF78FFA15B02A
:1047900000BD0000000001401809002000B58DB0E8
:1047A000002009900A900B900C90079008901C2113
:1047B0006846FBF73FFD4FF080402049086000202D
:1047C000486000211D4881606821C16000210161AD
:1047D00080218161FDF734FF08B1FBF7D9FF4FF469
:1047E0008050099009A91548FDF7DAFF08B1FBF7D9
:1047F000CFFF1248FEF755FB08B1FBF7C9FF0020B9
:104800000790089007A90D48FDF7C0FE08B1FBF717
:10481000BFFF6020009000200190029004200490CF
:104820000C2269460548FEF7BAFA08B1FBF7B0FF5B
:104830000248FEF73BFA0DB000BD00006009002001
:1048400000B58BB0242102A8FBF7F4FC00200090F7
:104850000190184818490860002048600021164857
:1048600081604FF6FF71C16000210161816101200B
:1048700002900020039001200490002005900690F3
:10488000079001200890002009900A9002A90A4888
:10489000FEF70CF808B1FBF77BFF002000900190B9
:1048A00069460548FDF772FE08B1FBF771FF0BB0D2
:1048B00000BD000000080040A809002000B58DB030
:1048C000002009900A900B900C90079008901C21F2
:1048D0006846FBF7AFFC2048204908605320486039
:1048E00000211E48816040F2E731C1600021016172
:1048F0008161FDF7A5FE08B1FBF74AFF4FF4805038
:10490000099009A91548FDF74BFF08B1FBF740FFD7
:104910001248FEF7C6FA08B1FBF73AFF00200790ED
:10492000089007A90D48FDF731FE08B1FBF730FFED
:1049300070200090002001900290049000226946AF
:104940000648FEF72CFA08B1FBF722FF0348FEF7F2
:10495000ADF90DB000BD0000000C0040F0090020D2
:1049600000B58BB0242102A8FBF764FC0020009066
:104970000190184818490860002048600021164836
:1049800081604FF6FF71C160002101614161816169
:104990000120029000200390012004900020059047
:1049A0000690079001200890002009900A9002A923
:1049B0000948FDF77BFF08B1FBF7EAFE00200090F5
:1049C000019069460448FDF7E1FD08B1FBF7E0FE00
:1049D0000BB000BD00040140380A002010B50B48A0
:1049E0000B4908604FF4E1304860002108488160BD
:1049F000C16001610C21416100218161C161FEF74B
:104A00008CFC08B1FBF7C4FE10BD00000010014093
:104A1000E00A002000BFFEE700BFFEE77047F8B5E0
:104A200004460E4615466068B0F5827F0DD1A06839
:104A3000B0F5004F03D0A068B0F5806F05D12068B5
:104A4000006820F04000216808606068B0F5827F4F
:104A50001FD1A068B0F5806F0DD0334600228021B1
:104A60002046009500F06AF808B3606D40F0200021
:104A700060650320F8BD33460022012120460095E1
:104A800000F05CF898B1606D40F020006065032094
:104A9000F0E73346002201212046009500F04EF851
:104AA00028B1606D40F0200060650320E2E700203F
:104AB000E0E700007CB504460E4615463346012269
:104AC00002212046009500F039F828B1606D40F0D1
:104AD0002000606503207CBD164800681821B0FBEB
:104AE000F1F01549B0FBF1F04FF47A7148430190B1
:104AF0006068B0F5827F0DD13346002280212046C8
:104B0000009500F01BF898B1606D40F020006065E2
:104B10000320E0E700BF019800B908E00198401EBB
:104B2000019020688068C0F3C0100028F3D100BF56
:104B30000020D0E74404002040420F002DE9F84F48
:104B400004460D4690461E46DDF82890FCF730F9E5
:104B5000A0EB0900371AFCF72BF982462C480068B5
:104B6000C0F3CB307843009045E0701C002842D061
:104B7000FCF71EF9A0EB0A00B84200D2A7BB2068E0
:104B8000406820F0E000216848606068B0F5827FEE
:104B90000DD1A068B0F5004F03D0A068B0F5806FCC
:104BA00005D12068006820F0400021680860A06AF4
:104BB000B0F5005F0DD100BF2068006820F4005000
:104BC000216808602068006840F40050216808608F
:104BD00000BF012084F8510000BF002084F850007D
:104BE00000BF0320BDE8F88FFFE7009800B9002759
:104BF0000098401E0090206880682840A84201D19B
:104C0000012000E000204045AFD10020EAE700008D
:104C100044040020704710B5FCF752FC10BD0000A2
:104C200000B593B0302107A8FBF704FB142102A8BC
:104C3000FBF700FB00BF002001902448006840F013
:104C40008050224908600846006800F080500190BA
:104C500000BF00BF00BF002001901D48006840F465
:104C600080401B4908600846006800F480400190BD
:104C700000BF00BF012007900004089002200D90A3
:104C800041050E9104210F91A8211091022111914B
:104C90000421129107A8FCF72DFE08B1FBF778FD5F
:104CA0000F20029002200390002004904FF4A050A7
:104CB00005904FF480500690052102A8FCF7DAFC1D
:104CC00008B1FBF765FD13B000BD0000403802409D
:104CD000007000400348006840F47000014908601B
:104CE0007047000088ED00E010B50248FDF728FF8E
:104CF00010BD00006009002010B502682D4B9842DD
:104D00000ED0B0F1804F0BD02B4B984208D02B4BDC
:104D1000984205D02A4B984202D02A4B984203D1A0
:104D200022F070024B681A43224B984220D0B0F117
:104D3000804F1DD0204B98421AD0204B984217D05C
:104D40001F4B984214D01F4B984211D01E4B9842D3
:104D50000ED01E4B98420BD01D4B984208D01D4BD5
:104D6000984205D01C4B984202D01C4B984203D16C
:104D700022F44072CB681A4322F080034C6943EA64
:104D8000040202608B68C3620B688362094B98421D
:104D900002D00C4B984201D10B690363012343619C
:104DA000036903F001031BB1036923F001030361ED
:104DB00010BD000000000140000400400008004059
:104DC000000C00400004014000400140004401404C
:104DD0000048014000180040001C00400020004036
:104DE00030B501F01F05012404FA05F3046A9C4361
:104DF0000462046A01F01F0502FA05F52C430462FF
:104E000030BD70B50546AC6B606AA84207D1012081
:104E10002077E86918BB012084F83E001FE0A06AF3
:104E2000A84207D102202077E869C0B901213F20BC
:104E3000015514E0E06AA84207D104202077E86910
:104E400068B901214020015509E0206BA84206D134
:104E500008202077E86910B901214120015520463A
:104E6000FEF753F80020207770BD70B50546AC6B97
:104E7000606AA84202D10120207710E0A06AA8420F
:104E800002D1022020770AE0E06AA84202D1042081
:104E9000207704E0206BA84201D10820207720462B
:104EA000FEF734F80020207770BD70B50546AC6B76
:104EB000606AA84204D10120207784F83E001DE0FA
:104EC000A06AA84205D10220207701213F20015588
:104ED00014E0E06AA84205D1042020770121402097
:104EE00001550BE0206BA84205D108202077012155
:104EF0004120015502E0012084F83D002046FDF7E5
:104F00001DFE0020207770BD30B50C46816821F46D
:104F10007F4142EA032525432943816030BD0A468B
:104F2000816821F0700142F00703194381607047E6
:104F300030B5026A056A25F0010505624368846997
:104F400024F0700424F003040D682C4322F00202C4
:104F50008D682A43104DA84200D103E00F4DA842AE
:104F600006D100BF22F00802CD682A4322F00402D5
:104F7000094DA84202D0094DA84207D123F48073FD
:104F800023F400734D692B438D692B434360846187
:104F90004D684563026230BD0000014000040140DD
:104FA00030B5026A056A25F0100505624368846918
:104FB00024F4E04424F440740D6844EA052422F00B
:104FC00020028D6842EA0512124DA84200D103E08A
:104FD000114DA84207D100BF22F08002CD6842EAFD
:104FE000051222F040020B4DA84202D00A4DA84201
:104FF00009D123F4806323F400634D6943EA8503F8
:105000008D6943EA8503436084614D68856302626C
:1050100030BD0000000001400004014030B5026ACC
:10502000056A25F4807505624368C46924F070043C
:1050300024F003040D682C4322F400728D6842EAC8
:105040000522124DA84200D103E0114DA84207D11C
:1050500000BF22F40062CD6842EA052222F4806299
:105060000A4DA84202D00A4DA84209D123F4805328
:1050700023F400534D6943EA05138D6943EA051390
:105080004360C4614D68C563026230BD00000140E9
:105090000004014030B5036A056A25F480550562B5
:1050A0004468C26922F4E04222F440720D6842EA88
:1050B000052223F400538D6843EA0533084DA842C6
:1050C00002D0084DA84204D124F480444D6944EA3A
:1050D00085144460C2614D680564036230BD000000
:1050E000000001400004014030B50B461446026A3E
:1050F000056A25F001050562816921F0F00141EAA8
:10510000041122F00A021A438161026230BD30B5F7
:105110000B461446026A056A25F01005056281698E
:1051200021F4704141EA043122F0A00242EA031264
:105130008161026230BD00002DE9F84F044620680D
:10514000006920F44050E168084321680861216942
:10515000A068084361690843E1690843009020683A
:10516000C06849F20C618843009908432168C8600F
:105170002068406920F44070A169084321684861B3
:1051800076492068884203D075492068884203D157
:10519000FCF748FB814602E0FCF734FB8146E069FE
:1051A000B0F5004F6CD102206168A0FB01500346AE
:1051B0001920A9FB007001462A463846FBF702F881
:1051C0006421B0FBF1F04FEA001A02206168A0FBF5
:1051D00001510B461920A9FB00712A463846FAF7FF
:1051E000F1FF834602206168A0FB015003461920AD
:1051F000A9FB00712A463846FAF7E4FF6421B0FBA8
:10520000F1F000EBC00101EB0010ABEB80003221AC
:1052100001EBC0006421B0FBF1F000F0F8000AEBF4
:10522000400A02206168A0FB015003461920A9FB37
:10523000007001462A463846FAF7C4FF834602202A
:105240006168A0FB015003461920A9FB00712A46A2
:105250003846FAF7B7FF6421B0FBF1F000EBC0016C
:1052600001EB0010ABEB8000322101EBC0006421A8
:10527000B0FBF1F000F007005044216888606AE05C
:1052800004206168A0FB015003461920A9FB0070AF
:1052900001462A463846FAF795FF8246042061689F
:1052A000A0FB015003461920A9FB007001462A46C5
:1052B0003846FAF787FF6421B0FBF1F000EBC0013C
:1052C00001EB0010AAEB8000322101EB00106421F9
:1052D000B0FBF1F000F0F00A04206168A0FB01705F
:1052E00003461920A9FB00513A462846FAF76AFFFF
:1052F0006421B0FBF1F00AEB001A04206168A0FB06
:1053000001510B461920A9FB00712A463846FAF7CD
:1053100059FF834604206168A0FB01500346192011
:10532000A9FB007001462A463846FAF74BFF642174
:10533000B0FBF1F000EBC00101EB0010ABEB800023
:10534000322101EB00106421B0FBF1F000F00F00FE
:10535000504421688860BDE8F88F000000100140CB
:105360000014014000BFFEE710B5002406E0A0B223
:1053700000231A46194600F00FF8641C082CF6DBCF
:10538000F223034A0C210348FDF7C2FD10BD0000C3
:105390004C04002060090020F0B504460D4604EBE3
:1053A0004400C10000202AE002FA00F606F0800660
:1053B0000EB1462600E023260F18DFF848C04CF84F
:1053C000276005FA00F606F080060EB1462700E0D9
:1053D00023270E180836DFF82CC04CF8267003FA85
:1053E00000F606F080060EB1462700E023270E18CF
:1053F0001036DFF810C04CF82670461CF0B20828B2
:10540000D2DBF0BD4C040020014A024900F02FB865
:10541000915400084804002002480068C0F30220AC
:10542000704700000CED00E010B5002804DB0A070F
:10543000130E054A135406E00A07140E034A00F03F
:105440000F031B1FD45410BD00E400E018ED00E072
:1054500002E008C8121F08C1002AFAD1704770473D
:10546000002001E001C1121F002AFBD170472DE985
:10547000F04116460F460446002503E03946B04782
:10548000641C6D1C20780028F8D12846BDE8F08106
:1054900038B504468DF8000069460320ABBE2046AF
:1054A00038BD000070B50024002500260A20FBF757
:1054B00053FB00F021F928B173A0FFF7A5FF0125E8
:1054C000284670BD0021762000F02EF90121112020
:1054D00000F02AF90A20FBF73FFB00BF112000F083
:1054E000E5F804463046711C8EB2FF2805DD6BA03E
:1054F000FFF78AFF01252846E3E7002CEED10121C2
:10550000762000F011F902217A2000F00DF9002137
:10551000762000F009F9B0214C2000F005F90021B7
:10552000762000F001F94021162000F0FDF86520FA
:1055300000F0BCF804460021652000F0F5F80021D9
:10554000602000F0F1F80221612000F0EDF8214622
:10555000652000F0E9F847215F2000F0E5F8002120
:10556000762000F0E1F83621142000F0DDF800216B
:10557000762000F0D9F8652000F098F840F0040497
:105580002146652000F0D0F80021762000F0CCF80C
:10559000502000F08BF800F01F0040F0400421463E
:1055A000502000F0C1F80021762000F0BDF8502016
:1055B00000F07CF800F0F000841D2146502000F03F
:1055C000B3F80021762000F0AFF84F2000F06EF81D
:1055D00000F01F0040F0200421464F2000F0A4F806
:1055E0000021762000F0A0F84F2000F05FF800F0D6
:1055F000F000841D21464F2000F096F8002176200F
:1056000000F092F8522000F051F800F0F000C41DB4
:105610002146522000F088F80121762000F084F81D
:10562000132000F043F800F08F042146132000F00F
:105630007BF8122000F03AF800F08F042146122087
:1056400000F072F80021762000F06EF84E2000F095
:105650002DF840F0030421464E2000F065F80A20A2
:10566000FBF77AFA0021762000F05EF84E2000F079
:105670001DF840F00C0421464E2000F055F80A2099
:10568000FBF76AFA28461CE7696D755F73656C66FF
:10569000636865636B5F6572720A0000696D755FB0
:1056A0006F76657274696D650A0000001CB504466A
:1056B0000020019044F080000090002210210C484E
:1056C000FBF770FB4FF48053012269460948FCF751
:1056D00004FD4FF48053012201A90648FCF73CFC6D
:1056E000012210210248FBF75DFB9DF804001CBD60
:1056F000000802406808002070B50024002500263C
:105700000DE03046711C8EB2FF2801DD012508E056
:105710007520FFF7CBFF04460A20FBF71DFA472C44
:10572000EFD100BF284670BD13B582B00446019486
:10573000002210210B48FBF735FB4FF48053012268
:1057400001A90948FCF7C9FC4FF48053012203A9C1
:105750000548FCF7C2FC012210210248FBF722FB9E
:105760001FBD0000000802406808002008B5FBF7D4
:10577000B3FEFFF755FAFEF74DFEFEF72FFEFEF7DC
:105780003BFFFEF757FFFEF779FFFFF707F8FFF73C
:1057900025F9FEF797FFFFF753F8FFF78FF8FFF7AC
:1057A000DFF8FFF77FFEFFF7DFFDFEF74FF9002080
:1057B000F0231A4601460090FEF722F93C210848E2
:1057C000FDF756F93C210748FDF752F9FEF7D2FDE7
:1057D00008B1FAF7DDFFFAF725FE00BFFEE700008B
:1057E000A8090020380A0020000000000000000086
:1057F0000000000000000404040404000004000091
:1058000014140A00000000000000000000000A0A52
:105810001F0A0A1F0A0A000000040E1505060C14D0
:10582000150E0400000012150D152E2C2A12000072
:105830000000040A0A3615152916000002020100AC
:105840000000000000000000100808040404040424
:1058500008081000020404080808080804040200EC
:1058600000000004150E0E150400000000000008E2
:10587000083E0808000000000000000000000000D2
:105880000202010000000000003F000000000000D4
:1058900000000000000000000002000000201010C6
:1058A000080804040202010000000E111111111178
:1058B000110E00000000040604040404040E00009D
:1058C00000000E1111080402011F000000000E115B
:1058D000100C1010110E00000000080C0C0A091F1B
:1058E000081C000000001F01010F1110110E000024
:1058F00000000C12010D1311110E000000001E100B
:10590000080804040404000000000E11110E111117
:10591000110E000000000E111119161009060000EA
:10592000000000000400000000040000000000006F
:105930000004000000040400000010080402020437
:1059400008100000000000003F003F0000000000C1
:1059500000000204081010080402000000000E11EC
:10596000110804040004000000001C22292D2D1D34
:10597000221C0000000004040C0A0A1E123300005E
:1059800000000F12120E1212120F000000001E1162
:1059900001010101110E000000000F12121212127B
:1059A000120F000000001F120A0E0A02121F000050
:1059B00000001F120A0E0A020207000000001C125B
:1059C00001013911120C000000003312121E1212D4
:1059D0001233000000001F0404040404041F00002C
:1059E00000003E08080808080808090700003712E8
:1059F0000A060A1212370000000007020202020221
:105A0000223F000000003B1B1B1B15151535000035
:105A100000003B1216161A1A1217000000000E1191
:105A200011111111110E000000000F12120E0202CE
:105A30000207000000000E1111111117190E1800B5
:105A400000000F12120E0A121237000000001E1181
:105A500001060810110F000000001F1504040404C3
:105A6000040E00000000331212121212120C000079
:105A700000003312120A0A0C04040000000015157D
:105A800015150E0A0A0A000000001B0A0A04040A7F
:105A90000A1B000000001B0A0A0A0404040E00008E
:105AA00000001F0908040402121F00001C04040463
:105AB0000404040404041C00000202040404080892
:105AC000081010000E0808080808080808080E004A
:105AD000040A0000000000000000000000000000B8
