:020000040800F2
:1000000018130020A1010008755D0008A93F000831
:10001000195B000861090008BD68000800000000C5
:100020000000000000000000000000000561000862
:10003000710F000800000000475E00086D610008B5
:10004000BB010008BB010008BB010008BB010008A0
:10005000BB010008BB010008BB010008BB01000890
:100060004115000859150008BB010008BB01000834
:10007000BB010008BB010008BB010008BB01000870
:10008000BB010008B50E0008BB010008BB01000859
:10009000BB010008BB010008BB010008BB01000850
:1000A0000D6200084562000829620008BB010008D3
:1000B000AD620008B9620008BB010008BB0100087E
:1000C000BB010008BB010008BB010008BB01000820
:1000D000BB010008BB010008BB010008BB01000810
:1000E00021150008BB010008BB010008BB01000886
:1000F000BB010008BB010008BB010008BB010008F0
:10010000BB010008BB010008BB010008BB010008DF
:10011000BB010008BB010008BB010008BB010008CF
:10012000BB010008BB010008BB010008BB010008BF
:10013000BB010008BB010008BB010008BB010008AF
:10014000BB010008BB010008BB010008BB0100089F
:10015000BB010008BB010008C10E0008BB0100087C
:10016000BB010008BB010008BB010008BB0100087F
:10017000BB010008BB010008BB0100080000000033
:10018000BB010008BB010008DFF810D000F0E8FA5E
:10019000004800473D750008AFF3008018130020A9
:1001A0000648804706480047FEE7FEE7FEE7FEE711
:1001B000FEE7FEE7FEE7FEE7FEE7FEE7FD6100087B
:1001C000890100082DE9F05F0546002092469B4614
:1001D00088460646814640241BE02846414647465D
:1001E000224600F097F953465A46C01A914110D35F
:1001F00011461846224600F07EF92D1A67EB0108D9
:100200004F4622460120002100F075F917EB000946
:100210004E41201EA4F10104DFDC484631462A4647
:100220004346BDE8F09FD2B201E000F8012B491E21
:10023000FBD270470022F6E710B513460A46044683
:100240001946FFF7F0FF204610BD10B5002200E070
:10025000521C835C8C5CA34201D1002BF8D1D8B234
:10026000E1B2401A10BD2DE9FE4F804681EA03003D
:10027000C00F0C46009021F0004123F00045B8EB80
:100280000200A94105D24046214690461C460B4635
:10029000024623F00040104347D0270DC7F30A0061
:1002A000C3F30A510290401A019040286BDAC3F35D
:1002B000130040F4801B0098924620B10023D2EB3B
:1002C000030A63EB0B0B01985946C0F140025046FC
:1002D00000F011F906460D4650465946019A00F0C5
:1002E00029F910EB08006141002487EA115284EAE1
:1002F000E7731A4340D0009A62B3019A012A4FEA89
:10030000075215DC001B61EB02014FF0004202EACC
:100310000752CDE90042001C41F5801132462B46C0
:1003200000F060F903B0BDE8F08F40462146F9E7E0
:10033000001B61EB0201001C41F5801300185B41BA
:100340002018A2F5001747EB030140EAD570B61953
:100350006D4111E06D084FEA360645EAC0754FEA77
:100360000752001B61EB0201001C41F58011490896
:100370004FEA30000019514132462B4603B0BDE828
:10038000F04F00F020B90098012240000023D0EB8C
:10039000020263EBE073009821464FEAE074B8EB89
:1003A000000061EB0401E9E783F000435BE781F0C3
:1003B000004158E72DE9FE4F81EA030404F00044B0
:1003C00021F0004100944FF0000B23F0004350EA6D
:1003D00001045ED052EA03045BD0C3F30A54C1F3B4
:1003E0000A552C44A4F2F3340194A0FB0254C1F347
:1003F000130141F48011C3F3130343F4801301FB91
:10040000024400FB034E840A970A44EA815447EAF7
:100410008357A4FB076802958D0A05FB07854FEA01
:10042000932C04FB0C542705029D4FEA065847EA1B
:100430001637B5EB08056EEB070C870E920E47EAF0
:10044000811742EA8312A7FB0201B6EB0B0164EBB2
:1004500000042B0D43EA0C335E1844EB1C50DA46C3
:100460005146E7FB0201C5F313044FEA0B3343EA9D
:1004700014534FEA0432019C43EA0603A4F10C042E
:100480000294009CCDE900B400F0ACF803B0BDE8E4
:10049000F08F00200146F9E700F0004230F0004004
:1004A0000AD0C10D01F56071C0F3160042EA015196
:1004B000C20840071143704700200146704701F011
:1004C000004330B421F0004150EA010206D00A0D89
:1004D000A2F56072C1F31301002A02DC30BC0020D7
:1004E0007047440F44EAC104C100E01830BC00EB7F
:1004F000C25000F031B8202A04DB203A00FA02F1A1
:10050000002070479140C2F1200320FA03F3194301
:1005100090407047202A04DB203A21FA02F00021A3
:10052000704721FA02F3D040C2F120029140084303
:1005300019467047202A06DBCB17203A41FA02F011
:1005400043EAE07306E041FA02F3D040C2F1200230
:1005500091400843194670470029A8BF7047401CC6
:10056000490008BF20F00100704710B4B0FA80FCC9
:1005700000FA0CF050EA010404BF10BC704749B106
:10058000CCF1200421FA04F411FA0CF118BF012176
:1005900021430843A3EB0C01CB1D4FEA00614FEA56
:1005A000102042BF002010BC704700EBC350104425
:1005B0000029A4BF10BC7047401C490008BF20F0B0
:1005C000010010BC704710B5141E73F1000408DA66
:1005D000401C41F1000192185B411A4301D120F007
:1005E000010010BD2DE9F04D92469B4611B1B1FAC4
:1005F00081F202E0B0FA80F220329046FFF77BFFF2
:1006000004460F4640EA0A0041EA0B0153465A46A7
:10061000084313D0114653EA010019D0C8F1400233
:100620005046FFF777FF05460E465046594642466C
:10063000FFF761FF084305D0012004E0204639465A
:10064000BDE8F08D0020054346EAE0762C433743B1
:100650000A986305E40AA0EB08000022FD0A44EAB8
:1006600047540A3002D500200146E9E70105101978
:100670006941DDE9084500196941BDE8F04DA2E78F
:100680002DE9F04D81EA030404F0004B21F0004510
:1006900014464FF0000A23F0004150EA050220D032
:1006A00054EA01021DD0C5F30A570246C5F31303ED
:1006B000C1F31300C1F30A5640F4801543F48013CC
:1006C000A7EB0608101BD64608F2FD3873EB0500B1
:1006D00002D308F1010801E092185B41B8F1000F64
:1006E00003DA00200146BDE8F08D00204FF48011B0
:1006F000064684460EE0171B73EB050705D3121B55
:1007000063EB050306434CEA010C49084FEA30004D
:1007100092185B4150EA0107EDD152EA030012D072
:1007200082EA040083EA0501084305D0101BAB41AF
:1007300006D20122002306E000224FF0004302E02F
:100740006FF0010253101AEB06004CEB085110EB4E
:100750000A0041EB0B01BDE8F04DFFF734BF00008C
:10076000064C074D06E0E06840F0010394E80700FE
:1007700098471034AC42F6D3FFF70AFD98C300083F
:10078000B8C300082DE9F04D00231A461B1A8A4110
:1007900003DB00200146BDE8F08DC1F30A52C1F32E
:1007A000130141F480154FF0000BD10702D100185E
:1007B0006D41521E0027044640F2FF11384601EBFE
:1007C000620A3E468046024600204FF48011FFF741
:1007D000A1FEC2197141BB1846EB0100B4EB030C3A
:1007E00075EB000C04D3E41A65EB000517460E46C2
:1007F000241908F101006D4180463428E3DDF91920
:1008000046EB0600091BA84103D24FF0FF32134606
:1008100001E0002213461BEB070046EB0A51BDE83E
:10082000F04DFFF7D0BE70B58C1810F8015B15F0D5
:10083000070301D110F8013B2A1106D110F8012B52
:1008400003E010F8016B01F8016B5B1EF9D12B0777
:1008500005D40023521E0DD401F8013BFAE710F82D
:10086000013BCB1A921C03E013F8015B01F8015B1A
:10087000521EF9D5A142D8D3002070BD10B5014653
:1008800008A0FFF7E2FC00280AD109480949C0780E
:1008900031F8100008490880BDE8104000F07EBB28
:1008A00010BD00004C43445F425F636F6C6F720089
:1008B000D1050020400000203400002010B504467F
:1008C00001460CA0FFF7C1FC002811D10C480D49CE
:1008D00004220078096800EB800001EBC0000A499F
:1008E000007B00F0DDFD2046BDE81040FFF7C6BFED
:1008F00010BD00004C43445F425F636F6C6F720039
:100900003100002038000020D105002010B5044639
:1009100001460CA0FFF799FC002811D10D480E49A3
:1009200004220078096800EB800001EBC0000B494D
:10093000007B00F0B5FD2046BDE8104000F044B853
:1009400010BD00004C43445F4272696768746E6575
:10095000737300003100002038000020D105002012
:10096000FEE700003EB54FF478458C23AA225F21B4
:100970004B20009504F0E0F8002418200095CDE904
:1009800001044FF6FF730CA26721572004F0CDFC41
:1009900040F2DC5000F0EDFA09488C23AA220088CE
:1009A00000905F214B2004F0C7F806480470BDE8B2
:1009B0003E4000F0F3BA000043616E636C650000D6
:1009C000340000203000002010B5014605A0FFF7DC
:1009D0003CFC002804D1084906480968C0788863AF
:1009E00010BD00004C43445F4272696768746E65D5
:1009F00073730000D1050020DC0B00202DE9FE4FB1
:100A0000FE4CFF4D04222078296800EB800001EBAA
:100A1000C000FC49007B00F043FD0027F94EBB46B7
:100A200045F258494FF0180A0421F74801F0E8F858
:100A300000285CD121782A6801EB810102EBC10119
:100A4000F0780A69904202D186F803B001E0401CB8
:100A5000F0708868FFF712FF2078296800EB8000AB
:100A600001EBC0008068FFF7AFFFCDF80090D5F82C
:100A7000008094F800C0B8F82600CCEB0C110AEB0B
:100A80004102024400EB410081B20CEB8C0008EB08
:100A9000C00093B2808CE62204F04EF88DE8000E80
:100AA00020782A68C0EB001300EB8000D18C02EBA9
:100AB000C00001EB4301438C826889B2808C04F052
:100AC00034FC2078D5F800C000EB80030CEBC303A6
:100AD000C0EB00105B8C8DE80806BCF82610F2789D
:100AE00001EB400081B20323C32004F0DFFB0821A7
:100AF000C54801F085F8E0BBF078002867D0401EBB
:100B0000F0702078296800EB800001EBC00080685D
:100B1000FFF7B4FE2078296800EB800001EBC000ED
:100B20008068FFF751FFCDF80090D5F8008094F869
:100B300000C0B8F82600CCEB0C110AEB41020244CD
:100B400000EB410081B20CEB8C0008EBC00093B2CB
:100B5000808CE62203F0F0FF8DE8000E2A682078F2
:100B6000D18CC0EB001301EB430189B200EB800094
:100B700000E01CE002EBC000438C8268808C04F033
:100B8000D4FB2078D5F800C000EB80030CEBC30346
:100B9000C0EB00105B8C8DE80806BCF82610F278DC
:100BA00001EB400081B20323C32004F07FFBDFF898
:100BB0005C824FF48051404601F022F878B14FF446
:100BC0000051404601F01CF8012872D072E02078F4
:100BD000296800EB800001EBC000007C90E72078E2
:100BE000296800EB800001EBC0008068FFF766FE1B
:100BF0002078296800EB800001EBC0008068FFF7D7
:100C000085FEDFF80C825746B8F800000090207887
:100C10002A68C0EB001C0AEB4C03D18C00EB80006F
:100C20000B4402EBC00001EB4C019BB289B2808CFB
:100C3000E62203F081FF2078296800EB800001EBB9
:100C4000C0000422007B6F4900F02AFC207829684C
:100C500000EB800301EBC303B8F800205B8CCDE907
:100C600000320297C98CC0EB001001EB400081B24A
:100C7000F2780323C32004F019FBB8F80000CDE993
:100C80000007CDF808B020782A68C0EB001300EB0D
:100C90008000D18C02EBC00001EB4301438C8268E1
:100CA0005E4689B2808C04F040FB5A480670C0E072
:100CB000FFE701274FF40051404600F0A1FF08B9BB
:100CC000012F03D0642000F054F9ADE620782968A4
:100CD00000EB800001EBC0000422007B494900F0DA
:100CE00009FC01287DD04FF448788C23AA225F218B
:100CF0004620CDF8008003F01FFFCDE9008A57465B
:100D00004FF6FF7344A267214E20CDF808B004F0DF
:100D10000CFB40F2DC5000F02CF9DFF8F4808C235F
:100D2000AA22B8F8000000905F21462003F004FFDB
:100D3000B8F80000009020782A68C0EB001C07EB90
:100D40004C03D18C00EB80000B4402EBC00001EBA4
:100D50004C019BB289B2808CE62203F0EDFE207834
:100D6000296800EB800001EBC0000422007B2549CC
:100D700000F096FB2078296800EB800301EBC303A9
:100D8000B8F800205B8CCDE900320297C98CC0EB2B
:100D9000001001EB400081B2F2780323C32004F07D
:100DA00085FAB8F800108DE8820820782A68C0EB30
:100DB000001300EB8000D18C02EBC00001EB43017B
:100DC000438C826889B2808C04F0AFFA207829685D
:100DD00000EB800001EBC0008068FFF74FFD20783A
:100DE00000E02AE0296800EB800001EBC000806889
:100DF000FFF7EAFD207800EB800011E031000020D1
:100E000038000020D1050020000802400004024004
:100E10003400002030000020537563636573730055
:100E2000296801EBC000806805F00EF81F4981F8C1
:100E300000B0BDE8FE4F00F0B1B81D4E8C23AA22D1
:100E4000308800905F21462003F076FE30880090C5
:100E500020782A68C0EB00110AEB4103D68C00EB26
:100E6000800002EBC000334406EB41019BB289B223
:100E7000808CE62203F060FE00F0FAFB0B48FC21B8
:100E800001702078296800EB800001EBC0008068C9
:100E9000FFF714FD2078296800EB800001EBC0000B
:100EA0008068BDE8FE4FFFF731BD00003000002034
:100EB00034000020014800F029BC0000D40D0020BF
:100EC000014800F023BC00007C0E002001681823BC
:100ED000CAB2103AB2FBF3F2054B6FF30901032AD1
:100EE0009B5CC36500D9091D8165084670470000F9
:100EF0006AC1000810B5014600208B698A6A4FF06C
:100F0000C07453B1B3F5005F15D072B1012A0CD093
:100F1000022A0AD0032A09D104E01AB1012A06D014
:100F2000022A03D1C96AC90100D5012010BDC96ACE
:100F3000A142FAD010BD002AF7D0012AF2D0022A2D
:100F4000F3D0032AF3D010BD30B50468256825F42A
:100F500080252560046863608368402B036803D0A4
:100F600099600068C26030BD9A600068C16030BDA1
:100F7000704700B502464FF47A7302E0184600F05D
:100F800003F8521EFAD200BDA82148430521B0FB48
:100F9000F1F000E000BF401EFCD270472DE9FF4792
:100FA000584E45F258493078FD2801D0FC280FD121
:100FB000B088F023002100901A46084603F0BCFDDB
:100FC00000213223F0220846CDF8009003F0B4FD52
:100FD000B26800241078062801D9062100E00146F5
:100FE000884671780025062901D2814209D3FF295C
:100FF00001D1411E7170C9B2814201D2062900D3CC
:101000007570506800F048F9B068182790F8200013
:1010100058B3AA46012871D0BDE8FF87B26804EB37
:10102000840002EBC000C18C21B17278944211D1CE
:101030004A4610E071788C4201D1494600E0B188FF
:10104000CDE900170295D18CC4EB041201EB4201EB
:1010500089B203E0B288CDE900270295438C82680B
:10106000808C03F0FBFE641CE4B24445D6D3D3E786
:10107000B26804EB840502EBC500C18C21B1727823
:10108000944210D14A460FE071788C4201D1494612
:1010900000E0B1888DE88204D18CC4EB041201EB2E
:1010A000420189B202E0B2888DE88404438C8268F0
:1010B000808C04F03AF9B06800EBC500017B65292B
:1010C0001AD0662918D0C8B2042203A900F0E8F9A2
:1010D000B068B18800EBC5020323528CCDE9002132
:1010E0000297C08CC4EB041100EB410081B29DF863
:1010F0000F20C32004F0DAF8641CE4B24445B7D3EF
:101100008AE70000300000202DE9FF41614C0025F6
:101110002078FF2805D0FE2803D0FD2801D0FC2828
:101120000FD1FC2878D0FD280CD0FE2804D0FF2851
:1011300007D16078401E01E06078401C6070FFF7C6
:101140002DFFA3E06178A06801EB810200EBC20CE7
:101150009CF80C20652A55D0DCF8143045F258462E
:1011600018274FF00108EBB3662A56D0009694F882
:1011700001C0C18CCCEB0C1207EB42030B4401EB1A
:1011800042010CEB8C0200EBC2009BB289B2808C56
:10119000E62203F0D1FC6078A16800EB800001EB4F
:1011A000C0000422007B03A900F07AF96078A168EE
:1011B00000EB800201EBC202C0EB0010528C032353
:1011C0008DE8C400C98C9DF80F2001EB400081B26E
:1011D000C32004F06BF80096CDE90175A268607831
:1011E000D18C00E019E0C0EB001300EB800002EBB3
:1011F000C00001EB4301438C826889B2808C04F00B
:1012000094F830E0DCF81820C2B3E060DCF8180095
:10121000A060A170657092E731E00096CDE901759C
:10122000C08CC1EB011100EB410081B2BCF822304F
:10123000BCF82400DCF8082004F077F80096A668D3
:101240006278F08CC2EB021107EB4103034400EB20
:10125000410081B202EB820006EBC0009BB2808CA1
:10126000E62203F069FC84F803806078A16800EB53
:10127000800001EBC00040698047E57006E0E0684F
:1012800020B1A060C069E060A07857E72570BDE894
:10129000FF810000300000203EB50024202345F2ED
:1012A00058418DE81A0002464FF6FF730A2132209A
:1012B00003F0D4FD3EBD0000FEB500F059F94FF437
:1012C00078448C23AA225F214B20009403F034FC45
:1012D000002018210094CDE901104FF6FF7315A2EC
:1012E0006721572004F021F8144D00244FF40056D4
:1012F000AF143146284600F083FC012800D10124B8
:101300003146284600F07CFC08B9012C08D039464B
:10131000284600F075FC48B10A20FFF72AFEE8E7EE
:1013200000F070F9BDE8FE4004F0EEBEBDE8FE40FE
:10133000FFF718BB52657375726500000004024028
:1013400008B500F015F900208DF800006946FE2070
:1013500000F092F89DF80000122807D0002804D170
:1013600004F024FD48B100F083F908BD04F004FD49
:101370000028F8D105F070FA08BD04F02DF808BD7A
:101380002DE9F041C4B000F0F3F84FF48058434623
:10139000332227A1334802F0B7FD012840D045F29F
:1013A00058448C23AA225F214620009403F0C4FBFA
:1013B0001826CDE9004600254FF6FF773B462AA2C6
:1013C00067214E20029503F0B0FF6423012243A958
:1013D0002448439502F040FD9DF80C01592801D0A6
:1013E00079281DD18C23AA225F214620009403F086
:1013F000A3FBCDE900463B461DA267214E20029586
:1014000003F093FF4FF48074224603A9002000F0FC
:1014100047F84346224603A9124802F075FD20B161
:1014200000F026F944B0BDE8F08104F06DFEF9E764
:10143000626175645F726174655F3131353230307D
:101440002C66726F6D5F307830305F746F5F30780C
:1014500066662C73656E64275927746F5F766572B4
:1014600069667900340E002057616974696E6700FF
:1014700053656E64696E67003EB54FF47A730091F0
:101480000124CDE9014302462346A121034800F08F
:101490008BFC002800D001203EBD0000480A00203F
:1014A0000EB54FF47A738DE80E0002460123A12198
:1014B000034800F079FC002800D001200EBD000098
:1014C000480A002013B584B04FF47A74012305A9AB
:1014D0008DE81A000246A021054800F067FD10B112
:1014E000012006B010BD0520FFF743FD0020F8E7FE
:1014F000480A00202DE9F04115460E460746002413
:1015000009E03819315D80B2FFF7DCFF10B101202E
:10151000BDE8F081641CAC42F3DB0020F8E700007A
:1015200010B5064801F0C4FD4FF4805000F074FA85
:10153000BDE810404FF4005000F06EBAFC0C0020E3
:1015400010B5044801F0B4FDBDE81040042000F0DF
:1015500063BA0000FC0C002010B5044801F0A8FD9F
:10156000BDE81040082000F057BA0000FC0C002035
:10157000FEB5204C4FF400552946204600F040FBB4
:10158000002835D12946204600F03AFB0028F9D042
:10159000194C1B4E194D2088009030782A68C0EBFA
:1015A000001C1827D18C07EB4C030B4400EB800088
:1015B00002EBC00001EB4C019BB289B2808CE622A9
:1015C00003F0BAFA218800200091CDE9017030784B
:1015D0002A68C0EB001300EB8000D18C02EBC00046
:1015E00001EB4301438C826889B2808C03F09DFE3D
:1015F000FEBD00000004024034000020380000203E
:101600003100002070B500224FF48071064800F0D0
:10161000FCFA00252C46A0B22946FFF753FF641CB4
:10162000FF2CF8DD70BD0000000802400EB572B658
:1016300003F0B8FA4FF47844F02300211A46084624
:10164000009403F079FA002020210094CDE90110E4
:101650004FF6FF7302A2014603F067FEFEE70000AB
:101660004552524F525F48414E444C455200000093
:101670003EB54FF478458C23AA225F214B2000957C
:1016800003F05AFA002418200095CDE901044FF622
:10169000FF730CA26721572003F047FE40F2DC5095
:1016A000FFF767FC09488C23AA22008800905F217D
:1016B0004B2003F041FA06480470BDE83E40FFF7B6
:1016C0006DBC00004661696C656400003400002058
:1016D0003000002010B10248006870470148FBE765
:1016E0002C0000202800002090F83510022903D09B
:1016F0008021416501207047052180F83510006880
:10170000016821F001010160002070472DE9F843D4
:1017100004464FF00009CDF8009063484FF416518D
:10172000A56D0068B0FBF1F72E6894F85C200821E5
:1017300001FA02F030420FD02068026852070BD540
:10174000026822F00402026094F85C008140A96003
:10175000606D40F00100606594F85C104FF0010886
:1017600008FA01F0304208D021684969090604D519
:10177000A860606D40F00200606594F85C10042081
:101780008840304208D021680968890704D5A860DC
:10179000606D40F00400606594F85C101020884093
:1017A000304218D021680968090714D5A86020685C
:1017B0000168490304D50068000308D5A16C07E05F
:1017C0000168C90503D4016821F008010160216C9A
:1017D00009B12046884794F85C10202088403042A8
:1017E00031D021680968C9062DD5A86094F8350064
:1017F00005282068016806D0490347D50068000322
:101800001DD4616C1CE021F0160101602068416963
:1018100021F080014161206C08B9A06C20B12068E2
:10182000016821F00801016094F85C103F208840B5
:10183000A86084F8358084F83490216D1FE0E16B56
:1018400009B120468847606D00282BD0606DC00725
:1018500014D0052084F835002068016821F00101CA
:1018600001600098401C0090B84203D820680068CE
:10187000C007F6D184F8358084F83490E16C0029F3
:1018800010D001B02046BDE8F04308470168C90503
:10189000D5D4016821F01001016084F8358084F806
:1018A0003490CCE7BDE8F8834C0600202DE9F041E8
:1018B000044600F0AFF905465CB1022084F835001B
:1018C000002684F834602068016821F0010101607D
:1018D0000DE00120BDE8F08100F09CF9401B0528D7
:1018E00005D920206065032084F83500F2E72068E0
:1018F0000068C007F0D121680A6820480240D4E996
:1019000001031843D4E903352B4318436369184393
:10191000A3691843E3691843236A18431043626AB2
:10192000042A03D1D4E90B231A431043086020682A
:101930004069656A20F0070128460D430127042805
:101940000CD1A06A0543E06A40B12046FFF7D2FA05
:1019500020B14020606584F83570BAE720684561A1
:101960002046FFF7B3FA94F85C203F219140816054
:10197000666584F835700020ACE700003F8010F009
:101980002DE9F0410446866D90F8340000250128C9
:101990000DD0012084F8340094F835700020012F18
:1019A00007D084F8340002252846BDE8F0810220E3
:1019B000FBE7022784F8357060652046FFF7C4FA1C
:1019C00094F85C103F208840B0602068016841F0C6
:1019D00016010160206C20B12068016841F0080107
:1019E00001602068016841F001010160DCE700004E
:1019F00070B5044600F00EF90546601C02D004489C
:101A00000078044400F006F9401BA042FAD370BDF0
:101A10004006002070470000044910B50A680242E1
:101A200002D00860FFF7F6FF10BD0000143C014033
:101A30002DE9F84FDFF89C910022A9F1040B032750
:101A40004FF00F0C09F1040AABF1040E01250B68ED
:101A500095402B40AB426ED10C7904F00304012C6D
:101A600001D0022C15D18668540007FA04F826EA42
:101A70000806D1F80C8008FA04F848EA0608C0F80D
:101A800008804468AC430D79C5F3001595402543A3
:101A900045600C79E443A40708D0C568540007FAF0
:101AA00004F6B5438E68A6402E43C6600C7904F058
:101AB0000304022C11D1D40800EB8406356A5407C4
:101AC000E40E0CFA04F825EA0805D1F8108008FAAB
:101AD00004F848EA0508C6F820800568540007FAAB
:101AE00004F6B5430E7906F00306A6402E430660C1
:101AF0004C6814F4403F66D0374C256845F4804567
:101B00002560246822F0030504F480440094334CDB
:101B100005EB0408D8F808589407260F0CFA06F4C9
:101B2000A5432F4CA04201D1002424E02D4CA0421B
:101B300002D101241FE046E02B4CA04201D1022437
:101B400019E02A4CA04201D1032414E0284CA04201
:101B500001D104240FE0274CA04201D105240AE062
:101B6000254CA04201D1062405E0244CA04201D11D
:101B7000072400E00824B4402C43C8F80848D9F8EA
:101B800000404D464E689C43F60200D51C432C6035
:101B9000DAF8004055464E689C43B60200D51C4317
:101BA0002C60DBF800405D464E689C43B60300D5D0
:101BB0001C432C60DEF8004075464E689C43F603DB
:101BC00000D51C432C60521C102AFFF43FAFBDE827
:101BD000F88F0000083C01404438024000300140CA
:101BE000000002400004024000080240000C0240D5
:101BF000001002400014024000180240001C024085
:101C00000069084000D0012070470AB18161704727
:101C10000904FBE701488068704700004006002087
:101C200070B5040025D094F83D00002520B984F853
:101C30003C50204600F052FA242084F83D002068F1
:101C4000016821F0010101602068016841F4004150
:101C500001602068016821F40041016000F0B8FBD8
:101C60004D4B6168994201D84C4900E04C4988428B
:101C700001D2012070BD4B492268B0FBF1F15668DA
:101C800026F03F060E43566062689A4206D94FF42A
:101C9000967251434FF47A72B1FBF2F12268491CFB
:101CA000166A26F03F06314311626168994210D8E6
:101CB0004900401EB0FBF1F2521CC2F30B02042A91
:101CC00001D2042022E0B0FBF1F0401CC0F30B0075
:101CD0001CE0A268F2B301EBC10303EB0116431E43
:101CE000B3FBF6F35B1C43F480431B0549D092B36E
:101CF00001EBC10202EB0111401EB0FBF1F0401CF0
:101D0000C0F30B0040F4804040F400402168CA69F1
:101D10004CF6FF739A431043C861D4E9071001439E
:101D20002068026822F0C00211430160D4E9030177
:101D300001432068826848F2FF339A43114381606F
:101D4000D4E9051001432068C26822F0FF02114364
:101D5000C16001E00EE016E02068016841F0010179
:101D600001602564202084F83D00256384F83E50FE
:101D7000002070BD01EB4106431EB3FBF6F35B1C74
:101D8000B3E70120C2E701EB4101401EB0FBF1F0D7
:101D9000401CC0F30B00B7E7A086010080841E0042
:101DA00000093D0040420F002DE9FF4F83B09A46E5
:101DB000DDE9118793460446DDF84090FFF72AFFDE
:101DC000054694F83D00202870D11923012274495A
:101DD0002046009502F0FDF90028F5D194F83C006A
:101DE000012863D0012084F83C0020680168C907FD
:101DF00003D1016841F0010101602068016821F40C
:101E000000610160222084F83D00402084F83E00FB
:101E100000262664C4F82490A4F82A80608D2085CA
:101E20006048E062CDE9007553465A462046049961
:101E300002F0D2F8002879D1208DD0B1012821D02C
:101E40000228206824D0416980690090208D0328F1
:101E500066D801282BD0544902283B464FF0000297
:101E6000009557D08846204602F0B3F900285DD18E
:101E70003AE02068416981690091016841F400718C
:101E800001607DE02068016821F480610160F0E775
:101E9000016821F4806101602068016841F40061FB
:101EA0000160206841698069009069E075E02A4618
:101EB0003946204602F02EFA88BB54E020680168BB
:101EC00041F40071016020680069616A0870606A0D
:101ED000401C6062218D491E2185618D491E6185EE
:101EE00021680969017042E02068016821F480617D
:101EF000016020680069616A0870606A401C606265
:101F0000208D401E2085608D401E60853B4600224E
:101F100041460095204602F05CF900B9CEE705E0A5
:101F20002A463946204602F0F5F918B1012007B0DB
:101F3000BDE8F08F20680069616A0870606A401C23
:101F40006062208D401E81B22185608D401E6085BB
:101F500020684269D243520712D4032903D1016891
:101F600021F48061016020680069616A0870606A1C
:101F7000401C6062208D401E2085608D401E608563
:101F8000208D00287FF462AF202084F83D0084F883
:101F90003E6084F83C600020C9E70220C7E70000EB
:101FA000020010000000FFFF040001002DE9FF4FB8
:101FB00083B09A46DDE9119793460446DDF84080E8
:101FC000FFF728FE054694F83D0020287FD119230D
:101FD000012240492046009502F0FBF8002876D106
:101FE00094F83C00012872D0012084F83C0020685D
:101FF0000168C90703D1016841F00101016020684F
:10200000016821F400610160212084F83D00402036
:1020100084F83E0000262664C4F82480A4F82A90A0
:10202000608D20852C48E062CDE9007553465A4604
:102030002046049902F04EF870B930E02A4639463D
:10204000204602F0A1F958B1206C042804D1206880
:10205000016841F400710160012007B0BDE8F08F14
:10206000606A216800780861626A521C6262208D91
:10207000401E80B22085618D491E618521684B69B3
:10208000DB435B070BD468B110780861606A401CC1
:102090006062208D401E2085608D401E6085208DF1
:1020A0000028CBD12A463946204602F067F800289E
:1020B000CAD154F83D0B016841F400710160202041
:1020C00004F81E09E67766770020C6E7FFE70220DE
:1020D000C3E70000020010000000FFFFF0B587B06A
:1020E000044614216846FEF7A5F81B49206888427B
:1020F0002FD11A48016841F004010160016801F024
:1021000004010591016841F00101016000680424A7
:1021100000F0010005904FF40070122501260327FE
:1021200004948DE8E10069460D48FFF781FCA001A9
:1021300004948DE8E10069460A48FFF779FC0748F6
:102140001030016841F400010160006800F40000F3
:10215000059007B0F0BD0000005C00403038024040
:1021600000080240000002400248816802781144E1
:1021700081607047400600200B4810B5016841F4AB
:1021800000710160016841F480610160016841F4FF
:1021900080710160032000F06FF80F2000F006F856
:1021A00000F024F8002010BD003C024070B50D4D39
:1021B00004464FF47A712878B1FBF0F00A490968B7
:1021C000B1FBF0F000F004FE48B9102C07D2002259
:1021D0002146501E00F030F800206C6070BD0120D8
:1021E00070BD0000400600204C0600200A4808B5DB
:1021F000016841F480410160006800F48040009073
:102200000548001F016841F080510160006800F03E
:102210008050009008BD000044380240002809DBCF
:1022200000F01F02012191404009800000F1E020F0
:10223000C0F8001170470000F0B40E4B1B68C3F3E8
:102240000223C3F10704042C00D904241D1D072D0B
:1022500001D2002300E0DB1E012606FA04F56D1E04
:102260000D409D409E40761E164045EA0601F0BC9A
:1022700004F0A7BB0CED00E0064A00F0070110686F
:102280004FF6FF03184040EA01200349084310605D
:10229000704700000CED00E00000FA052DE9F04762
:1022A0000D46040065D0DFF81491D9F80000EFB2B4
:1022B00000F00700A84207D289F80070D9F80000A2
:1022C00000F00700A84254D120683D4E810712D586
:1022D000400703D5306840F4E050306020780007B4
:1022E00003D5306840F4604030603068A16820F069
:1022F000F000084330602078C0072DD03049606876
:102300000839012812D0022813D0032811D00968F7
:10231000890700292DDA316821F00301014331607A
:10232000FFF778FC804641F2883A0EE0096889039D
:10233000EFE709688901ECE7FFF76CFCA0EB080107
:10234000514502D90320BDE8F0873068616800F08C
:102350000C00B0EB810FEFD1D9F80010484601F026
:102360000701A94207D90770006800F00700A842DA
:1023700001D00120E7E72078400705D53068E16803
:1023800020F4E050084330602078000706D530681C
:10239000216920F4604040EAC100306000F038F864
:1023A0003168084AC1F30311515CC840064908600E
:1023B00006480068FFF7FAFE0020C4E7003C024030
:1023C0000838024072C100084C0600204406002074
:1023D0000448054900680968044AC1F38221515C38
:1023E000C84070474C0600200838024082C10008EF
:1023F0000448054900680968044AC1F34231515C48
:10240000C84070474C0600200838024082C10008CE
:10241000154810B5006810F00C01144813D0431093
:1024200004290FD008290ED10F4C241F216801F078
:102430003F022168490207D52068C0F38810A0FB3D
:10244000030106E0184610BD2168C1F38811A1FB05
:1024500000010023FDF7B6FE2168C1F30141491CCC
:102460004900B0FBF1F010BD083802400024F40030
:102470002DE9F84F040075D02078DFF838A3C007A5
:10248000AAF1040548D00AF104000168C1F38101F2
:10249000012908D00068C0F3810002280AD1DAF8C7
:1024A0000000400206D52868800335D56068002802
:1024B000E1D031E06068B0F5803F10D0B0F5A02FDA
:1024C000286810D020F480302860286820F480200C
:1024D00028606068A0B1FFF79DFB06460CE0286805
:1024E00040F48030F4E740F480202860F7E7FFF7FD
:1024F00091FB801B642871D828688003F7D50BE016
:10250000FFF788FB064604E0FFF784FB801B642886
:10251000F1D828688003F7D42078DFF89C928007F0
:102520004FF0000B3DD5A348001D016811F00C0FC2
:1025300008D00068C0F3810002280AD1DAF8000050
:10254000400206D42868800715D5E068012809D123
:1025500011E0E068B8B10120C9F80000FFF75AFBAC
:10256000064605E022E1FFF755FB801B0228C2D892
:1025700028688007F7D52868216920F0F80040EA2C
:10258000C10028600DE0C9F800B0FFF743FB064624
:1025900004E0FFF73FFB801B02281FD82868800754
:1025A000F7D42078000722D5824F844861697037BC
:1025B00071B101210160FFF72DFB064604E0FFF732
:1025C00029FB801B022809D838688007F7D50EE060
:1025D000C0F800B0FFF71EFB064605E082E0FFF7FB
:1025E00019FB801B02287DD838688007F7D4207833
:1025F000400765D56F484FF000083C300068C000C8
:102600000BD46C483C30016841F080510160006897
:102610004FF0010800F080500090694F3868C00505
:102620000FD4386840F480703860FFF7F3FA06463C
:1026300004E0FFF7EFFA801B022853D83868C00582
:10264000F7D55C4FA0686C3701280FD00528386893
:1026500010D020F001003860386820F004003860A5
:10266000A068B0B1FFF7D6FA06460EE0386840F031
:102670000100F4E740F004003860F7E7FFF7CAFA1A
:10268000811B41F28830814263D838688007F5D5D4
:102690000DE0FFF7BFFA064606E0FFF7BBFA811B25
:1026A00041F28830814254D838688007F5D4B8F1B7
:1026B000000F05D03F483C30016821F08051016097
:1026C000A069B8B33B49091D0968C1F3810102291A
:1026D00046D00228584606D0C9F86000FFF79AFA9B
:1026E000044639E035E04F46C9F86000FFF792FA3A
:1026F000064604E0FFF78EFA801B022829D82868D6
:102700008001F7D4D4E907010843A16A2D4A49089A
:1027100002EB0141626A41EA8211084394F82C10ED
:1027200040EA0161CAF8001001203866FFF772FA2A
:10273000044605E03CE0FFF76DFA001B022808D8CC
:1027400028688001F7D533E0FFF764FA001B022800
:1027500002D90320BDE8F88F28688001F4D427E06F
:102760000128F7D0DAF80000E26900F48001914214
:102770001CD1226A00F03F01914217D147F6C07187
:10278000626A0140B1EB821F10D1A26A4FF0FF33A1
:1027900000F4403103EB5202B1EB024F06D194F842
:1027A0002C1000F07060B0EB016F01D00120D1E778
:1027B0000020CFE70438024000004742800E474225
:1027C000007000400000FFFF70B5040009D0606A8F
:1027D000002540B125616561A56294F8510040B1C2
:1027E0000CE0012070BD6068B0F5827FF4D0E56137
:1027F000F2E784F85050204600F044F8022084F8B4
:1028000051002068016821F040010160A088218901
:1028100000F4827001F404410843A18901F40061CD
:102820000843217C01F002010843217D01F00101F0
:102830000843218B01F400710843217F01F0380126
:10284000084394F8201001F080010843218D01F421
:102850000051084321680860A069042101EA104082
:1028600094F8241001F010010843216848602068A2
:10287000C16921F40061C1616565012084F85100DE
:10288000002070BD30B587B0044614216846FDF7BE
:10289000D1FC224D20680024214902220323A842B2
:1028A0001AD11F481430056845F48055056000684A
:1028B00000F480500590086840F001000860086846
:1028C000694600F001000590E0208DE81500052024
:1028D000CDE9033013481DE0134DA8421CD1104828
:1028E0001030056845F400450560006800F40040BC
:1028F0000590086840F0040008600868694600F028
:10290000040005904FF4A0508DE815000620CDE995
:1029100003300648FFF78CF807B030BD00300140A7
:102920003038024000000240003C004000080240F5
:102930002DE9F84F044690F851001D461746884689
:1029400001283AD160684FF00409B0F5827F01D1C7
:10295000A06840B3FFF75EF90646B8F1000F74D0E7
:10296000002F72D094F85000012826D04FF0010AB1
:1029700084F850A084F851904FF00009C4F85490A6
:10298000C4F83880A787E787C4F83090A4F834905B
:10299000A4F83690C4F84090C4F84490A068B0F50C
:1029A000004F0CD015E084F85190009313460A466E
:1029B000204600F01AF9BDE8F88F0220FBE72068F6
:1029C000016821F0400101602068016821F4804124
:1029D000016020680168490603D4016841F04001A4
:1029E0000160E068B8B132E020688168C90709D0A9
:1029F000007BA16B0870A06B401CA063E08F401EA1
:102A0000E08708E0FFF706F9801BA84202D3681CA4
:102A100001D031E07DB3E08F0028E5D11AE02068D5
:102A20008168C90709D0C068A16B0880A06B801CB1
:102A3000A063E08F401EE08709E0FFF7EBF8801B02
:102A4000A84203D3681C02D016E012E09DB1E08FCB
:102A50000028E4D132462946204603F093FA08B113
:102A60002020606584F851A084F85090606D0028A3
:102A7000A1D001209FE7FFE784F851A084F850908F
:102A8000032098E72DE9F84F1D4617468A4604466D
:102A9000FFF7C0F8064694F85100012826D1BAF194
:102AA000000F77D0002F75D094F8500001281DD06A
:102AB0004FF0010984F85090032084F851004FF042
:102AC0000008C4F85480C4F830A0A786E786C4F88C
:102AD0003880A4F83C80A4F83E80C4F84480C4F850
:102AE0004080A068B0F5004F03D00CE00220BDE8A4
:102AF000F88F2068016821F04001016020680168BA
:102B000041F48041016020680168490603D40168EE
:102B100041F040010160E068B0F5006F606803D0EB
:102B200028B3012F23D03FE008B1012F1BD1206B28
:102B300021680088C86006E020688168890709D597
:102B4000216B0988C160206B801C2063E08E401ED1
:102B5000E08608E0FFF75EF8801BA84202D3681CFD
:102B600001D02FE075B3E08E0028E5D11FE0206B87
:102B700021680078087306E02068816889070AD513
:102B8000216B09780173206B401C2063E08E401E8E
:102B9000E08609E027E0FFF73DF8801BA84202D35A
:102BA000681C01D00EE06DB1E08E0028E4D1324601
:102BB0002946204603F014FA08B120206065A06879
:102BC00030B109E084F8519084F8508003208EE7FA
:102BD0002068C1688068009084F8519084F8508023
:102BE000606D002883D0012081E72DE9FF4F81B07F
:102BF0001F469346044601250E9EFFF70BF88046BC
:102C000094F851006168012806D0B1F5827F3CD16B
:102C1000A168C9BB042838D10298002870D0BBF144
:102C2000000FFBD0002FF9D094F8500001282CD0D1
:102C30004FF0010A84F850A094F85100042802D003
:102C4000052084F851004FF00009C4F85490C4F8EE
:102C500038B0E787A78702992163E786A786C4F87B
:102C60004090C4F8449020680168490603D4016884
:102C700041F040010160E068B0F5006F606808D085
:102C8000E8B3012F47D07DE0FFE7022005B0BDE8A3
:102C9000F08F08B1012F37D1206B21680088C86000
:102CA000206B801C2063E08E401EE0862CE02068B4
:102CB000816889070DD5E18E59B1012D09D1216BAC
:102CC0000988C160206B801C2063E08E401EE08676
:102CD000002520688168C9070BD0E18F49B1C06821
:102CE000A16B0880A06B801CA063E08F401EE08772
:102CF0000125FEF78FFFA0EB0800B04201E00AE0DB
:102D000064E001D3701C4ED1E08E0028CFD1E08F5B
:102D10000028CCD13CE0206B216800780873206B40
:102D2000401C2063E08E401EE0862BE02068816816
:102D300089070DD5E18E59B1012D09D1216B097893
:102D40000173206B401C2063E08E401EE08600254E
:102D500020688168C9070BD0E18F49B1C068A16BB9
:102D60000870A06B401CA063E08F401EE087012527
:102D7000FEF750FFA0EB0800B04202D3701C01D058
:102D800011E086B1E08E0028D0D1E08F0028CDD1AF
:102D900042463146204603F023F950B120206065B9
:102DA00084F8509012E084F851A084F850900320E9
:102DB0006CE7A06818B92068C1688068009084F842
:102DC00051A084F85090606D0028F1D001205DE79B
:102DD00010B5401EB0F1807F01D3012010BD4FF02F
:102DE000E02460610F21601703F0EBFD0020A0617B
:102DF00007202061002010BD7047704710B590F883
:102E00003C20012A22D0012280F83C20CA688C682C
:102E100022F4407222434C6822F4806222430C6800
:102E200022F4006222430C6922F4805222434C694E
:102E300022F400522243C969002322F480420A434B
:102E400001684A6480F83C30002010BD022010BDAB
:102E500070B590F83C20012A32D0012580F83C5012
:102E6000022280F83D2002685368946823F07006BF
:102E70000B6833435360134B02689A4214D0B2F18B
:102E8000804F11D0104B9A420ED0104B9A420BD06B
:102E90000F4B9A4208D00F4B9A4205D00E4B9A42E4
:102EA00002D00E4B9A4204D1496824F080031943A2
:102EB000916080F83D50002180F83C10084670BDBC
:102EC000022070BD000001400004004000080040E6
:102ED000000C004000040140004001400018004088
:102EE00010B5040003D094F83D0010B107E00120B4
:102EF00010BD002084F83C00204600F01FF802209E
:102F000084F83D00211D206803F0DCF9012084F8DD
:102F1000460084F83E0084F83F0084F8400084F8BE
:102F2000410084F8420084F8430084F8440084F8A7
:102F3000450084F83D00002010BD000038B505466E
:102F4000524A016800235248914218D1016841F069
:102F5000010101600068002200F0010000900121E1
:102F60001820FFF769F91820FFF758F9002201210E
:102F70001920FFF761F91920FFF750F97CE0444A66
:102F8000121FB1F1804F11D0424B994239D11068D4
:102F900040F0020010601068002200F00200009073
:102FA00001211D20FFF748F91D206BE0106840F05B
:102FB000010010601068394C00F0010000903648A4
:102FC00020604FF0C06060604020C4E9020300014F
:102FD0002061800060618000A0618011C4E9070366
:102FE00020466362FEF762FC08B1FEF71FFBAC628D
:102FF0002C63002201211C20A563FFF71DF91C2072
:1030000040E0274B994208D1106840F0080010605A
:10301000106800F00800009038BD224A91420ED19D
:10302000016841F4803101600068002200F48030C2
:10303000009001211820FFF7FFF8182022E01A4A1B
:1030400091420ED1016841F4003101600068002214
:1030500000F40030009001211920FFF7EDF819204D
:1030600010E0124A9142D7D1016841F480210160F9
:10307000006800F480200090002211461A20FFF71B
:10308000DBF81A20BDE83840FFF7C8B8000001405F
:103090004438024000040040A0600240D40D0020EB
:1030A000000C004000400140004401400048014045
:1030B00090F83D10012901D001207047022180F8CD
:1030C0003D100168CA6842F00102CA6000681149F7
:1030D000884214D0B0F1804F11D00F4988420ED0F1
:1030E0000E4988420BD00E49884208D00D498842CB
:1030F00005D00D49884202D00C49884204D181682C
:1031000001F00701062903D0016841F001010160C7
:10311000002070470000014000040040000800400B
:10312000000C004000040140004001400018004035
:103130000168CA6822F00102CA6001680A6A41F2A5
:1031400011131A4207D10A6A9B101A4203D10A6866
:1031500022F001020A60012180F83D100020704732
:1031600070B5044690F83C000025012817D00126D0
:1031700084F83C60022084F83D002068826822F0D8
:10318000770222F47F4282600868502838D00DDC34
:1031900020284FD005DC90B3102811D14AE002203E
:1031A00070BD302846D040280AD13BE060282FD09F
:1031B00070280DD0B0F5805F03D0B0F5005F12D05D
:1031C000012584F83D60002084F83C00284670BD4D
:1031D000CB68D1E90121206803F062F92068816899
:1031E00041F0770109E0CB68D1E90121206803F0C3
:1031F00057F92068816841F480418160E1E719E076
:10320000CA684968206803F01FFA5021206806E068
:10321000CA684968206803F028FA6021206803F032
:1032200049F9CEE7CA684968206803F00DFA4021E1
:103230002068F4E7226801461046F0E72DE9F041E6
:103240000D46040003D094F83D0018B108E00120B9
:10325000BDE8F081002084F83C00204600F040F8F2
:10326000022084F83D002068816844F207029143FF
:103270008160211D206803F025F82068816882693B
:10328000066A2B68AF690B4340F203318A4342EA76
:103290000722A968EF6911434FF6FC429143EA689F
:1032A00041EA07210A4329692F6A090141EA0731E6
:1032B00011436A686D6926F0AA0646EA05152A4395
:1032C00083602068816154F8460B0262012004F893
:1032D0001F09E0752076E0762077A0750020B7E71B
:1032E00010B586B0044614216846FCF7A3FF206899
:1032F000204C002320490222A0421AD11E4810303F
:10330000046844F004040460006800F004000590C0
:10331000086840F0080008600868694600F0080086
:1033200005904FF440508DE80D00CDE9033213486D
:103330001CE0134CA0421BD10F481430046844F029
:1033400002040460006800F002000590086840F084
:10335000040008600868694600F004000590C02079
:103360008DE80D000320CDE903300648FEF760FB31
:1033700006B010BD0008004030380240000C02408A
:10338000000401400008024070B590F83E50044629
:1033900090F83F3090F8422090F84300022621B187
:1033A00004290BD0012D16D10FE0012D13D1012AD4
:1033B00011D184F83E6084F8426016E0012B0AD1F6
:1033C000012808D184F83F600DE0012B03D1012AC8
:1033D00001D1012801D0012070BD84F83E6084F83D
:1033E0003F6084F8426084F8436091B1042904D0BE
:1033F00001220021206802F0D1FF0122042120686F
:1034000002F0CCFF2068016841F00101016000205A
:1034100070BD012200212068F2E7704770472DE956
:10342000F04104460068C66805694FF00007A90727
:1034300013D5B10711D5F91E01610120207720684D
:1034400080698007204602D0FFF7E8FF04E000F023
:10345000E5F8204600F077F92777680716D570075A
:1034600014D521686FF004000861022020772068DD
:10347000806910F4407F204602D0FFF7CFFF04E0C0
:1034800000F0CCF8204600F05EF92777280715D524
:10349000300713D521686FF00800086104202077F9
:1034A0002068C0698007204602D0FFF7B7FF04E01C
:1034B00000F0B4F8204600F046F92777E80616D564
:1034C000F00614D521686FF01000086108202077FD
:1034D0002068C06910F4407F204602D0FFF79EFFAD
:1034E00004E000F09BF8204600F02DF92777E8076C
:1034F00008D0F00706D021686FF00100086120466F
:1035000000F01AFB280608D5300606D521686FF0B2
:10351000800008612046FFF76FFC680608D570063A
:1035200006D521686FF040000861204600F00EFCCF
:10353000A8060AD5B00608D521686FF020000861FA
:103540002046BDE8F041FFF758BCBDE8F08100001F
:1035500070B586B0044614216846FCF76BFE284817
:1035600021680024274B0222012581420DD11868D1
:1035700040F010001860186800F010000590481521
:103580008DE815006946204822E02048B1F1804FBF
:1035900012D01F4EB14221D1186840F002001860CD
:1035A0001868694600F00200059020208DE815009B
:1035B000CDE9034217480DE0196841F00101196097
:1035C000196801F00101059108218DE8160069468E
:1035D000CDE90345FEF72CFA06B070BD0E4EB142A0
:1035E000FAD1196841F00101196019680095CDE917
:1035F000012401F00101CDE9042103946946E9E7C2
:10360000000001403038024000100240000002403B
:103610000004004000040240000C0040704770B5F8
:10362000044690F83C0000260D4601280FD00120EA
:1036300084F83C006AB1042A1DD0082A2FD00C2A35
:103640003FD00126002084F83C00304670BD0220A7
:1036500070BD206802F036FF2068816941F00801E2
:1036600081612068816921F004018161206881699C
:103670002A69114311E0206802F054FF2068816933
:1036800041F4006181612068816921F48061816178
:10369000206881692A6941EA02218161D2E72068B4
:1036A00002F076FF2068C16941F00801C16120681D
:1036B000C16921F00401C1612068C1692A6911430F
:1036C00011E0206802F098FF2068C16941F40061B0
:1036D000C1612068C16921F48061C1612068C1694C
:1036E0002A6941EA0221C161ACE710B5040003D0A8
:1036F00094F83D0010B107E0012010BD002084F8CF
:103700003C00204600F01EF8022084F83D00211DF8
:10371000206802F0D7FD012084F8460084F83E00BE
:1037200084F83F0084F8400084F8410084F84200A7
:1037300084F8430084F8440084F8450084F83D0090
:10374000002010BD704770477047000010B5044658
:1037500049B104290AD008290BD094F84100012866
:103760000AD0012010BD94F83E00F8E794F83F001D
:10377000F5E794F84000F2E70220B1B3042938D00D
:10378000082939D084F841000122206802F006FEA1
:103790001B4920681B4A884201D0904203D1436CE8
:1037A00043F4004343642068884213D0B0F1804F53
:1037B00010D0154988420DD0144988420AD01449C6
:1037C000884207D0904205D01249884202D012495F
:1037D000884204D1816801F00701062903D00168FD
:1037E00041F001010160002010BDFFE784F83E00B8
:1037F000CAE784F83F00C7E784F84000C4E7000048
:1038000000000140000401400004004000080040A6
:10381000000C004000400140001800402DE9F0413C
:1038200017460D0004464FF0000611D0042D12D0AB
:10383000082D13D094F8410002287DD08DB1042DBD
:1038400012D0082D13D094F84100012812D0B4E012
:1038500094F83E00F0E794F83F00EDE794F840005C
:10386000EAE794F83E00F0E794F83F00EDE794F8BB
:103870004000EAE7002F60D0002B5ED002208DB11F
:10388000042D12D0082D13D084F841004E484F4922
:103890004F4A85B1042D22D0082D6AD00C2D7DD041
:1038A000012663E084F83E00F0E784F83F00EDE78E
:1038B00084F84000EAE7D4F824C0CCF83C00606A01
:1038C0000164606A3946C2642268606A3432FEF775
:1038D00057F890BB2068C16841F4007112E0D4F839
:1038E00028C0CCF83C00A06A0164A06A3946C264D2
:1038F0002268A06A3832FEF743F8F0B92068C16840
:1039000041F48061C16001222946206802F046FD31
:1039100030492068304A884201D0904203D1436C3C
:1039200043F4004343642068884216D0B0F1804FCE
:1039300013D02A49884201E019E03EE00DD0284921
:1039400088420AD02749884207D0904205D02649AC
:10395000884202D02549884204D1816801F00701DC
:10396000062903D0016841F0010101603046BDE83D
:10397000F081D4F82CC0CCF83C00E06A0164E06A25
:103980003946C2642268E06A3C32FDF7F9FFA0B90B
:103990002068C16841F40061B4E7FFE7D4F830C0A3
:1039A000CCF83C00206B0164206B3946C26422686D
:1039B000206B4032FDF7E4FF08B10120D7E7206813
:1039C000C16841F480519DE7B763000815640008A1
:1039D0004D64000800000140000401400004004064
:1039E00000080040000C004000400140001800406A
:1039F00030B504460D460068002202F0CFFC19499C
:103A000041F2111220689310884202D01649884270
:103A100009D1016A114206D1016A194203D1416CF0
:103A200021F4004141642068016A114206D1016A13
:103A3000194203D1016821F00101016001203DB16B
:103A4000042D08D0082D09D084F84100002030BD95
:103A500084F83E00FAE784F83F00F7E784F8400076
:103A6000F4E70000000001400004014070B50D00C3
:103A700004464FF0000607D0042D0CD0082D40D08E
:103A80000C2D45D001263AE02068C16821F4007170
:103A9000C160606A05E02068C16821F48061C1608E
:103AA000A06AFDF721FE00222946206802F076FC7C
:103AB0001F4941F2111220689310884202D01D491B
:103AC000884209D1016A114206D1016A194203D123
:103AD000416C21F4004141642068016A114206D121
:103AE000016A194203D1016821F00101016001203E
:103AF000ADB1042D16D0082D17D084F84100304602
:103B000070BD2068C16821F40061C160E06AC8E747
:103B10002068C16821F48051C160206BC1E784F83E
:103B20003E00ECE784F83F00E9E784F84000E6E770
:103B300000000140000401402DE9F04106467748AD
:103B4000774D86422FD177480068416A7648A9614F
:103B50000068426A2A62E8694EF66023401AA86249
:103B6000984203DDA0F57F40FF38A8626F4C270C18
:103B7000A04201DA3844A862686A101AE8629842E2
:103B800003DDA0F57F40FF38E862A04201DA384447
:103B9000E8626A62E961A96A686808446860E96A7B
:103BA000A8680844A8606248864201D0686905E0B8
:103BB000E868401CE8606869401C68610024B0F552
:103BC0007A6F06D19FED5B0A6C6100F077FD00F023
:103BD00043FD5949E868884272D1A046EC60002450
:103BE0000023A0B21A46194602F07EFE641C082C7F
:103BF000F6DB28690A274A4C03280CD8617800F0C4
:103C00000300B1FBF7F32178B1FBF7F2A178B1FB28
:103C1000F7F102F069FE2869401E032806D8637890
:103C20002278A17800F0030002F05EFE2869801E71
:103C300003280CD8617800F00300B1FBF7F321787A
:103C4000B1FBF7F2A178B1FBF7F102F04DFE286964
:103C500003280ED8617800F00300B1FBF7F3217858
:103C6000C0F10700B1FBF7F2A178B1FBF7F102F068
:103C70003BFE2869401E032808D800F00300637843
:103C80002278A178C0F1070002F02EFE2869801E7C
:103C900003280ED8617800F00300B1FBF7F3217818
:103CA000C0F10700B1FBF7F2A178B1FBF7F102F028
:103CB0001BFE2869401C2861082801D1C5F8108026
:103CC0001E48864227D11E4D4FF480512846FDF7ED
:103CD00097FF1C4C08B9FC2020704FF40051284677
:103CE000FDF78EFF08B9FD202070174D04212846EE
:103CF000FDF786FF08B9FF20207008212846FDF750
:103D00007FFF08B9FE202070FDF7FEF9BDE8F04105
:103D10000A48FFF70DBABDE8F08100008C0D0020C5
:103D200000000020240C0020B40C0020A015FFFF90
:103D3000940B00200AD7A33B80380100FC0C002024
:103D4000000402403000002000080240704770B5B7
:103D5000040004D094F84100002510B106E00120D1
:103D600070BD84F84050204600F024F8242084F8E8
:103D700041002068C16821F40051C160204602F072
:103D8000ADFC2068016921F490410161206841691E
:103D900021F02A0141612068C16841F40051C160ED
:103DA0006564202084F8410084F8420065630020A7
:103DB00070BD000070B586B0064614216846FCF759
:103DC00039FA2049306888423AD11F4800250168F5
:103DD00041F010010160006800F0100005901A48E1
:103DE0001438016841F0010101600068694600F083
:103DF000010005904FF4C06000900220CDE901055C
:103E000003200390072004901048FDF711FE114C89
:103E10000F4820604FF0006060604020C4E9020558
:103E20000001C4E904058010C4E90650256220465B
:103E30006562FDF73BFD08B1FDF7F8FBB463A663CF
:103E400006B070BD0010014044380240000002403E
:103E5000B86402407C0E00202DE9F84F044690F82B
:103E60004200984615460E46202802D00220BDE8A2
:103E7000F88FBEB1B5B100206064222184F84210F1
:103E80002063FDF7C7FEA5858246E585A0684FF44F
:103E900080574FF02009B84201D1206920B1354642
:103EA000002628E00120E2E7002524E05346002216
:103EB00020212046CDF8008002F096FC18B184F84D
:103EC00042900320D3E725B1A068B84219D038B199
:103ED00008E020684068C0F3080026F8020B07E0FD
:103EE000206970B12068406800F07F0005F8010B80
:103EF000E08D401EE085E08D0028D7D184F8429007
:103F0000B5E720684068F1E72DE9F843044690F8EA
:103F100041001F4615460E46202802D00220BDE86B
:103F2000F8838EB185B100206064212084F84100BF
:103F3000FDF770FEA5848146E584A0684FF0200857
:103F4000B0F5805F02D003E00120E8E7206910B1FE
:103F5000354600260EE000250CE08021204602F0C8
:103F600043FCA0B9BDB115F8010B21684860E08C95
:103F7000401EE084E08C4B464FF000020097002882
:103F8000EBD14FF04001204602F02EFC40B184F806
:103F900041800320C3E736F8020BC0F30800E4E7D2
:103FA00084F841800020BAE7FEE701684A69D243FD
:103FB00052050FD46FF480624A61002140F8301F2F
:103FC000202242738173026942F00402026101738C
:103FD00001207047002070472DE9F84F0446006823
:103FE00089460B9E01689846174641F4806101603E
:103FF0002068016841F48071016000964FF0011B58
:104000000022594620460A9B00F0E3F84FF4007A5C
:1040100040B120680068C00501D5C4F840A0032065
:10402000BDE8F88F216809F0FE0008613346284991
:1040300020460A9A00F011F9F0BB206841698069B6
:104040000090324620460A9900F09EF940B1206C5B
:1040500004283AD12068016841F40071016034E01D
:10406000FDB2B8F1010F09D02168380A0861324663
:1040700020460A9900F088F90028E8D120680561F7
:10408000324620460A9900F07FF90028DFD12068E7
:10409000016841F480710160009600225946204673
:1040A0000A9B00F096F80028B3D1216809F0FF00C0
:1040B00040F00100086100E007E033460449204673
:1040C0000A9A00F0CAF80028AAD00120A8E7000048
:1040D000020001002DE9F843044600680D46DDE9C1
:1040E000089701689846164641F4807101604B4676
:1040F00000224FF001112046009700F06AF848B105
:1041000020680068C00502D54FF4007020640320C9
:10411000BDE8F883216805F0FE0008613B464A4689
:104120001549204600F099F888B9206841698069EE
:1041300000903A464946204600F026F948B1206CE6
:10414000042804D12068016841F400710160012055
:10415000DEE7F5B2B8F1010F09D02168300A086135
:104160003A464946204600F00FF90028E7D120687A
:1041700005610020CCE700000200010070B5164682
:104180000D4604461EE02046FFF70FFF08B1012050
:1041900070BD681C16D0FDF73DFD801BA84200D8FD
:1041A00085B920684069C04340070BD5002044F81A
:1041B000300F20216173A073216941F0200121613A
:1041C0002073E4E720684069C0434007DBD4002047
:1041D00070BD2DE9F0471E4690460D460446C1F3DA
:1041E0000747DDF8209026E0701C24D0FDF712FD73
:1041F000A0EB0900B04200D8EEB92068012F16D01C
:10420000806925EA00000004000C12D0002040451F
:1042100011D1002044F8300F20216173A07321696F
:1042200041F02001216120730120BDE8F087406941
:10423000E7E70120EBE72068012F0AD0806925EA33
:1042400000000004000C06D000204045CCD0002027
:10425000EBE74069F3E70120F7E72DE9F0479846DF
:1042600016460D4604464FF000094FF0200AC1F3F0
:10427000074723E020684069C043400515D4206803
:10428000016841F40071016021686FF48060486149
:10429000C4F8309084F83DA084F83E90216C41F041
:1042A0000401216484F83C9020E0701C06D0FDF7E6
:1042B000B1FCA0EB0800B04203D816B1012F1ED00C
:1042C00020E02068012F14D0806925EA0000000456
:1042D000000C17D044F8309F84F80DA084F80E909D
:1042E000216941F02001216184F80C900120BDE892
:1042F000F087406925EA00000004000CEAD120683C
:10430000406901E02068806925EA00000004000C93
:10431000B0D1ECE72DE9F04116460D4604460027E2
:104320004FF0200829E04069C043C0060DD454F87E
:10433000301B6FF01000486144F80D7B04F81D89B4
:10434000A777206A2062277714E0FDF763FC801BC3
:10435000A84200D88DB920684069C04340060CD5FA
:1043600044F8307F84F80D80A773206940F0200066
:10437000206127730120BDE8F08120684169C943AD
:104380004906D0D40020F6E770B516460D4604461F
:104390001EE02046FFF709FE08B1012070BD681C31
:1043A00016D0FDF737FC801BA84200D885B92068DD
:1043B0004069C04300060BD5002044F8300F20218F
:1043C0006173A073216941F0200121612073E4E74A
:1043D00020684069C0430006DBD4002070BD0000A7
:1043E0002DE9F04F4FF000092DED108BF9B09FED46
:1043F00094FADFF85082944FF3EE04EA6D463CAE37
:10440000DFED92FADFF848A2DFF848B2B0EE4FDAFB
:10441000A8F81890A8F81A90A8F81C90A8F812907C
:10442000A8F81490F0EE4DDAF0EE4DBAF0EE4D9A99
:10443000B0EE4DAAF0EE4DAAB0EE4DBAB0EE4DCAB8
:10444000F0EE4DCAB0EE4D8AF0EE4D8AB0EE4D9AC8
:10445000A8F81690002402F0D3FEB7F9000000EE91
:10446000100A04EB440005EB8000B8EEC00A80EDB2
:10447000000AB7F902103DEE00DA00EE901AF8EEED
:10448000E00AC0ED010AB7F904107DEEA0DA01EEF2
:10449000101AB8EEC11A80ED021A7BEE81BA05201F
:1044A000FDF7A6FA641CA4B2142CD4D38DEE2EEA28
:1044B00000248DEEAEDACBEEAEDA02F08BFEB7F969
:1044C000060000EE100A04EB440006EB8000B8EE94
:1044D000C00A80ED000AB7F908103BEE00BA00EE02
:1044E000901AF8EEE00AC0ED010AB7F90A103CEEA6
:1044F00020CA01EE101AB8EEC11A80ED021A7CEE45
:1045000081CA0A20FDF774FA641CA4B2142CD4D317
:10451000CBEE2E1A00208CEE2E1ACCEEAE0A00EB5B
:10452000400105EB8101B0EE4E0A91ED002A401CDE
:1045300080B232EE400A142820EE2F2A42EE009A72
:1045400091ED012AB0EE4D0A32EE400A20EE2F2AFC
:1045500002EE00AA91ED022AB0EE6D0A32EE400A98
:1045600020EE2F2A42EE00AAD9D3002000EB400112
:1045700006EB8101B0EE610A91ED002A401C80B289
:1045800032EE400A142820EE2F2A02EE008A91ED26
:10459000012AB0EE410A32EE400A20EE2F2A42EE06
:1045A000008A91ED022AB0EE600A32EE400A20EE57
:1045B0002F2A02EE009AD9D319EE901A5046814262
:1045C000BFF624AF1AEE101A8142F9DA1AEE901AE9
:1045D0005145F5DA18EE100A59468842F0DA18EE1D
:1045E000900A8842ECDA19EE100A5845E8DABDEE76
:1045F000CE0A10EE101ABDEECD0AA8F8181010EE73
:10460000101ABDEEED0AA8F81A1010EE101ABDEE41
:10461000E10AA8F81C1010EE101ABDEEC10AA8F8A5
:10462000121010EE101ABDEEE00AA8F8141010EEE9
:10463000101AA8F8161079B0BDEC108BBDE8F08FF9
:1046400000000000DC0E0020380A00203694573DA0
:10465000000048420000FA4400B58DB000200090F0
:1046600001900290039004900590069007900890A6
:1046700009900A900B9002F0C3FD02F0ABFD0D49CA
:104680000D480A88038BD21AC2804A88438BD21AFB
:1046900002818A88838BD21A4281CB88428A9B1AF4
:1046A00003800B899B1A43804989891A81800DB048
:1046B00000BD0000380A0020DC0E002030B52DEDD2
:1046C000068BF0EE409AB6EE000A8FB029EE808A93
:1046D000FE4CF0EE008AB7EE00AA94ED010AD4ED8C
:1046E000030A94ED021AFA4D20EE200AD4ED000AD6
:1046F00000EEC10A20EE280A8DED0B0A94ED000AA7
:10470000D4ED010A94ED031A20EE200AD4ED020A3A
:1047100000EE810A20EE280A8DED0C0A94ED010AC4
:10472000D4ED010A94ED021A20EE200AD4ED020A1B
:1047300000EE810AF0EE4A0A40EE680ACDED0D0A5D
:10474000B5F9000000EE100AB8EEC00A03F060F8F8
:10475000B5F90200B0EE409A00EE100AB8EEC00AB9
:1047600003F056F8B5F9040039EE009A00EE100A8D
:10477000B8EEC00A03F04CF839EE000A02F0C8FEA9
:10478000B5F90000A4F1080100EE900AF8EEE00A85
:1047900060EE800ACDED040AB5F9020000EE900A41
:1047A000F8EEE00A60EE800ACDED050AB5F90400E6
:1047B00000EE900A05F13000F8EEE00A20EE800AE3
:1047C0008DED060A9DED050ADDED0D0A9DED0C1A35
:1047D00020EE200ADDED060A00EEC10A8DED000A8A
:1047E0009DED060ADDED0B0A9DED0D1A20EE200A67
:1047F000DDED040A00EEC10A8DED010A9DED040A0B
:10480000DDED0C0A9DED0B1A20EE200ADDED050A08
:1048100000EEC10A8DED020AD0ED000A9DED001AEE
:1048200091ED010A41EE000AC0ED000A90ED011A77
:10483000DDED011A01EE801A80ED011AD0ED021AA9
:104840009DED022A42EE001AC0ED021AB5F90600EB
:1048500000EE100AB8EEC00A9FED9E2A9DED003AC8
:1048600060EE022A91ED000A40EE032A72EEA00AE1
:10487000CDED000AB5F90800DDED012A00EE900A41
:10488000F8EEE00A60EE820A40EE220A70EE810A3B
:10489000CDED010AB5F90A009DED021A00EE900A6D
:1048A000F8EEE00A60EE820A40EE010A30EEA10A5C
:1048B0008DED020A94ED010ADDED000A9DED011A6D
:1048C000DDED011A20EEC00AD4ED020A9DED012AA9
:1048D000DDED002A00EEC10AD4ED030A9DED021AB7
:1048E00000EEC10ADDED000A20EE081A94ED000A80
:1048F00020EE200AD4ED030A00EEE10AD4ED020A0C
:10490000DDED021A00EEA10ADDED001A60EE080AE4
:1049100094ED030A20EE210AD4ED001A01EE820A7A
:10492000D4ED011A9DED022A01EEC20AD4ED011A5E
:104930009DED012A61EE821A94ED022A20EE080A0A
:1049400042EE621A94ED002ADDED022A42EE221AAE
:1049500094ED002A32EE011A61EE881A84ED001AF5
:1049600094ED011A71EE200AC4ED010AD4ED020A99
:1049700030EE800A84ED020A94ED030A30EE210A3B
:1049800084ED030A94ED000A02F042FFB0EE408A83
:1049900094ED010A02F03CFF38EE008A94ED020A21
:1049A00002F036FF38EE008A94ED030A02F030FF81
:1049B00038EE000A02F0ACFDD4ED000AB0EE4A8AEF
:1049C00060EE800AC4ED000AD4ED010A60EE800AB0
:1049D000C4ED010AD4ED020A60EE800AC4ED020AB9
:1049E000D4ED030A20EE800A84ED030A94ED000A58
:1049F000D4ED020A94ED031A20EE280AB5F90A0054
:104A000060EE200A94ED010A20EE280A40EE410AE9
:104A100094ED020A94ED031A20EE280A20EE019A82
:104A200094ED000A94ED011A20EE280A00EE019A96
:104A300094ED010A94ED011A20EE280A00EE418A55
:104A400094ED020A94ED021A05F1240420EE280ADE
:104A500000EE418A00EE100A9FED1F1AB8EEC00A60
:104A600020EE010A10EE100AB0F17E5F04DC10EEB9
:104A7000100A10F1814F05D994ED021A00EE291A9F
:104A800084ED021A10EE900AFBF706FD41EC100BC4
:104A900001F0AAFF9FED111B51EC100B53EC112BF1
:104AA000FBF788FCFBF70BFDF0EE480AB0EE490A75
:104AB000606002F049F9DFED0B0A20EE200A84ED78
:104AC000000A0FB0BDEC068B30BD00005806002078
:104AD000DC0E002045798B3AE200FA3C00000060D1
:104AE00094A94C40A34C65422DE9F04104461D4673
:104AF00016460F462A2000F03FFC204600F032FC0C
:104B0000304600F02FFC2B2000F036FC384600F039
:104B100029FC284600F026FCBDE8F0412C2000F0DE
:104B20002BBC10B514460B460246FFF7DDFF2046AE
:104B3000BDE8104000F016BC2DE9F8430D46DDF845
:104B400020801F46A8F57F4116468146FE390CD1CC
:104B5000042269463C20FCF7A3FC9DF803000F49A2
:104B600031F810000E4980460880781E83B2701E0E
:104B700082B229464846FFF7B7FF0AE04C4604E0F8
:104B8000404600F0EFFB641CA4B2B442F8D36D1CA5
:104B9000ADB2BD42F2D3BDE8F88300004000002072
:104BA0003400002008B56420FCF722FF6420FCF7E5
:104BB0001FFF00200090042269463820FCF770FC9B
:104BC0009DF8030010B901208DF8030004215E4810
:104BD000FEF7BCFD5C499DF803000968886364200A
:104BE000FCF706FF112000F0C7FB7820FCF700FF60
:104BF000362000F0C1FB702000F0D4FB3A2000F01A
:104C0000BBFB052000F0CEFBB22000F0B5FB0C2072
:104C100000F0C8FB0C2000F0C5FB002000F0C2FB38
:104C2000332000F0BFFB332000F0BCFBB72000F0C6
:104C3000A3FB352000F0B6FBBB2000F09DFB32202B
:104C400000F0B0FBC22000F097FB012000F0AAFBAF
:104C5000C32000F091FB152000F0A4FBC42000F05D
:104C60008BFB202000F09EFBC62000F085FB0F2070
:104C700000F098FBD02000F07FFBA42000F092FB16
:104C8000A12000F08FFBE02000F076FBD02000F0A8
:104C900089FB082000F086FB0E2000F083FB092032
:104CA00000F080FB092000F07DFB052000F07AFB7E
:104CB000312000F077FB332000F074FB482000F037
:104CC00071FB172000F06EFB142000F06BFB152029
:104CD00000F068FB312000F065FB342000F062FB3F
:104CE000E12000F049FBD02000F05CFB082000F040
:104CF00059FB0E2000F056FB092000F053FB092061
:104D000000F050FB152000F04DFB312000F04AFB75
:104D1000332000F047FB482000F044FB172000F050
:104D200041FB142000F03EFB152000F03BFB31203E
:104D300000F038FB342000F035FB212000F01CFB94
:104D4000292000F019FB08BDDC0B00202DE9FF4FE6
:104D500083B00746DDF8449000904FEA590A4FF0BF
:104D600000085FEA4A7000D0012000EBDA0000FB87
:104D700009F001900498203A4844401E83B207EBA2
:104D80000A0002F0FF0B401E82B238460499FFF77A
:104D9000ABFE002550E0B9F10C0F28D0B9F1100F8F
:104DA0002BD0B9F1180F2CD0B9F1200F47D12749DA
:104DB00001EB8B100024465D129800284FF0010093
:104DC00000FA04F000EA060021D020B13846069A25
:104DD0000499FFF7A6FE7F1C0098BFB2391A51450F
:104DE00024D10498009F401C80B2049022E018490E
:104DF0000BEB4B0001EB8000DCE7164901EB0B10DD
:104E0000D8E715490BEB4B0001EB0010D2E708B1D6
:104E1000069800E0109800F0A5FA08F10100C0B271
:104E2000B0FBFAF280460AFB128058B1641CE4B26F
:104E3000082CC1D36D1CADB201988542ABD307B02D
:104E4000BDE8F08F4FF00008F4E70000B8940008C8
:104E500084780008F87C0008E88200082DE9FE4FFD
:104E60009946DDE90D4517468A4680460C9E15E0B9
:104E70000C2C18D0102C20D0182C28D0202C10D17D
:104E800000964B463A4651464046CDE9014500F072
:104E900095F908EB04001FFA80F8BF1C3878002849
:104EA000E6D1BDE8FE8F00964B463A465146404655
:104EB000CDE9014500F016F8EBE700964B463A467F
:104EC00051464046CDE9014500F086F8E1E70096FD
:104ED0004B463A4651464046CDE9014500F0F4F8CC
:104EE000D7E700002DE9FF4F85B00546139F002648
:104EF00000908B46780700D0012000EBD700784364
:104F00000290052003900020824600EB800101EB17
:104F1000CA003049079A11F81030127893424DD1E7
:104F200001EB40000190417807984078814245D1DB
:104F30000BEB0700401E83B2E819401E82B25946AF
:104F40002846FFF7D1FD002034E00198002400EB53
:104F50000809149899F8021000284FF0010000FA8F
:104F600004F001EA000111D021B159462846089AFF
:104F7000FFF7D7FD6D1C0098ADB2281AB84212D1C8
:104F80000BF101001FFA80FB009D10E009B10898A9
:104F900000E0129800F0E6F9761CF6B2B6FBF7F0E6
:104FA00007FB1060A0B1641CE4B2082CD1D308F157
:104FB0000100C0B2029980468842C6D30AF10100BE
:104FC00080B20399824688429FD309B0BDE8F08F32
:104FD0000026ECE778AC00082DE9FF4F85B00546C8
:104FE000139F002600908B46780700D0012000EB2D
:104FF000D7007843029005204FF0000A0390314912
:10500000079A0AEB0A1011F81030127893424DD12A
:1050100001EB40000190417807984078814245D1EA
:105020000BEB0700401E83B2E819401E82B25946BE
:105030002846FFF759FD002034E00198002400EBDA
:105040000809149899F8021000284FF0010000FA9E
:1050500004F001EA000111D021B159462846089A0E
:10506000FFF75FFD6D1C0098ADB2281AB84212D14F
:105070000BF101001FFA80FB009D10E009B10898B8
:1050800000E0129800F06EF9761CF6B2B6FBF7F06D
:1050900007FB1060A0B1641CE4B2082CD1D308F166
:1050A0000100C0B2029980468842C6D30AF10100CD
:1050B00003991FFA80FA8A45A1D309B0BDE8F08FA1
:1050C0000026ECE7FAAC00082DE9FF4F85B0054655
:1050D000139F002600908B46780700D0012000EB3C
:1050E000D700784302901C2003900020824600EBFA
:1050F000800101EB4A103049079A11F810301278FC
:1051000093424DD101EB40000190417807984078DF
:10511000814245D10BEB0700401E83B2E819401EC7
:1051200082B259462846FFF7DFFC002034E00198A0
:10513000002400EB0809149899F8021000284FF099
:10514000010000FA04F001EA000111D021B1594632
:105150002846089AFFF7E5FC6D1C0098ADB2281AA6
:10516000B84212D10BF101001FFA80FB009D10E044
:1051700009B1089800E0129800F0F4F8761CF6B235
:10518000B6FBF7F007FB1060A0B1641CE4B2082C7A
:10519000D1D308F10100C0B2029980468842C6D33B
:1051A0000AF1010080B20399824688429FD309B078
:1051B000BDE8F08F0026ECE7A4AD00082DE9FF4F15
:1051C00085B00546139F002600908B46780700D0D7
:1051D000012000EBD7007843029017204FF0000A1F
:1051E00003903149079A0AEB8A1011F810301278AF
:1051F00093424DD101EB40000190417807984078EF
:10520000814245D10BEB0700401E83B2E819401ED6
:1052100082B259462846FFF767FC002034E0019827
:10522000002400EB0809149899F8021000284FF0A8
:10523000010000FA04F001EA000111D021B1594641
:105240002846089AFFF76DFC6D1C0098ADB2281A2D
:10525000B84212D10BF101001FFA80FB009D10E053
:1052600009B1089800E0129800F07CF8761CF6B2BC
:10527000B6FBF7F007FB1060A0B1641CE4B2082C89
:10528000D1D308F10100C0B2029980468842C6D34A
:105290000AF1010003991FFA80FA8A45A1D309B0E7
:1052A000BDE8F08F0026ECE7BCB500082DE9FF4F04
:1052B00083B00027DDE911A81D4681464FEA580654
:1052C0003C46BB462CE0281B401EC1B20A2002F01F
:1052D00097FA0599B1FBF0F00A21B0FBF1F201FB5E
:1052E000120027B9691E8C4201DA58B1012730300B
:1052F000C2B2CDE900A804FB069080B2CDF808B098
:10530000109B08E0CDE900A804FB0690109B80B23A
:10531000CDF808B020220499FFF718FD641CE4B210
:10532000AC42D0D307B0BDE8F08F2DE9FE4F9946CF
:10533000DDE90D6714468A460546DDF830800CE04D
:10534000CDF800804B4651462846CDE90167FFF76E
:10535000FDFC05EB560085B2641C2278002AEFD1D3
:10536000BDE8FE8F10B50446000A00F01BF8E0B25D
:10537000BDE8104000F016B870B5094D06464FF470
:105380000064002221462846FCF73FFC304600F02E
:1053900009F821462846BDE870400122FCF735BCDB
:1053A0000008024031B50A4D4FF400440022214666
:1053B0002846FCF72AFC4FF47A7301226946054817
:1053C000FDF760FB012221462846FCF71EFC38BD94
:1053D00000000240F40A00203EB54FF448758C23CB
:1053E000AA225F214B200095FFF7A6FB002418207E
:1053F0000095CDE901044FF6FF730CA267215720F9
:10540000FFF793FF40F2DC50FBF7B3FD09488C2314
:10541000AA22008800905F214B20FFF78DFB0648F1
:105420000470BDE83E40FBF7B9BD00004C6F636BF4
:10543000656400003400002030000020114808B5E9
:10544000016841F400110160016801F4001100914C
:10545000016841F4800101600068002200F48000CE
:10546000009001211120FCF7E7FE1120FCF7D6FE89
:10547000002211464620FCF7DFFEBDE8084046202A
:10548000FCF7CCBE303802402DE9F04F87B0142134
:105490006846FAF7CFFE51480024016841F0100138
:1054A0000160016801F010010591016841F080017F
:1054B0000160016801F080010591016841F004017B
:1054C0000160016801F004010591016841F00101EA
:1054D0000160016801F001010591016841F00201DC
:1054E0000160016801F002010591016841F00801C5
:1054F00001600068012200F008000590042138488E
:10550000FCF783FBDFF8DCA048F2060700223946EF
:105510005046FCF77AFBDFF8D0B04FF41168002258
:1055200041465846FCF771FB4FF4C07900224946CA
:105530002B48FCF76AFB042000901120CDE9010400
:10554000694627480394FCF773FA0C204FF40416BD
:10555000CDE900060125694602955846FCF768FA30
:105560000097CDE90154694650460394FCF760FA70
:10557000CDF80080CDE90154694658460394FCF704
:1055800057FACDF80090CDE90154694614480394C8
:10559000FCF74EFA4FF44050CDE9000669460295FB
:1055A0001248FCF745FA002201210820FCF744FECE
:1055B0000820FCF733FE002201210920FCF73CFE05
:1055C0000920FCF72BFE002201212820FCF734FEE5
:1055D0002820FCF723FE07B0BDE8F08F30380240EA
:1055E0000010024000000240000802400004024097
:1055F0000D4810B50B4901600C49416000214FF482
:1056000080428160C0E9031241618161C161016230
:10561000FCF706FB002803D0BDE81040FCF706B8F5
:1056200010BD0000005C0040480A0020A086010078
:10563000104810B50E4901604FF48271416000219D
:1056400002228160C0E9031201224261520282619A
:105650000822C0E90721416281620A21C162FDF787
:10566000B3F8002803D0BDE81040FBF7DFBF10BD42
:10567000003001409C0A0020104810B50E4901601E
:105680004FF4827141604FF4004181600021C1609C
:105690004FF400720161C0E90512C161016241620B
:1056A00081620A21C162FDF78FF8002803D0BDE8AE
:1056B0001040FBF7BBBF10BD003C0040F40A0020C7
:1056C0000C4810B50A49016040F2473141600021A1
:1056D00040F2E732C0E90212016180218161FDF7E9
:1056E000FFFB002803D0BDE81040FBF79FBF10BDB3
:1056F00000440140440D00200B4810B509490160E9
:1057000042F2CF01416000216322C0E9021201612F
:105710008161FDF7E5FB002803D0BDE81040FBF7F1
:1057200085BF10BD004801408C0D002010B596B01B
:1057300000240F9410941194129413941C2108A81F
:105740001494FAF777FD20216846FAF773FD28488C
:10575000264901605321C0E9011440F2E731C0E954
:10576000031444618461FDF7BBFB08B1FBF75EFFE6
:105770004FF480500F900FA91D48FDF7F1FC08B1C0
:10578000FBF754FF1A48FDF7B0FF08B1FBF74EFFD7
:10579000139413A916481494FDF75AFB08B1FBF7AC
:1057A00045FF7020CDE908040A940B940C940D94E5
:1057B000002208A90E480E94FDF731FF08B1FBF74F
:1057C00035FF00944FF40050CDE904400294019459
:1057D0000394694606480794FDF710FB08B1FBF7F0
:1057E00025FF0348FDF7B4FE16B010BD00000140D0
:1057F0004C0B002010B58EB0002407940894099437
:105800000A940B941C2168460C94FAF713FD1E4869
:105810004FF08041C0E900146821C0E902418021B5
:1058200004618161FDF75CFB08B1FBF7FFFE4FF4FB
:105830008050079007A91448FDF792FC08B1FBF7C8
:10584000F5FE1148FDF751FF08B1FBF7EFFE0B9491
:105850000BA90D480C94FDF7FBFA08B1FBF7E6FE27
:105860006020CDE90004042004900C2269460294D3
:105870000548FDF7D4FE08B1FBF7D8FE0248FDF756
:1058800067FE0EB010BD0000940B002010B58EB066
:1058900000240794089409940A940B941C216846E8
:1058A0000C94FAF7C7FC1E481C4901605321C0E95B
:1058B00001146321C0E9031480218161FDF710FB0D
:1058C00008B1FBF7B3FE4FF48050079007A91448C6
:1058D000FDF746FC08B1FBF7A9FE1148FDF705FFEF
:1058E00008B1FBF7A3FE0B940BA90D480C94FDF730
:1058F000AFFA08B1FBF79AFE6020CDE900040294EC
:105900000422694606480494FDF789FE08B1FBF7B6
:105910008DFE0348FDF71CFE0EB010BD00040040D4
:10592000DC0B002010B58CB024216846FAF782FC0D
:1059300000241548099413490A94C0E900144FF64D
:10594000FF71C0E90241046184610120CDE90004D6
:10595000CDE902040494CDE90540079469460A485C
:105960000894FDF76BFC08B1FBF760FE099409A9E8
:1059700005480A94FDF76CFA002801D0FBF756FEA3
:105980000CB010BD00080040240C002010B58EB0F3
:1059900000240794089409940A940B941C216846E7
:1059A0000C94FAF747FC1E481C4901605321C0E9DA
:1059B000011440F2E731C0E903148461FDF790FA65
:1059C00008B1FBF733FE4FF48050079007A9144845
:1059D000FDF7C6FB08B1FBF729FE1148FDF785FE70
:1059E00008B1FBF723FE0B940BA90D480C94FDF7AF
:1059F0002FFA08B1FBF71AFE7020CDE900040294DB
:105A00000022694606480494FDF709FE08B1FBF739
:105A10000DFE0348FDF79CFD0EB010BD000C0040CC
:105A20006C0C002010B58CB024216846FAF702FCFB
:105A300000241648099414490A94C0E900144FF64A
:105A4000FF71C0E902410461446184610120CDE934
:105A50000004CDE902040494CDE9054007946946A9
:105A60000A480894FDF7EAFB08B1FBF7DFFD09944B
:105A700009A906480A94FDF7EBF9002801D0FBF7C5
:105A8000D5FD0CB010BD000000040140B40C002096
:105A90001FB5002011490090019002900E4A03901A
:105AA0000A6042F2CF02C1E90120C722C1E9032006
:105AB000802088610846FDF713FA08B1FBF7B6FDB0
:105AC0004FF48050009069460448FDF749FB0028D8
:105AD00001D0FBF7ABFD1FBD00400140FC0C0020D6
