:020000040800F2
:1000000080100020A1010008E1510008A93A000871
:10001000DD5100082F030008395A000800000000D5
:10002000000000000000000000000000DD53000898
:100030000308000800000000E5510008DF53000835
:10004000BB010008BB010008BB010008BB010008A0
:10005000BB010008BB010008BB010008BB01000890
:10006000A50E0008B90E0008BB010008BB0100087E
:10007000BB010008BB010008BB010008BB01000870
:10008000BB01000815070008BB010008BB01000800
:10009000BB010008BB010008BB010008BB01000850
:1000A000BB010008BB010008BB010008BB01000840
:1000B000B1540008C1540008BB010008BB0100088E
:1000C000BB010008BB010008BB010008BB01000820
:1000D000BB010008BB010008BB010008BB01000810
:1000E000850E0008BB010008BB010008BB01000829
:1000F000BB010008BB010008BB010008BB010008F0
:10010000BB010008BB010008BB010008BB010008DF
:10011000BB010008BB010008BB010008BB010008CF
:10012000BB010008BB010008BB010008BB010008BF
:10013000BB010008BB010008BB010008BB010008AF
:10014000BB010008BB010008BB010008BB0100089F
:10015000BB010008BB010008BB010008BB0100088F
:10016000BB010008BB010008BB010008BB0100087F
:10017000BB010008BB010008BB0100080000000033
:10018000BB010008BB010008DFF810D000F092F8B6
:1001900000480047555F0008AFF300808010002042
:1001A0000648804706480047FEE7FEE7FEE7FEE711
:1001B000FEE7FEE7FEE7FEE7FEE7FEE79D540008E8
:1001C000890100082DE9F05F0546002092469B4614
:1001D00088460646814640241BE02846414647465D
:1001E000224600F057F853465A46C01A914110D3A0
:1001F00011461846224600F03EF82D1A67EB01081A
:100200004F4622460120002100F035F817EB000987
:100210004E41201EA4F10104DFDC484631462A4647
:100220004346BDE8F09FD2B201E000F8012B491E21
:10023000FBD270470022F6E710B513460A46044683
:100240001946FFF7F0FF204610BD30B50B460146BA
:1002500000202022012409E021FA02F59D4205D365
:1002600003FA02F5491B04FA02F52844151EA2F10F
:100270000102F1DC30BD202A04DB203A00FA02F151
:10028000002070479140C2F1200320FA03F3194384
:1002900090407047202A04DB203A21FA02F0002126
:1002A000704721FA02F3D040C2F120029140084386
:1002B00019467047064C074D06E0E06840F0010320
:1002C00094E8070098471034AC42F6D3FFF760FF7C
:1002D000A8AA0008C8AA000870B58C1810F8015B1D
:1002E00015F0070301D110F8013B2A1106D110F8CF
:1002F000012B03E010F8016B01F8016B5B1EF9D1D3
:100300002B0705D40023521E0DD401F8013BFAE758
:1003100010F8013BCB1A921C03E013F8015B01F8C3
:10032000015B521EF9D5A142D8D3002070BD00BF99
:10033000FEE700007FB5EF49097801EB8101EE4A45
:10034000126802EBC101087B042203A900F050FDF2
:100350000024CBE10421E94801F070F8A0BB9DF82E
:100360000F10E448007800EB8000E34A126802EBCB
:10037000C0000069814203D100208DF80F0005E024
:100380009DF80F00401CC0B28DF80F00182245F2F6
:100390005841D848007800EB8000D74B1B6803EB2E
:1003A000C000408C8DE80700D3480068C08CD14B5A
:1003B0001B78C3EB031300EB430081B29DF80F20C1
:1003C0000323C32004F0DAFA0821CC4801F036F800
:1003D00090BB9DF80F0058B9C648007800EB80002C
:1003E000C549096801EBC000007C8DF80F0005E0ED
:1003F0009DF80F00401EC0B28DF80F00182245F284
:100400005841BC48007800EB8000BB4B1B6803EBF5
:10041000C000408C8DE80700B7480068C08CB54B21
:100420001B78C3EB031300EB430081B29DF80F2050
:100430000323C32004F0A2FA4FF48051B04800F027
:10044000FDFF00287ED1AF480088AB4A00901268BB
:10045000D28CA84D2D78C5EB051502EB450218325C
:1004600093B2A54A1268D28CA24D2D78C5EB051522
:1004700002EB450291B29F4A127802EB82029E4D36
:100480002D6805EBC202908CE62203F001FE99492B
:10049000097801EB8101984A126802EBC101087BDF
:1004A000042203A900F0A4FC182296480188914870
:1004B000007800EB8000904B1B6803EBC000408C81
:1004C0008DE807008C480068C08C8A4B1B78C3EB12
:1004D000031300EB430081B29DF80F200323C320D8
:1004E00004F04CFA00201821864A1288824DCDE98A
:1004F000002102902D68ED8C7E4E3678C6EB0616F4
:1005000005EB4605A9B27B4D2D7805EB85057A4EA6
:10051000366806EBC5056B8C764D2D7805EB8505A9
:10052000754E366806EBC505AA68724D2D7805EB49
:100530008505714E366806EBC505A88C04F069FA8E
:10054000002000E004E07049087000F073F9CEE08C
:100550004FF400516A4800F071FF012800D10124D6
:100560004FF40051664800F069FF00287ED1012C4D
:10057000FCD16049097801EB81015F4A126802EB06
:10058000C101087B042203A900F064FC01286ED09D
:100590004FF448708C23AA225F210090462003F07C
:1005A00077FD002018214FF448724FF6FF73CDE914
:1005B0000021029055A267214E2004F02AFA40F251
:1005C000DC5000F01FF94F4800884B4A0090126839
:1005D000D28C484D2D78C5EB051502EB450218323B
:1005E00093B2454A1268D28C424D2D78C5EB051561
:1005F00002EB450291B23F4A127802EB82023E4D75
:100600002D6805EBC202908CE62203F041FD3949CA
:10061000097801EB8101384A126802EBC101087BBD
:10062000042203A900F0E4FB18223648018831486F
:10063000007800EB8000304B1B6803EBC000408C5F
:100640008DE807002C480068C08C2A4B1B78C3EB50
:10065000031300EB430081B29DF80F200323C32056
:1006600004F08CF900211820264A01E03BE039E033
:100670001288214DCDE9002002912D68ED8C1D4E90
:100680003678C6EB061605EB4605A9B2194D2D784E
:1006900005EB8505184E366806EBC5056B8C154DC8
:1006A0002D7805EB8505144E366806EBC505AA685E
:1006B000104D2D7805EB85050F4E366806EBC50508
:1006C000A88C04F0A6F90F4800888C23AA225F2189
:1006D0000090462003F0DCFC00200B49087000F07D
:1006E000A9F8002403E0642000F08CF832E600BF93
:1006F0007FBD00002D0000202400002000080240E3
:1007000000040240300000202C0000207375636359
:100710006573730010B5024800F0DCFB10BD0000EB
:10072000D80B00200146087810381823B0FBF3F2EC
:100730000848805CC865032A05D908686FF309007A
:10074000001D886503E008686FF309008865886DFF
:1007500070470000F8A80008014600208A6A8B69EB
:10076000CBB932B1012A0DD0022A03D0032A10D10D
:100770000EE000BFCB6A03F08073B3F1807F00D13D
:10078000012007E0CB6AB3F1C07F00D1012001E076
:1007900000E000BF34E08B69B3F5005F1AD132B1DD
:1007A000012A07D0022A03D0032A11D10AE000BF90
:1007B00001200EE0CB6A03F08073B3F1807F00D19B
:1007C000012006E0CB6AB3F1C07F00D1012000E038
:1007D00000BF15E032B1012A05D0022A04D0032A55
:1007E0000CD103E000BF00BF012008E0CB6A03F09A
:1007F0008073B3F1807F00D1012000E000BF00BF13
:100800007047704710B5044603E04FF47A7000F06B
:1008100005F8201EA4F10104F7D110BDA82242431F
:100820000523B2FBF3F100E000BF0A1EA1F10101B4
:10083000FAD170472DE9FF41C2480078FD2803D066
:10084000C0480078FC2811D1BF480088F0231A4620
:1008500000210090084603F01BFC45F2584032236B
:10086000F02200210090084603F012FCB74800680F
:1008700005780024062D01DD062000E02846064606
:10088000B3480078062803DAB1480078A84214DBA0
:10089000AF480078FF2802D1681EAD490870AC4807
:1008A0000078A84202DB0020A9490870A848007817
:1008B000062802DB0020A6490870A4490968486898
:1008C00000F06EFA04EB8400A049096801EBC00057
:1008D00090F82000002878D1002472E004EB840016
:1008E0009A49096801EBC000C08C98BB0020182110
:1008F000974A1278944202D145F2584201E0924A56
:100900001288924FCDE9002102903F68FF8CC4EB22
:10091000041C07EB4C07B9B204EB8407DFF82CC2C8
:10092000DCF800C00CEBC7077B8C04EB8407DFF816
:100930001CC2DCF800C00CEBC707BA6804EB8407E4
:10094000DFF808C2DCF800C00CEBC707B88C03F076
:100950004FFD34E0FFE7002018217D4A12789442D1
:1009600002D145F2584201E0774A128804EB84072D
:10097000DFF8D8C1CDE900210290DCF800C00CEB13
:10098000C7077B8C04EB8407DFF8C0C1DCF800C02C
:100990000CEBC707BA6804EB8407DFF8B0C1DCF8DA
:1009A00000C00CEBC707F98C04EB8407DFF89CC18F
:1009B000DCF800C00CEBC707B88C03F019FD601C15
:1009C000C4B2B4428ADBBBE0FFE704EB84005F49BA
:1009D000096801EBC00090F820000128F3D1002441
:1009E000ABE004EB84005949096801EBC000C08CFE
:1009F00098BB00211820564A1278944202D145F241
:100A0000584201E0504A1288504FCDE9002002912F
:100A10003F68FF8CC4EB041C07EB4C07B9B204EB36
:100A20008407DFF828C1DCF800C00CEBC7077B8C1B
:100A300004EB8407DFF814C1DCF800C00CEBC70737
:100A4000BA6804EB8407DFF804C1DCF800C00CEBE3
:100A5000C707B88C03F0DDFF34E0FFE70020182162
:100A60003B4A1278944202D145F2584201E0364A9C
:100A7000128804EB8407DFF8D4C0CDE9002102908E
:100A8000DCF800C00CEBC7077B8C04EB8407DFF8B5
:100A9000BCC0DCF800C00CEBC707BA6804EB8407E5
:100AA000DFF8A8C0DCF800C00CEBC707F98C04EB3A
:100AB0008407DFF898C0DCF800C00CEBC707B88CDF
:100AC00003F0A7FF04EB84002049096801EBC00094
:100AD000007B65282FD004EB84001C49096801EBDA
:100AE000C000007B662826D004EB8401174A1268F8
:100AF00002EBC101087B042203A900F079F9182157
:100B00001148028804EB8400104B1B6803EBC00003
:100B1000408CCDE9012100900C480068C08CC4EBEA
:100B2000041300EB430081B29DF80F200323C32080
:100B300003F024FF00BF601CC4B2B442FFF651AF03
:100B4000BDE8FF812C0000203000002024000020A0
:100B50002D0000207FB58C480078FF280BD08A48F4
:100B60000078FE2807D088480078FD2803D0864802
:100B70000078FC287ED184480078FC287BD0FD28B2
:100B800013D0FE2809D0FF2876D180480078401E77
:100B90007E490870FFF74EFEF0E07C480078401C6C
:100BA0007A490870FFF746FEE8E07848007800EBE5
:100BB00080007749096801EBC000007B652824D1DB
:100BC0007248007800EB80007149096801EBC000B1
:100BD0008069C0B16E4800686E4908606B48007853
:100BE00000EB80006A49096801EBC0008069684930
:100BF00008606648007868490870002063490870FA
:100C0000FFF718FE00E0A1E0A0E06048007800EBEC
:100C100080005F49096801EBC000406900287CD072
:100C200045F258405A4A00901268D28C574C2478AA
:100C3000C4EB041402EB4402183293B2544A126813
:100C4000D28C524C2478C4EB041402EB440291B2CF
:100C50004E4A127802EB82024D4C246804EBC20229
:100C6000908CE62203F014FA4849097801EB8101DF
:100C7000474A02E083E06BE07FE0126802EBC101CB
:100C8000087B042203A900F0B3F8182245F258416A
:100C90003E48007800EB80003D4B1B6803EBC00032
:100CA000408C8DE807003A480068C08C374B1B78B1
:100CB000C3EB031300EB430081B29DF80F20032325
:100CC000C32003F05BFE0020182145F25842304C4F
:100CD000CDE9002102902468E48C2C4D2D78C5EBE1
:100CE000051504EB4504A1B2284C247804EB8404D8
:100CF000274D2D6805EBC404638C244C247804EB49
:100D00008404234D2D6805EBC404A2681F4C24788D
:100D100004EB84041E4D2D6800E015E005EBC404CF
:100D2000A08C03F076FE01201C4908701749097851
:100D300001EB8101164A126802EBC1014869804744
:100D400000201649087000E000E000BF00BF15E079
:100D50001048006878B10F4800680D4908600846DF
:100D60000068C0690B4908600B48007807490870A3
:100D7000FFF760FD00E001E000E000BF00BF0020E1
:100D8000014908707FBD00002C0000202D000020CC
:100D900024000020280000202E0000202F0000202A
:100DA0003EB504460020202145F258424FF6FF731D
:100DB000CDE90021029022460A21322003F018FBDF
:100DC0003EBD00003EB504460D464FF47A70012149
:100DD0000B462246CDE900510290A121034800F0C4
:100DE00029FC08B900203EBD0120FCE724090020B1
:100DF000FEB504460D4616464FF47A70012322468E
:100E0000A121CDE900560290034800F013FC08B977
:100E10000020FEBD0120FCE72409002013B584B0AA
:100E200004464FF47A70012105AA0B46CDE9002152
:100E300002902246A021064800F080FD28B9052036
:100E4000FFF7E0FC002006B010BD0120FBE700002A
:100E5000240900202DE9F04105460E4617460020E2
:100E600004460AE0315D2A1990B2FFF7D7FF10B1AE
:100E70000120BDE8F081601C0446BC42F2DB00BFEB
:100E8000F7E7000010B5064802F000F84FF4805074
:100E900000F0CCF94FF4005000F0C8F910BD00008C
:100EA000B80A002010B5034801F0F0FF042000F05C
:100EB000BDF910BDB80A002010B5034801F0E6FFE7
:100EC000082000F0B3F910BDB80A002072B600BFC8
:100ED000FEE70000F8B50446002000908C4800684A
:100EE0004FF41651B0FBF1F7A56D2E6894F85C1025
:100EF00008208840304098B12068006800F0040065
:100F000070B12068006820F004002168086094F83F
:100F10005C1008208840A860606D40F001006065AA
:100F200094F85C1001208840304068B12068406926
:100F300000F0800040B194F85C1001208840A86067
:100F4000606D40F00200606594F85C1004208840F9
:100F5000304068B12068006800F0020040B194F8A9
:100F60005C1004208840A860606D40F0040060655B
:100F700094F85C1010208840304078B320680068F6
:100F800000F0080050B394F85C1010208840A8606E
:100F90002068006800F4802080B12068006800F4B8
:100FA000002028B9206CC8B12046216C884715E084
:100FB000A06C98B12046A16C88470FE020680068BB
:100FC00000F4807028B92068006820F008002168CB
:100FD0000860206C10B12046216C884794F85C10A2
:100FE000202088403040002865D02068006800F04C
:100FF000100000285FD094F85C1020208840A86082
:1010000094F83500052828D12068006820F01600E3
:10101000216808602068406920F0800021684861EC
:10102000206C08B9A06C28B12068006820F0080086
:101030002168086094F85C103F208840A860012077
:1010400084F8350000BF002084F8340000BF206D14
:1010500010B12046216D8847F8BD2068006800F473
:10106000802080B12068006800F4002028B9606CFE
:1010700010B12046616C88471DE0E06BD8B1204676
:10108000E16B884717E02068006800F4807068B959
:101090002068006820F0100021680860012084F8B2
:1010A000350000BF002084F8340000BFE06B10B1B1
:1010B0002046E16B8847606D38B3606D00F0010039
:1010C000F0B1052084F835002068006820F00100A8
:1010D0002168086000BF0098401C0090B84200D909
:1010E00005E02068006800F001000028F3D100BF8F
:1010F000012084F8350000BF002084F8340000BFD0
:10110000E06C10B12046E16C884700BFA4E7000006
:10111000540500202DE9F0410446002500F09CF91B
:10112000074614B90120BDE8F081606A00B100BF34
:10113000022084F8350000BF002084F8340000BF8E
:101140002068006820F00100216808600AE000F0D3
:1011500083F9C01B052805D920206065032084F889
:101160003500E0E72068006800F001000028EED1BB
:101170002068056821480540D4E901010843E16879
:1011800008432169084361690843A1690843E1698B
:101190000843216A08430543606A042803D1D4E95F
:1011A0000B0108430543206805602068456925F068
:1011B0000705606A0543606A04280DD1A06A0543EB
:1011C000E06A48B12046FFF7C7FA28B140206065C1
:1011D000012084F83500A6E7206845612046FFF726
:1011E000A1FA064694F85C103F208840B0600020C9
:1011F0006065012084F83500002094E73F8010F0FE
:1012000070B5044600F028F906462546681C10B162
:1012100004480078054400BF00F01EF9801BA84276
:10122000FAD370BD500500207047000010B5044689
:1012300004480068204020B1024804602046FFF7BF
:10124000F3FF10BD143C0140F8B502460B460025E3
:10125000002400200021D6E0012606FA01F51E68D0
:1012600006EA0504AC4274D11E7906F00306012E8D
:1012700004D01E7906F00306022E13D190684F00A9
:101280000326BE40B0434F00DE68BE40304390604E
:10129000506801268E40B0431E79C6F300168E407A
:1012A000304350601E7906F00306032E09D0D06843
:1012B0004F000326BE40B0434F009E68BE403043FF
:1012C000D0601E7906F00306022E13D1CF0802F17A
:1012D000200656F827004E07F70E0F26BE40B043F3
:1012E0004F07FF0E1E69BE403043CF0802F12006B3
:1012F00046F8270010684F000326BE40B0431E7911
:1013000006F003064F00BE40304310605E6806F4EE
:101310004036002E76D000BF002600963C4E366840
:1013200046F480463A4F3E603E46366806F48046B4
:10133000009600BF00BF374E8F0856F827008E0773
:10134000370F0F26BE40B043334EB24202D10026C3
:1013500024E057E0314EB24201D101261EE0304E6A
:10136000B24201D1022619E02E4EB24201D103262B
:1013700014E02D4EB24201D104260FE02B4EB242B2
:1013800001D105260AE02A4EB24201D1062605E027
:10139000284EB24201D1072600E008268F073F0FF2
:1013A000BE4030431B4E8F0846F82700224E30685F
:1013B000A0435E6806F4801606B120431E4E3060DE
:1013C000361D3068A0435E6806F4001606B120435F
:1013D000194E361D3060184E361F3068A0435E68C7
:1013E00006F4003606B12043134E361F3060361F18
:1013F0003068A0435E6806F4803606B120430E4E86
:10140000083E3060491C1029FFF426AFF8BD0000EB
:101410004438024008380140000002400004024005
:1014200000080240000C024000100240001402407C
:1014300000180240001C0240083C014002461369AB
:101440000B400BB1012000E0002070470AB1816120
:1014500001E00B0483617047014800687047000099
:101460004805002070B504460CB9012070BD94F801
:101470003D0028B9002084F83C00204600F010FB15
:10148000242084F83D002068006820F001002168D5
:1014900008602068006840F4004021680860206807
:1014A000006820F400402168086000F0FFFC054659
:1014B0005C496068884206D85B48854201D20120B9
:1014C00007E0002005E05948854201D2012000E0F4
:1014D0000020012800D1C9E75548B5FBF0F6206887
:1014E000406820F03F003043216848604D49606803
:1014F000884201D8701C07E04FF4967070434FF497
:101500007A71B0FBF1F0401C2168096A21F03F01BB
:1015100008432168086243496068884214D8681EFD
:1015200061684900B0FBF1F0401CC0F30B000428D7
:1015300001D204203DE0681E61684900B0FBF1F073
:10154000401CC0F30B0034E0A06838B9681E616825
:1015500001EB4101B0FBF1F0401C0AE0681E61683C
:1015600001EBC10202EB0111B0FBF1F0401C40F4B1
:101570008040C0F30B0008B901201AE0A06848B908
:10158000681E616801EB4101B0FBF1F0401CC0F343
:101590000B000CE0681E616801EBC10202EB011157
:1015A000B0FBF1F0401CC0F30B0040F4804040F46D
:1015B00000402168C9694CF6FF72914308432168D5
:1015C000C861D4E9070108432168096821F0C00116
:1015D000084321680860D4E903100843216889683A
:1015E00048F2FF329143084321688860D4E905013D
:1015F00008432168C96821F0FF0108432168C860D9
:101600002068006840F00100216808600020206424
:10161000202084F83D000020206384F83E0000BFB5
:1016200024E70000A086010080841E0000093D0020
:1016300040420F002DE9FC5F04460F469046994654
:10164000DDE90CAB0E9EFFF707FF054694F83D0061
:10165000202870D119230122B5492046009502F0B7
:1016600098FB10B10220BDE8FC9F00BF94F83C003D
:10167000012801D10220F6E7012084F83C0000BFD8
:101680002068006800F0010028B92068006840F078
:101690000100216808602068006820F4006021686B
:1016A0000860222084F83D00402084F83E0000209D
:1016B0002064C4F824A0A4F82AB0608D20859D4839
:1016C000E0624B46424639462046CDE9006502F0CD
:1016D0000DFA08B10120C6E7208D88B900BF0020AF
:1016E000019020684069019020688069019000BFE6
:1016F00000BF2068006840F400702168086040E086
:10170000208D012818D12068006820F480602168AD
:10171000086000BF002001902068406901902068A7
:101720008069019000BF00BF2068006840F400702D
:101730002168086025E0F8E0208D022816D1206895
:10174000006820F48060216808602068006840F428
:1017500000602168086000BF002001902068406997
:10176000019020688069019000BF0AE000BF00205E
:10177000019020684069019020688069019000BF55
:1017800000BFC3E0208D03287ED8208D012815D10D
:101790002A463146204602F0D8FB08B1012062E714
:1017A00020680069616A0870606A401C6062208D70
:1017B000401E2085608D401E6085A7E0208D022898
:1017C0002AD1334600225C492046009502F0E1FA16
:1017D00008B1012047E72068006840F400702168E4
:1017E000086020680069616A0870606A401C606275
:1017F000208D401E2085608D401E60852068006918
:10180000616A0870606A401C6062208D401E2085FD
:10181000608D401E608579E03346002246492046AF
:10182000009502F0B6FA08B101201CE720680068B4
:1018300020F480602168086020680069616A08708F
:10184000606A401C6062208D401E2085608D401EB5
:1018500060853346002238492046009502F099FA07
:1018600008B10120FFE62068006840F4007021689C
:10187000086020680069616A0870606A401C6062E4
:10188000208D401E208500E010E0608D401E6085A8
:1018900020680069616A0870606A401C6062208D7F
:1018A000401E2085608D401E60852FE02A4631460F
:1018B000204602F04AFB08B10120D4E62068006906
:1018C000616A0870606A401C6062208D401E20853D
:1018D000608D401E608520684069C0F38000A8B11B
:1018E000208D032805D12068006820F480602168DD
:1018F000086020680069616A0870606A401C606264
:10190000208D401E2085608D401E6085208D002822
:101910007FF438AF202084F83D00002084F83E009A
:1019200000BF84F83C0000BF9DE602209BE600005B
:10193000020010000000FFFF040001002DE9FC5F21
:1019400004460F4690469946DDE90CAB0E9EFFF724
:1019500083FD054694F83D0020287DD119230122FE
:101960004D492046009502F014FA10B10220BDE85E
:10197000FC9F00BF94F83C00012801D10220F6E74B
:10198000012084F83C0000BF2068006800F00100DE
:1019900028B92068006840F00100216808602068CC
:1019A000006820F4006021680860212084F83D0070
:1019B000402084F83E0000202064C4F824A0A4F84D
:1019C0002AB0608D20853548E0624B464246394654
:1019D0002046CDE9006502F039F908B10120C6E7DB
:1019E00031E02A463146204602F0F4FA50B1206C2C
:1019F000042805D12068006840F400702168086060
:101A00000120B4E7606A007821680861606A401CC0
:101A10006062208D401E2085608D401E608520689C
:101A20004069C0F3800070B1208D60B1606A0078B9
:101A300021680861606A401C6062208D401E20851C
:101A4000608D401E6085208D0028CAD12A4631460F
:101A5000204602F06BF900E01CE050B1206C042835
:101A600005D12068006840F40070216808600120FA
:101A70007DE72068006840F400702168086020203D
:101A800084F83D00002084F83E0000BF84F83C004C
:101A900000BF6CE702206AE7020010000000FFFFB1
:101AA00010B586B00446142101A8FEF7C3FB2A49ED
:101AB000206888424DD100BF002000902748006870
:101AC00040F00400254908600846006800F0040062
:101AD000009000BF00BF00BF0020009008460068D3
:101AE00040F0010008600846006800F00100009026
:101AF00000BF00BF48150190122002900120039002
:101B0000032004900420059001A91548FFF79CFBD1
:101B10004FF4807001901220029001200390032066
:101B200004900420059001A90E48FFF78DFB00BF2B
:101B30000020009009481030006840F40000074978
:101B4000103108600846006800F40000009000BFF3
:101B500000BF06B010BD0000005C004030380240FD
:101B60000008024000000240034800680349097869
:101B700008440149086070474805002050050020CE
:101B800010B50D48006840F400700B490860084625
:101B9000006840F4806008600846006840F4807087
:101BA0000860032000F0A6F80F2000F007F800F00E
:101BB0002BF8002010BD0000003C024070B5044628
:101BC0000E4800784FF47A71B1FBF0F00C490968C7
:101BD000B1FBF0F5284600F0D7FF08B1012070BD39
:101BE000102C07D200222146501E00F045F805486F
:101BF000046001E00120F2E70020F0E7500500203A
:101C0000540500204C05002008B500BF00200090BE
:101C10000E48006840F480400C490860084600689F
:101C200000F48040009000BF00BF00BF0020009083
:101C3000081F006840F08050091F086008460068CF
:101C400000F08050009000BF00BF08BD4438024043
:101C50000146084600280DDB00BF00BF00F01F034F
:101C600001229A4043099B0003F1E023C3F80021BD
:101C700000BF00BF00BF70472DE9F05F80460D46F2
:101C80001646002703F022FF074639462A46334608
:101C900001F00700C0F1070ABAF1040F02D94FF0B2
:101CA000040A01E0C0F1070AD14600F1040ABAF1C2
:101CB000070F02D24FF0000A01E0A0F1030AD44658
:101CC0004FF0010A0AFA09FAAAF1010A0AEA020A1D
:101CD0000AFA0CFA4FF0010B0BFA0CFBABF1010BFB
:101CE0000BEA030B4AEA0B042146404603F0F6FEDA
:101CF000BDE8F09F00BF00F00702064B19684FF6E1
:101D0000FF031940044B0B4343EA0221014B1960C6
:101D100000BF70470CED00E00000FA0570B5044606
:101D20000D460CB9012070BD5848006800F007004E
:101D3000A84209D255490D700846006800F0070016
:101D4000A84201D00120EEE7207800F0020002282E
:101D50001DD1207800F00400042805D14C4800680B
:101D600040F4E0504A490860207800F00800082854
:101D700005D14748006840F4604045490860444840
:101D8000006820F0F000A16808434149086020780D
:101D900000F00100A8B36068012807D13C4808386A
:101DA0000068C0F34040B8B90120BCE76068022871
:101DB00002D06068032807D1354808380068C0F3AE
:101DC000406048B90120AEE7314808380068C0F3E8
:101DD000400008B90120A6E72D48006820F0030064
:101DE000616808432A490860FFF736FB064609E0A8
:101DF000FFF732FB801B41F28831884202D9032071
:101E000091E707E02248006800F00C006168B0EB41
:101E1000810FEDD11D48006800F00700A84209D9E4
:101E20001A490D700846006800F00700A84201D06A
:101E3000012078E7207800F00400042807D1144836
:101E4000006820F4E050E1680843114908602078F8
:101E500000F00800082808D10D48006820F4604010
:101E6000216940EAC1000A49086000F03FF80849CA
:101E70000968C1F30311074A515CC840064908606C
:101E800006480068FFF79AFE00204CE7003C02403D
:101E90000838024000A90008540500204C05002025
:101EA00001480068704700005405002000B5FFF7A6
:101EB000F7FF04490968C1F38221034A515CC84015
:101EC00000BD00000838024010A9000800B5FFF767
:101ED000E7FF04490968C1F34231034A515CC84035
:101EE00000BD00000838024010A900082DE9F047A5
:101EF000002400250026A1462548006800F00C00BB
:101F000020B1042805D008283AD105E0DFF88490F4
:101F100039E0DFF8849036E01D48001F006800F0CB
:101F20003F041B48001F006800F4800078B11A4885
:101F30001749091F0968C1F38811A0FB0170014608
:101F4000224600233846FEF73DF905460EE01148CB
:101F50000F49091F0968C1F38811A0FB01700146F0
:101F6000224600233846FEF72DF905460848001F93
:101F70000068C0F30140401C4600B5FBF6F902E0E2
:101F8000DFF8109000BF00BF4846BDE8F0870000B2
:101F9000083802400024F40000127A00F8B5044624
:101FA0000CB90120F8BD207800F00100002874D0A1
:101FB000F948006800F00C0004280DD0F6480068CD
:101FC00000F00C00082813D1F348001F006800F44B
:101FD0008000B0F5800F0BD1EF4808380068C0F3DF
:101FE0004040002859D06068002856D10120D9E728
:101FF00000BF6068B0F5803F08D1E7480838006846
:1020000040F48030E449083908601EE06068B0F5AB
:10201000A02F0DD1E0480838006840F48020DE4948
:10202000083908600846006840F4803008600CE019
:10203000D9480838006820F48030D749083908604A
:102040000846006820F48020086000BF606890B1F6
:10205000FFF702FA054606E0FFF7FEF9401B642889
:1020600001D903209EE7CC4808380068C0F34040FF
:102070000028F1D011E0FFF7EFF9054606E0FFF781
:10208000EBF9401B642801D903208BE7C2480838CC
:102090000068C0F340400028F1D1207800F0020031
:1020A00002285FD1BC48006800F00C0058B1BA4863
:1020B000006800F00C0008281CD1B748001F006819
:1020C00000F48000B0B9B44808380068C0F340009C
:1020D00020B1E068012801D0012063E7AE4808384C
:1020E000006820F0F800216940EAC100AA490839D7
:1020F000086037E0E06800B30120A8490860FFF7F6
:10210000ABF9054606E0FFF7A7F9401B022801D905
:10211000032047E7A04808380068C0F340000028C3
:10212000F1D09D480838006820F0F800216940EAA5
:10213000C10099490839086014E0002097490860F7
:10214000FFF78AF9054606E0FFF786F9401B0228EB
:1021500001D9032026E7904808380068C0F3400002
:102160000028F1D1207800F0080008282CD16069FF
:10217000A8B101208A490860FFF76EF9054606E01C
:10218000FFF76AF9401B022801D903200AE78248B9
:102190006C300068C0F340000028F1D014E000204B
:1021A0007F490860FFF758F9054606E0FFF754F944
:1021B000401B022801D90320F4E677486C30006800
:1021C000C0F340000028F1D1207800F0040004287A
:1021D00070D1002770483830006800F0805090B906
:1021E00000BF002000906C483830006840F08050FC
:1021F0006949383108600846006800F08050009056
:1022000000BF00BF01276748006800F48070B0B9C4
:102210006448006840F4807062490860FFF71CF968
:10222000054606E0FFF718F9401B022801D90320F4
:10223000B8E65C48006800F480700028F2D000BF67
:10224000A068012808D154486830006840F00100B7
:102250005149683108601DE0A06805280DD14E483D
:102260006830006840F004004B4968310860084657
:10227000006840F0010008600CE0474868300068E2
:1022800020F001004449683108600846006820F0E9
:102290000400086000BFA068A8B1FFF7DDF805469C
:1022A00009E0FFF7D9F8401B41F28831884202D992
:1022B000032077E626E0384868300068C0F3400025
:1022C0000028EED013E0FFF7C7F8054608E0FFF757
:1022D000C3F8401B41F28831884201D9032061E6EE
:1022E0002D4868300068C0F340000028EFD1012F6E
:1022F00007D129483830006820F08050264938310D
:10230000086000BFA069002845D02348006800F09D
:102310000C0008285DD0A069022845D100201F4983
:102320000866FFF799F8054606E0FFF795F8401BA9
:10233000022801D9032035E6174808380068C0F3A1
:1023400040600028F1D1D4E907010843616A40EAFE
:1023500081110122A06AC2EB500041EA00412C2009
:10236000005D41EA00600C49091F086001200B492B
:102370000866FFF771F8054606E0FFF76DF8401BA9
:10238000022801D903200DE6034808380068C0F38D
:1023900040600028F1D049E0083802400000474280
:1023A000800E474200700040002021490866FFF778
:1023B00053F8054606E0FFF74FF8401B022801D905
:1023C0000320EFE51B480068C0F340600028F2D10D
:1023D0002CE0A069012800D1E4E51648001D06683C
:1023E000A069012820D006F48001E06981421BD158
:1023F00006F03F01206A814216D147F6C070304096
:10240000616AB0EB811F0FD106F440310122A06A4E
:10241000C2EB5000B1EB004F06D106F070612C20EA
:10242000005DB1EB006F01D00120BBE50020B9E5F4
:10243000000047420038024010B504460CB90120A4
:1024400010BD606A38B96068B0F5827F00D105E0E0
:102450000021E16102E00021216161610021A162AE
:1024600094F8510028B9002084F85000204600F06C
:1024700047F8022084F851002068006820F04000EE
:1024800021680860A08800F48270218901F4044169
:102490000843A18901F400610843217C01F0020195
:1024A0000843217D01F001010843218B01F40071F3
:1024B0000843217F01F0380108432021095D01F024
:1024C00080010843218D01F4005108432168086010
:1024D0000421A06901EA104094F8241001F01001D1
:1024E0000843216848602068C06920F400602168C2
:1024F000C86100206065012084F8510000209FE73A
:1025000010B586B00446142101A8FDF793FE3749A3
:102510002068884230D100BF002000903448006815
:1025200040F48050324908600846006800F480504A
:10253000009000BF00BF00BF002000902C4814385E
:10254000006840F001002A49143908600846006814
:1025500000F00100009000BF00BFE02001900220C9
:10256000029000200390032004900520059001A90B
:102570002048FEF769FE36E01F492068884232D1C4
:1025800000BF002000901A48001F006840F400407F
:102590001749091F08600846006800F400400090D1
:1025A00000BF00BF00BF0020009011481438006831
:1025B00040F004000E49143908600846006800F035
:1025C0000400009000BF00BF4FF4A0500190022013
:1025D000029000200390032004900620059001A99A
:1025E0000648FEF731FE06B010BD00000030014085
:1025F0004438024000000240003C00400008024015
:102600002DE9F8430446884616461D4694F85100C5
:10261000012802D00220BDE8F8836068B0F5827F0F
:102620000CD1A06850B9042084F8510033464246CA
:1026300041462046009500F083F9ECE7FEF70CFFD9
:102640000746B8F1000F00D00EB90120E3E700BF44
:1026500094F85000012801D10220DCE7012084F821
:10266000500000BF042084F8510000206065C4F8C9
:102670003880A687E6872063A086E08620646064B1
:10268000A068B0F5004F0BD12068006820F0400032
:10269000216808602068006820F480402168086094
:1026A0002068006800F04000402805D020680068DD
:1026B00040F0400021680860E06830BB21E02068FD
:1026C000806800F0010050B12068007BA16B0870A9
:1026D000A06B401CA063E08F401EE08711E0FEF776
:1026E000BBFEC01BA84201D3681C00B94DB9012034
:1026F00084F8510000BF002084F8500000BF032080
:1027000089E7E08F0028DAD125E021E020688068A1
:1027100000F0010050B12068C068A16B0880A06B78
:10272000801CA063E08F401EE08711E0FEF794FE5E
:10273000C01BA84201D3681C00B94DB9012084F820
:10274000510000BF002084F8500000BF032062E762
:10275000E08F0028DAD13A462946204602F043FDB0
:1027600008B120206065012084F8510000BF0020DE
:1027700084F8500000BF606D08B101204BE70020D5
:1027800049E72DE9F84304460F4616461D46FEF775
:1027900063FE8046B14694F85100012802D0022021
:1027A000BDE8F88307B10EB90120F9E700BF94F83E
:1027B0005000012801D10220F2E7012084F85000E6
:1027C00000BF032084F85100002060652763A686BF
:1027D000E686A063A087E08760642064A068B0F507
:1027E000004F0BD12068006820F04000216808608D
:1027F0002068006840F48040216808602068006814
:1028000000F04000402805D02068006840F04000FB
:1028100021680860E068B0F5006F37D1606810B1DA
:10282000B9F1010F09D1206B00882168C860206BC5
:10283000801C2063E08E401EE08623E020688068D4
:1028400000F0020002280AD1206B00882168C860CD
:10285000206B801C2063E08E401EE08612E0FEF7B5
:10286000FBFDA0EB0800A84201D3681C00B94DB9DC
:10287000012084F8510000BF002084F8500000BF00
:1028800003208DE7E08E0028D8D136E0606810B1D3
:10289000B9F1010F09D1206B007821680873206B12
:1028A000401C2063E08E401EE08623E020688068A4
:1028B00000F0020002280AD1206B0078216808731A
:1028C000206B401C2063E08E401EE08612E0FEF785
:1028D000C3FDA0EB0800A84201D3681C00B94DB9A4
:1028E000012084F8510000BF002084F8500000BF90
:1028F000032055E7E08E0028D8D1424629462046DD
:1029000002F0BCFC08B120206065A06850B900BF8F
:10291000002000902068C0680090206880680090C7
:1029200000BF00BF012084F8510000BF002084F8E0
:10293000500000BF606D08B1012031E700202FE793
:102940002DE9FE4F04460F4690461D460C9E012081
:102950000190FEF781FD814694F851B060680290C5
:10296000AA46BBF1010F0BD00298B0F5827F04D1CB
:10297000A06810B9BBF1040F02D00220BDE8FE8FA1
:102980001FB1B8F1000F00D00DB90120F6E700BF6C
:1029900094F85000012801D10220EFE7012084F8CB
:1029A000500000BF94F85100042802D0052084F89C
:1029B000510000206065C4F83880E587A58727634B
:1029C000E586A586206460642068006800F0400009
:1029D000402805D02068006840F040002168086069
:1029E000E068B0F5006F52D1606810B1BAF1010F24
:1029F00009D1206B00882168C860206B801C20638F
:102A0000E08E401EE0863BE02068806800F0020017
:102A1000022810D1E08E70B1019801280BD1206BF3
:102A200000882168C860206B801C2063E08E401EF7
:102A3000E086002001902068806800F0010068B105
:102A4000E08F58B12068C068A16B0880A06B801C23
:102A5000A063E08F401EE08701200190FEF7FCFCA0
:102A6000A0EB0900B0420BD3701C48B1012084F8E0
:102A7000510000BF002084F8500000BF03207DE714
:102A8000E08E0028C0D1E08F0028BDD152E0606800
:102A900010B1BAF1010F09D1206B007821680873D9
:102AA000206B401C2063E08E401EE0863CE02068E6
:102AB000806800F00200022810D1E08E70B1019809
:102AC00001280BD1206B007821680873206B401C13
:102AD0002063E08E401EE086002001902068806820
:102AE00000F0010068B1E08F58B12068C068A16BA8
:102AF0000870A06B401CA063E08F401EE08701209F
:102B00000190FEF7A9FCA0EB0900B04201D3701CB4
:102B100000B94EB9012084F8510000BF002084F8AC
:102B2000500000BF032029E7E08E0028BFD1E08FCE
:102B30000028BCD14A463146204602F09FFB40B1F6
:102B40002020606500BF002084F8500000BF0120F5
:102B500014E7A06850B900BF002000902068C0684A
:102B6000009020688068009000BF00BF012084F8BA
:102B7000510000BF002084F8500000BF606D08B114
:102B80000120FBE60020F9E670B504462546681EE4
:102B9000B0F1807F01D301200FE0681E4FF0E021EB
:102BA00048610F214FF0FF3002F098FF00204FF0F6
:102BB000E021886107200861002070BD70477047E0
:102BC00010B50346002200BF93F83C00012801D154
:102BD000022010BD012083F83C0000BF22F0FF005E
:102BE000CC6840EA040222F440708C6840EA040297
:102BF00022F480604C6840EA040222F400600C6811
:102C000040EA040222F480500C6940EA040222F4F3
:102C100000504C6940EA040222F48040CC6940EA4A
:102C200004021868426400BF002083F83C0000BF23
:102C300000BFCEE730B502460B4600BF92F83C001D
:102C4000012801D1022030BD012082F83C0000BFE4
:102C5000022082F83D00106844681068816824F002
:102C600070041868044310684460184D1068A84246
:102C70001BD01068B0F1804F17D0154D1068A842D6
:102C800013D0144D1068A8420FD0134D1068A842FD
:102C90000BD0124D1068A84207D0114D1068A84201
:102CA00003D0104D1068A84205D121F0800158686A
:102CB000014310688160012082F83D0000BF0020C0
:102CC00082F83C0000BF00BFBDE7000000000140EB
:102CD0000004004000080040000C004000040140D7
:102CE000004001400018004010B504460CB9012016
:102CF00010BD94F83D0028B9002084F83C0020461F
:102D000000F026F8022084F83D00211D206802F022
:102D1000DFFB012084F8460000BF84F83E0001215B
:102D20003F200155402001554120015500BF00BF03
:102D3000012084F8420043200155442001554520DC
:102D4000015500BF012084F83D000020D0E70000BD
:102D500038B504464749206888420FD100BF00209B
:102D600000904548006840F001004349086008466B
:102D7000006800F00100009000BF79E02068B0F129
:102D8000804F40D100BF002000903B48001F0068EA
:102D900040F001003849091F08600846006800F04B
:102DA0000100009000BF00BF3448354908604FF073
:102DB000C06048604021324881600021C1604FF40A
:102DC0008061016189004161890081618911C1616E
:102DD000002101624162FEF79DF908B1FEF776F825
:102DE00000BF2749A1620846846300BF00BF21637A
:102DF000846300BF002211461C20FEF73DFF1C200B
:102E0000FEF726FF34E01F49206888421AD100BF30
:102E1000002000901848001F006840F0020016498A
:102E2000091F08600846006800F00200009000BF1B
:102E300000BF002211461D20FEF71EFF1D20FEF7D9
:102E400007FF15E010492068884211D100BF00201B
:102E500000900948001F006840F008000649091F5B
:102E600008600846006800F00800009000BF00BF3E
:102E700038BD00000000014044380240A06002401C
:102E8000D80B002000040040000C0040014691F8DF
:102E90003D00012801D001207047022081F83D004B
:102EA0000868C06840F001000B68D8601A4B0868D9
:102EB00098421BD00868B0F1804F17D0174B0868B4
:102EC000984213D0164B086898420FD0154B0868EB
:102ED00098420BD0144B0868984207D0134B0868EF
:102EE000984203D0124B086898420CD10868806859
:102EF00000F00702062A0CD00868006840F00100C4
:102F00000B68186005E00868006840F001000B6875
:102F100018600020C0E700000000014000040040ED
:102F200000080040000C0040000401400040014047
:102F30000018004001460868C06820F001000A68D7
:102F4000D06000BF0868006A41F21112104050B909
:102F50000868006A9210104028B90868006820F0DC
:102F600001000A68106000BF012081F83D000020C8
:102F700070472DE9F04104460D46002700BF94F844
:102F80003C00012802D10220BDE8F081012084F834
:102F90003C0000BF022084F83D002068866826F0CF
:102FA000770626F47F46206886602868502833D04C
:102FB0000CDC202850D004DC00284BD0102851D144
:102FC00049E0302849D040284CD139E060282DD044
:102FD000702807D0B0F5805F03D0B0F5005F41D115
:102FE0000DE041E0D5E902136A68206802F0F5FAC5
:102FF0002068866846F077062068866034E0D5E968
:1030000002136A68206802F0E8FA2068806840F4D9
:1030100080402168886027E0EA686968206802F0DB
:10302000CDFB5021206802F0E3FA1DE0EA686968F0
:10303000206802F0D6FB6021206802F0D9FA13E084
:10304000EA686968206802F0B9FB4021206802F054
:10305000CFFA09E000BF00BF00BF2968206802F076
:10306000C7FA01E0012700BF00BF012084F83D003E
:1030700000BF002084F83C0000BF384684E72DE9FB
:10308000F04104460D4614B90120BDE8F08194F8E2
:103090003D0028B9002084F83C00204600F054F898
:1030A000022084F83D002068806844F207018843CC
:1030B00021688860211D206802F00AFA2068D0F893
:1030C0000880206886692068076A286840EA08083E
:1030D00040F203308643A969A86840EA012006430C
:1030E00040F60C4086434FF2F0008643E969E868F9
:1030F00040EA0120064328690001296A40EA0130BC
:10310000064327F0220727F088076969686840EAC4
:10311000011007432068C0F8088020688661206895
:103120000762012084F8460084F83E0001213F2018
:103130000155012084F8420043200155012084F804
:103140003D000020A1E7000010B586B00446142120
:1031500001A8FDF76FF836492068884230D100BFDA
:10316000002000903348006840F0040031490860B6
:103170000846006800F00400009000BF00BF00BFD8
:10318000002000902B481038006840F008002949C2
:10319000103908600846006800F00800009000BF81
:1031A00000BF4FF440500190022002900020039095
:1031B00004900220059001A91F48FEF745F834E06D
:1031C0001E492068884230D100BF00200090194875
:1031D000001D006840F002001649091D08600846FD
:1031E000006800F00200009000BF00BF00BF002098
:1031F000009010481038006840F004000D49103964
:1032000008600846006800F00400009000BF00BF9E
:10321000C02001900220029000200390049003201F
:10322000059001A90648FEF70FF806B010BD000092
:103230000008004040380240000C024000040140F9
:10324000000802402DE9F04304460D4694F83E6024
:103250003F20075D94F84280432010F804906DB938
:10326000012E02D1B8F1010F02D00120BDE8F08398
:10327000022084F83E0084F8420025E0042D0CD1A1
:10328000012F02D1B9F1010F01D00120EEE7022197
:103290003F2001554320015516E0012E07D1012F93
:1032A00005D1B8F1010F02D1B9F1010F01D0012010
:1032B000DCE7022084F83E0002213F200155022075
:1032C00084F842004320015515B1042D0CD105E0CE
:1032D00001220021206802F06FF910E00122042190
:1032E000206802F069F90AE001220021206802F05A
:1032F00063F901220421206802F05EF900BF00BFDB
:103300002068006840F00100216808600020ADE7F7
:10331000704770B504462068C5682068066906F0E5
:103320000200022819D105F00200022815D1401F21
:1033300021680861012020772068806900F003007F
:1033400018B12046FFF7E4FF05E0204600F010F931
:10335000204600F0C4F90020207706F0040004287D
:1033600019D105F00400042815D1C0432168086173
:10337000022020772068806900F4407018B1204650
:10338000FFF7C6FF05E0204600F0F2F8204600F007
:10339000A6F90020207706F00800082819D105F0CA
:1033A0000800082815D1C04321680861042020774F
:1033B0002068C06900F0030018B12046FFF7A8FF9D
:1033C00005E0204600F0D4F8204600F088F90020FF
:1033D000207706F01000102819D105F010001028F1
:1033E00015D1C04321680861082020772068C06992
:1033F00000F4407018B12046FFF78AFF05E0204630
:1034000000F0B6F8204600F06AF90020207706F0B8
:10341000010048B105F0010030B16FF001002168F2
:103420000861204600F05CF906F08000802809D190
:1034300005F08000802805D1C0432168086120463E
:10344000FFF7BCFB06F04000402809D105F0400022
:10345000402805D1C04321680861204600F0A4FA45
:1034600006F02000202809D105F02000202805D1F1
:10347000C043216808612046FFF7A1FB70BD000032
:1034800010B586B00446142101A8FCF7D3FE3349D9
:10349000206888421DD100BF00200090304800689D
:1034A00040F010002E4908600846006800F0100047
:1034B000009000BF00BF481501900220029000203C
:1034C000039004900120059001A92648FDF7BCFE59
:1034D00042E02068B0F1804F1DD100BF0020009075
:1034E0001F48006840F001001D4908600846006858
:1034F00000F00100009000BF00BF082001900220F2
:1035000002900020039004900120059001A9164824
:10351000FDF79AFE20E01549206888421CD100BFC3
:10352000002000900E48006840F001000C4908603F
:103530000846006800F00100009000BF00BF0120B5
:103540000190022002900020039004900220059038
:1035500001A90548FDF778FE06B010BD0000014046
:10356000303802400010024000000240000C0040D1
:1035700070472DE9F04104460D461646002700BF6E
:1035800094F83C00012802D10220BDE8F08101201E
:1035900084F83C0000BF36B1042E1BD0082E31D079
:1035A0000C2E5ED145E02946206802F02BF82068F9
:1035B000806940F00800216888612068806920F0F7
:1035C00004002168886120688069296908432168AE
:1035D000886148E02946206802F04CF8206880693C
:1035E00040F40060216888612068806920F4806070
:1035F0002168886120688069296940EA0120216882
:10360000886130E02946206802F072F82068C069BD
:1036100040F008002168C8612068C06920F00400FB
:103620002168C8612068C069296908432168C861A8
:1036300019E02946206802F097F82068C06940F434
:1036400000602168C8612068C06920F4806021683A
:10365000C8612068C069296940EA01202168C86101
:1036600001E0012700BF00BF00BF002084F83C003C
:1036700000BF384689E710B504460CB9012010BDDB
:1036800094F83D0028B9002084F83C00204600F062
:1036900025F8022084F83D00211D206801F018FF64
:1036A000012084F8460000BF84F83E0001213F203D
:1036B0000155402001554120015500BF00BF0120A8
:1036C00084F842004320015544200155452001550E
:1036D00000BF012084F83D000020D0E7704770470C
:1036E0002DE9F04104469E48844204D19D4800687B
:1036F000401C9C4908609B4800689B4988427CD1DB
:1037000000209849086099480068406A9849086014
:1037100098480068406A98490860954800684042A7
:103720009649096808449649086008460068B0F55B
:10373000FA7F02DD4FF4FA7008609148006810F5D6
:10374000FA7F02DA8F488E4908608B4800688E49FC
:103750000968401A8D49086008460068B0F5FA7F8C
:1037600002DD4FF4FA7008608848006810F5FA7FAF
:1037700002DA8448854908607D4800687F4908600E
:103780007D48006880490860002506E0A8B2002353
:103790001A46194602F052F96D1C082DF6DB7C48DA
:1037A0000068032818D87B4880780A2190FBF1F044
:1037B000C5B27848407890FBF1F0C6B27548007801
:1037C00090FBF1F0C7B27249097801F003002B4673
:1037D0003246394602F032F96D48006880B16C48D3
:1037E000006804280CD86B4DAB786A782978684D4E
:1037F0002D786D1E05F0030000E085E002F01EF953
:103800006348006802281DD361480068052819D85C
:10381000604880780A2190FBF1F0C5B25D4840789D
:1038200090FBF1F0C6B25B48007890FBF1F0C7B2B4
:1038300057490978891E01F003002B463246394664
:1038400002F0FCF85248006803281AD851488078E2
:103850000A2190FBF1F0C5B24E48407890FBF1F0A0
:10386000C7B24C48007890FBF1F0C6B248490978DD
:1038700001F00301C1F107002B463A46314602F040
:10388000DDF84348006880B14148006804280CD83E
:10389000404DAB786A7829783D4D2D786D1E05F046
:1038A0000305C5F1070002F0C9F83948006802288D
:1038B0001FD33748006805281BD8364880780A216E
:1038C00090FBF1F0C7B23348407890FBF1F0C5B2FD
:1038D0003048007890FBF1F0C6B22D490978891E76
:1038E00001F00301C1F107003B462A46314602F0D0
:1038F000A5F827480068401C25490860084600686C
:10390000082801D1002008602348844226D14FF4C2
:1039100080512248FDF792FD10B9FC202049087023
:103920004FF400511D48FDF789FD10B9FD201C49D9
:10393000087004211B48FDF781FD10B9FF201849CC
:10394000087008211748FDF779FD10B9FE201449C9
:103950000870FDF7FFF81048FFF7ECFABDE8F081BA
:10396000700A00200C00002080380100000B0020AD
:1039700014000020900B00201C00002018000020E4
:10398000040000200CFEFFFF2000002008000020A3
:103990001000002000000020B80A002000040240AF
:1039A0002C00002000080240704710B504460CB9F6
:1039B000012010BDA06900B100E000BF94F84100F3
:1039C00028B9002084F84000204600F029F824207F
:1039D00084F841002068C06820F400502168C86065
:1039E000204601F013FF2068006920F49040216810
:1039F00008612068406920F02A0021684861206839
:103A0000C06840F400502168C86000206064202035
:103A100084F8410084F842000020606300BFC8E7DA
:103A200010B586B00446142101A8FCF703FC1B491D
:103A30002068884230D100BF0020009018480068FC
:103A400040F01000164908600846006800F01000B9
:103A5000009000BF00BF00BF002000901048143845
:103A6000006840F001000E491439086008460068FB
:103A700000F00100009000BF00BF4FF4C060019053
:103A8000022002900020039003200490072005905C
:103A900001A90448FDF7D8FB06B010BD0010014095
:103AA000443802400000024000BFFEE701460868BB
:103AB0004069C0F38020B0B16FF480600A68506143
:103AC00000200863202081F83D00002081F83E009E
:103AD000086C40F00400086400BF002081F83C003E
:103AE00000BF012070470020FCE700002DE9F843EB
:103AF00004460F4615469946DDE9088620680068A9
:103B000040F48060216808602068006840F480709C
:103B100021680860434600224FF0011120460096BC
:103B200000F037F960B12068006800F48070B0F5EB
:103B3000807F02D14FF4007020640320BDE8F88339
:103B400007F0FE0021680861334642463E492046A0
:103B500000F07EF908B10120F0E700BF00200090DE
:103B600020684069009020688069009000BF00BF15
:103B700032464146204600F02DFA50B1206C042810
:103B800005D12068006840F40070216808600120B9
:103B9000D4E7B9F1010F03D1E8B22168086117E059
:103BA000C5F307202168086132464146204600F0EF
:103BB00011FA50B1206C042805D12068006840F447
:103BC0000070216808600120B8E7E8B22168086148
:103BD00032464146204600F0FDF950B1206C0428E1
:103BE00005D12068006840F4007021680860012059
:103BF000A4E72068006840F48070216808604346AC
:103C000000224FF001112046009600F0C2F858B192
:103C10002068006800F48070B0F5807F02D14FF416
:103C200000702064032089E7F8B240F001002168A9
:103C30000861334642460449204600F009F908B1BC
:103C400001207BE7002079E7020001002DE9F8431D
:103C50000446884615469946DDE9086720680068ED
:103C600040F4807021680860334600224FF0011153
:103C70002046009700F08DF860B12068006800F4DD
:103C80008070B0F5807F02D14FF400702064032073
:103C9000BDE8F88308F0FE00216808613B46324623
:103CA0002149204600F0D4F808B10120F0E700BF18
:103CB0000020009020684069009020688069009092
:103CC00000BF00BF3A463146204600F083F950B1AC
:103CD000206C042805D12068006840F40070216839
:103CE00008600120D4E7B9F1010F03D1E8B22168DF
:103CF000086117E0C5F30720216808613A4631469C
:103D0000204600F067F950B1206C042805D12068E6
:103D1000006840F40070216808600120B8E7E8B24C
:103D2000216808610020B3E70200010070B5044675
:103D30000D46164625E02046FFF7B8FE08B10120E3
:103D400070BD681CE8B1FDF787FB801BA84200D856
:103D5000BDB920684069C0F3800090B9002020639D
:103D6000202084F83D00002084F83E00206C40F0C4
:103D70002000206400BF002084F83C0000BF012028
:103D8000DEE720684069C0F380000028D3D000201F
:103D9000D6E72DE9F04104460D4617461E46DDF8EC
:103DA000188038E0701CA8B3FDF756FBA0EB0800A4
:103DB000B04200D876BBC5F3074001280AD120687D
:103DC0004069A9B20840A9B2884201D101200BE0A4
:103DD000002009E020688069A9B20840A9B28842A1
:103DE00001D1012000E00020B84214D1002020635E
:103DF000202084F83D00002084F83E00206C40F034
:103E00002000206400BF002084F83C0000BF012097
:103E1000BDE8F081FFE7C5F3074001280AD120681B
:103E20004069A9B20840A9B2884201D101200BE043
:103E3000002009E020688069A9B20840A9B2884240
:103E400001D1012000E00020B842ABD00020DFE724
:103E50002DE9F04104460D4616461F4658E02068FD
:103E60004069C0F38020E8B12068006840F4007029
:103E7000216808606FF48060216848610020206339
:103E8000202084F83D00002084F83E00206C40F0A3
:103E90000400206400BF002084F83C0000BF012023
:103EA000BDE8F081701C90B3FDF7D6FAC01BB0429C
:103EB00000D866BBC5F3074001280AD120684069D5
:103EC000A9B20840A9B2884201D101200BE000202C
:103ED00009E020688069A9B20840A9B2884201D1EE
:103EE000012000E0002090B900202063202084F809
:103EF0003D00002084F83E00206C40F0200020644B
:103F000000BF002084F83C0000BF0120C8E7FFE7A5
:103F1000C5F3074001280AD120684069A9B20840CA
:103F2000A9B2884201D101200BE0002009E02068FD
:103F30008069A9B20840A9B2884201D1012000E0FD
:103F4000002000288BD00020AAE770B504460D465B
:103F5000164637E020684069C0F30010A0B16FF04A
:103F600010002168486100202063202084F83D0073
:103F7000002084F83E00206C206400BF002084F8FC
:103F80003C0000BF012070BDFDF766FA801BA8420F
:103F900000D8BDB920684069C0F3801090B90020F6
:103FA0002063202084F83D00002084F83E00206C2F
:103FB00040F02000206400BF002084F83C0000BFD7
:103FC0000120E0E720684069C0F380100028C1D0DC
:103FD0000020D8E770B504460D46164625E0204679
:103FE000FFF764FD08B1012070BD681CE8B1FDF762
:103FF00033FA801BA84200D8BDB920684069C0F3DD
:10400000C01090B900202063202084F83D000020DB
:1040100084F83E00206C40F02000206400BF0020A7
:1040200084F83C0000BF0120DEE720684069C0F34F
:10403000C0100028D3D00020D6E72DE9F041074674
:104040000C4615461E462A2000F014FD384600F0A6
:1040500001FD284600F0FEFC2B2000F00BFD204661
:1040600000F0F8FC304600F0F5FC2C2000F002FDDA
:10407000BDE8F08170B504460D4616462B46224633
:1040800029462046FFF7D9FF304600F0E3FC70BD1B
:104090002DE9F84F0746884614461D46DDF828905E
:1040A0004FF6FE7081450FD1042269463C20FCF793
:1040B0009FFE9DF80300124931F810001149088055
:1040C0000846B0F8009000BF681E83B2601E82B23E
:1040D00041463846FFF7B1FF46460CE0BA4606E0D7
:1040E000484600F0B7FC0AF101001FFA80FAA24529
:1040F000F6DB701C86B2AE42F0DBBDE8F88F000044
:1041000032000020300000207047000010B5FFF79B
:10411000FBFF6420FDF774F86420FDF771F80122BD
:1041200020215C48FDF792F96420FDF769F8112021
:1041300000F0A0FC7820FDF763F8362000F09AFC30
:10414000702000F090FC3A2000F094FC052000F074
:104150008AFCB22000F08EFC0C2000F084FC0C20C5
:1041600000F081FC002000F07EFC332000F07BFC9E
:10417000332000F078FCB72000F07CFC352000F004
:1041800072FCBB2000F076FC322000F06CFCC220F8
:1041900000F070FC012000F066FCC32000F06AFC17
:1041A000152000F060FCC42000F064FC202000F02A
:1041B0005AFCC62000F05EFC0F2000F054FCD0201A
:1041C00000F058FCA42000F04EFCA12000F04BFCB5
:1041D000E02000F04FFCD02000F045FC082000F06B
:1041E00042FC0E2000F03FFC092000F03CFC0920BE
:1041F00000F039FC052000F036FC312000F033FCE3
:10420000332000F030FC482000F02DFC172000F097
:104210002AFC142000F027FC152000F024FC31209B
:1042200000F021FC342000F01EFCE12000F022FC14
:10423000D02000F018FC082000F015FC0E2000F043
:1042400012FC092000F00FFC092000F00CFC1520E6
:1042500000F009FC312000F006FC332000F003FCE4
:10426000482000F000FC172000F0FDFB142000F0B7
:10427000FAFB152000F0F7FB312000F0F4FB3420AE
:1042800000F0F1FB212000F0F5FB292000F0F2FB0B
:1042900010BD0000000402402DE9FF5F80468A4601
:1042A00017469B460F9D00200290CDF800802846BF
:1042B00005EBD071C1F347042046E21704EB5272BC
:1042C000D2102146E31704EB5373DB10A4EBC303B6
:1042D0000BB1012300E000231A446A4392B2019219
:1042E000A7F12000C7B20AEB0500401E83B208EB1D
:1042F0000400401E82B251464046FFF79EFE002653
:1043000069E00C2D07D107EB4700354901EB800030
:10431000805D03901BE0102D05D1324800EB0710A3
:10432000805D039013E0182D07D107EB47002E495D
:1043300001EB0010805D039009E0202D05D12B4892
:1043400000EB8710805D039001E0BDE8FF9F4FF018
:1043500000093AE01098C8B9012000FA09F0039961
:10436000084018B1584600F075FB02E00E9800F0C6
:1043700071FB0298401CC0B20290029890FBF4F1CD
:1043800004FB1100E8B90020029021E0012000FAAE
:1043900009F00399084020B15A4651464046FFF7BC
:1043A00069FE08F101001FFA80F80098A8EB0000F0
:1043B000A04206D1DDF800800AF101001FFA80FA60
:1043C00006E009F1010000F0FF09B9F1080FC1DBB7
:1043D00000BF701C86B20198864292DB00BFB4E732
:1043E0001260000886640008766A0008467C0008AF
:1043F0002DE9FE4F8046894617469A46DDE90D466F
:104400000C9D36E00C2C09D153463A4649464046AD
:10441000CDE90146009500F031F825E0102C09D1D6
:1044200053463A4649464046CDE90146009500F0DC
:10443000C9F819E0182C09D153463A464946404676
:10444000CDE90146009500F059F90DE0202C09D185
:1044500053463A4649464046CDE90146009500F0AC
:10446000F1F901E0BDE8FE8FBF1C08EB04001FFA64
:1044700080F838780028C5D100BFF3E72DE9FF5F49
:104480000646894692469B460F9C00200390009664
:104490002046E21704EB5272D2102146E31704EBD8
:1044A0005373DB10A4EBC3030BB1012300E0002323
:1044B0001A44624392B2019205200290002579E0ED
:1044C00005EB850000EBC5003D4911F810009AF896
:1044D000001088426BD105EB850000EBC500384920
:1044E00001EB400040789AF8011088425FD109EB57
:1044F0000400401E83B23019401E82B24946304645
:10450000FFF79BFD00274FE04FF0000846E01098B2
:1045100008BB05EB850000EBC500294901EB400015
:10452000801CC05D012101FA08F1084018B158460D
:1045300000F090FA02E00E9800F08CFA0398401C0C
:10454000C0B20390039890FBF4F104FB110008BB88
:104550000020039025E005EB850000EBC50018491D
:1045600001EB4000801CC05D012101FA08F1084008
:1045700020B15A4649463046FFF77CFD701C86B292
:104580000098301AA04205D1009E09F101001FFADF
:1045900080F906E008F1010000F0FF08B8F1080F0B
:1045A000B5DB00BF781CC7B201988742ACDB00BF07
:1045B000681C85B20298854282DBBDE8FF9F00003F
:1045C000069400082DE9FF5F0646894692469B4601
:1045D0000F9C0020039000962046E21704EB5272D5
:1045E000D2102146E31704EB5373DB10A4EBC30393
:1045F0000BB1012300E000231A44624392B20192FE
:1046000005200290002571E005EB05103A4911F8EC
:1046100010009AF80010884265D105EB0510364964
:1046200001EB400040789AF8011088425BD109EB19
:104630000400401E83B23019401E82B24946304603
:10464000FFF7FBFC00274BE04FF0000842E010981A
:10465000F8B905EB0510284901EB4000801CC05D4E
:10466000012101FA08F1084018B1584600F0F2F9AA
:1046700002E00E9800F0EEF90398401CC0B20390DF
:10468000039890FBF4F104FB1100F8B900200390AB
:1046900023E005EB0510184901EB4000801CC05DCC
:1046A000012101FA08F1084020B15A464946304636
:1046B000FFF7E0FC701C86B20098301AA04205D1CA
:1046C000009E09F101001FFA80F906E008F10100DF
:1046D00000F0FF08B8F1080FB9DB00BF781CC7B2C3
:1046E00001988742B0DB00BF681C85B20298854202
:1046F0008ADBBDE8FF9F0000889400082DE9FF5F7A
:104700000646894692469B460F9C002003900096E1
:104710002046E21704EB5272D2102146E31704EB55
:104720005373DB10A4EBC3030BB1012300E00023A0
:104730001A44624392B201921C200290002579E053
:1047400005EB850000EB45103D4911F810009AF883
:10475000001088426BD105EB850000EB451038490D
:1047600001EB400040789AF8011088425FD109EBD4
:104770000400401E83B23019401E82B249463046C2
:10478000FFF75BFC00274FE04FF0000846E0109871
:1047900008BB05EB850000EB4510294901EB400003
:1047A000801CC05D012101FA08F1084018B158468B
:1047B00000F050F902E00E9800F04CF90398401C0C
:1047C000C0B20390039890FBF4F104FB110008BB06
:1047D0000020039025E005EB850000EB451018490B
:1047E00001EB4000801CC05D012101FA08F1084086
:1047F00020B15A4649463046FFF73CFC701C86B251
:104800000098301AA04205D1009E09F101001FFA5C
:1048100080F906E008F1010000F0FF08B8F1080F88
:10482000B5DB00BF781CC7B201988742ACDB00BF84
:10483000681C85B20298854282DBBDE8FF9F0000BC
:10484000329500082DE9FF5F0646894692469B4651
:104850000F9C0020039000962046E21704EB527252
:10486000D2102146E31704EB5373DB10A4EBC30310
:104870000BB1012300E000231A44624392B201927B
:1048800017200290002571E005EB85103A4911F8D8
:1048900010009AF80010884265D105EB8510364962
:1048A00001EB400040789AF8011088425BD109EB97
:1048B0000400401E83B23019401E82B24946304681
:1048C000FFF7BBFB00274BE04FF0000842E01098D9
:1048D000F8B905EB8510284901EB4000801CC05D4C
:1048E000012101FA08F1084018B1584600F0B2F869
:1048F00002E00E9800F0AEF80398401CC0B203909E
:10490000039890FBF4F104FB1100F8B90020039028
:1049100023E005EB8510184901EB4000801CC05DC9
:10492000012101FA08F1084020B15A4649463046B3
:10493000FFF7A0FB701C86B20098301AA04205D188
:10494000009E09F101001FFA80F906E008F101005C
:1049500000F0FF08B8F1080FB9DB00BF781CC7B240
:1049600001988742B0DB00BF681C85B2029885427F
:104970008ADBBDE8FF9F00004A9D00082DE9FF4F3C
:1049800085B0074691461D46DDE913A60020049038
:10499000304606EBD071C1F3470B002434E0281BEE
:1049A000401EC1B20A2001F029FBB9FBF0F00A2138
:1049B000B0FBF1F201FB12080498A0B9681EA042F6
:1049C00011DDB8F1000F0CD1002004FB0B71CDE913
:1049D00000A6029088B22022129B0699FFF75CFC89
:1049E00010E001200490002008F13001CAB204FB5D
:1049F0000B71CDE900A6029088B2129B0699FFF7D1
:104A00004BFC00BF601CC4B2AC42C8DB09B0BDE8BF
:104A1000F08F2DE9FE4F06460F4614469846DDE915
:104A20000D5ADDF8309010E0CDE9015ACDF8009034
:104A30002278434639463046FFF72EFC284605EBE0
:104A4000D07106EB61018EB2641C20780028EBD196
:104A5000BDE8FE8F10B50446201200F01FF8E0B24A
:104A600000F01CF810BD10B50446204600F016F802
:104A700010BD000010B5044600224FF40061064846
:104A8000FCF7E4FC204600F009F80122D1020248BC
:104A9000FCF7DCFC10BD00000008024001B500225C
:104AA0004FF400410748FCF7D1FC4FF47A73012220
:104AB00069460548FDF765FE0122D1030148FCF770
:104AC000C5FC08BD00000240D00900201CB5002034
:104AD000019001A9FE20FCF775F99DF80400122849
:104AE00004D1012211021248FCF7B0FC0020009012
:104AF0006946FF20FCF766F99DF80000552801D1B2
:104B000000201CBD9DF8040012280FD0552421461A
:104B1000FF20FCF783F96946FF20FCF753F99DF865
:104B20000000552801D10020EBE700BF0120E8E795
:104B30000008024008B500BF002000900A48006845
:104B400040F40010084908600846006800F40010AE
:104B5000009000BF00BF002211461120FDF78CF825
:104B60001120FDF775F808BD3038024000B587B058
:104B7000142102A8FBF75EFB00BF002001906F48E4
:104B8000006840F010006D4908600846006800F0B9
:104B90001000019000BF00BF00BF00200190084638
:104BA000006840F0800008600846006800F080005F
:104BB000019000BF00BF00BF0020019008460068C0
:104BC00040F0040008600846006800F0040001900E
:104BD00000BF00BF00BF002001900846006840F001
:104BE000010008600846006800F00100019000BF65
:104BF00000BF00BF002001900846006840F002009E
:104C000008600846006800F00200019000BF00BF85
:104C100000BF002001900846006840F008000860CE
:104C20000846006800F00800019000BF00BF0122A4
:104C300004214348FCF70AFC002248F206014148DF
:104C4000FCF704FC00224FF411613F48FCF7FEFB27
:104C500000224FF4C0713A48FCF7F8FB00222021F3
:104C60003A48FCF7F3FB0420029011200390002047
:104C70000490059002A93248FCF7E6FA0C20029055
:104C80004FF4041003900120049002A92E48FCF771
:104C9000DBFA48F206000290012003900020049005
:104CA000059002A92748FCF7CFFA4FF41160029053
:104CB0000120039000200490059002A92248FCF7EF
:104CC000C3FA4FF4C07002900120039000200490BA
:104CD000059002A91A48FCF7B7FA4FF44050029029
:104CE0004FF4041003900120049002A91748FCF728
:104CF000ABFA202002900120039000200490059040
:104D000002A91248FCF7A0FA002211460820FCF77D
:104D1000B3FF0820FCF79CFF002211460920FCF796
:104D2000ABFF0920FCF794FF002211462820FCF776
:104D3000A3FF2820FCF78CFF07B000BD30380240ED
:104D4000001002400000024000080240000402403F
:104D500010B50B480B4908600B4848600021094812
:104D60008160C1604FF48041016100214161816136
:104D7000C1610162FCF776FB08B1FCF7A7F810BD32
:104D8000005C004024090020A086010010B50F48F7
:104D90000F4908604FF48270486000210C48816020
:104DA000C160022101610121416149028161082143
:104DB000C16100210162416281620A21C162FDF785
:104DC0003BFB08B1FCF782F810BD00000030014049
:104DD0007809002010B50F480F4908604FF4827021
:104DE00048604FF400410C4881600021C1600161BE
:104DF00041614FF4007181610021C1610162416232
:104E000081620A21C162FDF717FB08B1FCF75EF869
:104E100010BD0000003C0040D009002000B595B056
:104E2000002011901290139014900F9010901C215C
:104E300008A8FBF7FFF920216846FBF7FBF92B4890
:104E40002B4908605320486000212948816040F2C6
:104E5000E731C1600021016141618161FDF744FFDB
:104E600008B1FCF733F84FF48050119011A9204895
:104E7000FEF77FF808B1FCF729F81D48FEF7FBFBA9
:104E800008B1FCF723F800200F9010900FA91848E4
:104E9000FDF7D0FE08B1FCF719F87020089000204B
:104EA00009900A900B900C900D900E90002208A98A
:104EB0000F48FEF75EFB08B1FCF708F800200090F1
:104EC00001900290039004904FF400500590002050
:104ED000079069460648FDF773FE08B1FBF7F6FF39
:104EE0000348FEF7CDFA15B000BD000000000140F8
:104EF000280A002000B58DB0002009900A900B9080
:104F00000C90079008901C216846FBF793F94FF02E
:104F10008040204908600020486000211D488160D1
:104F20006821C1600021016180218161FDF7DCFE03
:104F300008B1FBF7CBFF4FF48050099009A9154841
:104F4000FEF717F808B1FBF7C1FF1248FEF793FB15
:104F500008B1FBF7BBFF00200790089007A90D4898
:104F6000FDF768FE08B1FBF7B1FF6020009000205C
:104F700001900290042004900C2269460548FEF737
:104F8000F8FA08B1FBF7A2FF0248FEF779FA0DB074
:104F900000BD0000700A002000B587B0002003901B
:104FA00004900590069001900290154815490860FC
:104FB00042F2CF0048600021124881606321C16045
:104FC0000021016180218161FDF78EFE08B1FBF7B0
:104FD0007DFF4FF48050039003A90A48FDF7C9FFF5
:104FE00008B1FBF773FF00200190029001A905486A
:104FF000FDF720FE08B1FBF769FF07B000BD000018
:1050000000040040B80A002000B58BB0242102A89B
:10501000FBF710F90020009001901848184908602B
:10502000002048600021164881604FF6FF71C16082
:105030000021016181610120029000200390012084
:105040000490002005900690079001200890002011
:1050500009900A9002A90A48FEF711F808B1FBF777
:1050600035FF00200090019069460548FDF7E2FDFC
:1050700008B1FBF72BFF0BB000BD0000000800409B
:10508000000B002000B58DB0002009900A900B9015
:105090000C90079008901C216846FBF7CBF820483D
:1050A000204908605320486000211E48816040F27A
:1050B000E731C160002101618161FDF715FE08B192
:1050C000FBF704FF4FF48050099009A91548FDF73C
:1050D00050FF08B1FBF7FAFE1248FEF7CCFA08B110
:1050E000FBF7F4FE00200790089007A90D48FDF794
:1050F000A1FD08B1FBF7EAFE7020009000200190AE
:1051000002900490002269460648FEF732FA08B180
:10511000FBF7DCFE0348FEF7B3F90DB000BD00005D
:10512000000C0040480B002000B58BB0242102A8E1
:10513000FBF780F80020009001901848184908609B
:10514000002048600021164881604FF6FF71C16061
:1051500000210161416181610120029000200390E2
:1051600001200490002005900690079001200890EF
:10517000002009900A9002A90948FDF780FF08B1B4
:10518000FBF7A4FE00200090019069460448FDF75B
:1051900051FD08B1FBF79AFE0BB000BD00040140C1
:1051A000900B002010B50B480B4908604FF4E1301C
:1051B0004860002108488160C16001610C214161A3
:1051C00000218161C161FEF7F0FB08B1FBF77EFEB3
:1051D00010BD000000100140380C002000BFFEE7A9
:1051E00000BFFEE77047F8B504460E4615466068F6
:1051F000B0F5827F0DD1A068B0F5004F03D0A06854
:10520000B0F5806F05D12068006820F0400021686B
:1052100008606068B0F5827F1FD1A068B0F5806F2C
:105220000DD03346002280212046009500F06AF818
:1052300008B3606D40F0200060650320F8BD334680
:10524000002201212046009500F05CF898B1606DC5
:1052500040F0200060650320F0E733460022012182
:105260002046009500F04EF828B1606D40F0200017
:1052700060650320E2E70020E0E700007CB504461B
:105280000E4615463346012202212046009500F0C5
:1052900039F828B1606D40F02000606503207CBDC6
:1052A000164800681821B0FBF1F01549B0FBF1F089
:1052B0004FF47A71484301906068B0F5827F0DD158
:1052C0003346002280212046009500F01BF898B15B
:1052D000606D40F0200060650320E0E700BF0198AA
:1052E00000B908E00198401E019020688068C0F372
:1052F000C0100028F3D100BF0020D0E754050020E3
:1053000040420F002DE9F84F04460D4690461E46D8
:10531000DDF82890FCF7A0F8A0EB0900371AFCF79D
:105320009BF882462C480068C0F3CB30784300904D
:1053300045E0701C002842D0FCF78EF8A0EB0A0074
:10534000B84200D2A7BB2068406820F0E000216886
:1053500048606068B0F5827F0DD1A068B0F5004F5D
:1053600003D0A068B0F5806F05D12068006820F0F8
:10537000400021680860A06AB0F5005F0DD100BF51
:105380002068006820F400502168086020680068E8
:1053900040F400502168086000BF012084F85100EB
:1053A00000BF002084F8500000BF0320BDE8F88F44
:1053B000FFE7009800B900270098401E0090206881
:1053C00080682840A84201D1012000E0002040452B
:1053D000AFD10020EAE7000054050020704710B567
:1053E000FCF7C2FB10BD000000B593B0302107A848
:1053F000FAF720FF142102A8FAF71CFF00BF0020D3
:1054000001902448006840F0805022490860084616
:10541000006800F08050019000BF00BF00BF002076
:1054200001901D48006840F480401B490860084610
:10543000006800F48040019000BF00BF0120079089
:105440000004089002200D9041050E9104210F9157
:10545000A8211091022111910421129107A8FCF7B3
:105460009DFD08B1FBF732FD0F2002900220039052
:10547000002004904FF4A05005904FF48050069007
:10548000052102A8FCF74AFC08B1FBF71FFD13B089
:1054900000BD000040380240007000400348006832
:1054A00040F47000014908607047000088ED00E09A
:1054B00010B50248FDF72DFF10BD0000700A002056
:1054C00010B50248FDF725FF10BD0000B80A002006
:1054D00010B502682D4B98420ED0B0F1804F0BD022
:1054E0002B4B984208D02B4B984205D02A4B984220
:1054F00002D02A4B984203D122F070024B681A4323
:10550000224B984220D0B0F1804F1DD0204B9842C2
:105510001AD0204B984217D01F4B984214D01F4BE3
:10552000984211D01E4B98420ED01E4B98420BD081
:105530001D4B984208D01D4B984205D01C4B9842F9
:1055400002D01C4B984203D122F44072CB681A431C
:1055500022F080034C6943EA040202608B68C36254
:105560000B688362094B984202D00C4B984201D1E0
:105570000B69036301234361036903F001031BB15A
:10558000036923F00103036110BD00000000014026
:105590000004004000080040000C004000040140EE
:1055A0000040014000440140004801400018004014
:1055B000001C00400020004030B501F01F05012410
:1055C00004FA05F3046A9C430462046A01F01F05AF
:1055D00002FA05F52C43046230BD30B50C468168F3
:1055E00021F47F4142EA032525432943816030BDF0
:1055F0000A46816821F0700142F007031943816077
:105600007047000030B5026A056A25F001050562A1
:105610004368846924F0700424F003040D682C436B
:1056200022F002028D682A43104DA84200D103E007
:105630000F4DA84206D100BF22F00802CD682A43D0
:1056400022F00402094DA84202D0094DA84207D118
:1056500023F4807323F400734D692B438D692B432E
:10566000436084614D684563026230BD00000140C3
:105670000004014030B5026A056A25F01005056294
:105680004368846924F4E04424F440740D6844EAD7
:10569000052422F020028D6842EA0512124DA8422C
:1056A00000D103E0114DA84207D100BF22F08002D3
:1056B000CD6842EA051222F040020B4DA84202D00A
:1056C0000A4DA84209D123F4806323F400634D6995
:1056D00043EA85038D6943EA8503436084614D682D
:1056E0008563026230BD00000000014000040140FB
:1056F00030B5026A056A25F4807505624368C4699D
:1057000024F0700424F003040D682C4322F400728A
:105710008D6842EA0522124DA84200D103E0114DE6
:10572000A84207D100BF22F40062CD6842EA0522F8
:1057300022F480620A4DA84202D00A4DA84209D143
:1057400023F4805323F400534D6943EA05138D6914
:1057500043EA05134360C4614D68C563026230BD0E
:10576000000001400004014030B5036A056A25F4D9
:10577000805505624468C26922F4E04222F4407216
:105780000D6842EA052223F400538D6843EA05338D
:10579000084DA84202D0084DA84204D124F4804408
:1057A0004D6944EA85144460C2614D680564036232
:1057B00030BD0000000001400004014030B50B4640
:1057C0001446026A056A25F001050562816921F027
:1057D000F00141EA041122F00A021A4381610262D7
:1057E00030BD30B50B461446026A056A25F0100537
:1057F0000562816921F4704141EA043122F0A0027E
:1058000042EA03128161026230BD00002DE9F84FC7
:1058100004462068006920F44050E168084321688C
:1058200008612169A068084361690843E169084388
:1058300000902068C06849F20C61884300990843D1
:105840002168C8602068406920F44070A16908435D
:105850002168486176492068884203D075492068EC
:10586000884203D1FCF732FB814602E0FCF71EFBC5
:105870008146E069B0F5004F6CD102206168A0FB61
:10588000015003461920A9FB007001462A463846FC
:10589000FAF798FC6421B0FBF1F04FEA001A0220FD
:1058A0006168A0FB01510B461920A9FB00712A4633
:1058B0003846FAF787FC834602206168A0FB015056
:1058C00003461920A9FB00712A463846FAF77AFCEC
:1058D0006421B0FBF1F000EBC00101EB0010ABEB79
:1058E0008000322101EBC0006421B0FBF1F000F038
:1058F000F8000AEB400A02206168A0FB0150034651
:105900001920A9FB007001462A463846FAF75AFCCE
:10591000834602206168A0FB015003461920A9FBC1
:1059200000712A463846FAF74DFC6421B0FBF1F0CD
:1059300000EBC00101EB0010ABEB8000322101EB6A
:10594000C0006421B0FBF1F000F007005044216872
:1059500088606AE004206168A0FB015003461920BA
:10596000A9FB007001462A463846FAF72BFC82460E
:1059700004206168A0FB015003461920A9FB0070B8
:1059800001462A463846FAF71DFC6421B0FBF1F0C7
:1059900000EBC00101EB0010AAEB8000322101EB0B
:1059A00000106421B0FBF1F000F0F00A04206168FF
:1059B000A0FB017003461920A9FB00513A46284676
:1059C000FAF700FC6421B0FBF1F00AEB001A0420A6
:1059D0006168A0FB01510B461920A9FB00712A4602
:1059E0003846FAF7EFFB834604206168A0FB0150BC
:1059F00003461920A9FB007001462A463846FAF7EB
:105A0000E1FB6421B0FBF1F000EBC00101EB001001
:105A1000ABEB8000322101EB00106421B0FBF1F010
:105A200000F00F00504421688860BDE8F88F000046
:105A3000001001400014014000BFFEE7F0B504462D
:105A40000D4604EB4400C10000202AE002FA00F6F3
:105A500006F080060EB1462600E023260F18DFF878
:105A600048C04CF8276005FA00F606F080060EB133
:105A7000462700E023270E180836DFF82CC04CF824
:105A8000267003FA00F606F080060EB1462700E005
:105A900023270E181036DFF810C04CF82670461C6D
:105AA000F0B20828D2DBF0BD5C0500200FB4054B36
:105AB00010B503A9044A029800F034F810BC5DF850
:105AC00014FB0000795C00085805002002480068BB
:105AD000C0F30220704700000CED00E010B5002874
