:020000040800F2
:10000000580D00202902000895310008E926000853
:10001000913100081F040008493900080000000061
:10002000000000000000000000000000FD32000899
:10003000130500080000000099310008FF32000895
:10004000430200084302000843020008430200087C
:10005000430200084302000843020008430200086C
:10006000430200084302000843020008430200085C
:10007000430200084302000843020008430200084C
:100080004302000825040008430200084302000858
:10009000430200084302000843020008430200082C
:1000A000430200084302000843020008430200081C
:1000B000D13300084302000843020008430200084D
:1000C00043020008430200084302000843020008FC
:1000D00043020008430200084302000843020008EC
:1000E0001505000843020008430200084302000807
:1000F00043020008430200084302000843020008CC
:1001000043020008430200084302000843020008BB
:1001100043020008430200084302000843020008AB
:10012000430200084302000843020008430200089B
:10013000430200084302000843020008430200088B
:10014000430200084302000843020008430200087B
:10015000430200084302000843020008430200086B
:10016000430200084302000843020008430200085B
:100170004302000843020008430200080000000098
:10018000430200084302000800F002F800F03CF8C7
:100190000AA090E8000C82448344AAF10107DA45E2
:1001A00001D100F031F8AFF2090EBAE80F0013F0F8
:1001B000010F18BFFB1A43F00103184750720000EB
:1001C00070720000103A24BF78C878C1FAD852077C
:1001D00024BF30C830C144BF04680C6070470000C1
:1001E0000023002400250026103A28BF78C1FBD840
:1001F000520728BF30C148BF0B6070471FB503F0DE
:1002000062FC1FBD10B510BD00F0CFF81146FFF71E
:10021000F5FF03F0EFFB00F0EDF803B4FFF7F2FF9A
:1002200003BC00F0F5F80000094880470948004782
:10023000FEE7FEE7FEE7FEE7FEE7FEE7FEE7FEE796
:10024000FEE7FEE704480549054A064B70470000F3
:10025000BD3300088901000858070020580D002010
:10026000580900205809002053EA020C00F0698068
:100270002DE9F04B4FF00006002B1FBFB3FA83F5BA
:1002800003FA05F424FA05F65E4012BF1643B2FAEB
:1002900082F502FA05F4C5F120051EBF22FA05FC1D
:1002A00044EA0C04203556EA044C4FEA144418BFC3
:1002B000641C4FF000084FF00009904271EB030CF2
:1002C00039D3002919BFB1FA81F701FA07F6B0FA5C
:1002D00080F700FA07F6C7F120071EBF20FA07FCD7
:1002E00046EA0C062037B6FBF4FCA7EB0507103FE7
:1002F00007F01F0BCBF120060CFA0BFB2CFA06F6CD
:1003000044BFB3460026202FA4BF5E464FF0000B2B
:100310005BEA060C08BF4FF0010B19EB0B09ABFBB6
:10032000027C48EB0608C01B06FB02CC0BFB03CC8F
:1003300071EB0C01C1E70B46024641464846BDE859
:10034000F08B13B54FF000004FF00001AFF30080C9
:10035000BDE81C4070474FF0000200B513469446BC
:100360009646203922BFA0E80C50A0E80C50B1F10D
:100370002001BFF4F7AF090728BFA0E80C5048BF21
:100380000CC05DF804EB890028BF40F8042B08BFBF
:10039000704748BF20F8022B11F0804F18BF00F8BB
:1003A000012B7047704770477047754600F02CF876
:1003B000AE4605006946534620F00700854618B052
:1003C00020B5FFF73FFFBDE820404FF000064FF09B
:1003D00000074FF000084FF0000B21F00701AC467A
:1003E000ACE8C009ACE8C009ACE8C009ACE8C00999
:1003F0008D46704710B50446AFF300802046BDE837
:100400001040FFF70ABF000000487047F4060020C4
:1004100001491820ABBEFEE726000200704700BF6E
:10042000FEE7000010B5024800F090F810BD000093
:100430004C0600200146087810381823B0FBF3F270
:100440000848805CC865032A05D908686FF309006D
:10045000001D886503E008686FF309008865886DF2
:1004600070470000EC730008014600208A6A8B691F
:10047000CBB932B1012A0DD0022A03D0032A10D100
:100480000EE000BFCB6A03F08073B3F1807F00D130
:10049000012007E0CB6AB3F1C07F00D1012001E069
:1004A00000E000BF34E08B69B3F5005F1AD132B1D0
:1004B000012A07D0022A03D0032A11D10AE000BF83
:1004C00001200EE0CB6A03F08073B3F1807F00D18E
:1004D000012006E0CB6AB3F1C07F00D1012000E02B
:1004E00000BF15E032B1012A05D0022A04D0032A48
:1004F0000CD103E000BF00BF012008E0CB6A03F08D
:100500008073B3F1807F00D1012000E000BF00BF05
:100510007047704710B54FF48051084800F0CAFA90
:1005200018B90421064800F0CDFA4FF4805000F0CD
:10053000B9F94FF4005000F0B5F910BD00040240C5
:100540000010024072B600BFFEE70000F8B5044696
:10055000002000908C4800684FF41651B0FBF1F772
:10056000A56D2E6894F85C1008208840304098B142
:100570002068006800F0040070B12068006820F076
:1005800004002168086094F85C1008208840A86086
:10059000606D40F00100606594F85C1001208840B7
:1005A000304068B12068406900F0800040B194F8A4
:1005B0005C1001208840A860606D40F0020060651A
:1005C00094F85C1004208840304068B120680068CE
:1005D00000F0020040B194F85C1004208840A8604C
:1005E000606D40F00400606594F85C101020884055
:1005F000304078B32068006800F0080050B394F8E9
:100600005C1010208840A8602068006800F48020FA
:1006100080B12068006800F4002028B9206CC8B1BF
:100620002046216C884715E0A06C98B12046A16C4B
:1006300088470FE02068006800F4807028B92068BF
:10064000006820F0080021680860206C10B1204686
:10065000216C884794F85C102020884030400028A6
:1006600065D02068006800F0100000285FD094F882
:100670005C1020208840A86094F83500052828D117
:100680002068006820F01600216808602068406932
:1006900020F0800021684861206C08B9A06C28B166
:1006A0002068006820F008002168086094F85C1059
:1006B0003F208840A860012084F8350000BF00205A
:1006C00084F8340000BF206D10B12046216D8847AA
:1006D000F8BD2068006800F4802080B120680068C0
:1006E00000F4002028B9606C10B12046616C884786
:1006F0001DE0E06BD8B12046E16B884717E0206829
:10070000006800F4807068B92068006820F010006C
:1007100021680860012084F8350000BF002084F8BB
:10072000340000BFE06B10B12046E16B8847606D7C
:1007300038B3606D00F00100F0B1052084F8350099
:100740002068006820F001002168086000BF009860
:10075000401C0090B84200D905E02068006800F015
:1007600001000028F3D100BF012084F8350000BF4C
:10077000002084F8340000BFE06C10B12046E16C2A
:10078000884700BFA4E70000140000202DE9F041D5
:100790000446002500F0A6F9074614B90120BDE87B
:1007A000F081606A00B100BF022084F8350000BF0C
:1007B000002084F8340000BF2068006820F00100A9
:1007C000216808600AE000F08DF9C01B052805D9F2
:1007D00020206065032084F83500E0E72068006889
:1007E00000F001000028EED120680568214805408E
:1007F000D4E901010843E1680843216908436169BC
:100800000843A1690843E1690843216A0843054395
:10081000606A042803D1D4E90B010843054320682A
:1008200005602068456925F00705606A0543606A30
:1008300004280DD1A06A0543E06A48B12046FFF7BD
:1008400013FE28B140206065012084F83500A6E73A
:10085000206845612046FFF7EDFD064694F85C10E0
:100860003F208840B06000206065012084F835009A
:10087000002094E73F8010F070B5044600F032F994
:1008800006462546681C10B104480078054400BFA0
:1008900000F028F9801BA842FAD370BD1000002098
:1008A0007047000010B5044604480068204020B19D
:1008B000024804602046FFF7F3FF10BD143C0140DE
:1008C000F8B502460B460025002400200021D6E0A2
:1008D000012606FA01F51E6806EA0504AC4274D149
:1008E0001E7906F00306012E04D01E7906F00306D9
:1008F000022E13D190684F000326BE40B0434F0034
:10090000DE68BE4030439060506801268E40B043A0
:100910001E79C6F300168E40304350601E7906F0F3
:100920000306032E09D0D0684F000326BE40B04313
:100930004F009E68BE403043D0601E7906F003062B
:10094000022E13D1CF0802F1200656F827004E07D9
:10095000F70E0F26BE40B0434F07FF0E1E69BE4084
:100960003043CF0802F1200646F8270010684F00F8
:100970000326BE40B0431E7906F003064F00BE407A
:10098000304310605E6806F44036002E76D000BF1B
:10099000002600963C4E366846F480463A4F3E604C
:1009A0003E46366806F48046009600BF00BF374ECC
:1009B0008F0856F827008E07370F0F26BE40B0432A
:1009C000334EB24202D1002624E057E0314EB2420B
:1009D00001D101261EE0304EB24201D1022619E0BB
:1009E0002E4EB24201D1032614E02D4EB24201D167
:1009F00004260FE02B4EB24201D105260AE02A4E12
:100A0000B24201D1062605E0284EB24201D10726A6
:100A100000E008268F073F0FBE4030431B4E8F0873
:100A200046F82700224E3068A0435E6806F4801620
:100A300006B120431E4E3060361D3068A0435E680C
:100A400006F4001606B12043194E361D3060184ECC
:100A5000361F3068A0435E6806F4003606B12043B6
:100A6000134E361F3060361F3068A0435E6806F4B0
:100A7000803606B120430E4E083E3060491C1029D6
:100A8000FFF426AFF8BD00004438024008380140AA
:100A9000000002400004024000080240000C024036
:100AA000001002400014024000180240001C0240E6
:100AB000083C0140024613690B400BB1012000E0E5
:100AC0000020704710B5426921EA020302EA0104DE
:100AD00043EA0443836110BD0AB1816101E00B0464
:100AE00083617047014800687047000008000020DB
:100AF00070B504460CB9012070BD94F83D0028B9CA
:100B0000002084F83C00204600F0DAF8242084F825
:100B10003D002068006820F001002168086020681E
:100B2000006840F40040216808602068006820F4F4
:100B300000402168086000F0C9FA05465C49606819
:100B4000884206D85B48854201D2012007E0002098
:100B500005E05948854201D2012000E0002001282B
:100B600000D1C9E75548B5FBF0F62068406820F091
:100B70003F003043216848604D496068884201D891
:100B8000701C07E04FF4967070434FF47A71B0FB1D
:100B9000F1F0401C2168096A21F03F0108432168F7
:100BA000086243496068884214D8681E6168490039
:100BB000B0FBF1F0401CC0F30B00042801D204206C
:100BC0003DE0681E61684900B0FBF1F0401CC0F3D5
:100BD0000B0034E0A06838B9681E616801EB410180
:100BE000B0FBF1F0401C0AE0681E616801EBC10235
:100BF00002EB0111B0FBF1F0401C40F48040C0F367
:100C00000B0008B901201AE0A06848B9681E6168A5
:100C100001EB4101B0FBF1F0401CC0F30B000CE014
:100C2000681E616801EBC10202EB0111B0FBF1F03B
:100C3000401CC0F30B0040F4804040F400402168A9
:100C4000C9694CF6FF72914308432168C861D4E931
:100C5000070108432168096821F0C00108432168A1
:100C60000860D4E9031008432168896848F2FF321C
:100C70009143084321688860D4E90501084321684D
:100C8000C96821F0FF0108432168C8602068006836
:100C900040F001002168086000202064202084F8D2
:100CA0003D000020206384F83E0000BF24E70000E0
:100CB000A086010080841E0000093D0040420F0014
:100CC00010B586B00446142101A8FFF744FB2A4959
:100CD000206888424DD100BF00200090274800685E
:100CE00040F00400254908600846006800F0040050
:100CF000009000BF00BF00BF0020009008460068C1
:100D000040F0010008600846006800F00100009013
:100D100000BF00BF481501901220029000200390F0
:100D2000032004900420059001A91548FFF7C8FD91
:100D30004FF4807001901220029000200390032055
:100D400004900420059001A90E48FFF7B9FD00BFEB
:100D50000020009009481030006840F40000074966
:100D6000103108600846006800F40000009000BFE1
:100D700000BF06B010BD0000005C004030380240EB
:100D80000008024000000240034800680349097857
:100D90000844014908607047080000201000002046
:100DA00010B50D48006840F400700B490860084613
:100DB000006840F4806008600846006840F4807075
:100DC0000860032000F0A6F80F2000F007F800F0FC
:100DD0002BF8002010BD0000003C024070B5044616
:100DE0000E4800784FF47A71B1FBF0F00C490968B5
:100DF000B1FBF0F5284600F0F2FD08B1012070BD0E
:100E0000102C07D200222146501E00F045F805485C
:100E1000046001E00120F2E70020F0E7100000206C
:100E2000140000200C00002008B500BF0020009036
:100E30000E48006840F480400C490860084600688D
:100E400000F48040009000BF00BF00BF0020009071
:100E5000081F006840F08050091F086008460068BD
:100E600000F08050009000BF00BF08BD4438024031
:100E70000146084600280DDB00BF00BF00F01F033D
:100E800001229A4043099B0003F1E023C3F80021AB
:100E900000BF00BF00BF70472DE9F05F80460D46E0
:100EA0001646002702F08AFD074639462A46334691
:100EB00001F00700C0F1070ABAF1040F02D94FF0A0
:100EC000040A01E0C0F1070AD14600F1040ABAF1B0
:100ED000070F02D24FF0000A01E0A0F1030AD44646
:100EE0004FF0010A0AFA09FAAAF1010A0AEA020A0B
:100EF0000AFA0CFA4FF0010B0BFA0CFBABF1010BE9
:100F00000BEA030B4AEA0B042146404602F05EFD61
:100F1000BDE8F09F00BF00F00702064B19684FF6CE
:100F2000FF031940044B0B4343EA0221014B1960B4
:100F300000BF70470CED00E00000FA0570B50446F4
:100F40000D460CB9012070BD5848006800F007003C
:100F5000A84209D255490D700846006800F0070004
:100F6000A84201D00120EEE7207800F0020002281C
:100F70001DD1207800F00400042805D14C480068F9
:100F800040F4E0504A490860207800F00800082842
:100F900005D14748006840F460404549086044482E
:100FA000006820F0F000A1680843414908602078FB
:100FB00000F00100A8B36068012807D13C48083858
:100FC0000068C0F34040B8B90120BCE7606802285F
:100FD00002D06068032807D1354808380068C0F39C
:100FE000406048B90120AEE7314808380068C0F3D6
:100FF000400008B90120A6E72D48006820F0030052
:10100000616808432A490860FFF76CFD064609E05D
:10101000FFF768FD801B41F28831884202D9032026
:1010200091E707E02248006800F00C006168B0EB2F
:10103000810FEDD11D48006800F00700A84209D9D2
:101040001A490D700846006800F00700A84201D058
:10105000012078E7207800F00400042807D1144824
:10106000006820F4E050E1680843114908602078E6
:1010700000F00800082808D10D48006820F46040FE
:10108000216940EAC1000A49086000F03FF80849B8
:101090000968C1F30311074A515CC840064908605A
:1010A00006480068FFF79AFE00204CE7003C02402B
:1010B00008380240F4730008140000200C000020DF
:1010C00001480068704700001400002000B5FFF7D9
:1010D000F7FF04490968C1F38221034A515CC84003
:1010E00000BD0000083802400474000800B5FFF796
:1010F000E7FF04490968C1F34231034A515CC84023
:1011000000BD000008380240047400082DE9F047D3
:10111000002400250026A1462548006800F00C00A8
:1011200020B1042805D008283AD105E0DFF88490E2
:1011300039E0DFF8849036E01D48001F006800F0B9
:101140003F041B48001F006800F4800078B11A4873
:101150001749091F0968C1F38811A0FB01700146F6
:10116000224600233846FFF77FF805460EE0114877
:101170000F49091F0968C1F38811A0FB01700146DE
:10118000224600233846FFF76FF805460848001F3F
:101190000068C0F30140401C4600B5FBF6F902E0D0
:1011A000DFF8109000BF00BF4846BDE8F0870000A0
:1011B000083802400024F40000127A00F8B5044612
:1011C0000CB90120F8BD207800F00100002874D08F
:1011D000F948006800F00C0004280DD0F6480068BB
:1011E00000F00C00082813D1F348001F006800F439
:1011F0008000B0F5800F0BD1EF4808380068C0F3CD
:101200004040002859D06068002856D10120D9E715
:1012100000BF6068B0F5803F08D1E7480838006833
:1012200040F48030E449083908601EE06068B0F599
:10123000A02F0DD1E0480838006840F48020DE4936
:10124000083908600846006840F4803008600CE007
:10125000D9480838006820F48030D7490839086038
:101260000846006820F48020086000BF606890B1E4
:10127000FFF738FC054606E0FFF734FC401B642806
:1012800001D903209EE7CC4808380068C0F34040ED
:101290000028F1D011E0FFF725FC054606E0FFF736
:1012A00021FC401B642801D903208BE7C248083881
:1012B0000068C0F340400028F1D1207800F002001F
:1012C00002285FD1BC48006800F00C0058B1BA4851
:1012D000006800F00C0008281CD1B748001F006807
:1012E00000F48000B0B9B44808380068C0F340008A
:1012F00020B1E068012801D0012063E7AE4808383A
:10130000006820F0F800216940EAC100AA490839C4
:10131000086037E0E06800B30120A8490860FFF7E3
:10132000E1FB054606E0FFF7DDFB401B022801D983
:10133000032047E7A04808380068C0F340000028B1
:10134000F1D09D480838006820F0F800216940EA93
:10135000C10099490839086014E0002097490860E5
:10136000FFF7C0FB054606E0FFF7BCFB401B022869
:1013700001D9032026E7904808380068C0F34000F0
:101380000028F1D1207800F0080008282CD16069ED
:10139000A8B101208A490860FFF7A4FB054606E0D2
:1013A000FFF7A0FB401B022801D903200AE782486F
:1013B0006C300068C0F340000028F1D014E0002039
:1013C0007F490860FFF78EFB054606E0FFF78AFBC2
:1013D000401B022801D90320F4E677486C300068EE
:1013E000C0F340000028F1D1207800F00400042868
:1013F00070D1002770483830006800F0805090B9F4
:1014000000BF002000906C483830006840F08050E9
:101410006949383108600846006800F08050009043
:1014200000BF00BF01276748006800F48070B0B9B2
:101430006448006840F4807062490860FFF752FB1E
:10144000054606E0FFF74EFB401B022801D90320AA
:10145000B8E65C48006800F480700028F2D000BF55
:10146000A068012808D154486830006840F00100A5
:101470005149683108601DE0A06805280DD14E482B
:101480006830006840F004004B4968310860084645
:10149000006840F0010008600CE0474868300068D0
:1014A00020F001004449683108600846006820F0D7
:1014B0000400086000BFA068A8B1FFF713FB054651
:1014C00009E0FFF70FFB401B41F28831884202D947
:1014D000032077E626E0384868300068C0F3400013
:1014E0000028EED013E0FFF7FDFA054608E0FFF70D
:1014F000F9FA401B41F28831884201D9032061E6A4
:101500002D4868300068C0F340000028EFD1012F5B
:1015100007D129483830006820F0805026493831FA
:10152000086000BFA069002845D02348006800F08B
:101530000C0008285DD0A069022845D100201F4971
:101540000866FFF7CFFA054606E0FFF7CBFA401B27
:10155000022801D9032035E6174808380068C0F38F
:1015600040600028F1D1D4E907010843616A40EAEC
:1015700081110122A06AC2EB500041EA00412C20F7
:10158000005D41EA00600C49091F086001200B4919
:101590000866FFF7A7FA054606E0FFF7A3FA401B27
:1015A000022801D903200DE6034808380068C0F37B
:1015B00040600028F1D049E008380240000047426E
:1015C000800E474200700040002021490866FFF766
:1015D00089FA054606E0FFF785FA401B022801D983
:1015E0000320EFE51B480068C0F340600028F2D1FB
:1015F0002CE0A069012800D1E4E51648001D06682A
:10160000A069012820D006F48001E06981421BD145
:1016100006F03F01206A814216D147F6C070304083
:10162000616AB0EB811F0FD106F440310122A06A3C
:10163000C2EB5000B1EB004F06D106F070612C20D8
:10164000005DB1EB006F01D00120BBE50020B9E5E2
:10165000000047420038024010B504460CB9012092
:1016600010BD606A38B96068B0F5827F00D105E0CE
:101670000021E16102E00021216161610021A1629C
:1016800094F8510028B9002084F85000204600F05A
:1016900047F8022084F851002068006820F04000DC
:1016A00021680860A08800F48270218901F4044157
:1016B0000843A18901F400610843217C01F0020183
:1016C0000843217D01F001010843218B01F40071E1
:1016D0000843217F01F0380108432021095D01F012
:1016E00080010843218D01F40051084321680860FE
:1016F0000421A06901EA104094F8241001F01001BF
:101700000843216848602068C06920F400602168AF
:10171000C86100206065012084F8510000209FE727
:1017200010B586B00446142101A8FEF714FE37490F
:101730002068884230D100BF002000903448006803
:1017400040F48050324908600846006800F4805038
:10175000009000BF00BF00BF002000902C4814384C
:10176000006840F001002A49143908600846006802
:1017700000F00100009000BF00BFE02001900220B7
:10178000029000200390032004900520059001A9F9
:101790002048FFF795F836E01F492068884232D18B
:1017A00000BF002000901A48001F006840F400406D
:1017B0001749091F08600846006800F400400090BF
:1017C00000BF00BF00BF002000901148143800681F
:1017D00040F004000E49143908600846006800F023
:1017E0000400009000BF00BF4FF4A0500190022001
:1017F000029000200390032004900620059001A988
:101800000648FFF75DF806B010BD0000003001404B
:101810004438024000000240003C00400008024002
:101820002DE9F84304460F4616461D46FFF75AF9C0
:101830008046B14694F85100012802D00220BDE84C
:10184000F88307B10EB90120F9E700BF94F8500002
:10185000012801D10220F2E7012084F8500000BFE6
:10186000032084F85100002060652763A686E68681
:10187000A063A087E08760642064A068B0F5004F93
:101880000BD12068006820F04000216808602068C3
:10189000006840F48040216808602068006800F01B
:1018A0004000402805D02068006840F040002168D2
:1018B0000860E068B0F5006F37D1606810B1B9F129
:1018C000010F09D1206B00882168C860206B801C43
:1018D0002063E08E401EE08623E02068806800F0F0
:1018E000020002280AD1206B00882168C860206BA2
:1018F000801C2063E08E401EE08612E0FFF7F2F8C5
:10190000A0EB0800A84201D3681C00B94DB9012022
:1019100084F8510000BF002084F8500000BF03206D
:101920008DE7E08E0028D8D136E0606810B1B9F1BB
:10193000010F09D1206B007821680873206B401CCF
:101940002063E08E401EE08623E02068806800F07F
:10195000020002280AD1206B007821680873206BEE
:10196000401C2063E08E401EE08612E0FFF7BAF8CC
:10197000A0EB0800A84201D3681C00B94DB90120B2
:1019800084F8510000BF002084F8500000BF0320FD
:1019900055E7E08E0028D8D142462946204601F07E
:1019A000FDFB08B120206065A06850B900BF002091
:1019B00000902068C068009020688068009000BF98
:1019C00000BF012084F8510000BF002084F85000BF
:1019D00000BF606D08B1012031E700202FE770B52E
:1019E00004462546681EB0F1807F01D301200FE038
:1019F000681E4FF0E02148610F214FF0FF3001F0E9
:101A0000E5FF00204FF0E0218861072008610020F9
:101A100070BD7047704710B50346002200BF93F8B1
:101A20003C00012801D1022010BD012083F83C00B8
:101A300000BF22F0FF00CC6840EA040222F44070AC
:101A40008C6840EA040222F480604C6840EA040298
:101A500022F400600C6840EA040222F480500C6911
:101A600040EA040222F400504C6940EA040222F4E5
:101A70008040CC6940EA04021868426400BF00203C
:101A800083F83C0000BF00BFCEE7000030B502463F
:101A90000B4600BF92F83C00012801D1022030BD66
:101AA000012082F83C0000BF022082F83D0010684F
:101AB00044681068816824F0700418680443106852
:101AC0004460184D1068A8421BD01068B0F1804FD8
:101AD00017D0154D1068A84213D0144D1068A842B5
:101AE0000FD0134D1068A8420BD0124D1068A842B9
:101AF00007D0114D1068A84203D0104D1068A842BD
:101B000005D121F0800158680143106881600120EF
:101B100082F83D0000BF002082F83C0000BF00BFFB
:101B2000BDE7000000000140000400400008004044
:101B3000000C00400004014000400140001800403B
:101B400010B504460CB9012010BD94F83D0028B929
:101B5000002084F83C00204600F026F8022084F89B
:101B60003D00211D206801F03BFC012084F8460067
:101B700000BF84F83E0001213F200155402001555F
:101B80004120015500BF00BF012084F842004320DE
:101B90000155442001554520015500BF012084F81E
:101BA0003D000020D0E7000038B5044637492068E2
:101BB00088420FD100BF002000903548006840F0F7
:101BC0000100334908600846006800F001000090F9
:101BD00000BF5AE02068B0F1804F40D100BF002024
:101BE00000902B48001F006840F001002849091FA1
:101BF00008600846006800F00100009000BF00BFC8
:101C00002448254908604FF0C060486040212248C0
:101C100081600021C1604FF48061016189004161F0
:101C2000890081618911C161002101624162FEF771
:101C3000ADFD08B1FEF786FC00BF1749A16208465A
:101C4000846300BF00BF2163846300BF002211468C
:101C50001C20FFF721F91C20FFF70AF915E00F49B6
:101C60002068884211D100BF002000900848001F62
:101C7000006840F008000649091F0860084600682F
:101C800000F00800009000BF00BF38BD0000014018
:101C900044380240A06002404C060020000C004086
:101CA000014691F83D00012801D001207047022033
:101CB00081F83D000868C06840F001000B68D860FA
:101CC0001A4B086898421BD00868B0F1804F17D0B3
:101CD000174B0868984213D0164B086898420FD0EB
:101CE000154B086898420BD0144B0868984207D0EF
:101CF000134B0868984203D0124B086898420CD1E5
:101D00000868806800F00702062A0CD0086800689E
:101D100040F001000B68186005E00868006840F0BA
:101D200001000B6818600020C0E7000000000140BF
:101D30000004004000080040000C00400004014086
:101D400000400140001800402DE9F04104460D46D6
:101D5000002700BF94F83C00012802D10220BDE812
:101D6000F081012084F83C0000BF022084F83D008F
:101D70002068866826F0770626F47F46206886600D
:101D80002868502833D00CDC202850D004DC0028F0
:101D90004BD0102851D149E0302849D040284CD1AF
:101DA00039E060282DD0702807D0B0F5805F03D0CF
:101DB000B0F5005F41D10DE041E0D5E902136A685A
:101DC000206801F092FB2068866846F0770620685C
:101DD000866034E0D5E902136A68206801F085FB6B
:101DE0002068806840F480402168886027E0EA68C5
:101DF0006968206801F06AFC5021206801F080FBCE
:101E00001DE0EA686968206801F073FC60212068C1
:101E100001F076FB13E0EA686968206801F056FC7F
:101E20004021206801F06CFB09E000BF00BF00BF4B
:101E30002968206801F064FB01E0012700BF00BFB2
:101E4000012084F83D0000BF002084F83C0000BF62
:101E5000384684E72DE9F04104460D4614B90120C7
:101E6000BDE8F08194F83D0028B9002084F83C00DA
:101E7000204600F053F8022084F83D002068806876
:101E800044F20701884321688860211D206801F021
:101E9000A7FA2068D0F80880206886692068076A59
:101EA000286840EA080840F203308643A969A86818
:101EB00040EA0120064340F60C4086434FF2F00012
:101EC0008643E969E86840EA012006432869000181
:101ED000296A40EA0130064327F0220727F08807E5
:101EE0006969686840EA011007432068C0F8088003
:101EF0002068866120680762012084F8460084F823
:101F00003E0001213F200155012084F8420043207A
:101F10000155012084F83D000020A1E710B586B0EE
:101F20000446142101A8FEF716FA364920688842B3
:101F300030D100BF002000903348006840F004001A
:101F4000314908600846006800F00400009000BFB6
:101F500000BF00BF002000902B481038006840F000
:101F600008002949103908600846006800F0080098
:101F7000009000BF00BF4FF440500190022002903B
:101F80000020039004900220059001A91F48FEF74D
:101F900097FC34E01E492068884230D100BF002001
:101FA00000901948001D006840F002001649091D04
:101FB00008600846006800F00200009000BF00BF03
:101FC00000BF0020009010481038006840F0040066
:101FD0000D49103908600846006800F004000090C0
:101FE00000BF00BFC020019002200290002003909B
:101FF00004900320059001A90648FEF761FC06B095
:1020000010BD00000008004040380240000C0240B3
:1020100000040140000802402DE9F04304460D464B
:1020200094F83E603F20075D94F84280432010F80A
:1020300004906DB9012E02D1B8F1010F02D0012038
:10204000BDE8F083022084F83E0084F8420025E0D9
:10205000042D0CD1012F02D1B9F1010F01D00120C3
:10206000EEE702213F2001554320015516E0012EE5
:1020700007D1012F05D1B8F1010F02D1B9F1010F3C
:1020800001D00120DCE7022084F83E0002213F203D
:102090000155022084F842004320015515B1042D5A
:1020A0000CD105E001220021206801F00DFA10E0BA
:1020B00001220421206801F007FA0AE00122002130
:1020C000206801F001FA01220421206801F0FCF9E6
:1020D00000BF00BF2068006840F001002168086070
:1020E0000020ADE7704770B504462068C5682068D9
:1020F000066906F00200022819D105F00200022844
:1021000015D1401F2168086101202077206880696F
:1021100000F0030018B12046FFF7E4FF05E0204679
:1021200000F010F9204600F0C4F90020207706F0F6
:102130000400042819D105F00400042815D1C04377
:1021400021680861022020772068806900F44070CF
:1021500018B12046FFF7C6FF05E0204600F0F2F870
:10216000204600F0A6F90020207706F00800082895
:1021700019D105F00800082815D1C043216808616D
:10218000042020772068C06900F0030018B12046C1
:10219000FFF7A8FF05E0204600F0D4F8204600F045
:1021A00088F90020207706F01000102819D105F0DA
:1021B0001000102815D1C04321680861082020773D
:1021C0002068C06900F4407018B12046FFF78AFF0C
:1021D00005E0204600F0B6F8204600F06AF900203D
:1021E000207706F0010048B105F0010030B16FF032
:1021F000010021680861204600F05CF906F08000CB
:10220000802809D105F08000802805D1C0432168CD
:1022100008612046FFF7FDFB06F04000402809D189
:1022200005F04000402805D1C043216808612046E0
:1022300000F0DAF906F02000202809D105F020008E
:10224000202805D1C043216808612046FFF7E2FB42
:1022500070BD000010B586B00446142101A8FEF739
:102260007AF83349206888421DD100BF00200090D1
:102270003048006840F010002E49086008460068A9
:1022800000F01000009000BF00BF48150190022030
:1022900002900020039004900120059001A9264897
:1022A000FEF70EFB42E02068B0F1804F1DD100BF69
:1022B000002000901F48006840F001001D490860A0
:1022C0000846006800F00100009000BF00BF082031
:1022D00001900220029000200390049001200590BC
:1022E00001A91648FEF7ECFA20E01549206888425B
:1022F0001CD100BF002000900E48006840F0010093
:102300000C4908600846006800F00100009000BF1A
:1023100000BF012001900220029000200390049051
:102320000220059001A90548FEF7CAFA06B010BDC3
:10233000000001403038024000100240000002401E
:10234000000C004070472DE9F04104460D4616464A
:10235000002700BF94F83C00012802D10220BDE80C
:10236000F081012084F83C0000BF36B1042E1BD060
:10237000082E31D00C2E5ED145E02946206801F0B0
:10238000C9F82068806940F00800216888612068E9
:10239000806920F0040021688861206880692969CB
:1023A00008432168886148E02946206801F0EAF87E
:1023B0002068806940F40060216888612068806935
:1023C00020F480602168886120688069296940EA7A
:1023D00001202168886130E02946206801F010F969
:1023E0002068C06940F008002168C8612068C069A1
:1023F00020F004002168C8612068C0692969084389
:102400002168C86119E02946206801F035F9206883
:10241000C06940F400602168C8612068C06920F488
:1024200080602168C8612068C069296940EA01208C
:102430002168C86101E0012700BF00BF00BF002084
:1024400084F83C0000BF384689E710B504460CB953
:10245000012010BD94F83D0028B9002084F83C000C
:10246000204600F025F8022084F83D00211D206858
:1024700000F0B6FF012084F8460000BF84F83E005B
:1024800001213F200155402001554120015500BF49
:1024900000BF012084F8420043200155442001552B
:1024A0004520015500BF012084F83D000020D0E701
:1024B0007047704730B505464748854204D14748C4
:1024C0000068401C45490860444800684449884207
:1024D0007ED1002041490860002406E0A0B200231C
:1024E0001A46194601F032FA641C082CF6DB3D4806
:1024F0000068032808D83B49097801F00300192334
:102500000022114601F022FA3648006868B13548C9
:102510000068042809D833490978491E01F00300EE
:10252000FF230022114601F011FA2E48006802280C
:102530000DD32C480068052809D82A490978891E36
:1025400001F0030019230022114601F0FFF925488C
:10255000006803280AD82349097801F00301C1F172
:10256000070019230022114601F0F0F91D48006808
:1025700078B11C48006804280BD81A490978491E0C
:1025800001F00301C1F10700FF230022114601F011
:10259000DDF91448006802280FD3124800680528A6
:1025A0000BD810490978891E01F00301C1F1070019
:1025B00019230022114601F0C9F90A480068401C9D
:1025C0000849086008460068082803D1002000E098
:1025D00000E0086030BD00002C0500200000002055
:1025E0008038010004000020704710B504460CB983
:1025F000012010BDA06900B100E000BF94F84100C7
:1026000028B9002084F84000204600F029F8242052
:1026100084F841002068C06820F400502168C86038
:10262000204601F07BF82068006920F49040216882
:1026300008612068406920F02A002168486120680C
:10264000C06840F400502168C86000206064202009
:1026500084F8410084F842000020606300BFC8E7AE
:1026600010B586B00446142101A8FDF774FE1B497D
:102670002068884230D100BF0020009018480068D0
:1026800040F01000164908600846006800F010008D
:10269000009000BF00BF00BF002000901048143819
:1026A000006840F001000E491439086008460068CF
:1026B00000F00100009000BF00BF4FF4C060019027
:1026C0000220029000200390032004900720059030
:1026D00001A90448FEF7F4F806B010BD001001404F
:1026E000443802400000024000BFFEE72DE9F041FF
:1026F00007460C4615461E462A2000F015FA3846B5
:1027000000F003FA284600F000FA2B2000F00CFA43
:10271000204600F0FAF9304600F0F7F92C2000F0DE
:1027200003FABDE8F08170B504460D4616462B4607
:10273000224629462046FFF7D9FF304600F0E5F94A
:1027400070BD2DE9F04706460F4614461D46DDF8DC
:1027500020A0681E83B2601E82B239463046FFF761
:10276000C5FFB8460EE0B14606E0504600F0CDF990
:1027700009F101001FFA80F9A145F6DB08F101001B
:102780001FFA80F8A845EEDBBDE8F087704700002F
:1027900010B5FFF7FBFF6420FEF76EF86420FEF72C
:1027A0006BF8012220215C48FEF796F96420FEF7C1
:1027B00063F8112000F0B8F97820FEF75DF83620B4
:1027C00000F0B2F9702000F0A9F93A2000F0ACF95D
:1027D000052000F0A3F9B22000F0A6F90C2000F0CB
:1027E0009DF90C2000F09AF9002000F097F93320B1
:1027F00000F094F9332000F091F9B72000F094F93B
:10280000352000F08BF9BB2000F08EF9322000F06B
:1028100085F9C22000F088F9012000F07FF9C3207B
:1028200000F082F9152000F079F9C42000F07CF95D
:10283000202000F073F9C62000F076F90F2000F098
:102840006DF9D02000F070F9A42000F067F9A12004
:1028500000F064F9E02000F067F9D02000F05EF9A4
:10286000082000F05BF90E2000F058F9092000F074
:1028700055F9092000F052F9052000F04FF93120F8
:1028800000F04CF9332000F049F9482000F046F9F7
:10289000172000F043F9142000F040F9152000F053
:1028A0003DF9312000F03AF9342000F037F9E12009
:1028B00000F03AF9D02000F031F9082000F02EF9AC
:1028C0000E2000F02BF9092000F028F9092000F073
:1028D00025F9152000F022F9312000F01FF93320EE
:1028E00000F01CF9482000F019F9172000F016F943
:1028F000142000F013F9152000F010F9312000F039
:102900000DF9342000F00AF9212000F00DF92920FA
:1029100000F00AF910BD0000000402402DE9FF5F3D
:1029200080468A4617469B460F9D00200290CDF8B0
:102930000080284605EBD071C1F347042046E2171A
:1029400004EB5272D2102146E31704EB5373DB10F1
:10295000A4EBC3030BB1012300E000231A446A4334
:1029600092B20192A7F12000C7B20AEB0500401E07
:1029700083B208EB0400401E82B251464046FFF786
:10298000B5FE002669E00C2D07D107EB470035495D
:1029900001EB8000805D03901BE0102D05D13248D3
:1029A00000EB0710805D039013E0182D07D107EBB3
:1029B00047002E4901EB0010805D039009E0202DB7
:1029C00005D12B4800EB8710805D039001E0BDE846
:1029D000FF9F4FF000093AE01098C8B9012000FAB3
:1029E00009F00399084018B1584600F08EF802E04B
:1029F0000E9800F08AF80298401CC0B2029002982B
:102A000090FBF4F104FB1100E8B90020029021E0F2
:102A1000012000FA09F00399084020B15A465146B6
:102A20004046FFF780FE08F101001FFA80F8009889
:102A3000A8EB0000A04206D1DDF800800AF10100F9
:102A40001FFA80FA06E009F1010000F0FF09B9F170
:102A5000080FC1DB00BF701C86B20198864292DB72
:102A600000BFB4E7D03A0008443F000834450008EE
:102A7000045700082DE9FF4F85B0074691461D46D3
:102A8000DDE913A600200490304606EBD071C1F3B7
:102A9000470B002434E0281B401EC1B20A2001F07D
:102AA00007F8B9FBF0F00A21B0FBF1F201FB1208C4
:102AB0000498A0B9681EA04211DDB8F1000F0CD136
:102AC000002004FB0B71CDE900A6029088B2202201
:102AD000129B0699FFF722FF10E0012004900020CE
:102AE00008F13001CAB204FB0B71CDE900A60290D7
:102AF00088B2129B0699FFF711FF00BF601CC4B299
:102B0000AC42C8DB09B0BDE8F08F10B50446201216
:102B100000F01EF8E0B200F01BF810BD10B504463E
:102B2000204600F015F810BD10B5044600224FF401
:102B300000610648FDF7D0FF204600F009F80122A9
:102B4000D1020248FDF7C8FF10BD00000008024096
:102B500001B500224FF400410748FDF7BDFF4FF4D7
:102B60007A73012269460548FEF75AFE0122D10315
:102B70000148FDF7B1FF08BD000002408C040020B1
:102B800008B500BF002000900A48006840F400101B
:102B9000084908600846006800F40010009000BF73
:102BA00000BF002211461120FEF776F91120FEF732
:102BB0005FF908BD3038024000B587B0142102A883
:102BC000FDF7C9FB00BF002001906748006840F096
:102BD0001000654908600846006800F01000019088
:102BE00000BF00BF00BF002001900846006840F011
:102BF000800008600846006800F08000019000BF77
:102C000000BF00BF002001900846006840F00400AB
:102C100008600846006800F00400019000BF00BF93
:102C200000BF002001900846006840F001000860E5
:102C30000846006800F00100019000BF00BF00BF1F
:102C4000002001900846006840F002000860084635
:102C5000006800F00200019000BF00BF00BF00202C
:102C600001900846006840F00800086008460068C7
:102C700000F00800019000BF00BF012204213B4882
:102C8000FDF72AFF002248F206013948FDF724FF2C
:102C900000224FF411613748FDF71EFF00224FF468
:102CA000C0713248FDF718FF002220213248FDF79D
:102CB00013FF04200290112003900020049005903F
:102CC00002A92A48FDF7FCFD0C2002904FF40410E5
:102CD00003900120049002A92648FDF7F1FD48F277
:102CE000060002900120039000200490059002A9A4
:102CF0001F48FDF7E5FD4FF411600290012003909D
:102D000000200490059002A91A48FDF7D9FD4FF460
:102D1000C07002900120039000200490059002A949
:102D20001248FDF7CDFD4FF4405002904FF40410CF
:102D300003900120049002A90F48FDF7C1FD202057
:102D400002900120039000200490059002A90A48F7
:102D5000FDF7B6FD002211462820FEF79DF8282039
:102D6000FEF786F807B000BD303802400010024080
:102D700000000240000802400004024010B50B4869
:102D80000B4908600B484860002109488160C16018
:102D90004FF480410161002141618161C1610162A3
:102DA000FDF7A6FE08B1FDF7CDFB10BD005C0040AD
:102DB000E0030020A086010010B50E480E4908600F
:102DC0004FF48270486000210B488160C16001614E
:102DD00041614FF4007181610021C1610162416272
:102DE00081620A21C162FEF737FC08B1FDF7AAFB38
:102DF00010BD0000003001403404002010B50F4821
:102E00000F4908604FF4827048604FF400410C484D
:102E100081600021C160016141614FF400718161F5
:102E20000021C1610162416281620A21C162FEF733
:102E300013FC08B1FDF786FB10BD0000003C00400C
:102E40008C04002000B595B00020119012901390D2
:102E500014900F9010901C2108A8FDF77CFA2021F7
:102E60006846FDF778FA2B482B4908600020486037
:102E70000021294881604FF6FF71C1600021016186
:102E800041618161FEF75CFE08B1FDF75BFB4FF429
:102E90008050119011A92048FEF756FF08B1FDF7A8
:102EA00051FB1D48FFF7D1FA08B1FDF74BFB00209D
:102EB0000F9010900FA91848FEF7E8FD08B1FDF734
:102EC00041FB60200890002009900A900B900C9024
:102ED0000D900E90002208A90F48FFF734FA08B1B0
:102EE000FDF730FB002000900190029003900490C9
:102EF0004FF4005005900020079069460648FEF701
:102F00008AFD08B1FDF71EFB0348FFF7A3F915B0D2
:102F100000BD000000000140E404002000B58DB0B9
:102F2000002009900A900B900C90079008901C21AB
:102F30006846FDF710FA4FF08040204908600020F5
:102F4000486000211D4881606821C1600021016145
:102F500080218161FEF7F4FD08B1FDF7F3FA4FF42B
:102F60008050099009A91548FEF7EEFE08B1FDF75B
:102F7000E9FA1248FFF769FA08B1FDF7E3FA002011
:102F80000790089007A90D48FEF780FD08B1FDF7EE
:102F9000D9FA602000900020019002900420049053
:102FA0000C2269460548FFF7CEF908B1FDF7CAFAC9
:102FB0000248FFF74FF90DB000BD00002C050020BE
:102FC00000B58BB0242102A8FDF7C5F900200090C0
:102FD00001901848184908600020486010211648E0
:102FE00081604FF6FF71C1600021016181610120A4
:102FF000029000200390012004900020059006908C
:10300000079001200890002009900A9002A90A4820
:10301000FEF720FF08B1FDF795FA0020009001901F
:1030200069460548FEF732FD08B1FDF78BFA0BB093
:1030300000BD0000000800407405002000B58DB000
:10304000002009900A900B900C90079008901C218A
:103050006846FDF780F91F481F4908600020486056
:1030600000211D488160491EC1600021016181610C
:10307000FEF766FD08B1FDF765FA4FF48050099040
:1030800009A91548FEF760FE08B1FDF75BFA124882
:10309000FFF7DBF908B1FDF755FA0020079008901B
:1030A00007A90D48FEF7F2FC08B1FDF74BFA6020C6
:1030B000009000200190029004900022694606488A
:1030C000FFF741F908B1FDF73DFA0348FFF7C2F8F1
:1030D0000DB000BD000C0040BC05002000B58BB059
:1030E000242102A8FDF737F900200090019018482C
:1030F00018490860002048600021164881604FF69A
:10310000FF71C16000210161416181610120029074
:103110000020039001200490002005900690079065
:1031200001200890002009900A9002A90948FEF7A2
:1031300091FE08B1FDF706FA002000900190694663
:103140000448FEF7A3FC08B1FDF7FCF90BB000BD85
:10315000000401400406002010B50B480B4908602C
:103160004FF4E1304860002108488160C16001618E
:103170000C21416100218161C161FFF736FA08B17C
:10318000FDF7E0F910BD000000100140AC06002082
:1031900000BFFEE700BFFEE7704700007CB50446B5
:1031A0000E4615463346012202212046009500F0C6
:1031B00039F828B1606D40F02000606503207CBDC7
:1031C000164800681821B0FBF1F01549B0FBF1F08A
:1031D0004FF47A71484301906068B0F5827F0DD159
:1031E0003346002280212046009500F01BF898B15C
:1031F000606D40F0200060650320E0E700BF0198AB
:1032000000B908E00198401E019020688068C0F372
:10321000C0100028F3D100BF0020D0E71400002028
:1032200040420F002DE9F84F04460D4690461E46D9
:10323000DDF82890FDF756FCA0EB0900371AFDF7E2
:1032400051FC82462C480068C0F3CB307843009094
:1032500045E0701C002842D0FDF744FCA0EB0A00BA
:10326000B84200D2A7BB2068406820F0E000216887
:1032700048606068B0F5827F0DD1A068B0F5004F5E
:1032800003D0A068B0F5806F05D12068006820F0F9
:10329000400021680860A06AB0F5005F0DD100BF52
:1032A0002068006820F400502168086020680068E9
:1032B00040F400502168086000BF012084F85100EC
:1032C00000BF002084F8500000BF0320BDE8F88F45
:1032D000FFE7009800B900270098401E0090206882
:1032E00080682840A84201D1012000E0002040452C
:1032F000AFD10020EAE7000014000020704710B5AD
:10330000FDF742FD10BD000000B593B0302107A8C5
:10331000FDF721F8142102A8FDF71DF800BF0020D9
:1033200001902448006840F0805022490860084617
:10333000006800F08050019000BF00BF00BF002077
:1033400001901D48006840F480401B490860084611
:10335000006800F48040019000BF00BF012007908A
:103360000004089002200D9041050E9104210F9158
:10337000A8211091022111910421129107A8FDF7B3
:103380001DFF08B1FDF7DEF80F2002900220039028
:10339000002004904FF4A05005904FF48050069008
:1033A000052102A8FDF7CAFD08B1FDF7CBF813B05F
:1033B00000BD000040380240007000400348006833
:1033C00040F47000014908607047000088ED00E09B
:1033D00010B50248FEF787FE10BD00002C05002046
:1033E00010B502682D4B98420ED0B0F1804F0BD033
:1033F0002B4B984208D02B4B984205D02A4B984231
:1034000002D02A4B984203D122F070024B681A4333
:10341000224B984220D0B0F1804F1DD0204B9842D3
:103420001AD0204B984217D01F4B984214D01F4BF4
:10343000984211D01E4B98420ED01E4B98420BD092
:103440001D4B984208D01D4B984205D01C4B98420A
:1034500002D01C4B984203D122F44072CB681A432D
:1034600022F080034C6943EA040202608B68C36265
:103470000B688362094B984202D00C4B984201D1F1
:103480000B69036301234361036903F001031BB16B
:10349000036923F00103036110BD00000000014037
:1034A0000004004000080040000C004000040140FF
:1034B0000040014000440140004801400018004025
:1034C000001C00400020004030B501F01F05012421
:1034D00004FA05F3046A9C430462046A01F01F05C0
:1034E00002FA05F52C43046230BD30B50C46816804
:1034F00021F47F4142EA032525432943816030BD01
:103500000A46816821F0700142F007031943816087
:103510007047000030B5026A056A25F001050562B2
:103520004368846924F0700424F003040D682C437C
:1035300022F002028D682A43104DA84200D103E018
:103540000F4DA84206D100BF22F00802CD682A43E1
:1035500022F00402094DA84202D0094DA84207D129
:1035600023F4807323F400734D692B438D692B433F
:10357000436084614D684563026230BD00000140D4
:103580000004014030B5026A056A25F010050562A5
:103590004368846924F4E04424F440740D6844EAE8
:1035A000052422F020028D6842EA0512124DA8423D
:1035B00000D103E0114DA84207D100BF22F08002E4
:1035C000CD6842EA051222F040020B4DA84202D01B
:1035D0000A4DA84209D123F4806323F400634D69A6
:1035E00043EA85038D6943EA8503436084614D683E
:1035F0008563026230BD000000000140000401400C
:1036000030B5026A056A25F4807505624368C469AD
:1036100024F0700424F003040D682C4322F400729B
:103620008D6842EA0522124DA84200D103E0114DF7
:10363000A84207D100BF22F40062CD6842EA052209
:1036400022F480620A4DA84202D00A4DA84209D154
:1036500023F4805323F400534D6943EA05138D6925
:1036600043EA05134360C4614D68C563026230BD1F
:10367000000001400004014030B5036A056A25F4EA
:10368000805505624468C26922F4E04222F4407227
:103690000D6842EA052223F400538D6843EA05339E
:1036A000084DA84202D0084DA84204D124F4804419
:1036B0004D6944EA85144460C2614D680564036243
:1036C00030BD0000000001400004014030B50B4651
:1036D0001446026A056A25F001050562816921F038
:1036E000F00141EA041122F00A021A4381610262E8
:1036F00030BD30B50B461446026A056A25F0100548
:103700000562816921F4704141EA043122F0A0028E
:1037100042EA03128161026230BD00002DE9F84FD8
:1037200004462068006920F44050E168084321689D
:1037300008612169A068084361690843E169084399
:1037400000902068C06849F20C61884300990843E2
:103750002168C8602068406920F44070A16908436E
:103760002168486176492068884203D075492068FD
:10377000884203D1FDF7BAFC814602E0FDF7A6FCC2
:103780008146E069B0F5004F6CD102206168A0FB72
:10379000015003461920A9FB007001462A4638460D
:1037A000FCF762FD6421B0FBF1F04FEA001A022041
:1037B0006168A0FB01510B461920A9FB00712A4644
:1037C0003846FCF751FD834602206168A0FB01509A
:1037D00003461920A9FB00712A463846FCF744FD30
:1037E0006421B0FBF1F000EBC00101EB0010ABEB8A
:1037F0008000322101EBC0006421B0FBF1F000F049
:10380000F8000AEB400A02206168A0FB0150034661
:103810001920A9FB007001462A463846FCF724FD12
:10382000834602206168A0FB015003461920A9FBD2
:1038300000712A463846FCF717FD6421B0FBF1F011
:1038400000EBC00101EB0010ABEB8000322101EB7B
:10385000C0006421B0FBF1F000F007005044216883
:1038600088606AE004206168A0FB015003461920CB
:10387000A9FB007001462A463846FCF7F5FC824653
:1038800004206168A0FB015003461920A9FB0070C9
:1038900001462A463846FCF7E7FC6421B0FBF1F00C
:1038A00000EBC00101EB0010AAEB8000322101EB1C
:1038B00000106421B0FBF1F000F0F00A0420616810
:1038C000A0FB017003461920A9FB00513A46284687
:1038D000FCF7CAFC6421B0FBF1F00AEB001A0420EB
:1038E0006168A0FB01510B461920A9FB00712A4613
:1038F0003846FCF7B9FC834604206168A0FB015000
:1039000003461920A9FB007001462A463846FCF7F9
:10391000ABFC6421B0FBF1F000EBC00101EB001047
:10392000ABEB8000322101EB00106421B0FBF1F021
:1039300000F00F00504421688860BDE8F88F000057
:10394000001001400014014000BFFEE7F0B504463E
:103950000D4604EB4400C10000202AE002FA00F604
:1039600006F080060EB1462600E023260F18DFF889
:1039700048C04CF8276005FA00F606F080060EB144
:10398000462700E023270E180836DFF82CC04CF835
:10399000267003FA00F606F080060EB1462700E016
:1039A00023270E181036DFF810C04CF82670461C7E
:1039B000F0B20828D2DBF0BD1800002002480068F1
:1039C000C0F30220704700000CED00E010B50028A5
:1039D00004DB0A07130E054A135406E00A07140E07
:1039E000034A00F00F031B1FD45410BD00E400E095
:1039F00018ED00E00EB5FDF7D3F9FFF785FCFFF7F2
:103A0000DBF8FFF7BDF8FFF7B9F9FFF7D5F9FFF7D6
:103A1000F5F9FFF783FAFFF79FFBFFF713FAFFF7BC
:103A2000CFFAFFF70BFBFFF759FB00BF1D48FEF76E
:103A300037F9FEF7ADFE0020F0231A46014600904C
:103A4000FEF77FFE002400253C211748FEF7E4FA2C
:103A50003C211648FEF7E0FA22E013480068406A6D
:103A600084B212480068406A85B2102000214FF6E7
:103A7000FF72CDE900210290121B05230846FEF7D4
:103A8000F9FF102000214FF6FF720523CDE9002138
:103A900002902A467820FEF7EDFF6420FCF7ECFE4A
:103AA000DBE700002C050020740500200406002040
:103AB00010B50246012000E050430B1EA1F10104A5
:103AC000E1B2F9D110BD4FF04070E1EE100A70473D
:103AD00000000000000000000000000000000404DE
:103AE000040404000004000014140A000000000094
:103AF0000000000000000A0A1F0A0A1F0A0A00004C
:103B000000040E1505060C14150E04000000121515
:103B10000D152E2C2A1200000000040A0A36151575
:103B20002916000002020100000000000000000051
:103B3000100808040404040408081000020404081F
:103B4000080808080404020000000004150E0E1501
:103B50000400000000000008083E08080000000003
:103B60000000000000000000020201000000000050
:103B7000003F000000000000000000000000000006
:103B800000020000002010100808040402020100D6
:103B900000000E1111111111110E00000000040699
:103BA00004040404040E000000000E1111080402B5
:103BB000011F000000000E11100C1010110E00006B
:103BC0000000080C0C0A091F081C000000001F015F
:103BD000010F1110110E000000000C12010D131145
:103BE000110E000000001E10080804040404000068
:103BF00000000E11110E1111110E000000000E1127
:103C00001119161009060000000000000400000051
:103C10000004000000000000000400000004040094
:103C20000000100804020204081000000000000058
:103C30003F003F00000000000000020408101008D0
:103C40000402000000000E1111080404000400002A
:103C500000001C22292D2D1D221C00000000040440
:103C60000C0A0A1E1233000000000F12120E12126C
:103C7000120F000000001E1101010101110E0000D1
:103C800000000F1212121212120F000000001F1279
:103C90000A0E0A02121F000000001F120A0E0A027A
:103CA0000207000000001C1201013911120C000073
:103CB00000003312121E12121233000000001F0403
:103CC00004040404041F000000003E08080808085B
:103CD00008080907000037120A060A121237000006
:103CE0000000070202020202223F000000003B1B0C
:103CF0001B1B15151535000000003B1216161A1A6D
:103D00001217000000000E1111111111110E000008
:103D100000000F12120E02020207000000000E1136
:103D200011111117190E180000000F12120E0A12AD
:103D30001237000000001E1101060810110F0000CC
:103D400000001F1504040404040E000000003312D8
:103D500012121212120C000000003312120A0A0C86
:103D6000040400000000151515150E0A0A0A0000CB
:103D700000001B0A0A04040A0A1B000000001B0AB8
:103D80000A0A0404040E000000001F0908040402CB
:103D9000121F00001C0404040404040404041C0096
:103DA0000002020404040808081010000E080808A5
:103DB0000808080808080E00040A000000000000B7
:103DC0000000000000000000000000000000003FB4
:103DD00002040000000000000000000000000000DD
:103DE000000C121C123C000000030202020E121210
:103DF000120E000000000000001C1202120C000055
:103E000000181010101C1212123C000000000000DC
:103E1000000C121E021C000000182404041E0404DE
:103E2000041E000000000000003C120C021C221CBA
:103E300000030202020E12121237000000040400F6
:103E400000060404040E000000080800000C080826
:103E50000808080700030202021A0A060A130000F3
:103E60000007040404040404041F00000000000010
:103E7000000F15151515000000000000000F1212AC
:103E80001237000000000000000C1212120C00009B
:103E900000000000000F1212120E020700000000C6
:103EA000001C1212121C103800000000001B060239
:103EB0000207000000000000001E020C101E00009F
:103EC00000000004041E0404041C000000000000A4
:103ED000001B1212123C000000000000001B0A0A26
:103EE00004040000000000000015150E0A0A00007E
:103EF00000000000001B0A040A1B00000000000074
:103F0000003312120C08040300000000001E080415
:103F1000041E000018080808080C08080808180003
:103F2000080808080808080808080808060404041F
:103F30000408040404040600160900000000000040
:103F40000000000000000000000000000000000071
:103F50000000000000000008080808080808000029
:103F60001818000000486C24120000000000000037
:103F7000000000000000002424247F1212127F128F
:103F8000121200000000081C2A2A0A0C1828282AED
:103F90002A1C080800000022251515152A5854541B
:103FA000542200000000000C1212120A762529117A
:103FB000916E0000000606040300000000000000EF
:103FC0000000000000402010100808080808081031
:103FD00010204000000204080810101010101008F3
:103FE000080402000000000008086B1C1C6B080895
:103FF0000000000000000000080808087F0808080A
:1040000008000000000000000000000000000000A8
:10401000060604030000000000000000FE0000008F
:104020000000000000000000000000000000000090
:104030000606000000008040402020101008080400
:10404000040202000000001824424242424242425E
:1040500024180000000000080E08080808080808D6
:10406000083E00000000003C4242422020100804AC
:10407000427E00000000003C4242201820404042A6
:10408000221C0000000000203028242422227E2050
:10409000207800000000007E0202021A2640404202
:1040A000221C0000000000382402021A264242426C
:1040B000241800000000007E2222101008080808C2
:1040C000080800000000003C4242422418244242FA
:1040D000423C000000000018244242426458404024
:1040E000241C000000000000000018180000000060
:1040F0001818000000000000000000080000000088
:104100000008080400000040201008040204081001
:10411000204000000000000000007F0000007F0041
:1041200000000000000000020408102040201008D9
:10413000040200000000003C4242464020101000F3
:10414000181800000000001C225A555555552D42E4
:10415000221C00000000000808181414243C22420D
:1041600042E700000000001F2222221E224242429B
:10417000221F00000000007C4242010101010142B7
:10418000221C00000000001F2242424242424242E2
:10419000221F00000000003F4212121E12120242B3
:1041A000423F00000000003F4212121E12120202A3
:1041B000020700000000003C2222010101712122BF
:1041C000221C0000000000E7424242427E4242427E
:1041D00042E700000000003E080808080808080838
:1041E000083E00000000007C10101010101010108D
:1041F0001010110F0000007722120A0E0A1212226C
:1042000022770000000000070202020202020202FE
:10421000427F000000000077363636362A2A2A2AE6
:104220002A6B0000000000E346464A4A525252629E
:10423000624700000000001C2241414141414141D0
:10424000221C00000000003F424242423E020202A5
:10425000020700000000001C2241414141414D5332
:10426000321C60000000003F4242423E12122222F5
:1042700042C700000000007C424202041820404275
:10428000423E00000000007F4908080808080808AE
:10429000081C0000000000E7424242424242424203
:1042A000423C0000000000E742422224241414187B
:1042B000080800000000006B49494949555536225D
:1042C00022220000000000E74224241818182424A9
:1042D00042E70000000000772222141408080808B2
:1042E000081C00000000007E212010100804044279
:1042F000423F000000780808080808080808080875
:1043000008087800000002020404080808101020C1
:1043100020204040001E101010101010101010101F
:1043200010101E00003844000000000000000000D3
:10433000000000000000000000000000000000007D
:10434000000000FF00060800000000000000000060
:1043500000000000000000000000003C42784442E1
:1043600042FC0000000000030202021A2642424200
:10437000261A00000000000000000038440202027B
:10438000443800000000006040404078444242420F
:1043900064D80000000000000000003C427E0202E1
:1043A000423C0000000000F08808087E0808080869
:1043B000083E0000000000000000007C22221C02D9
:1043C0003C42423C000000030202023A46424242A2
:1043D00042E700000000000C0C00000E080808086E
:1043E000083E00000000003030000038202020206F
:1043F0002020221E0000000302020272120A16127E
:10440000227700000000000E0808080808080808C5
:10441000083E0000000000000000007F929292928F
:1044200092B70000000000000000003B46424242FC
:1044300042E70000000000000000003C424242420F
:10444000423C0000000000000000001B26424242E7
:10445000221E020700000000000000784442424291
:10446000447840E000000000000000774C040404A1
:10447000041F0000000000000000007C42023C40DD
:10448000423E0000000000000008083E080808083E
:104490000830000000000000000000634242424279
:1044A00062DC000000000000000000E74224241449
:1044B0000808000000000000000000EB49495555C5
:1044C00022220000000000000000007624181818C6
:1044D000246E000000000000000000E742242414C5
:1044E00018080807000000000000007E22100808DD
:1044F000447E000000C0202020202010202020200A
:104500002020C000101010101010101010101010EB
:1045100010101010000608080808081008080808FD
:10452000080806000C32C200000000000000000075
:10453000000000000000000000000000000000007B
:10454000000000000000000000000000000000006B
:10455000000000000000000000000000000000005B
:10456000000000000000000000000000600060008B
:1045700060006000600060006000400020002000DB
:1045800020000000000000006000600060000000EB
:104590000000000000000000600660063003980183
:1045A000880044000000000000000000000000003F
:1045B00000000000000000000000000000000000FB
:1045C00000000000000000000000000010021002C7
:1045D00010021002FE07FE07080208010801080188
:1045E0000801FE07FE0704010401040104010000A4
:1045F0000000000000000000000040004000F0014A
:1046000058034C03CC034C0058007000E000C0017C
:10461000C00140034C035C034C034801F000400020
:104620004000000000000000000000000E010A0130
:10463000910091009100510051003A00AE03A00298
:1046400050045004480448044804840284030000D1
:1046500000000000000000000000000038006C00B6
:104660006C006C006C006C002C0098071C011A0197
:10467000330133016301E300C308C6093C070000AE
:1046800000000000000000000C001C0010001000E2
:10469000080004000000000000000000000000000E
:1046A000000000000000000000000000000000000A
:1046B0000000000000000000000400020001800073
:1046C000800040004000200020002000200020004A
:1046D0002000200040004000800080000001000217
:1046E00000040000000000000200040008001000A8
:1046F000100020002000400040004000400040002A
:1047000040004000200020001000100008000400BD
:104710000200000000000000000000000000000097
:104720004000C0004000460C4E0FD001F0015E0F6B
:10473000460C400040004000000000000000000067
:104740000000000000000000000000000000000069
:10475000000040004000400040004000FE0F4000CC
:104760004000400040004000000000000000000049
:104770000000000000000000000000000000000039
:104780000000000000000000000000000000000029
:1047900000000000000000000C001C0010001000D1
:1047A00008000400000000000000000000000000FD
:1047B000000000000000000000000000FE070000F4
:1047C00000000000000000000000000000000000E9
:1047D00000000000000000000000000000000000D9
:1047E00000000000000000000000000000000000C9
:1047F00000000000000000001C001C001C00000065
:104800000000000000000000000400060002000399
:104810000001000180008000400040006000200096
:10482000200010001000080008000C000400060022
:104830000200000000000000000000000000F00086
:1048400098010C030C030606060606060606060675
:104850000606060606060C030C039801F00000008D
:104860000000000000000000000000000000400008
:104870007C0060006000600060006000600060001C
:10488000600060006000600060006000FC030000E9
:104890000000000000000000000000000000F80020
:1048A0008401020306030603000300018001C00027
:1048B000600020001000080204020602FE0300004F
:1048C0000000000000000000000000000000780070
:1048D000C6008601860180018001C0007000800151
:1048E000000100030003060306038601F800000030
:1048F0000000000000000000000000000000800137
:104900008001C001A001A0019001880188018401FB
:104910008201FE0F8001800180018001E00700001C
:104920000000000000000000000000000000FC0388
:1049300004000400040004000400F4008C010403DB
:10494000000300030603060382018401F80000004F
:104950000000000000000000000000000000E00176
:1049600018030C030C0004000600E60116030E06F3
:1049700006060606060604060C021803F0000000F0
:104980000000000000000000000000000000F80728
:104990000C060402040100010001800080004000B8
:1049A00040004000600060006000600060000000A7
:1049B0000000000000000000000000000000F801FE
:1049C0000C030606060606060C021C03F000C801CE
:1049D0000C0306060606060606060C03F001000098
:1049E0000000000000000000000000000000F000D7
:1049F0000C010C03060206060606060606078C06D0
:104A000078060006000300030C018C01780000000A
:104A10000000000000000000000000000000000096
:104A20000000000000000000E000E000E0000000E6
:104A30000000000000000000E000E000E0000000D6
:104A40000000000000000000000000000000000066
:104A50000000000000000000600060000000000096
:104A60000000000000000000000060006000400046
:104A700020002000000000000000000000040002F0
:104A80000001800040002000100008000400080021
:104A9000100020004000800000010002000400001F
:104AA0000000000000000000000000000000000006
:104AB0000000000000000000FE07000000000000F1
:104AC000FE070000000000000000000000000000E1
:104AD00000000000000000000000000004000800CA
:104AE00010002000400080000001000200040002CD
:104AF00000018000400020001000080004000000B9
:104B00000000000000000000000000000000E003C2
:104B10001806040C040C0C0C0C0C0007800140005F
:104B20004000400000000000E000E000E000000065
:104B3000000000000000000000000000E00018037A
:104B40000C02CC0564056605A605B604B604B604D9
:104B5000B604B602E4010C040C021803F0000000D5
:104B600000000000000000000000000000006000E5
:104B700060005000D000900090008800880108017B
:104B8000F801040304030402020202060F0F0000EE
:104B90000000000000000000000000000000FE0017
:104BA0008C030C030C030C030C038C01FC000C03A2
:104BB0000C020C060C060C060C060C03FE01000091
:104BC0000000000000000000000000000000E00302
:104BD00018030C060C040404060006000600060078
:104BE0000600060006040C040C021803F000000086
:104BF00000000000000000000000000000007F0036
:104C00008C010C030C030C060C060C060C060C069F
:104C10000C060C060C060C030C038C017F00000034
:104C20000000000000000000000000000000FF0382
:104C3000060306040604060086008600FE008600C1
:104C4000860086000600060406040602FF03000034
:104C50000000000000000000000000000000FF0352
:104C6000060306040604060086008600FE00860091
:104C70008600860006000600060006001F000000F1
:104C80000000000000000000000000000000F00034
:104C900018010C020C0204020600060006000600C1
:104CA000C60F060306030C030C031803F0000000F4
:104CB00000000000000000000000000000000F0FD6
:104CC000060606060606060606060606FE0706068B
:104CD0000606060606060606060606060F0F00006E
:104CE0000000000000000000000000000000FC03C5
:104CF00060006000600060006000600060006000B4
:104D0000600060006000600060006000FC03000064
:104D10000000000000000000000000000000F80794
:104D2000C000C000C000C000C000C000C000C00083
:104D3000C000C000C000C000C000C000C000C6006D
:104D400066003C0000000000000000000000CF03EF
:104D50008601C60046002600160036002E006E00B2
:104D60004600C60086008601060106038F07000084
:104D700000000000000000000000000000001F0014
:104D800006000600060006000600060006000600F3
:104D9000060006000600060406040602FF030000E3
:104DA00000000000000000000000000000000707F5
:104DB000860386038E038E034E034E034A035A0373
:104DC0005A033A0332033203320312038707000007
:104DD00000000000000000000000000000008E0F36
:104DE0000C021C021C0234023402640264024402FB
:104DF000C402840284038403040304031F0200002A
:104E00000000000000000000000000000000F000B2
:104E100098010C030C0206060606060606060606A0
:104E20000606060606060C020C039801F0000000B8
:104E30000000000000000000000000000000FF0073
:104E40000603060606060606060606068603FE0096
:104E50000600060006000600060006001F0000000F
:104E60000000000000000000000000000000F00052
:104E700098010C030C020606060606060606060640
:104E80000606060676064C02CC039801F000800761
:104E90000003000000000000000000000000FF010F
:104EA000060306060606060606060603FE0046007C
:104EB000C600860086010603060306060F0E0000E4
:104EC0000000000000000000000000000000F802E8
:104ED0000C030602060206000E003C00F800E00388
:104EE000800300070206020606060C03F00100001C
:104EF0000000000000000000000000000000FE07AD
:104F00006204610861086000600060006000600089
:104F1000600060006000600060006000F801000058
:104F200000000000000000000000000000001E075C
:104F30000C020C020C020C020C020C020C020C0201
:104F40000C020C020C020C020C021801F000000012
:104F500000000000000000000000000000000F073B
:104F60000602040104010C010C018800880098006D
:104F70009800500050007000300020002000000019
:104F80000000000000000000000000000000F70E1C
:104F9000620442044604460464026402E402E40239
:104FA0009C029C01980198018801880088000000FB
:104FB00000000000000000000000000000009E074C
:104FC0000C01080118019000B00060002000600092
:104FD0006000D00090008801080104038E070000E3
:104FE00000000000000000000000000000000F0FA3
:104FF000060404020C0208011801B800B000700099
:10500000600060006000600060006000F801000067
:105010000000000000000000000000000000FC078D
:105020000C020603020180018000400040002000C5
:1050300020001000180008040C040402FE03000005
:105040000000000000000000E0032000200020001D
:105050002000200020002000200020002000200050
:105060002000200020002000200020002000200040
:10507000E003000000000000000000000400040045
:105080000800080010001000100020002000400060
:105090004000C0008000800000010001000200020A
:1050A00000020004000000007C00400040004000BE
:1050B00040004000400040004000400040004000F0
:1050C00040004000400040004000400040004000E0
:1050D0007C0000000000600090000801000000005B
:1050E00000000000000000000000000000000000C0
:1050F00000000000000000000000000000000000B0
:10510000000000000000000000000000000000009F
:10511000000000000000000000000000000000008F
:10512000000000000000000000000000000000007F
:105130000000FF0F000000001800600000000000E9
:10514000000000000000000000000000000000005F
:10515000000000000000000000000000000000004F
:10516000000000000000000000000000000000003F
:105170000000000000000000F0010C030C0300031D
:10518000E0031C030E03060306038E0B7C0E0000D7
:1051900000000000000000000000000008000E00F9
:1051A0000C000C000C000C00CC013C031C060C068F
:1051B0000C060C060C060C060C021C03E401000095
:1051C00000000000000000000000000000000000DF
:1051D0000000000000000000F0008C018C0186013E
:1051E00006000600060006020C020C01F00000009A
:1051F0000000000000000000000000000002C003EA
:10520000000300030003000378038C030C03060370
:10521000060306030603060304038C077801000057
:10522000000000000000000000000000000000007E
:105230000000000000000000E001180308020C0656
:105240000C06FC070C000C0018041802E00100001A
:105250000000000000000000000000000000C0038B
:105260006006300630003000FE01300030003000B3
:10527000300030003000300030003000FC01000011
:10528000000000000000000000000000000000001E
:105290000000000000000000F007D8068C018C011F
:1052A0008C019801F8000C00FC00CC0306030603F7
:1052B0008E03F800000000000000000008000E004F
:1052C0000C000C000C000C00EC011C030C030C0384
:1052D0000C030C030C030C030C030C039E070000CF
:1052E000000000000000000000000000000060005E
:1052F00060000000000040007C0060006000600072
:10530000600060006000600060006000FC0300005E
:105310000000000000000000000000000000C001CC
:10532000C001000000000001F00180018001800147
:105330008001800180018001800180018001800165
:10534000CC007C00000000000000000008000E00FF
:105350000C000C000C000C008C038C008C004C002A
:105360006C005C008C008C010C010C039E0700009B
:1053700000000000000000000000000040007C0071
:10538000600060006000600060006000600060001D
:10539000600060006000600060006000FC030000CE
:1053A00000000000000000000000000000000000FD
:1053B00000000000000000003707EE0666066606E3
:1053C000660666066606660666066606FF0F000047
:1053D00000000000000000000000000000000000CD
:1053E0000000000000000000EE011C030C030C0391
:1053F0000C030C030C030C030C030C039E070000AE
:10540000000000000000000000000000000000009C
:105410000000000000000000F00098010C030606E8
:1054200006060606060606060C030C03F00000003E
:10543000000000000000000000000000000000006C
:105440000000000000000000EE011C030C060C062A
:105450000C060C060C060C060C031C03EC010C00DD
:105460000C003E00000000000000000000000000F2
:10547000000000000000000078028C030C0306030B
:10548000060306030603060304038C0378030003E4
:105490000003C00700000000000000000000000042
:1054A00000000000000000009F03580638061800A6
:1054B000180018001800180018001800FF0000005D
:1054C00000000000000000000000000000000000DC
:1054D0000000000000000000F0031C030C020C029E
:1054E0003800F000C003040304038C03FC01000037
:1054F00000000000000000000000000000000000AC
:105500002000200030003000FE013000300030006C
:10551000300030003000300030023002E001000086
:10552000000000000000000000000000000000007B
:1055300000000000000008028E030C030C030C03A3
:105540000C030C030C030C030C039C0778010000F4
:10555000000000000000000000000000000000004B
:1055600000000000000000001E070C0208010801F6
:1055700018019000B000B000600060002000000042
:10558000000000000000000000000000000000001B
:105590000000000000000000F70E620446046402F0
:1055A0006402EC029C019801980198010800000037
:1055B00000000000000000000000000000000000EB
:1055C0000000000000000000BC0718011001B0003E
:1055D00060006000E0009000080108039E070000E2
:1055E00000000000000000000000000000000000BB
:1055F00000000000000000009E07080108010801EB
:1056000090009000B000600060006000200020006A
:1056100024001C000000000000000000000000004A
:105620000000000000000000FC018401C4004400F0
:10563000600020003000180208020C03FC0100008A
:1056400000000000000000000003800080008000D7
:10565000800080008000800080004000200040002A
:10566000800080008000800080008000800080003A
:1056700000030000400040004000400040004000A7
:10568000400040004000400040004000400040001A
:10569000400040004000400040004000400040000A
:1056A00040004000000000000C001000100010003E
:1056B000100010001000100010002000400020001A
:1056C000100010001000100010001000100010005A
:1056D0000C00000000001C002204C2048003000033
:1056E00000000000000000000000000000000000BA
:1056F00000000000000000000000000000000000AA
:105700000000000000000000000000000000000099
:105710000000000000000000000000000000000089
:105720000000000000000000000000000000000079
:105730000000000000000000000000000000000069
:105740000000000000000000000000000000C00198
:10575000C001C001C001C001C001C00180008000C3
:1057600080008000800080008000000000000000B9
:1057700000008001C003C0038001000000000000A1
:1057800000000000000000000000E01CE01CF01E13
:10579000700E3807180308018400000000000000A4
:1057A00000000000000000000000000000000000F9
:1057B00000000000000000000000000000000000E9
:1057C00000000000000000000000000000000000D9
:1057D00020102010201020102010FE7FFE7F1008C7
:1057E000100810081008100810081008FE7FFE7F2F
:1057F000080408040804080408040000000000006D
:105800000000000000000000000000000001000196
:10581000C007601910311831183918393801700172
:10582000E001C0038007000F001D003900311C316A
:105830001C310C310C11180DE007000100010001B2
:105840000000000000000000000000000000000058
:105850001C1036186308630C63046304630263025C
:105860006301361D9C378022806340634063206360
:105870002063306310221836081C0000000000006E
:105880000000000000000000000000000000000018
:10589000F00098018C018C018C018C018C00CC00F3
:1058A0007800183E1C083608320863046304C304F9
:1058B000C303834306438E26781C000000000000CB
:1058C000000000000000000000001C003C003C0044
:1058D0003000300010000C00060000000000000046
:1058E00000000000000000000000000000000000B8
:1058F00000000000000000000000000000000000A8
:105900000000000000000000000000400020001027
:105910000008000C000400060003000300038001DF
:1059200080018001800180018001800180010003ED
:105930000003000300060006000C00080010002011
:105940000040000000000000000002000400080009
:105950001000300020006000C000C000C0008001C6
:105960008001800180018001800180018001C000F0
:10597000C000C0006000600030001000080004009B
:105980000200000000000000000000000000000015
:105990000000000000018003800300011C713C79BD
:1059A000783DC0070001C007783D3C791C710001BB
:1059B0008003800380010000000000000000000060
:1059C00000000000000000000000000000000000D7
:1059D00000000000000000010001000100010001C2
:1059E00000010001FC7F0001000100010001000135
:1059F00000010001000000000000000000000000A5
:105A00000000000000000000000000000000000096
:105A10000000000000000000000000000000000086
:105A20000000000000000000000000000000000076
:105A3000000000001C003C003C0030003000100062
:105A40000C00060000000000000000000000000044
:105A50000000000000000000000000000000000046
:105A600000000000FE7F00000000000000000000B9
:105A70000000000000000000000000000000000026
:105A80000000000000000000000000000000000016
:105A90000000000000000000000000000000000006
:105AA00000000000000000000000000000000000F6
:105AB000000018003C003C0018000000000000003E
:105AC0000000000000000000000000400060002016
:105AD0000030001000180008000C0004000600024E
