:020000040800F2
:10000000100B0020A1010008F9380008B52D0008E8
:1000100065380008AD0200084542000800000000F5
:10002000000000000000000000000000F53A000899
:10003000CB03000800000000FD380008F73A000874
:10004000BB010008BB010008BB010008BB010008A0
:10005000BB010008BB010008BB010008BB01000890
:10006000BB010008BB010008BB010008BB01000880
:10007000BB010008BB010008BB010008BB01000870
:10008000BB010008B1020008BB010008BB01000869
:10009000BB010008BB010008BB010008BB01000850
:1000A000BB010008BB010008BB010008BB01000840
:1000B000C93B0008BB010008BB010008BB010008E8
:1000C000BB010008BB010008BB010008BB01000820
:1000D000BB010008BB010008BB010008BB01000810
:1000E000CD030008BB010008BB010008BB010008EC
:1000F000BB010008BB010008BB010008BB010008F0
:10010000BB010008BB010008BB010008BB010008DF
:10011000BB010008BB010008BB010008BB010008CF
:10012000BB010008BB010008BB010008BB010008BF
:10013000BB010008BB010008BB010008BB010008AF
:10014000BB010008BB010008BB010008BB0100089F
:10015000BB010008BB010008BB010008BB0100088F
:10016000BB010008BB010008BB010008BB0100087F
:10017000BB010008BB010008BB0100080000000033
:10018000BB010008BB010008DFF810D000F07CF8CC
:100190000048004741470008AFF30080100B0020E3
:1001A0000648804706480047FEE7FEE7FEE7FEE711
:1001B000FEE7FEE7FEE7FEE7FEE7FEE7B53B0008E9
:1001C000890100082DE9F05F0546002092469B4614
:1001D00088460646814640241BE02846414647465D
:1001E000224600F041F853465A46C01A914110D3B6
:1001F00011461846224600F028F82D1A67EB010830
:100200004F4622460120002100F01FF817EB00099D
:100210004E41201EA4F10104DFDC484631462A4647
:100220004346BDE8F09FD2B201E000F8012B491E21
:10023000FBD270470022F6E710B513460A46044683
:100240001946FFF7F0FF204610BD202A04DB203AB4
:1002500000FA02F1002070479140C2F1200320FA19
:1002600003F3194390407047202A04DB203A21FA17
:1002700002F00021704721FA02F3D040C2F12002BF
:100280009140084319467047064C074D06E0E06868
:1002900040F0010394E8070098471034AC42F6D3CD
:1002A000FFF776FF448100086481000800BFFEE785
:1002B00010B5024800F0ACF810BD00006406002044
:1002C0000146087810381823B0FBF3F20848805C28
:1002D000C865032A05D908686FF30900001D886501
:1002E00003E008686FF309008865886D70470000B7
:1002F00022810008014600208A6A8B69CBB932B19D
:10030000012A0DD0022A03D0032A10D10EE000BF2B
:10031000CB6A03F08073B3F1807F00D1012007E046
:10032000CB6AB3F1C07F00D1012001E000E000BF43
:1003300034E08B69B3F5005F1AD132B1012A07D0DE
:10034000022A03D0032A11D10AE000BF01200EE0E7
:10035000CB6A03F08073B3F1807F00D1012006E007
:10036000CB6AB3F1C07F00D1012000E000BF15E0EF
:1003700032B1012A05D0022A04D0032A0CD103E0AD
:1003800000BF00BF012008E0CB6A03F08073B3F127
:10039000807F00D1012000E000BF00BF704730B572
:1003A0000468246824F4802405682C600468636071
:1003B0008468402C04D10468A2600468E16003E012
:1003C0000468A1600468E26030BD704710B54FF466
:1003D00080510C4800F01AFB10B9022003F044FAD7
:1003E0004FF40051074800F011FB10B9022003F050
:1003F0005FFA4FF4805000F001FA4FF4005000F023
:10040000FDF910BD0004024072B600BFFEE7000017
:10041000F8B50446002000908C4800684FF416514F
:10042000B0FBF1F7A56D2E6894F85C1008208840A9
:10043000304098B12068006800F0040070B1206876
:10044000006820F004002168086094F85C1008201F
:100450008840A860606D40F00100606594F85C1011
:1004600001208840304068B12068406900F0800079
:1004700040B194F85C1001208840A860606D40F0A5
:100480000200606594F85C1004208840304068B138
:100490002068006800F0020040B194F85C1004206D
:1004A0008840A860606D40F00400606594F85C10BE
:1004B00010208840304078B32068006800F00800C1
:1004C00050B394F85C1010208840A8602068006841
:1004D00000F4802080B12068006800F4002028B972
:1004E000206CC8B12046216C884715E0A06C98B1FB
:1004F0002046A16C88470FE02068006800F48070F7
:1005000028B92068006820F0080021680860206C85
:1005100010B12046216C884794F85C102020884058
:100520003040002865D02068006800F010000028E6
:100530005FD094F85C1020208840A86094F83500C3
:10054000052828D12068006820F01600216808607E
:100550002068406920F0800021684861206C08B95B
:10056000A06C28B12068006820F0080021680860AD
:1005700094F85C103F208840A860012084F8350082
:1005800000BF002084F8340000BF206D10B1204669
:10059000216D8847F8BD2068006800F4802080B194
:1005A0002068006800F4002028B9606C10B1204673
:1005B000616C88471DE0E06BD8B12046E16B88474D
:1005C00017E02068006800F4807068B9206800684F
:1005D00020F0100021680860012084F8350000BF79
:1005E000002084F8340000BFE06B10B12046E16BBE
:1005F0008847606D38B3606D00F00100F0B10520F0
:1006000084F835002068006820F001002168086047
:1006100000BF0098401C0090B84200D905E0206857
:10062000006800F001000028F3D100BF012084F829
:10063000350000BF002084F8340000BFE06C10B12A
:100640002046E16C884700BFA4E7000018000020A6
:100650002DE9F0410446002500F0E6F9074614B9FB
:100660000120BDE8F081606A00B100BF022084F87B
:10067000350000BF002084F8340000BF2068006807
:1006800020F00100216808600AE000F0CDF9C01BED
:10069000052805D920206065032084F83500E0E7AF
:1006A0002068006800F001000028EED1206805688D
:1006B00021480540D4E901010843E1680843216964
:1006C000084361690843A1690843E1690843216A55
:1006D00008430543606A042803D1D4E90B010843A9
:1006E0000543206805602068456925F00705606AB4
:1006F0000543606A04280DD1A06A0543E06A48B149
:100700002046FFF7F7FD28B140206065012084F8FE
:100710003500A6E7206845612046FFF7D1FD064673
:1007200094F85C103F208840B06000206065012094
:1007300084F83500002094E73F8010F02DE9F04761
:1007400004460D4616461F464FF00008D4F8589050
:1007500000BF94F83400012802D10220BDE8F087E0
:10076000012084F8340000BF94F83500012825D119
:10077000022084F83500002060653B463246294659
:100780002046FFF70CFE94F85C103F208840C9F823
:1007900008002068006840F0160021680860206C9E
:1007A00028B12068006840F00800216808602068CF
:1007B000006840F001002168086006E000BF0020EA
:1007C00084F8340000BF4FF002084046C6E700003E
:1007D00070B5044600F028F906462546681C10B19D
:1007E00004480078054400BF00F01EF9801BA842B1
:1007F000FAD370BD140000207047000010B5044605
:1008000004480068204020B1024804602046FFF7F9
:10081000F3FF10BD143C0140F8B502460B4600251D
:10082000002400200021D6E0012606FA01F51E680A
:1008300006EA0504AC4274D11E7906F00306012EC7
:1008400004D01E7906F00306022E13D190684F00E3
:100850000326BE40B0434F00DE68BE403043906088
:10086000506801268E40B0431E79C6F300168E40B4
:10087000304350601E7906F00306032E09D0D0687D
:100880004F000326BE40B0434F009E68BE40304339
:10089000D0601E7906F00306022E13D1CF0802F1B4
:1008A000200656F827004E07F70E0F26BE40B0432D
:1008B0004F07FF0E1E69BE403043CF0802F12006ED
:1008C00046F8270010684F000326BE40B0431E794B
:1008D00006F003064F00BE40304310605E6806F429
:1008E0004036002E76D000BF002600963C4E36687B
:1008F00046F480463A4F3E603E46366806F48046EF
:10090000009600BF00BF374E8F0856F827008E07AD
:10091000370F0F26BE40B043334EB24202D10026FD
:1009200024E057E0314EB24201D101261EE0304EA4
:10093000B24201D1022619E02E4EB24201D1032665
:1009400014E02D4EB24201D104260FE02B4EB242EC
:1009500001D105260AE02A4EB24201D1062605E061
:10096000284EB24201D1072600E008268F073F0F2C
:10097000BE4030431B4E8F0846F82700224E306899
:10098000A0435E6806F4801606B120431E4E306018
:10099000361D3068A0435E6806F4001606B1204399
:1009A000194E361D3060184E361F3068A0435E6801
:1009B00006F4003606B12043134E361F3060361F52
:1009C0003068A0435E6806F4803606B120430E4EC0
:1009D000083E3060491C1029FFF426AFF8BD000026
:1009E0004438024008380140000002400004024040
:1009F00000080240000C02400010024000140240B7
:100A000000180240001C0240083C014002461369E5
:100A10000B400BB1012000E0002070470AB181615A
:100A200001E00B04836170470148006870470000D3
:100A30000C00002070B504460CB9012070BD94F87C
:100A40003D0028B9002084F83C00204600F0DAF888
:100A5000242084F83D002068006820F0010021680F
:100A600008602068006840F4004021680860206841
:100A7000006820F400402168086000F0C9FA0546CB
:100A80005C496068884206D85B48854201D20120F3
:100A900007E0002005E05948854201D2012000E02E
:100AA0000020012800D1C9E75548B5FBF0F62068C1
:100AB000406820F03F003043216848604D4960683D
:100AC000884201D8701C07E04FF4967070434FF4D1
:100AD0007A71B0FBF1F0401C2168096A21F03F01F6
:100AE00008432168086243496068884214D8681E38
:100AF00061684900B0FBF1F0401CC0F30B00042812
:100B000001D204203DE0681E61684900B0FBF1F0AD
:100B1000401CC0F30B0034E0A06838B9681E61685F
:100B200001EB4101B0FBF1F0401C0AE0681E616876
:100B300001EBC10202EB0111B0FBF1F0401C40F4EB
:100B40008040C0F30B0008B901201AE0A06848B942
:100B5000681E616801EB4101B0FBF1F0401CC0F37D
:100B60000B000CE0681E616801EBC10202EB011191
:100B7000B0FBF1F0401CC0F30B0040F4804040F4A7
:100B800000402168C9694CF6FF729143084321680F
:100B9000C861D4E9070108432168096821F0C00150
:100BA000084321680860D4E9031008432168896874
:100BB00048F2FF329143084321688860D4E9050177
:100BC00008432168C96821F0FF0108432168C86013
:100BD0002068006840F0010021680860002020645F
:100BE000202084F83D000020206384F83E0000BFF0
:100BF00024E70000A086010080841E0000093D005B
:100C000040420F0010B586B00446142101A8FFF73A
:100C100011FB2A49206888424DD100BF0020009076
:100C20002748006840F0040025490860084600682D
:100C300000F00400009000BF00BF00BF0020009043
:100C40000846006840F0010008600846006800F0AF
:100C50000100009000BF00BF4815019012200290D3
:100C600000200390032004900420059001A915485A
:100C7000FFF7D2FD4FF48070019012200290002007
:100C80000390032004900420059001A90E48FFF76B
:100C9000C3FD00BF0020009009481030006840F4F8
:100CA00000000749103108600846006800F40000A1
:100CB000009000BF00BF06B010BD0000005C004007
:100CC000303802400008024000000240034800683B
:100CD0000349097808440149086070470C00002066
:100CE0001400002010B50D48006840F400700B4956
:100CF00008600846006840F48060086008460068A4
:100D000040F480700860032000F0A6F80F2000F087
:100D100007F800F02BF8002010BD0000003C024056
:100D200070B504460E4800784FF47A71B1FBF0F0CC
:100D30000C490968B1FBF0F5284600F0D7FF08B16F
:100D4000012070BD102C07D200222146501E00F059
:100D500045F80548046001E00120F2E70020F0E7D3
:100D600014000020180000201000002008B500BF6B
:100D7000002000900E48006840F480400C49086054
:100D80000846006800F48040009000BF00BF00BF2C
:100D900000200090081F006840F08050091F086084
:100DA0000846006800F08050009000BF00BF08BDFA
:100DB000443802400146084600280DDB00BF00BF52
:100DC00000F01F0301229A4043099B0003F1E02336
:100DD000C3F8002100BF00BF00BF70472DE9F05FDE
:100DE00080460D461646002703F08EFA0746394620
:100DF0002A46334601F00700C0F1070ABAF1040F92
:100E000002D94FF0040A01E0C0F1070AD14600F10F
:100E1000040ABAF1070F02D24FF0000A01E0A0F174
:100E2000030AD4464FF0010A0AFA09FAAAF1010AA4
:100E30000AEA020A0AFA0CFA4FF0010B0BFA0CFB51
:100E4000ABF1010B0BEA030B4AEA0B0421464046C7
:100E500003F062FABDE8F09F00BF00F00702064B06
:100E600019684FF6FF031940044B0B4343EA022174
:100E7000014B196000BF70470CED00E00000FA055F
:100E800070B504460D460CB9012070BD5848006885
:100E900000F00700A84209D255490D7008460068C5
:100EA00000F00700A84201D00120EEE7207800F012
:100EB000020002281DD1207800F00400042805D18A
:100EC0004C48006840F4E0504A490860207800F03F
:100ED0000800082805D14748006840F460404549AB
:100EE00008604448006820F0F000A16808434149C8
:100EF0000860207800F00100A8B36068012807D1DD
:100F00003C4808380068C0F34040B8B90120BCE74D
:100F10006068022802D06068032807D13548083885
:100F20000068C0F3406048B90120AEE73148083896
:100F30000068C0F3400008B90120A6E72D4800680A
:100F400020F00300616808432A490860FFF76CFD40
:100F5000064609E0FFF768FD801B41F288318842B0
:100F600002D9032091E707E02248006800F00C0056
:100F70006168B0EB810FEDD11D48006800F00700FB
:100F8000A84209D91A490D700846006800F0070008
:100F9000A84201D0012078E7207800F0040004285E
:100FA00007D11448006820F4E050E1680843114973
:100FB0000860207800F00800082808D10D48006873
:100FC00020F46040216940EAC1000A49086000F04D
:100FD0003FF808490968C1F30311074A515CC8404A
:100FE0000649086006480068FFF79AFE00204CE7B3
:100FF000003C0240083802402A8100081800002006
:101000001000002001480068704700001800002010
:1010100000B5FFF7F7FF04490968C1F38221034ACD
:10102000515CC84000BD0000083802403A81000809
:1010300000B5FFF7E7FF04490968C1F34231034AED
:10104000515CC84000BD0000083802403A810008E9
:101050002DE9F047002400250026A1462548006818
:1010600000F00C0020B1042805D008283AD105E092
:10107000DFF8849039E0DFF8849036E01D48001FE7
:10108000006800F03F041B48001F006800F4800067
:1010900078B11A481749091F0968C1F38811A0FBE4
:1010A00001700146224600233846FFF78BF80546BB
:1010B0000EE011480F49091F0968C1F38811A0FB10
:1010C00001700146224600233846FFF77BF80546AB
:1010D0000848001F0068C0F30140401C4600B5FBF3
:1010E000F6F902E0DFF8109000BF00BF4846BDE807
:1010F000F0870000083802400024F40000127A0053
:10110000F8B504460CB90120F8BD207800F00100C4
:10111000002874D0F948006800F00C0004280DD0B5
:10112000F648006800F00C00082813D1F348001FAF
:10113000006800F48000B0F5800F0BD1EF4808384C
:101140000068C0F34040002859D06068002856D19C
:101150000120D9E700BF6068B0F5803F08D1E748BB
:101160000838006840F48030E449083908601EE01F
:101170006068B0F5A02F0DD1E0480838006840F451
:101180008020DE49083908600846006840F4803055
:1011900008600CE0D9480838006820F48030D7494E
:1011A000083908600846006820F48020086000BF05
:1011B000606890B1FFF738FC054606E0FFF734FCA5
:1011C000401B642801D903209EE7CC4808380068FA
:1011D000C0F340400028F1D011E0FFF725FC0546A0
:1011E00006E0FFF721FC401B642801D903208BE7B0
:1011F000C24808380068C0F340400028F1D1207888
:1012000000F0020002285FD1BC48006800F00C002A
:1012100058B1BA48006800F00C0008281CD1B74843
:10122000001F006800F48000B0B9B44808380068B6
:10123000C0F3400020B1E068012801D0012063E73D
:10124000AE480838006820F0F800216940EAC10083
:10125000AA490839086037E0E06800B30120A849CE
:101260000860FFF7E1FB054606E0FFF7DDFB401BEA
:10127000022801D9032047E7A04808380068C0F3D6
:1012800040000028F1D09D480838006820F0F800A0
:10129000216940EAC10099490839086014E000203A
:1012A00097490860FFF7C0FB054606E0FFF7BCFB67
:1012B000401B022801D9032026E79048083800681F
:1012C000C0F340000028F1D1207800F00800082881
:1012D0002CD16069A8B101208A490860FFF7A4FBFE
:1012E000054606E0FFF7A0FB401B022801D90320BA
:1012F0000AE782486C300068C0F340000028F1D053
:1013000014E000207F490860FFF78EFB054606E0E9
:10131000FFF78AFB401B022801D90320F4E6774837
:101320006C300068C0F340000028F1D1207800F054
:101330000400042870D1002770483830006800F09D
:10134000805090B900BF002000906C483830006891
:1013500040F080506949383108600846006800F064
:101360008050009000BF00BF01276748006800F46C
:101370008070B0B96448006840F4807062490860C9
:10138000FFF752FB054606E0FFF74EFB401B022825
:1013900001D90320B8E65C48006800F4807000289A
:1013A000F2D000BFA068012808D154486830006816
:1013B00040F001005149683108601DE0A06805282F
:1013C0000DD14E486830006840F004004B49683148
:1013D00008600846006840F0010008600CE04748DB
:1013E0006830006820F00100444968310860084610
:1013F000006820F00400086000BFA068A8B1FFF7F3
:1014000013FB054609E0FFF70FFB401B41F2883153
:10141000884202D9032077E626E038486830006821
:10142000C0F340000028EED013E0FFF7FDFA0546B8
:1014300008E0FFF7F9FA401B41F28831884201D9F0
:10144000032061E62D4868300068C0F340000028A2
:10145000EFD1012F07D129483830006820F08050A3
:1014600026493831086000BFA069002845D02348CC
:10147000006800F00C0008285DD0A069022845D162
:1014800000201F490866FFF7CFFA054606E0FFF780
:10149000CBFA401B022801D9032035E6174808384B
:1014A0000068C0F340600028F1D1D4E90701084387
:1014B000616A40EA81110122A06AC2EB500041EA50
:1014C00000412C20005D41EA00600C49091F0860C2
:1014D00001200B490866FFF7A7FA054606E0FFF76B
:1014E000A3FA401B022801D903200DE6034808385F
:1014F0000068C0F340600028F1D049E0083802409D
:1015000000004742800E4742007000400020214901
:101510000866FFF789FA054606E0FFF785FA401BE3
:10152000022801D90320EFE51B480068C0F34060A2
:101530000028F2D12CE0A069012800D1E4E516488A
:10154000001D0668A069012820D006F48001E0692A
:1015500081421BD106F03F01206A814216D147F635
:10156000C0703040616AB0EB811F0FD106F440318A
:101570000122A06AC2EB5000B1EB004F06D106F089
:1015800070612C20005DB1EB006F01D00120BBE544
:101590000020B9E5000047420038024010B504467B
:1015A0000CB9012010BD606A38B96068B0F5827F5F
:1015B00000D105E00021E16102E0002121616161CB
:1015C0000021A16294F8510028B9002084F850004D
:1015D000204600F047F8022084F851002068006897
:1015E00020F0400021680860A08800F48270218902
:1015F00001F404410843A18901F400610843217CFE
:1016000001F002010843217D01F001010843218B13
:1016100001F400710843217F01F0380108432021C3
:10162000095D01F080010843218D01F40051084358
:10163000216808600421A06901EA104094F8241090
:1016400001F010010843216848602068C06920F457
:1016500000602168C86100206065012084F85100A5
:1016600000209FE710B586B00446142101A8FEF7BC
:10167000E1FD37492068884230D100BF002000904A
:101680003448006840F480503249086008460068D9
:1016900000F48050009000BF00BF00BF0020009009
:1016A0002C481438006840F001002A4914390860B9
:1016B0000846006800F00100009000BF00BFE02075
:1016C0000190022002900020039003200490052046
:1016D000059001A92048FFF79FF836E01F492068D0
:1016E000884232D100BF002000901A48001F0068D5
:1016F00040F400401749091F08600846006800F4DC
:101700000040009000BF00BF00BF002000901148C3
:101710001438006840F004000E4914390860084687
:10172000006800F00400009000BF00BF4FF4A0501C
:1017300001900220029000200390032004900620D4
:10174000059001A90648FFF767F806B010BD000034
:10175000003001404438024000000240003C00409C
:10176000000802402DE9F8430446884616461D4607
:1017700094F85100012802D00220BDE8F883606887
:10178000B0F5827F0CD1A06850B9042084F85100D4
:101790003346424641462046009500F083F9ECE787
:1017A000FFF742F90746B8F1000F00D00EB901204B
:1017B000E3E700BF94F85000012801D10220DCE7E4
:1017C000012084F8500000BF042084F8510000205C
:1017D0006065C4F83880A687E6872063A086E08627
:1017E00020646064A068B0F5004F0BD120680068E9
:1017F00020F04000216808602068006820F48040E4
:10180000216808602068006800F04000402805D08A
:101810002068006840F0400021680860E06830BB44
:1018200021E02068806800F0010050B12068007B52
:10183000A16B0870A06B401CA063E08F401EE08786
:1018400011E0FFF7F1F8C01BA84201D3681C00B9F2
:101850004DB9012084F8510000BF002084F85000E9
:1018600000BF032089E7E08F0028DAD125E021E0DE
:101870002068806800F0010050B12068C068A16B4A
:101880000880A06B801CA063E08F401EE08711E001
:10189000FFF7CAF8C01BA84201D3681C00B94DB9B4
:1018A000012084F8510000BF002084F8500000BFE0
:1018B000032062E7E08F0028DAD13A462946204625
:1018C00002F01DF808B120206065012084F8510065
:1018D00000BF002084F8500000BF606D08B10120F7
:1018E0004BE7002049E72DE9F84304460F4616462A
:1018F0001D46FFF799F88046B14694F8510001283B
:1019000002D00220BDE8F88307B10EB90120F9E743
:1019100000BF94F85000012801D10220F2E7012015
:1019200084F8500000BF032084F851000020606557
:101930002763A686E686A063A087E08760642064AC
:10194000A068B0F5004F0BD12068006820F040007F
:10195000216808602068006840F4804021680860C1
:101960002068006800F04000402805D0206800682A
:1019700040F0400021680860E068B0F5006F37D1A2
:10198000606810B1B9F1010F09D1206B008821689E
:10199000C860206B801C2063E08E401EE08623E040
:1019A0002068806800F0020002280AD1206B0088BD
:1019B0002168C860206B801C2063E08E401EE0869A
:1019C00012E0FFF731F8A0EB0800A84201D3681C31
:1019D00000B94DB9012084F8510000BF002084F8FF
:1019E000500000BF03208DE7E08E0028D8D136E0FC
:1019F000606810B1B9F1010F09D1206B007821683E
:101A00000873206B401C2063E08E401EE08623E0BC
:101A10002068806800F0020002280AD1206B00785C
:101A200021680873206B401C2063E08E401EE08616
:101A300012E0FEF7F9FFA0EB0800A84201D3681CF2
:101A400000B94DB9012084F8510000BF002084F88E
:101A5000500000BF032055E7E08E0028D8D1424651
:101A60002946204601F096FF08B120206065A06855
:101A700050B900BF002000902068C0680090206826
:101A80008068009000BF00BF012084F8510000BFB3
:101A9000002084F8500000BF606D08B1012031E7DC
:101AA00000202FE72DE9FE4F04460F4690461D46C5
:101AB0000C9E01200190FEF7B7FF814694F851B0CB
:101AC00060680290AA46BBF1010F0BD00298B0F5F6
:101AD000827F04D1A06810B9BBF1040F02D00220AC
:101AE000BDE8FE8F1FB1B8F1000F00D00DB9012085
:101AF000F6E700BF94F85000012801D10220EFE77B
:101B0000012084F8500000BF94F85100042802D04E
:101B1000052084F8510000206065C4F83880E5870E
:101B2000A5872763E586A586206460642068006831
:101B300000F04000402805D02068006840F04000D8
:101B400021680860E068B0F5006F52D1606810B19C
:101B5000BAF1010F09D1206B00882168C860206BA1
:101B6000801C2063E08E401EE0863BE02068806899
:101B700000F00200022810D1E08E70B10198012817
:101B80000BD1206B00882168C860206B801C20630B
:101B9000E08E401EE086002001902068806800F002
:101BA000010068B1E08F58B12068C068A16B08805F
:101BB000A06B801CA063E08F401EE0870120019095
:101BC000FEF732FFA0EB0900B0420BD3701C48B106
:101BD000012084F8510000BF002084F8500000BFAD
:101BE00003207DE7E08E0028C0D1E08F0028BDD122
:101BF00052E0606810B1BAF1010F09D1206B007892
:101C000021680873206B401C2063E08E401EE08634
:101C10003CE02068806800F00200022810D1E08ECD
:101C200070B1019801280BD1206B007821680873EE
:101C3000206B401C2063E08E401EE0860020019057
:101C40002068806800F0010068B1E08F58B120681A
:101C5000C068A16B0870A06B401CA063E08F401EA1
:101C6000E08701200190FEF7DFFEA0EB0900B04203
:101C700001D3701C00B94EB9012084F8510000BF97
:101C8000002084F8500000BF032029E7E08E0028E0
:101C9000BFD1E08F0028BCD14A463146204601F032
:101CA00079FE40B12020606500BF002084F850001C
:101CB00000BF012014E7A06850B900BF00200090C9
:101CC0002068C068009020688068009000BF00BF56
:101CD000012084F8510000BF002084F8500000BFAC
:101CE000606D08B10120FBE60020F9E670B50446FE
:101CF0002546681EB0F1807F01D301200FE0681EE9
:101D00004FF0E02148610F214FF0FF3002F004FB5B
:101D100000204FF0E021886107200861002070BD9D
:101D20007047704710B50346002200BF93F83C008F
:101D3000012801D1022010BD012083F83C0000BF22
:101D400022F0FF00CC6840EA040222F440708C6864
:101D500040EA040222F480604C6840EA040222F463
:101D600000600C6840EA040222F480500C6940EAEA
:101D7000040222F400504C6940EA040222F480403C
:101D8000CC6940EA04021868426400BF002083F86E
:101D90003C0000BF00BFCEE730B502460B4600BF97
:101DA00092F83C00012801D1022030BD012082F8C8
:101DB0003C0000BF022082F83D00106844681068B3
:101DC000816824F070041868044310684460184D5A
:101DD0001068A8421BD01068B0F1804F17D0154D85
:101DE0001068A84213D0144D1068A8420FD0134DAC
:101DF0001068A8420BD0124D1068A84207D0114DB0
:101E00001068A84203D0104D1068A84205D121F0F7
:101E100080015868014310688160012082F83D000C
:101E200000BF002082F83C0000BF00BFBDE70000FB
:101E3000000001400004004000080040000C004089
:101E400000040140004001400018004010B5044665
:101E50000CB9012010BD94F83D0028B9002084F889
:101E60003C00204600F026F8022084F83D00211DA9
:101E7000206801F0B1FE012084F8460000BF84F81C
:101E80003E0001213F2001554020015541200155D0
:101E900000BF00BF012084F84200432001554420C8
:101EA00001554520015500BF012084F83D00002068
:101EB000D0E7000038B504463749206888420FD182
:101EC00000BF002000903548006840F00100334911
:101ED00008600846006800F00100009000BF5AE06A
:101EE0002068B0F1804F40D100BF002000902B4807
:101EF000001F006840F001002849091F08600846DB
:101F0000006800F00100009000BF00BF2448254990
:101F100008604FF0C0604860402122488160002185
:101F2000C1604FF480610161890041618900816174
:101F30008911C161002101624162FEF789FB08B18C
:101F4000FEF762FA00BF1749A1620846846300BF2A
:101F500000BF2163846300BF002211461C20FEF7EE
:101F60003DFF1C20FEF726FF15E00F492068884240
:101F700011D100BF002000900848001F006840F009
:101F800008000649091F08600846006800F00800BC
:101F9000009000BF00BF38BD00000140443802403F
:101FA000A060024064060020000C0040014691F849
:101FB0003D00012801D001207047022081F83D003A
:101FC0000868C06840F001000B68D8601A4B0868C8
:101FD00098421BD00868B0F1804F17D0174B0868A3
:101FE000984213D0164B086898420FD0154B0868DA
:101FF00098420BD0144B0868984207D0134B0868DE
:10200000984203D0124B086898420CD10868806847
:1020100000F00702062A0CD00868006840F00100B2
:102020000B68186005E00868006840F001000B6864
:1020300018600020C0E700000000014000040040DC
:1020400000080040000C0040000401400040014036
:10205000001800402DE9F04104460D46002700BF5E
:1020600094F83C00012802D10220BDE8F081012053
:1020700084F83C0000BF022084F83D002068866898
:1020800026F0770626F47F46206886602868502868
:1020900033D00CDC202850D004DC00284BD0102892
:1020A00051D149E0302849D040284CD139E060284E
:1020B0002DD0702807D0B0F5805F03D0B0F5005F59
:1020C00041D10DE041E0D5E902136A68206801F0D2
:1020D0008BFE2068866846F077062068866034E0CC
:1020E000D5E902136A68206801F07EFE20688068E6
:1020F00040F480402168886027E0EA6869682068C9
:1021000001F062FF5021206801F079FE1DE0EA68CD
:102110006968206801F06BFF6021206801F06FFEA4
:1021200013E0EA686968206801F04EFF40212068EA
:1021300001F065FE09E000BF00BF00BF296820680C
:1021400001F05DFE01E0012700BF00BF012084F81F
:102150003D0000BF002084F83C0000BF384684E703
:102160002DE9F04104460D4614B90120BDE8F08187
:1021700094F83D0028B9002084F83C00204600F087
:1021800053F8022084F83D002068806844F207017B
:10219000884321688860211D206801F01DFD2068AA
:1021A000D0F80880206886692068076A286840EAB5
:1021B000080840F203308643A969A86840EA012074
:1021C000064340F60C4086434FF2F0008643E9692F
:1021D000E86840EA0120064328690001296A40EACC
:1021E0000130064327F0220727F0880769696868ED
:1021F00040EA011007432068C0F808802068866123
:1022000020680762012084F8460084F83E0001211E
:102210003F200155012084F8420043200155012050
:1022200084F83D000020A1E710B586B004461421D3
:1022300001A8FDF7FFFF36492068884230D100BF72
:10224000002000903348006840F0040031490860E5
:102250000846006800F00400009000BF00BF00BF07
:10226000002000902B481038006840F008002949F1
:10227000103908600846006800F00800009000BFB0
:1022800000BF4FF4405001900220029000200390C4
:1022900004900220059001A91F48FEF7BDFA34E022
:1022A0001E492068884230D100BF002000901948A4
:1022B000001D006840F002001649091D086008462C
:1022C000006800F00200009000BF00BF00BF0020C7
:1022D000009010481038006840F004000D49103993
:1022E00008600846006800F00400009000BF00BFCE
:1022F000C02001900220029000200390049003204F
:10230000059001A90648FEF787FA06B010BD000047
:102310000008004040380240000C02400004014028
:10232000000802407047704770B504462068C568D1
:102330002068066906F00200022819D105F00200A3
:10234000022815D1401F21680861012020772068EC
:10235000806900F0030018B12046FFF7E4FF05E0B4
:10236000204600F00FF9204600F0C3F90020207746
:1023700006F00400042819D105F00400042815D142
:10238000C04321680861022020772068806900F43A
:10239000407018B12046FFF7C6FF05E0204600F068
:1023A000F1F8204600F0A5F90020207706F008009B
:1023B000082819D105F00800082815D1C043216864
:1023C0000861042020772068C06900F0030018B17C
:1023D0002046FFF7A8FF05E0204600F0D3F820468E
:1023E00000F087F90020207706F01000102819D19E
:1023F00005F01000102815D1C0432168086108209D
:1024000020772068C06900F4407018B12046FFF7BB
:102410008AFF05E0204600F0B5F8204600F069F993
:102420000020207706F0010048B105F0010030B12E
:102430006FF0010021680861204600F05DFB06F0A6
:102440008000802809D105F08000802805D1C04394
:10245000216808612046FFF763FC06F04000402831
:1024600009D105F04000402805D1C043216808612A
:10247000204600F01FFC06F02000202809D105F0BE
:102480002000202805D1C043216808612046FFF7BD
:1024900048FC70BD10B586B00446142101A8FDF7B4
:1024A000C9FE3349206888421DD100BF002000903A
:1024B0003048006840F010002E4908600846006867
:1024C00000F01000009000BF00BF481501900220EE
:1024D00002900020039004900120059001A9264855
:1024E000FEF79AF942E02068B0F1804F1DD100BF9D
:1024F000002000901F48006840F001001D4908605E
:102500000846006800F00100009000BF00BF0820EE
:102510000190022002900020039004900120059079
:1025200001A91648FEF778F920E01549206888428D
:102530001CD100BF002000900E48006840F0010050
:102540000C4908600846006800F00100009000BFD8
:1025500000BF01200190022002900020039004900F
:102560000220059001A90548FEF756F906B010BDF6
:1025700000000140303802400010024000000240DC
:10258000000C004070472DE9F04104460D46164608
:10259000002700BF94F83C00012802D10220BDE8CA
:1025A000F081012084F83C0000BF36B1042E1BD01E
:1025B000082E31D00C2E5ED145E02946206801F06E
:1025C00027FC2068806940F0080021688861206845
:1025D000806920F004002168886120688069296989
:1025E00008432168886148E02946206801F048FCDA
:1025F0002068806940F400602168886120688069F3
:1026000020F480602168886120688069296940EA37
:1026100001202168886130E02946206801F06EFCC5
:102620002068C06940F008002168C8612068C0695E
:1026300020F004002168C8612068C0692969084346
:102640002168C86119E02946206801F093FC2068E0
:10265000C06940F400602168C8612068C06920F446
:1026600080602168C8612068C069296940EA01204A
:102670002168C86101E0012700BF00BF00BF002042
:1026800084F83C0000BF384689E710B504460CB911
:10269000012010BD94F83D0028B9002084F83C00CA
:1026A000204600F025F8022084F83D00211D206816
:1026B00001F092FA012084F8460000BF84F83E0041
:1026C00001213F200155402001554120015500BF07
:1026D00000BF012084F842004320015544200155E9
:1026E0004520015500BF012084F83D000020D0E7BF
:1026F000704770477047000070B504460D4615B925
:1027000094F83E000BE0042D02D13F20005D06E06E
:10271000082D02D14020005D01E04120005D01282C
:1027200001D0012070BD1DB9022084F83E000EE0EA
:10273000042D03D102213F20015508E0082D03D1CB
:1027400002214020015502E00221412001550122D1
:102750002946206801F0B4FA23492068884203D052
:1027600022492068884201D1012000E0002028B1E0
:102770002068406C40F40040216848641A49206891
:1027800088421BD02068B0F1804F17D018492068CC
:10279000884213D01749206888420FD01649206814
:1027A00088420BD011492068884207D0134920681D
:1027B000884203D01249206888420CD12068806882
:1027C00000F00706062E0CD02068006840F00100DB
:1027D0002168086005E02068006840F00100216879
:1027E000086000209EE70000000001400004014056
:1027F0000004004000080040000C00400040014080
:10280000001800402DE9F04704460D4616461F46C5
:102810004FF0000815B994F83E000BE0042D02D1EA
:102820003F20005D06E0082D02D14020005D01E060
:102830004120005D022801D1BDE8F08715B994F868
:102840003E000BE0042D02D13F20005D06E0082D84
:1028500002D14020005D01E04120005D012818D137
:1028600006B10FB90120E7E71DB9022084F83E0048
:1028700011E0042D03D102213F2001550BE0082D6A
:1028800003D102214020015505E0022141200155DC
:1028900001E00120D0E735B1042D1FD0082D38D03C
:1028A0000C2D6CD150E06049606AC1635F49606A79
:1028B00001645F49606AC164216801F134023B46EA
:1028C0003146606AFDF73AFF08B10120B4E720689D
:1028D000C06840F400702168C86053E05249A06AA3
:1028E000C1635249A06A01645149A06AC164216868
:1028F00001F138023B463146A06AFDF71FFF08B1DF
:10290000012099E72068C06840F480602168C860B1
:1029100038E04549E06AC1634449E06A01644449DA
:10292000E06AC164216801F13C023B463146E06A3D
:10293000FDF704FF08B101207EE72068C06840F47D
:1029400000602168C8601DE03749206BC1633749CA
:10295000206B01643649206BC164216801F140029B
:102960003B463146206BFDF7E9FE08B1012063E7E5
:102970002068C06840F480502168C86002E04FF0D1
:10298000010800BF00BFB8F1000F4AD1012229465B
:10299000206801F095F927492068884203D026492C
:1029A0002068884201D1012000E0002028B1206881
:1029B000406C40F40040216848641E492068884209
:1029C0001BD02068B0F1804F17D01C492068884286
:1029D00013D01B49206888420FD01A4920688842CA
:1029E0000BD015492068884207D0174920688842D3
:1029F00003D01649206888420DD12068806800F015
:102A00000709B9F1060F0CD02068006840F00100FA
:102A10002168086005E02068006840F00100216836
:102A20000860404608E70000E33C00084B3D000812
:102A30008B3D0008000001400004014000040040FC
:102A400000080040000C0040004001400018004019
:102A500030B504460D4600222946206801F030F9C1
:102A600023492068884203D022492068884201D146
:102A7000012000E0002090B100BF2068006A41F210
:102A80001111084050B92068006A8910084028B91F
:102A90002068406C20F400402168486400BF00BFFB
:102AA0002068006A41F21111084050B92068006A9C
:102AB0008910084028B92068006820F001002168CA
:102AC000086000BF1DB9012084F83E000EE0042D0F
:102AD00003D101213F20015508E0082D03D1012138
:102AE0004020015502E0012141200155002030BD68
:102AF0000000014000040140F0B5054668488542E9
:102B000004D168480068401C664908606548006850
:102B1000654988427ED1002062490860002406E0B1
:102B2000A0B200231A46194601F0A6FB641C082C2B
:102B3000F6DB5E480068032818D85D4880780A21D3
:102B400090FBF1F0C4B25A48407890FBF1F0C6B265
:102B50005748007890FBF1F0C7B25449097801F06A
:102B6000030023463246394601F086FB4F48006891
:102B700070B14E48006804280AD84D4CA37862789A
:102B800021784A4C2478641E04F0030001F074FBA1
:102B90004648006802281DD344480068052819D813
:102BA000434880780A2190FBF1F0C4B24048407855
:102BB00090FBF1F0C6B23E48007890FBF1F0C7B24E
:102BC0003A490978891E01F0030023463246394606
:102BD00001F052FB3548006803281AD83448807841
:102BE0000A2190FBF1F0C4B23148407890FBF1F03B
:102BF000C6B22F48007890FBF1F0C7B22B49097894
:102C000001F00301C1F1070023463246394601F0C5
:102C100033FB00E042E02548006880B123480068AB
:102C200004280CD8224CA378627821781F4C247891
:102C3000641E04F00304C4F1070001F01DFB1B48EF
:102C4000006802281FD31948006805281BD81848B7
:102C500080780A2190FBF1F0C4B21548407890FBCF
:102C6000F1F0C6B21248007890FBF1F0C7B20F49FC
:102C70000978891E01F00301C1F10700234632469D
:102C8000394601F0F9FA09480068401C0749086014
:102C900008460068082801D100200860F0BD000047
:102CA00044050020040000208038010008000020B6
:102CB00000000020704710B504460CB9012010BD7B
:102CC000A06900B100E000BF94F8410028B90020DD
:102CD00084F84000204600F029F8242084F84100C0
:102CE0002068C06820F400502168C860204601F0C8
:102CF00093F92068006920F49040216808612068F9
:102D0000406920F02A00216848612068C06840F4CA
:102D100000502168C86000206064202084F84100D1
:102D200084F842000020606300BFC8E710B586B099
:102D30000446142101A8FDF77DFA1B49206888424A
:102D400030D100BF002000901848006840F010000B
:102D5000164908600846006800F01000009000BFA7
:102D600000BF00BF0020009010481438006840F0F9
:102D700001000E49143908600846006800F001009F
:102D8000009000BF00BF4FF4C0600190022002908D
:102D900000200390032004900720059001A9044817
:102DA000FDF73AFD06B010BD001001404438024066
:102DB0000000024000BFFEE72DE9F04107460C4647
:102DC00015461E462A2000F015FA384600F003FA90
:102DD000284600F000FA2B2000F00CFA204600F004
:102DE000FAF9304600F0F7F92C2000F003FABDE8BC
:102DF000F08170B504460D4616462B4622462946FC
:102E00002046FFF7D9FF304600F0E5F970BD2DE907
:102E1000F04706460F4614461D46DDF820A0681E02
:102E200083B2601E82B239463046FFF7C5FFB8460E
:102E30000EE0B14606E0504600F0CDF909F1010080
:102E40001FFA80F9A145F6DB08F101001FFA80F8AE
:102E5000A845EEDBBDE8F0877047000010B5FFF72E
:102E6000FBFF6420FDF7B4FC6420FDF7B1FC0122F8
:102E700020215C48FDF7D2FD6420FDF7A9FC11205C
:102E800000F0B8F97820FDF7A3FC362000F0B2F985
:102E9000702000F0A9F93A2000F0ACF9052000F00C
:102EA000A3F9B22000F0A6F90C2000F09DF90C2047
:102EB00000F09AF9002000F097F9332000F094F91F
:102EC000332000F091F9B72000F094F9352000F09C
:102ED0008BF9BB2000F08EF9322000F085F9C2207A
:102EE00000F088F9012000F07FF9C32000F082F99A
:102EF000152000F079F9C42000F07CF9202000F0C2
:102F000073F9C62000F076F90F2000F06DF9D0209B
:102F100000F070F9A42000F067F9A12000F064F936
:102F2000E02000F067F9D02000F05EF9082000F002
:102F30005BF90E2000F058F9092000F055F909203E
:102F400000F052F9052000F04FF9312000F04CF963
:102F5000332000F049F9482000F046F9172000F02E
:102F600043F9142000F040F9152000F03DF931201C
:102F700000F03AF9342000F037F9E12000F03AF996
:102F8000D02000F031F9082000F02EF90E2000F0DA
:102F90002BF9092000F028F9092000F025F9152067
:102FA00000F022F9312000F01FF9332000F01CF965
:102FB000482000F019F9172000F016F9142000F04D
:102FC00013F9152000F010F9312000F00DF934202C
:102FD00000F00AF9212000F00DF9292000F00AF98B
:102FE00010BD0000000402402DE9FF5F80468A46C4
:102FF00017469B460F9D00200290CDF80080284682
:1030000005EBD071C1F347042046E21704EB52727E
:10301000D2102146E31704EB5373DB10A4EBC30378
:103020000BB1012300E000231A446A4392B20192DB
:10303000A7F12000C7B20AEB0500401E83B208EBDF
:103040000400401E82B251464046FFF7B5FE0026FE
:1030500069E00C2D07D107EB4700354901EB8000F3
:10306000805D03901BE0102D05D1324800EB071066
:10307000805D039013E0182D07D107EB47002E4920
:1030800001EB0010805D039009E0202D05D12B4855
:1030900000EB8710805D039001E0BDE8FF9F4FF0DB
:1030A00000093AE01098C8B9012000FA09F0039924
:1030B000084018B1584600F08EF802E00E9800F073
:1030C0008AF80298401CC0B20290029890FBF4F17A
:1030D00004FB1100E8B90020029021E0012000FA71
:1030E00009F00399084020B15A4651464046FFF77F
:1030F00080FE08F101001FFA80F80098A8EB00009C
:10310000A04206D1DDF800800AF101001FFA80FA22
:1031100006E009F1010000F0FF09B9F1080FC1DB79
:1031200000BF701C86B20198864292DB00BFB4E7F4
:10313000064800087A4C00086A5200083A64000801
:103140002DE9FF4F85B0074691461D46DDE913A6E0
:1031500000200490304606EBD071C1F3470B0024E9
:1031600034E0281B401EC1B20A2001F041FBB9FB2C
:10317000F0F00A21B0FBF1F201FB12080498A0B9AB
:10318000681EA04211DDB8F1000F0CD1002004FB35
:103190000B71CDE900A6029088B22022129B0699FD
:1031A000FFF722FF10E001200490002008F1300119
:1031B000CAB204FB0B71CDE900A6029088B2129B43
:1031C0000699FFF711FF00BF601CC4B2AC42C8DB18
:1031D00009B0BDE8F08F10B50446201200F01EF8CB
:1031E000E0B200F01BF810BD10B50446204600F018
:1031F00015F810BD10B5044600224FF400610648D2
:10320000FDF70CFC204600F009F80122D10202482B
:10321000FDF704FC10BD00000008024001B50022CB
:103220004FF400410748FDF7F9FB4FF47A73012290
:1032300069460548FEF757FB0122D1030148FDF717
:10324000EDFB08BD00000240A404002008B500BF4B
:10325000002000900A48006840F400100849086007
:103260000846006800F40010009000BF00BF002274
:1032700011461120FDF7B2FD1120FDF79BFD08BDA1
:103280003038024000B587B0142102A8FCF7D2FF05
:1032900000BF002001906748006840F010006549B9
:1032A00008600846006800F01000019000BF00BFF1
:1032B00000BF002001900846006840F080000860D0
:1032C0000846006800F08000019000BF00BF00BF0A
:1032D000002001900846006840F00400086008469D
:1032E000006800F00400019000BF00BF00BF002094
:1032F00001900846006840F0010008600846006838
:1033000000F00100019000BF00BF00BF002001904D
:103310000846006840F0020008600846006800F0B7
:103320000200019000BF00BF00BF002001900846CE
:10333000006840F0080008600846006800F00800D7
:10334000019000BF00BF012204213B48FDF766FB4E
:10335000002248F206013948FDF760FB00224FF4D5
:1033600011613748FDF75AFB00224FF4C071324813
:10337000FDF754FB002220213248FDF74FFB0420CB
:1033800002901120039000200490059002A92A4881
:10339000FDF742FA0C2002904FF404100390012034
:1033A000049002A92648FDF737FA48F20600029079
:1033B0000120039000200490059002A91F48FDF70A
:1033C0002BFA4FF41160029001200390002004902A
:1033D000059002A91A48FDF71FFA4FF4C070029039
:1033E0000120039000200490059002A91248FDF7E7
:1033F00013FA4FF4405002904FF404100390012050
:10340000049002A90F48FDF707FA2020029001203E
:10341000039000200490059002A90A48FDF7FCF9EA
:10342000002211462820FDF7D9FC2820FDF7C2FC18
:1034300007B000BD303802400010024000000240DA
:10344000000802400004024010B50B480B49086018
:103450000B484860002109488160C1604FF48041F9
:103460000161002141618161C1610162FDF7E2FA00
:1034700008B1FCF7C9FF10BD005C0040F803002054
:10348000A086010010B50F480F4908604FF4827004
:10349000486000210C488160C16002210161012166
:1034A0004161490281610821C161002101624162DB
:1034B00081620A21C162FEF771F808B1FCF7A4FF2E
:1034C00010BD0000003001404C04002010B50F4832
:1034D0000F4908604FF4827048604FF400410C4877
:1034E00081600021C160016141614FF4007181611F
:1034F0000021C1610162416281620A21C162FEF75D
:103500004DF808B1FCF780FF10BD0000003C004002
:10351000A404002000B595B00020119012901390E3
:1035200014900F9010901C2108A8FCF783FE202116
:103530006846FCF77FFE2B482B4908605320486003
:1035400000212948816040F2E731C160002101611A
:1035500041618161FEF77AFC08B1FCF755FF4FF439
:103560008050119011A92048FEF774FD08B1FCF7B6
:103570004BFF1D48FFF789F808B1FCF745FF002015
:103580000F9010900FA91848FEF706FC08B1FCF741
:103590003BFF70200890002009900A900B900C903F
:1035A0000D900E90002208A90F48FEF7ECFF08B11D
:1035B000FCF72AFF002000900190029003900490F5
:1035C0004FF4005005900020079069460648FEF72A
:1035D000A9FB08B1FCF718FF0348FEF75BFF15B025
:1035E00000BD000000000140FC04002000B58DB0CB
:1035F000002009900A900B900C90079008901C21D5
:103600006846FCF717FE4FF0804020490860002014
:10361000486000211D4881606821C160002101616E
:1036200080218161FEF712FC08B1FCF7EDFE4FF43A
:103630008050099009A91548FEF70CFD08B1FCF768
:10364000E3FE1248FFF721F808B1FCF7DDFE002089
:103650000790089007A90D48FEF79EFB08B1FCF7FC
:10366000D3FE60200090002001900290042004907E
:103670000C2269460548FEF786FF08B1FCF7C4FE38
:103680000248FEF707FF0DB000BD00004405002012
:1036900000B58BB0242102A8FCF7CCFD00200090DF
:1036A0000190184818490860002048600021164819
:1036B00081604FF6FF71C1600021016181610120CD
:1036C00002900020039001200490002005900690B5
:1036D000079001200890002009900A9002A90A484A
:1036E000FEF73EFD08B1FCF78FFE00200090019030
:1036F00069460548FEF750FB08B1FCF785FE0BB0A4
:1037000000BD0000000800408C05002000B58DB011
:10371000002009900A900B900C90079008901C21B3
:103720006846FCF787FD2048204908605320486020
:1037300000211E48816040F2E731C1600021016133
:103740008161FEF783FB08B1FCF75EFE4FF4805009
:10375000099009A91548FEF77DFC08B1FCF754FE55
:103760001248FEF792FF08B1FCF74EFE00200790CA
:10377000089007A90D48FEF70FFB08B1FCF744FEBF
:103780007020009000200190029004900022694671
:103790000648FEF7F8FE08B1FCF736FE0348FEF7D0
:1037A00079FE0DB000BD0000000C0040D4050020E3
:1037B00000B58BB0242102A8FCF73CFD002000904E
:1037C00001901848184908600020486000211648F8
:1037D00081604FF6FF71C16000210161416181612B
:1037E0000120029000200390012004900020059009
:1037F0000690079001200890002009900A9002A9E5
:103800000948FEF7ADFC08B1FCF7FEFD0020009072
:10381000019069460448FEF7BFFA08B1FCF7F4FDD1
:103820000BB000BD000401401C06002010B50B4881
:103830000B4908604FF4E13048600021084881607E
:10384000C16001610C21416100218161C161FFF70B
:1038500032FA08B1FCF7D8FD10BD0000001001409D
:10386000C406002000BFFEE710B504462CB90021B5
:103870000D48FFF7EDF8002010BD012C05D1002107
:103880000A48FFF7E5F80020F6E7022C09D10021ED
:103890000548FFF7DDF800210448FFF7D9F80020BC
:1038A000EAE70120E8E70000FC040020D40500203E
:1038B00010B504462CB900210D48FEF71DFF00206D
:1038C00010BD012C05D100210A48FEF715FF00208C
:1038D000F6E7022C09D100210548FEF70DFF002173
:1038E0000448FEF709FF0020EAE70120E8E70000AE
:1038F000FC040020D405002000BFFEE77047F8B5A7
:1039000004460E4615466068B0F5827F0DD1A0686A
:10391000B0F5004F03D0A068B0F5806F05D12068E6
:10392000006820F04000216808606068B0F5827F80
:103930001FD1A068B0F5806F0DD0334600228021E2
:103940002046009500F06AF808B3606D40F0200052
:1039500060650320F8BD3346002201212046009512
:1039600000F05CF898B1606D40F0200060650320C5
:10397000F0E73346002201212046009500F04EF882
:1039800028B1606D40F0200060650320E2E7002070
:10399000E0E700007CB504460E461546334601229A
:1039A00002212046009500F039F828B1606D40F002
:1039B0002000606503207CBD164800681821B0FB1C
:1039C000F1F01549B0FBF1F04FF47A7148430190E2
:1039D0006068B0F5827F0DD13346002280212046F9
:1039E000009500F01BF898B1606D40F02000606514
:1039F0000320E0E700BF019800B908E00198401EED
:103A0000019020688068C0F3C0100028F3D100BF87
:103A10000020D0E71800002040420F002DE9F84FA9
:103A200004460D4690461E46DDF82890FCF7FCFF44
:103A3000A0EB0900371AFCF7F7FF82462C48006814
:103A4000C0F3CB307843009045E0701C002842D092
:103A5000FCF7EAFFA0EB0A00B84200D2A7BB20683F
:103A6000406820F0E000216848606068B0F5827F1F
:103A70000DD1A068B0F5004F03D0A068B0F5806FFD
:103A800005D12068006820F0400021680860A06A25
:103A9000B0F5005F0DD100BF2068006820F4005031
:103AA000216808602068006840F4005021680860C0
:103AB00000BF012084F8510000BF002084F85000AE
:103AC00000BF0320BDE8F88FFFE7009800B900278A
:103AD0000098401E0090206880682840A84201D1CC
:103AE000012000E000204045AFD10020EAE70000BF
:103AF00018000020704710B5FDF7E8F810BD000071
:103B000000B593B0302107A8FCF794FB142102A85C
:103B1000FCF790FB00BF002001902448006840F0B3
:103B20008050224908600846006800F080500190EB
:103B300000BF00BF00BF002001901D48006840F496
:103B400080401B4908600846006800F480400190EE
:103B500000BF00BF012007900004089002200D90D4
:103B600041050E9104210F91A8211091022111917C
:103B70000421129107A8FDF7C3FA08B1FCF744FC31
:103B80000F20029002200390002004904FF4A050D8
:103B900005904FF480500690052102A8FDF770F9BA
:103BA00008B1FCF731FC13B000BD00004038024002
:103BB000007000400348006840F47000014908604C
:103BC0007047000088ED00E010B50248FEF7ACFB3E
:103BD00010BD00004405002010B502682D4B98422E
:103BE0000ED0B0F1804F0BD02B4B984208D02B4B0E
:103BF000984205D02A4B984202D02A4B984203D1D2
:103C000022F070024B681A43224B984220D0B0F148
:103C1000804F1DD0204B98421AD0204B984217D08D
:103C20001F4B984214D01F4B984211D01E4B984204
:103C30000ED01E4B98420BD01D4B984208D01D4B06
:103C4000984205D01C4B984202D01C4B984203D19D
:103C500022F44072CB681A4322F080034C6943EA95
:103C6000040202608B68C3620B688362094B98424E
:103C700002D00C4B984201D10B69036301234361CD
:103C8000036903F001031BB1036923F0010303611E
:103C900010BD00000000014000040040000800408A
:103CA000000C00400004014000400140004401407D
:103CB0000048014000180040001C00400020004067
:103CC00030B501F01F05012404FA05F3046A9C4392
:103CD0000462046A01F01F0502FA05F52C43046230
:103CE00030BD70B50546AC6B606AA84207D10120B3
:103CF0002077E86918BB012084F83E001FE0A06A25
:103D0000A84207D102202077E869C0B901213F20ED
:103D1000015514E0E06AA84207D104202077E86941
:103D200068B901214020015509E0206BA84206D165
:103D300008202077E86910B901214120015520466B
:103D4000FEF7D7FC0020207770BD70B50546AC6B40
:103D5000606AA84202D10120207710E0A06AA84240
:103D600002D1022020770AE0E06AA84202D10420B2
:103D7000207704E0206BA84201D10820207720465C
:103D8000FEF7B8FC0020207770BD70B50546AC6B1F
:103D9000606AA84204D10120207784F83E001DE02B
:103DA000A06AA84205D10220207701213F200155B9
:103DB00014E0E06AA84205D10420207701214020C8
:103DC00001550BE0206BA84205D108202077012186
:103DD0004120015502E0012084F83D002046FEF715
:103DE000A1FA0020207770BD30B50C46816821F41F
:103DF0007F4142EA032525432943816030BD0A46BD
:103E0000816821F0700142F0070319438160704717
:103E100030B5026A056A25F00105056243688469C8
:103E200024F0700424F003040D682C4322F00202F5
:103E30008D682A43104DA84200D103E00F4DA842DF
:103E400006D100BF22F00802CD682A4322F0040206
:103E5000094DA84202D0094DA84207D123F480732E
:103E600023F400734D692B438D692B4343608461B8
:103E70004D684563026230BD00000140000401400E
:103E800030B5026A056A25F0100505624368846949
:103E900024F4E04424F440740D6844EA052422F03C
:103EA00020028D6842EA0512124DA84200D103E0BB
:103EB000114DA84207D100BF22F08002CD6842EA2E
:103EC000051222F040020B4DA84202D00A4DA84232
:103ED00009D123F4806323F400634D6943EA850329
:103EE0008D6943EA8503436084614D68856302629E
:103EF00030BD0000000001400004014030B5026AFE
:103F0000056A25F4807505624368C46924F070046D
:103F100024F003040D682C4322F400728D6842EAF9
:103F20000522124DA84200D103E0114DA84207D14D
:103F300000BF22F40062CD6842EA052222F48062CA
:103F40000A4DA84202D00A4DA84209D123F4805359
:103F500023F400534D6943EA05138D6943EA0513C1
:103F60004360C4614D68C563026230BD000001401A
:103F70000004014030B5036A056A25F480550562E6
:103F80004468C26922F4E04222F440720D6842EAB9
:103F9000052223F400538D6843EA0533084DA842F7
:103FA00002D0084DA84204D124F480444D6944EA6B
:103FB00085144460C2614D680564036230BD000031
:103FC000000001400004014030B50B461446026A6F
:103FD000056A25F001050562816921F0F00141EAD9
:103FE000041122F00A021A438161026230BD30B529
:103FF0000B461446026A056A25F0100505628169C0
:1040000021F4704141EA043122F0A00242EA031295
:104010008161026230BD00002DE9F84F044620683E
:10402000006920F44050E168084321680861216973
:10403000A068084361690843E1690843009020686B
:10404000C06849F20C618843009908432168C86040
:104050002068406920F44070A169084321684861E4
:1040600076492068884203D075492068884203D188
:10407000FCF7DEFF814602E0FCF7CAFF8146E069FB
:10408000B0F5004F6CD102206168A0FB01500346DF
:104090001920A9FB007001462A463846FCF792F821
:1040A0006421B0FBF1F04FEA001A02206168A0FB26
:1040B00001510B461920A9FB00712A463846FCF72E
:1040C00081F8834602206168A0FB01500346192055
:1040D000A9FB00712A463846FCF774F86421B0FB4E
:1040E000F1F000EBC00101EB0010ABEB80003221DE
:1040F00001EBC0006421B0FBF1F000F0F8000AEB26
:10410000400A02206168A0FB015003461920A9FB68
:10411000007001462A463846FCF754F883460220D0
:104120006168A0FB015003461920A9FB00712A46D3
:104130003846FCF747F86421B0FBF1F000EBC00112
:1041400001EB0010ABEB8000322101EBC0006421D9
:10415000B0FBF1F000F007005044216888606AE08D
:1041600004206168A0FB015003461920A9FB0070E0
:1041700001462A463846FCF725F882460420616845
:10418000A0FB015003461920A9FB007001462A46F6
:104190003846FCF717F86421B0FBF1F000EBC001E2
:1041A00001EB0010AAEB8000322101EB001064212A
:1041B000B0FBF1F000F0F00A04206168A0FB017090
:1041C00003461920A9FB00513A462846FBF7FAFF9F
:1041D0006421B0FBF1F00AEB001A04206168A0FB37
:1041E00001510B461920A9FB00712A463846FBF7FE
:1041F000E9FF834604206168A0FB015003461920B3
:10420000A9FB007001462A463846FBF7DBFF642114
:10421000B0FBF1F000EBC00101EB0010ABEB800054
:10422000322101EB00106421B0FBF1F000F00F002F
:10423000504421688860BDE8F88F000000100140FC
:104240000014014000BFFEE710B5002406E0A0B254
:1042500000231A46194600F00FF8641C082CF6DB00
:10426000F223034A0C210348FEF7CCFA10BD0000EC
:104270002000002044050020F0B504460D4604EB64
:104280004400C10000202AE002FA00F606F0800691
:104290000EB1462600E023260F18DFF848C04CF880
:1042A000276005FA00F606F080060EB1462700E00A
:1042B00023270E180836DFF82CC04CF8267003FAB6
:1042C00000F606F080060EB1462700E023270E1800
:1042D0001036DFF810C04CF82670461CF0B20828E3
:1042E000D2DBF0BD20000020024B9A70187059708C
:1042F0007047000000000020014A024900F02FB87A
:10430000814300081C00002002480068C0F302201E
:10431000704700000CED00E010B5002804DB0A0730
:10432000130E054A135406E00A07140E034A00F060
:104330000F031B1FD45410BD00E400E018ED00E093
:1043400002E008C8121F08C1002AFAD1704770475E
:10435000002001E001C1121F002AFBD170472DE9A6
:10436000F04116460F460446002503E03946B047A3
:10437000641C6D1C20780028F8D12846BDE8F08127
:1043800038B504468DF8000069460320ABBE2046D0
:1043900038BD00001CB506226946252000F05AF9F8
:1043A0009DF801009DF8001040EA012000B20A4982
:1043B00008809DF803009DF8021040EA012000B239
:1043C000054948809DF805009DF8041040EA012049
:1043D00000B2014988801CBDE80300201CB5022200
:1043E00069461D2000F036F99DF801009DF8001087
:1043F00040EA012000B2014988811CBDE803002089
:1044000070B50024002500260A20FCF7E1F900F031
:1044100045F928B173A0FFF76FFF0125284670BD4D
:104420000021762000F06AF90121112000F066F9E0
:104430000A20FCF7CDF900BF112000F0E5F8044692
:104440003046711C8EB2FF2805DD6BA0FFF754FFCC
:1044500001252846E3E7002CEED10121762000F06B
:104460004DF902217A2000F049F90021762000F070
:1044700045F9B0214C2000F041F90021762000F0F0
:104480003DF94021162000F039F9652000F0BCF814
:1044900004460021652000F031F90021602000F081
:1044A0002DF90221612000F029F92146652000F054
:1044B00025F947215F2000F021F90021762000F046
:1044C0001DF93621142000F019F90021762000F0A2
:1044D00015F9652000F098F840F0040421466520A5
:1044E00000F00CF90021762000F008F9502000F0CF
:1044F0008BF800F01F0040F040042146502000F0EF
:10450000FDF80021762000F0F9F8502000F07CF84A
:1045100000F0F000841D2146502000F0EFF800214B
:10452000762000F0EBF84F2000F06EF800F01F004E
:1045300040F0200421464F2000F0E0F800217620D2
:1045400000F0DCF84F2000F05FF800F0F000841D70
:1045500021464F2000F0D2F80021762000F0CEF85E
:10456000522000F051F800F0F000C41D2146522006
:1045700000F0C4F80121762000F0C0F8132000F00C
:1045800043F800F08F042146132000F0B7F8122002
:1045900000F03AF800F08F042146122000F0AEF847
:1045A0000021762000F0AAF84E2000F02DF840F00F
:1045B000030421464E2000F0A1F80A20FCF708F978
:1045C0000021762000F09AF84E2000F01DF840F00F
:1045D0000C0421464E2000F091F80A20FCF7F8F870
:1045E00028461CE7696D755F73656C666368656373
:1045F0006B5F6572720A0000696D755F6F76657238
:1046000074696D650A0000001CB504460020019025
:1046100044F080000090002210210C48FCF7FEF9C5
:104620004FF48053012269460948FDF75CF94FF4C5
:104630008053012201A90648FDF794F801221021B8
:104640000248FCF7EBF99DF804001CBD000802408D
:104650004C040020F8B504460E46154644F0800090
:104660000090002210210B48FCF7D8F94FF480533A
:10467000012269460848FDF736F9AAB24FF4805383
:1046800031460548FDF76EF8012210210148FCF77C
:10469000C5F9F8BD000802404C04002070B50024A4
:1046A000002500260DE03046711C8EB2FF2801DD8A
:1046B000012508E07520FFF7A7FF04460A20FCF754
:1046C00087F8472CEFD100BF284670BDDFED090AFF
:1046D000B0EE600A00EE900AB8EEE01ADFED061ABE
:1046E000C1EE210AB3EE091A70EE810AB0EE600A3B
:1046F0007047000000000000E17A044313B582B067
:1047000004460194002210210B48FCF787F94FF46E
:104710008053012201A90948FDF7E5F84FF48053C1
:10472000012203A90548FDF7DEF801221021024805
:10473000FCF774F91FBD0000000802404C04002083
:104740000EB5FCF7CFFAFFF7DBF9FEF79BFDFEF79E
:104750007DFDFEF779FEFEF795FEFEF7B7FEFEF74C
:1047600045FFFFF763F8FEF7D5FEFEF791FFFEF772
:10477000CDFFFFF71DF8FFF767FD0022FF21084678
:10478000FFF7B2FD1848FDF711FCFEF767FB4FF687
:10479000FF70F0231A46002100900846FEF737FB11
:1047A000FFF72EFE00BF00BF1DE0FFF7F3FDFFF790
:1047B00015FE0E49B1F90C00FFF788FFBCEEC00AE8
:1047C00010EE100A84B210204FF6FF71002205236C
:1047D000CDE900210290224600210846FEF7B0FCF8
:1047E0006420FBF7F5FFE0E744050020E803002024
:1047F00010B50246012000E050430B1EA1F1010458
:10480000E1B2F9D110BD000000000000000000007E
:104810000000000004040404040000040000141458
:104820000A00000000000000000000000A0A1F0A41
:104830000A1F0A0A000000040E1505060C14150EC6
:104840000400000012150D152E2C2A120000000085
:10485000040A0A361515291600000202010000009C
:104860000000000000001008080404040404080804
:1048700010000204040808080808040402000000EC
:104880000004150E0E150400000000000008083E8C
:104890000808000000000000000000000000020204
:1048A000010000000000003F0000000000000000C8
:1048B00000000000000000020000002010100808A6
:1048C00004040202010000000E1111111111110E59
:1048D00000000000040604040404040E00000000AC
:1048E0000E1111080402011F000000000E11100C2F
:1048F0001010110E00000000080C0C0A091F081C03
:10490000000000001F01010F1110110E0000000037
:104910000C12010D1311110E000000001E100808EA
:1049200004040404000000000E11110E1111110EF8
:10493000000000000E1111191610090600000000F9
:10494000000004000000000400000000000000045B
:104950000000000404000000100804020204081013
:104960000000000000003F003F00000000000000C9
:104970000204081010080402000000000E111108C3
:1049800004040004000000001C22292D2D1D221CFF
:104990000000000004040C0A0A1E1233000000008C
:1049A0000F12120E1212120F000000001E11010150
:1049B0000101110E000000000F1212121212120F4C
:1049C000000000001F120A0E0A02121F0000000061
:1049D0001F120A0E0A020207000000001C12010149
:1049E0003911120C000000003312121E1212123381
:1049F000000000001F0404040404041F0000000061
:104A00003E080808080808080907000037120A06C7
:104A10000A12123700000000070202020202223FBF
:104A2000000000003B1B1B1B151515350000000086
:104A30003B1216161A1A1217000000000E1111115F
:104A40001111110E000000000F12120E02020207D7
:104A5000000000000E1111111117190E18000000AE
:104A60000F12120E0A121237000000001E1101066A
:104A70000810110F000000001F1504040404040EA8
:104A800000000000331212121212120C000000007B
:104A90003312120A0A0C0404000000001515151543
:104AA0000E0A0A0A000000001B0A0A04040A0A1B74
:104AB000000000001B0A0A0A0404040E00000000A3
:104AC0001F0908040402121F00001C04040404044B
:104AD000040404041C000002020404040808081072
:104AE00010000E0808080808080808080E00040A44
:104AF00000000000000000000000000000000000B6
:104B000000000000003F0204000000000000000060
:104B1000000000000000000C121C123C000000030A
:104B20000202020E1212120E000000000000001C11
:104B30001202120C000000181010101C1212123C6D
:104B4000000000000000000C121E021C00000018F3
:104B50002404041E0404041E000000000000003CA5
:104B6000120C021C221C00030202020E1212123747
:104B700000000004040000060404040E0000000805
:104B80000800000C08080808080700030202021ABF
:104B90000A060A1300000007040404040404041FA6
:104BA000000000000000000F1515151500000000A2
:104BB0000000000F12121237000000000000000C6D
:104BC0001212120C000000000000000F1212120E50
:104BD000020700000000001C1212121C1038000016
:104BE0000000001B06020207000000000000001E7B
:104BF000020C101E000000000004041E0404041C2B
:104C0000000000000000001B1212123C0000000017
:104C10000000001B0A0A0404000000000000001548
:104C2000150E0A0A000000000000001B0A040A1BFF
:104C3000000000000000003312120C080403000002
:104C40000000001E0804041E000018080808080CD4
:104C500008080808180008080808080808080808CC
:104C600008080604040404080404040406001609E1
:104C70000000000000000000000000000000000034
:104C8000000000000000000000000000000808080C
:104C90000808080800001818000000486C241200DA
:104CA0000000000000000000000000000024242498
:104CB0007F1212127F12121200000000081C2A2A12
:104CC0000A0C1828282A2A1C08080000002225158A
:104CD00015152A585454542200000000000C1212DA
:104CE000120A76252911916E0000000606040300C1
:104CF000000000000000000000000040201010082C
:104D000008080808081010204000000204080810D5
:104D1000101010101008080402000000000008081D
:104D20006B1C1C6B08080000000000000000080855
:104D300008087F08080808000000000000000000C4
:104D40000000000000000606040300000000000050
:104D50000000FE0000000000000000000000000055
:104D60000000000000000606000000008040402017
:104D70002010100808040402020000000018244259
:104D800042424242424224180000000000080E083D
:104D9000080808080808083E00000000003C4242DD
:104DA000422020100804427E00000000003C4242E5
:104DB000201820404042221C000000000020302823
:104DC000242422227E20207800000000007E02029F
:104DD000021A26404042221C000000000038240233
:104DE000021A26424242241800000000007E2222BD
:104DF000101008080808080800000000003C4242A3
:104E0000422418244242423C000000000018244280
:104E1000424264584040241C000000000000000092
:104E20001818000000001818000000000000000022
:104E300000080000000000080804000000402010E6
:104E400008040204081020400000000000000000D8
:104E50007F0000007F000000000000000002040846
:104E6000102040201008040200000000003C4242D4
:104E7000464020101000181800000000001C225AA4
:104E8000555555552D42221C0000000000080818F9
:104E90001414243C224242E700000000001F22229A
:104EA000221E22424242221F00000000007C424299
:104EB000010101010142221C00000000001F2242EA
:104EC000424242424242221F00000000003F421282
:104ED000121E12120242423F00000000003F421226
:104EE000121E12120202020700000000003C2222E1
:104EF000010101712122221C0000000000E7424252
:104F000042427E42424242E700000000003E080862
:104F1000080808080808083E00000000007C10107F
:104F20001010101010101010110F00000077221236
:104F30000A0E0A1212222277000000000007020265
:104F4000020202020202427F0000000000773636B1
:104F500036362A2A2A2A2A6B0000000000E3464639
:104F60004A4A52525262624700000000001C22412D
:104F7000414141414141221C00000000003F4242AA
:104F800042423E020202020700000000001C2241D1
:104F9000414141414D53321C60000000003F4242FC
:104FA000423E1212222242C700000000007C424210
:104FB000020418204042423E00000000007F4908E1
:104FC000080808080808081C0000000000E7424222
:104FD000424242424242423C0000000000E742425C
:104FE000222424141418080800000000006B49490A
:104FF00049495555362222220000000000E742248C
:1050000024181818242442E7000000000077222208
:10501000141408080808081C00000000007E212065
:10502000101008040442423F0000007808080808F5
:1050300008080808080808087800000002020404AC
:1050400008080810102020204040001E10101010EA
:1050500010101010101010101E0000384400000036
:105060000000000000000000000000000000000040
:10507000000000000000000000FF00060800000023
:105080000000000000000000000000000000000020
:10509000003C4278444242FC00000000000302024F
:1050A000021A26424242261A0000000000000000B8
:1050B0000038440202024438000000000060404012
:1050C00040784442424264D80000000000000000E2
:1050D000003C427E0202423C0000000000F08808D2
:1050E000087E08080808083E0000000000000000D4
:1050F000007C22221C023C42423C000000030202CF
:10510000023A4642424242E700000000000C0C0016
:10511000000E08080808083E0000000000303000BB
:105120000038202020202020221E00000003020240
:105130000272120A1612227700000000000E080800
:10514000080808080808083E0000000000000000E9
:10515000007F9292929292B700000000000000003F
:10516000003B4642424242E70000000000000000CF
:10517000003C42424242423C00000000000000006D
:10518000001B26424242221E0207000000000000CF
:10519000007844424242447840E0000000000000B1
:1051A00000774C040404041F00000000000000000D
:1051B000007C42023C40423E00000000000000082B
:1051C000083E080808080830000000000000000041
:1051D00000634242424262DC000000000000000026
:1051E00000E742242414080800000000000000002A
:1051F00000EB494955552222000000000000000044
:10520000007624181818246E00000000000000002A
:1052100000E74224241418080807000000000000DA
:10522000007E22100808447E000000C020202020BC
:105230002010202020202020C0001010101010105E
:105240001010101010101010101000060808080898
:10525000081008080808080806000C32C200000000
:10526000000000000000000000000000000000003E
:10527000000000000000000000000000000000002E
:10528000000000000000000000000000000000001E
:10529000000000000000000000000000000000000E
:1052A000000060006000600060006000600060005E
:1052B00040002000200020000000000000006000EE
:1052C00060006000000000000000000000006006B8
:1052D00060063003980188004400000000000000D0
:1052E00000000000000000000000000000000000BE
:1052F00000000000000000000000000000000000AE
:1053000000001002100210021002FE07FE07080241
:105310000801080108010801FE07FE070401040155
:105320000401040100000000000000000000000073
:1053300040004000F00158034C03CC034C005800DF
:105340007000E000C001C00140034C035C034C034B
:105350004801F00040004000000000000000000094
:1053600000000E010A0191009100910051005100CE
:105370003A00AE03A0025004500448044804480414
:105380008402840300000000000000000000000010
:10539000000038006C006C006C006C006C002C008D
:1053A00098071C011A01330133016301E300C308AC
:1053B000C6093C07000000000000000000000C00CF
:1053C0001C00100010000800040000000000000095
:1053D00000000000000000000000000000000000CD
:1053E00000000000000000000000000000000004B9
:1053F00000020001800080004000400020002000EA
:1054000020002000200020002000400040008000FC
:105410008000000100020004000000000000020003
:105420000400080010001000200020004000400090
:1054300040004000400040004000200020001000DC
:10544000100008000400020000000000000000003E
:105450000000000000004000C0004000460C4E0F5D
:10546000D001F0015E0F460C4000400040000000FB
:10547000000000000000000000000000000000002C
:10548000000000000000000040004000400040001C
:105490004000FE0F4000400040004000400000007F
:1054A00000000000000000000000000000000000FC
:1054B00000000000000000000000000000000000EC
:1054C00000000000000000000000000000000C00D0
:1054D0001C00100010000800040000000000000084
:1054E00000000000000000000000000000000000BC
:1054F0000000FE07000000000000000000000000A7
:10550000000000000000000000000000000000009B
:10551000000000000000000000000000000000008B
:1055200000000000000000000000000000001C005F
:105530001C001C000000000000000000000000042F
:10554000000600020003000100018000800040000E
:10555000400060002000200010001000080008003B
:105560000C00040006000200000000000000000023
:1055700000000000F00098010C030C03060606066C
:105580000606060606060606060606060C030C03B5
:105590009801F00000000000000000000000000082
:1055A0000000000040007C006000600060006000BF
:1055B00060006000600060006000600060006000EB
:1055C0006000FC030000000000000000000000007C
:1055D00000000000F8008401020306030603000334
:1055E00000018001C00060002000100008020402D9
:1055F0000602FE03000000000000000000000000A2
:10560000000000007800C60086018601800180014C
:10561000C0007000800100010003000306030603C0
:105620008601F800000000000000000000000000FB
:105630000000000080018001C001A001A0019001D4
:105640008801880184018201FE0F800180018001B0
:105650008001E007000000000000000000000000E2
:1056600000000000FC030400040004000400040027
:10567000F4008C0104030003000306030603820107
:105680008401F8000000000000000000000000009D
:1056900000000000E00118030C030C0004000600E9
:1056A000E60116030E0606060606060604060C02AA
:1056B0001803F000000000000000000000000000DF
:1056C00000000000F8070C060402040100010001BC
:1056D00080008000400040004000600060006000EA
:1056E00060006000000000000000000000000000FA
:1056F00000000000F8010C030606060606060C0270
:105700001C03F000C8010C03060606060606060682
:105710000C03F00100000000000000000000000089
:1057200000000000F0000C010C030602060606064D
:10573000060606078C0678060006000300030C0127
:105740008C01780000000000000000000000000054
:105750000000000000000000000000000000E00069
:10576000E000E00000000000000000000000E00099
:10577000E000E00000000000000000000000000069
:1057800000000000000000000000000000006000B9
:1057900060000000000000000000000000000000A9
:1057A00060006000400020002000000000000000B9
:1057B00000000004000200018000400020001000F2
:1057C00008000400080010002000400080000001D4
:1057D00000020004000000000000000000000000C3
:1057E0000000000000000000000000000000FE07B4
:1057F000000000000000FE070000000000000000A4
:105800000000000000000000000000000000000098
:10581000000004000800100020004000800000018B
:10582000000200040002000180004000200010007F
:10583000080004000000000000000000000000005C
:1058400000000000E0031806040C040C0C0C0C0C07
:105850000007800140004000400000000000E00020
:10586000E000E00000000000000000000000000078
:105870000000E00018030C02CC0564056605A605CF
:10588000B604B604B604B604B602E4010C040C0275
:105890001803F000000000000000000000000000FD
:1058A00000000000600060005000D00090009000F8
:1058B000880088010801F8010403040304020202BD
:1058C00002060F0F000000000000000000000000B2
:1058D00000000000FE008C030C030C030C030C03FF
:1058E0008C01FC000C030C020C060C060C060C06CA
:1058F0000C03FE010000000000000000000000009A
:1059000000000000E00318030C060C040404060069
:105910000600060006000600060006040C040C0241
:105920001803F0000000000000000000000000006C
:10593000000000007F008C010C030C030C060C0619
:105940000C060C060C060C060C060C060C030C03CD
:105950008C017F000000000000000000000000003B
:1059600000000000FF03060306040604060086008C
:105970008600FE00860086008600060006040604F7
:105980000602FF030000000000000000000000000D
:1059900000000000FF03060306040604060086005C
:1059A0008600FE00860086008600060006000600CF
:1059B00006001F00000000000000000000000000C2
:1059C00000000000F00018010C020C0204020600A6
:1059D000060006000600C60F060306030C030C03B0
:1059E0001803F000000000000000000000000000AC
:1059F000000000000F0F060606060606060606064D
:105A00000606FE070606060606060606060606063D
:105A100006060F0F0000000000000000000000005C
:105A200000000000FC036000600060006000600097
:105A30006000600060006000600060006000600066
:105A40006000FC03000000000000000000000000F7
:105A500000000000F807C000C000C000C000C00087
:105A6000C000C000C000C000C000C000C000C00036
:105A7000C000C000C60066003C000000000000003E
:105A800000000000CF038601C60046002600160075
:105A900036002E006E004600C60086008601060114
:105AA00006038F0700000000000000000000000057
:105AB000000000001F0006000600060006000600A9
:105AC000060006000600060006000600060406049E
:105AD0000602FF03000000000000000000000000BC
