:020000040800F2
:10000000C0110020A10100081D6000087541000812
:10001000915E0008610800081169000800000000F6
:100020000000000000000000000000009D620008C9
:10003000330D000800000000A56000089F62000862
:10004000BB010008BB010008BB010008BB010008A0
:10005000BB010008BB010008BB010008BB01000890
:10006000D1130008E5130008BB010008BB0100081C
:10007000BB010008BB010008BB010008BB01000870
:10008000BB010008450C0008BB010008BB010008CB
:10009000BB010008BB010008BB010008BB01000850
:1000A00071630008BB010008BB010008BB01000828
:1000B0008963000899630008BB010008BB010008C0
:1000C000BB010008BB010008BB010008BB01000820
:1000D000BB010008BB010008BB010008BB01000810
:1000E000B1130008BB010008BB010008BB010008F8
:1000F000BB010008BB010008BB010008BB010008F0
:10010000BB010008BB010008BB010008BB010008DF
:10011000BB010008BB010008BB010008BB010008CF
:10012000BB010008BB010008BB010008BB010008BF
:10013000BB010008BB010008BB010008BB010008AF
:10014000BB010008BB010008BB010008BB0100089F
:10015000BB010008BB010008BB010008BB0100088F
:10016000BB010008BB010008BB010008BB0100087F
:10017000BB010008BB010008BB0100080000000033
:10018000BB010008BB010008DFF810D000F0C8FA7E
:1001900000480047AD750008AFF30080C011002093
:1001A0000648804706480047FEE7FEE7FEE7FEE711
:1001B000FEE7FEE7FEE7FEE7FEE7FEE75D63000819
:1001C000890100082DE9F05F0546002092469B4614
:1001D00088460646814640241BE02846414647465D
:1001E000224600F0E2F853465A46C01A914110D315
:1001F00011461846224600F0C9F82D1A67EB01088F
:100200004F4622460120002100F0C0F817EB0009FC
:100210004E41201EA4F10104DFDC484631462A4647
:100220004346BDE8F09FD2B201E000F8012B491E21
:10023000FBD270470022F6E710B513460A46044683
:100240001946FFF7F0FF204610BD2DE9FE4F81EA69
:10025000030404F0004421F0004100944FF0000B2F
:1002600023F0004350EA01045ED052EA03045BD05D
:10027000C3F30A54C1F30A552C44A4F2F334019495
:10028000A0FB0254C1F3130141F48011C3F3130323
:1002900043F4801301FB024400FB034E840A970AD7
:1002A00044EA815447EA8357A4FB076802958D0A04
:1002B00005FB07854FEA932C04FB0C542705029D90
:1002C0004FEA065847EA1637B5EB08056EEB070C00
:1002D000870E920E47EA811742EA8312A7FB0201BA
:1002E000B6EB0B0164EB00042B0D43EA0C335E18F4
:1002F00044EB1C50DA465146E7FB0201C5F31304F8
:100300004FEA0B3343EA14534FEA0432019C43EAA9
:100310000603A4F10C040294009CCDE900B400F0A3
:100320009AF803B0BDE8F08F00200146F9E700F02D
:10033000004230F000400AD0C10D01F56071C0F3F9
:10034000160042EA0151C2084007114370470020DD
:100350000146704701F0004330B421F0004150EAFB
:10036000010206D00A0DA2F56072C1F31301002A42
:1003700002DC30BC00207047440F44EAC104C100D5
:10038000E01830BC00EBC25000F01FB8202A04DB9C
:10039000203A00FA02F1002070479140C2F1200398
:1003A00020FA03F3194390407047202A04DB203AD7
:1003B00021FA02F00021704721FA02F3D040C2F185
:1003C000200291400843194670470029A8BF704792
:1003D000401C490008BF20F00100704710B4B0FA7B
:1003E00080FC00FA0CF050EA010404BF10BC704716
:1003F00049B1CCF1200421FA04F411FA0CF118BF30
:10040000012121430843A3EB0C01CB1D4FEA0061FE
:100410004FEA102042BF002010BC704700EBC350D1
:1004200010440029A4BF10BC7047401C490008BFFD
:1004300020F0010010BC704710B5141E73F10004C9
:1004400008DA401C41F1000192185B411A4301D1C6
:1004500020F0010010BD2DE9F04D92469B4611B1F0
:10046000B1FA81F202E0B0FA80F220329046FFF752
:100470008DFF04460F4640EA0A0041EA0B0153464D
:100480005A46084313D0114653EA010019D0C8F167
:1004900040025046FFF789FF05460E465046594632
:1004A0004246FFF773FF084305D0012004E02046D1
:1004B0003946BDE8F08D0020054346EAE0762C433E
:1004C00037430A986305E40AA0EB08000022FD0AFE
:1004D00044EA47540A3002D500200146E9E7010505
:1004E00010196941DDE9084500196941BDE8F04D81
:1004F000A2E72DE9FE4F804681EA0300C00F0C46BB
:10050000009021F0004123F00045B8EB0200A94122
:1005100005D24046214690461C460B46024623F033
:100520000040104347D0270DC7F30A00C3F30A5118
:100530000290401A019040286BDAC3F3130040F494
:10054000801B0098924620B10023D2EB030A63EB94
:100550000B0B01985946C0F140025046FFF716FFB9
:1005600006460D4650465946019A00F0EBF810EB4E
:1005700008006141002487EA115284EAE7731A43B4
:1005800040D0009A62B3019A012A4FEA075215DC63
:10059000001B61EB02014FF0004202EA0752CDE975
:1005A0000042001C41F5801132462B46FFF753FFF5
:1005B00003B0BDE8F08F40462146F9E7001B61EB30
:1005C0000201001C41F5801300185B412018A2F5C0
:1005D000001747EB030140EAD570B6196D4111E0F1
:1005E0006D084FEA360645EAC0754FEA0752001B10
:1005F00061EB0201001C41F5801149084FEA30000F
:100600000019514132462B4603B0BDE8F04FFFF7C9
:1006100013BF0098012240000023D0EB020263EBDD
:10062000E073009821464FEAE074B8EB000061EBFC
:100630000401E9E783F000435BE781F0004158E7FC
:100640002DE9F04D81EA030404F0004B21F0004550
:1006500014464FF0000A23F0004150EA050220D072
:1006600054EA01021DD0C5F30A570246C5F313032D
:10067000C1F31300C1F30A5640F4801543F480130C
:10068000A7EB0608101BD64608F2FD3873EB0500F1
:1006900002D308F1010801E092185B41B8F1000FA4
:1006A00003DA00200146BDE8F08D00204FF48011F0
:1006B000064684460EE0171B73EB050705D3121B95
:1006C00063EB050306434CEA010C49084FEA30008E
:1006D00092185B4150EA0107EDD152EA030012D0B3
:1006E00082EA040083EA0501084305D0101BAB41F0
:1006F00006D20122002306E000224FF0004302E070
:100700006FF0010253101AEB06004CEB085110EB8E
:100710000A0041EB0B01BDE8F04DFFF78DBE000074
:10072000064C074D06E0E06840F0010394E807003E
:1007300098471034AC42F6D3FFF72AFDA0C1000859
:10074000C0C10008202A06DBCB17203A41FA02F08C
:1007500043EAE07306E041FA02F3D040C2F120021E
:1007600091400843194670472DE9F04D00231A4681
:100770001B1A8A4103DB00200146BDE8F08DC1F35E
:100780000A52C1F3130141F480154FF0000BD10759
:1007900002D100186D41521E0027044640F2FF119D
:1007A000384601EB620A3E468046024600204FF47E
:1007B0008011FFF7FAFDC2197141BB1846EB010029
:1007C000B4EB030C75EB000C04D3E41A65EB0005E5
:1007D00017460E46241908F101006D418046342861
:1007E000E3DDF91946EB0600091BA84103D24FF0DF
:1007F000FF32134601E0002213461BEB070046EBD5
:100800000A51BDE8F04DFFF717BE70B58C1810F80F
:10081000015B15F0070301D110F8013B2A1106D145
:1008200010F8012B03E010F8016B01F8016B5B1E5F
:10083000F9D12B0705D40023521E0DD401F8013B3A
:10084000FAE710F8013BCB1A921C03E013F8015BA6
:1008500001F8015B521EF9D5A142D8D3002070BD2A
:1008600000BFFEE77FB5F049097801EB8101EF4A4F
:10087000126802EBC101087B042203A900F04EFDBF
:100880000024CDE10421EA4801F06AF8A0BB9DF8FC
:100890000F10E548007800EB8000E44A126802EB94
:1008A000C0000069814203D100208DF80F0005E0EF
:1008B0009DF80F00401CC0B28DF80F00182245F2C1
:1008C0005841D948007800EB8000D84B1B6803EBF7
:1008D000C000408C8DE80700D4480068C08CD24B23
:1008E0001B78C3EB031300EB430081B29DF80F208C
:1008F0000323C32004F05AFE0821CD4801F030F84C
:1009000098BB9DF80F0058B9C748007800EB8000ED
:10091000C649096801EBC000007C8DF80F0005E0B6
:100920009DF80F00401EC0B28DF80F00182145F24F
:100930005842BD48007800EB8000BC4B1B6803EBBD
:10094000C000408CCDE901210090B8480068C08CFF
:10095000B54B1B78C3EB031300EB430081B29DF84A
:100960000F200323C32004F021FE4FF48051B1482F
:1009700000F0F6FF00287CD148F23040AB4A0090EE
:100980001268D28CA84D2D78C5EB051502EB4502F7
:10099000183293B2A54A1268D28CA34D2D78C5EBBC
:1009A000051502EB450291B29F4A127802EB8202D2
:1009B0009E4D2D6805EBC202908CE62204F05FFA92
:1009C0009949097801EB8101984A126802EBC1014B
:1009D000087B042203A900F0A1FC182148F2304250
:1009E0009148007800EB8000904B1B6803EBC0003F
:1009F000408CCDE9012100908C480068C08C8A4B66
:100A00001B78C3EB031300EB430081B29DF80F206A
:100A10000323C32004F0CAFD0020182148F230420D
:100A2000824DCDE9002102902D68ED8C7E4E367806
:100A3000C6EB061605EB4605A9B27B4D2D7805EBF6
:100A400085057A4E366806EBC5056B8C764D2D789C
:100A500005EB8505754E366806EBC505AA68724D2F
:100A60002D7805EB8505714E366806EBC505A88C1B
:100A700000E007E004F0E5FD00206F49087000F099
:100A800071F9CEE04FF400516A4800F069FF012887
:100A900000D101244FF40051664800F061FF0028A6
:100AA0007DD1012CFCD16049097801EB81015F4ABD
:100AB000126802EBC101087B042203A900F060FC6C
:100AC00001286DD045F258408C23AA225F21009066
:100AD000462004F0D4F90020182145F258424FF680
:100AE000FF73CDE90021029054A267214E2004F04B
:100AF000A8FD40F2DC5000F01DF948F230404B4AAE
:100B000000901268D28C484D2D78C5EB051502EB8C
:100B10004502183293B2454A1268D28C424D2D7864
:100B2000C5EB051502EB450291B23F4A127802EB84
:100B300082023E4D2D6805EBC202908CE62204F045
:100B40009EF93949097801EB8101384A126802EBB4
:100B5000C101087B042203A900F0E0FB182248F23F
:100B600030413148007800EB8000304B1B6803EBCC
:100B7000C000408C8DE807002C480068C08C2A4BD0
:100B80001B78C3EB031300EB430081B29DF80F20E9
:100B90000323C32004F00AFD0020182101E03CE0FB
:100BA0003AE048F23042214DCDE9002102902D6813
:100BB000ED8C1D4E3678C6EB061605EB4605A9B240
:100BC000194D2D7805EB8505184E366806EBC505E1
:100BD0006B8C154D2D7805EB8505144E366806EBAC
:100BE000C505AA68104D2D7805EB85050F4E3668B2
:100BF00006EBC505A88C04F024FD48F230408C2398
:100C0000AA225F210090462004F039F900200A4909
:100C1000087000F0A7F8002403E0642000F08AF8D0
:100C200030E600BF7FBD000031000020280000201A
:100C30000008024000040240300000207375636326
:100C40006573730010B5024800F0EAFB10BD0000A8
:100C5000D80C00200146087810381823B0FBF3F2B6
:100C60000848805CC865032A05D908686FF3090045
:100C7000001D886503E008686FF309008865886DCA
:100C800070470000A0BF0008014600208A6A8B69F7
:100C9000CBB932B1012A0DD0022A03D0032A10D1D8
:100CA0000EE000BFCB6A03F08073B3F1807F00D108
:100CB000012007E0CB6AB3F1C07F00D1012001E041
:100CC00000E000BF34E08B69B3F5005F1AD132B1A8
:100CD000012A07D0022A03D0032A11D10AE000BF5B
:100CE00001200EE0CB6A03F08073B3F1807F00D166
:100CF000012006E0CB6AB3F1C07F00D1012000E003
:100D000000BF15E032B1012A05D0022A04D0032A1F
:100D10000CD103E000BF00BF012008E0CB6A03F064
:100D20008073B3F1807F00D1012000E000BF00BFDD
:100D30007047704710B5044603E04FF47A7000F036
:100D400005F8201EA4F10104F7D110BDA8224243EA
:100D50000523B2FBF3F100E000BF0A1EA1F101017F
:100D6000FAD170472DE9FF41C2480078FD2803D031
:100D7000C0480078FC2811D148F23040F0231A46D0
:100D800000210090084604F07AF845F258403223DA
:100D9000F02200210090084604F071F8B64800687F
:100DA00005780024062D01DD062000E028460646D1
:100DB000B2480078062803DAB0480078A84214DB6D
:100DC000AE480078FF2802D1681EAC490870AB48D5
:100DD0000078A84202DB0020A8490870A7480078E4
:100DE000062802DB0020A5490870A3490968486865
:100DF00000F06CFA04EB84009F49096801EBC00025
:100E000090F82000002878D1002472E004EB8400E0
:100E10009949096801EBC000C08C98BB00201821DB
:100E2000964A1278944202D145F2584201E048F2C3
:100E30003042914FCDE9002102903F68FF8CC4EB16
:100E4000041C07EB4C07B9B204EB8407DFF828C297
:100E5000DCF800C00CEBC7077B8C04EB8407DFF8E1
:100E600018C2DCF800C00CEBC707BA6804EB8407B3
:100E7000DFF804C2DCF800C00CEBC707B88C04F044
:100E8000CFF834E0FFE7002018217C4A1278944222
:100E900002D145F2584201E048F2304204EB8407A7
:100EA000DFF8D4C1CDE900210290DCF800C00CEBE2
:100EB000C7077B8C04EB8407DFF8BCC1DCF800C0FB
:100EC0000CEBC707BA6804EB8407DFF8ACC1DCF8A9
:100ED00000C00CEBC707F98C04EB8407DFF898C15E
:100EE000DCF800C00CEBC707B88C04F099F8601C64
:100EF000C4B2B4428ADBBAE0FFE704EB84005E4987
:100F0000096801EBC00090F820000128F3D100240B
:100F1000AAE004EB84005849096801EBC000C08CCA
:100F200098BB00201821554A1278944202D145F20C
:100F3000584201E048F230424F4FCDE90021029083
:100F40003F68FF8CC4EB041C07EB4C07B9B204EB01
:100F50008407DFF824C1DCF800C00CEBC7077B8CEA
:100F600004EB8407DFF810C1DCF800C00CEBC70706
:100F7000BA6804EB8407DFF800C1DCF800C00CEBB2
:100F8000C707B88C04F05DFB34E0FFE700211820B0
:100F90003A4A1278944202D145F2584201E048F2AE
:100FA000304204EB8407DFF8D0C0CDE90020029185
:100FB000DCF800C00CEBC7077B8C04EB8407DFF880
:100FC000B8C0DCF800C00CEBC707BA6804EB8407B4
:100FD000DFF8A4C0DCF800C00CEBC707F98C04EB09
:100FE0008407DFF894C0DCF800C00CEBC707B88CAE
:100FF00004F027FB04EB84001F49096801EBC000E3
:10100000007B65282ED004EB84001B49096801EBA6
:10101000C000007B662825D004EB8401164A1268C4
:1010200002EBC101087B042203A900F077F9182222
:1010300048F2304104EB84000F4B1B6803EBC00007
:10104000408C8DE807000C480068C08CC4EB04138A
:1010500000EB430081B29DF80F200323C32004F06E
:10106000A5FA00BF601CC4B2B442FFF652AFBDE89F
:10107000FF81000030000020280000203100002007
:101080007FB58C480078FF280BD08A480078FE286E
:1010900007D088480078FD2803D086480078FC28CF
:1010A0007ED184480078FC287BD0FD2813D0FE2810
:1010B00009D0FF2876D180480078401E7E4908700C
:1010C000FFF750FEF0E07C480078401C7A49087039
:1010D000FFF748FEE8E07848007800EB80007749A9
:1010E000096801EBC000007B652824D172480078B4
:1010F00000EB80007149096801EBC0008069C0B154
:101100006E4800686E4908606B48007800EB80000C
:101110006A49096801EBC00080696849086066484F
:10112000007868490870002063490870FFF71AFECC
:1011300000E0A1E0A0E06048007800EB80005F499B
:10114000096801EBC000406900287CD045F2584096
:101150005A4A00901268D28C574C2478C4EB04147D
:1011600002EB4402183293B2544A1268D28C524CA9
:101170002478C4EB041402EB440291B24E4A127874
:1011800002EB82024D4C246804EBC202908CE622F2
:1011900003F075FE4849097801EB8101474A02E0F6
:1011A00083E06BE07FE0126802EBC101087B042260
:1011B00003A900F0B3F8182245F258413E480078E0
:1011C00000EB80003D4B1B6803EBC000408C8DE8BA
:1011D00007003A480068C08C374B1B78C3EB0313F9
:1011E00000EB430081B29DF80F200323C32004F0DD
:1011F000DDF90020182145F25842304CCDE900219C
:1012000002902468E48C2C4D2D78C5EB051504EB79
:101210004504A1B2284C247804EB8404274D2D68A2
:1012200005EBC404638C244C247804EB8404234D24
:101230002D6805EBC404A2681F4C247804EB8404D9
:101240001E4D2D6800E015E005EBC404A08C04F0F1
:10125000F8F901201C4908701749097801EB810150
:10126000164A126802EBC1014869804700201649FE
:10127000087000E000E000BF00BF15E01048006803
:1012800078B10F4800680D49086008460068C069D9
:101290000B4908600B48007807490870FFF762FDAA
:1012A00000E001E000E000BF00BF0020014908703D
:1012B0007FBD000030000020310000202800002009
:1012C0002C00002032000020330000203EB50446F0
:1012D0000020202145F258424FF6FF73CDE900214E
:1012E000029022460A21322003F09AFE3EBD000001
:1012F0003EB504460D464FF47A7001210B46224656
:10130000CDE900510290A121034800F025FC08B965
:1013100000203EBD0120FCE7DC090020FEB50446AC
:101320000D4616464FF47A7001232246A121CDE9DD
:1013300000560290034800F00FFC08B90020FEBDE3
:101340000120FCE7DC09002013B584B004464FF40B
:101350007A70012105AA0B46CDE9002102902246B0
:10136000A021064800F07CFD28B90520FFF7E2FC2B
:10137000002006B010BD0120FBE70000DC090020C2
:101380002DE9F04105460E461746002004460AE0C6
:10139000315D2A1990B2FFF7D7FF10B10120BDE8E7
:1013A000F081601C0446BC42F2DB00BFF7E700009E
:1013B00010B5064802F022F84FF4805000F0C8F94A
:1013C0004FF4005000F0C4F910BD0000900C002054
:1013D00010B5034802F012F8042000F0B9F910BD6E
:1013E000900C002010B5034802F008F8082000F027
:1013F000AFF910BD900C002072B600BFFEE70000F0
:10140000014611B9044800687047012902D1034818
:101410000068F9E700BFF7E704000020080000209B
:10142000F8B50446002000908C4800684FF416512F
:10143000B0FBF1F7A56D2E6894F85C100820884089
:10144000304098B12068006800F0040070B1206856
:10145000006820F004002168086094F85C100820FF
:101460008840A860606D40F00100606594F85C10F1
:1014700001208840304068B12068406900F0800059
:1014800040B194F85C1001208840A860606D40F085
:101490000200606594F85C1004208840304068B118
:1014A0002068006800F0020040B194F85C1004204D
:1014B0008840A860606D40F00400606594F85C109E
:1014C00010208840304078B32068006800F00800A1
:1014D00050B394F85C1010208840A8602068006821
:1014E00000F4802080B12068006800F4002028B952
:1014F000206CC8B12046216C884715E0A06C98B1DB
:101500002046A16C88470FE02068006800F48070D6
:1015100028B92068006820F0080021680860206C65
:1015200010B12046216C884794F85C102020884038
:101530003040002865D02068006800F010000028C6
:101540005FD094F85C1020208840A86094F83500A3
:10155000052828D12068006820F01600216808605E
:101560002068406920F0800021684861206C08B93B
:10157000A06C28B12068006820F00800216808608D
:1015800094F85C103F208840A860012084F8350062
:1015900000BF002084F8340000BF206D10B1204649
:1015A000216D8847F8BD2068006800F4802080B174
:1015B0002068006800F4002028B9606C10B1204653
:1015C000616C88471DE0E06BD8B12046E16B88472D
:1015D00017E02068006800F4807068B9206800682F
:1015E00020F0100021680860012084F8350000BF59
:1015F000002084F8340000BFE06B10B12046E16B9E
:101600008847606D38B3606D00F00100F0B10520CF
:1016100084F835002068006820F001002168086027
:1016200000BF0098401C0090B84200D905E0206837
:10163000006800F001000028F3D100BF012084F809
:10164000350000BF002084F8340000BFE06C10B10A
:101650002046E16C884700BFA4E700007405002025
:101660002DE9F0410446002500F088F9074614B939
:101670000120BDE8F081606A00B100BF022084F85B
:10168000350000BF002084F8340000BF20680068E7
:1016900020F00100216808600AE000F06FF9C01B2B
:1016A000052805D920206065032084F83500E0E78F
:1016B0002068006800F001000028EED1206805686D
:1016C00021480540D4E901010843E1680843216944
:1016D000084361690843A1690843E1690843216A35
:1016E00008430543606A042803D1D4E90B01084389
:1016F0000543206805602068456925F00705606A94
:101700000543606A04280DD1A06A0543E06A48B128
:101710002046FFF7B9FA28B140206065012084F81F
:101720003500A6E7206845612046FFF793FA064694
:1017300094F85C103F208840B06000206065012074
:1017400084F83500002094E73F8010F070470000D7
:1017500010B5044604480068204020B102480460E7
:101760002046FFF7F3FF10BD143C0140F8B50246D8
:101770000B460025002400200021D6E0012606FAB1
:1017800001F51E6806EA0504AC4274D11E7906F024
:101790000306012E04D01E7906F00306022E13D193
:1017A00090684F000326BE40B0434F00DE68BE4045
:1017B00030439060506801268E40B0431E79C6F3D6
:1017C00000168E40304350601E7906F00306032E4B
:1017D00009D0D0684F000326BE40B0434F009E683A
:1017E000BE403043D0601E7906F00306022E13D1AE
:1017F000CF0802F1200656F827004E07F70E0F26F5
:10180000BE40B0434F07FF0E1E69BE403043CF08B5
:1018100002F1200646F8270010684F000326BE405C
:10182000B0431E7906F003064F00BE4030431060FF
:101830005E6806F44036002E76D000BF0026009683
:101840003C4E366846F480463A4F3E603E46366827
:1018500006F48046009600BF00BF374E8F0856F84A
:1018600027008E07370F0F26BE40B043334EB242DB
:1018700002D1002624E057E0314EB24201D10126C8
:101880001EE0304EB24201D1022619E02E4EB24285
:1018900001D1032614E02D4EB24201D104260FE0FF
:1018A0002B4EB24201D105260AE02A4EB24201D1A6
:1018B000062605E0284EB24201D1072600E00826A0
:1018C0008F073F0FBE4030431B4E8F0846F827005E
:1018D000224E3068A0435E6806F4801606B12043AD
:1018E0001E4E3060361D3068A0435E6806F4001658
:1018F00006B12043194E361D3060184E361F306831
:10190000A0435E6806F4003606B12043134E361F2E
:101910003060361F3068A0435E6806F4803606B13A
:1019200020430E4E083E3060491C1029FFF426AFBC
:10193000F8BD000044380240083801400000024071
:101940000004024000080240000C02400010024067
:101950000014024000180240001C0240083C0140F4
:10196000024613690B400BB1012000E000207047D4
:101970000AB1816101E00B0483617047014800688E
:10198000704700006805002070B504460CB90120BE
:1019900070BD94F83D0028B9002084F83C00204632
:1019A00000F010FB242084F83D002068006820F03F
:1019B0000100216808602068006840F40040216848
:1019C00008602068006820F400402168086000F08A
:1019D000FFFC05465C496068884206D85B48854242
:1019E00001D2012007E0002005E05948854201D2DC
:1019F000012000E00020012800D1C9E75548B5FBCF
:101A0000F0F62068406820F03F00304321684860CD
:101A10004D496068884201D8701C07E04FF4967009
:101A200070434FF47A71B0FBF1F0401C2168096AF1
:101A300021F03F01084321680862434960688842F9
:101A400014D8681E61684900B0FBF1F0401CC0F377
:101A50000B00042801D204203DE0681E61684900A3
:101A6000B0FBF1F0401CC0F30B0034E0A06838B9C3
:101A7000681E616801EB4101B0FBF1F0401C0AE017
:101A8000681E616801EBC10202EB0111B0FBF1F0CD
:101A9000401C40F48040C0F30B0008B901201AE05C
:101AA000A06848B9681E616801EB4101B0FBF1F024
:101AB000401CC0F30B000CE0681E616801EBC10222
:101AC00002EB0111B0FBF1F0401CC0F30B0040F43D
:101AD000804040F400402168C9694CF6FF72914390
:101AE00008432168C861D4E90701084321680968EF
:101AF00021F0C001084321680860D4E903100843BD
:101B00002168896848F2FF32914308432168886060
:101B1000D4E9050108432168C96821F0FF010843A1
:101B20002168C8602068006840F0010021680860F2
:101B300000202064202084F83D000020206384F8E9
:101B40003E0000BF24E70000A086010080841E0044
:101B500000093D0040420F002DE9FC5F04460F469E
:101B600090469946DDE90CAB0E9EFFF707FF054650
:101B700094F83D00202870D119230122B549204650
:101B8000009502F06CFC10B10220BDE8FC9F00BF84
:101B900094F83C00012801D10220F6E7012084F8E6
:101BA0003C0000BF2068006800F0010028B92068F0
:101BB000006840F00100216808602068006820F497
:101BC000006021680860222084F83D00402084F8ED
:101BD0003E0000202064C4F824A0A4F82AB0608D40
:101BE00020859D48E0624B46424639462046CDE975
:101BF000006502F0E1FA08B10120C6E7208D88B93E
:101C000000BF002001902068406901902068806931
:101C1000019000BF00BF2068006840F40070216898
:101C2000086040E0208D012818D12068006820F469
:101C300080602168086000BF002001902068406932
:101C4000019020688069019000BF00BF2068006893
:101C500040F400702168086025E0F8E0208D02283B
:101C600016D12068006820F4806021680860206830
:101C7000006840F400602168086000BF0020019007
:101C800020684069019020688069019000BF0AE0E7
:101C900000BF0020019020684069019020688069A1
:101CA000019000BF00BFC3E0208D03287ED8208DA7
:101CB000012815D12A463146204602F0ACFC08B175
:101CC000012062E720680069616A0870606A401C50
:101CD0006062208D401E2085608D401E6085A7E0DB
:101CE000208D02282AD1334600225C4920460095E7
:101CF00002F0B5FB08B1012047E72068006840F416
:101D000000702168086020680069616A0870606A74
:101D1000401C6062208D401E2085608D401E6085C5
:101D200020680069616A0870606A401C6062208DEA
:101D3000401E2085608D401E608579E0334600227C
:101D400046492046009502F08AFB08B101201CE7B5
:101D50002068006820F480602168086020680069BD
:101D6000616A0870606A401C6062208D401E208598
:101D7000608D401E6085334600223849204600951C
:101D800002F06DFB08B10120FFE62068006840F416
:101D900000702168086020680069616A0870606AE4
:101DA000401C6062208D401E208500E010E0608DA8
:101DB000401E608520680069616A0870606A401C86
:101DC0006062208D401E2085608D401E60852FE062
:101DD0002A463146204602F01EFC08B10120D4E616
:101DE00020680069616A0870606A401C6062208D2A
:101DF000401E2085608D401E608520684069C0F3CC
:101E00008000A8B1208D032805D12068006820F447
:101E100080602168086020680069616A0870606AF3
:101E2000401C6062208D401E2085608D401E6085B4
:101E3000208D00287FF438AF202084F83D0000205A
:101E400084F83E0000BF84F83C0000BF9DE60220FD
:101E50009BE60000020010000000FFFF04000100EC
:101E60002DE9FC5F04460F4690469946DDE90CAB30
:101E70000E9EFFF783FD054694F83D0020287DD196
:101E8000192301224D492046009502F0E8FA10B1CD
:101E90000220BDE8FC9F00BF94F83C00012801D15E
:101EA0000220F6E7012084F83C0000BF20680068AB
:101EB00000F0010028B92068006840F001002168A6
:101EC00008602068006820F4006021680860212014
:101ED00084F83D00402084F83E0000202064C4F8CF
:101EE00024A0A4F82AB0608D20853548E0624B46D6
:101EF000424639462046CDE9006502F00DFA08B1A8
:101F00000120C6E731E02A463146204602F0C8FBF0
:101F100050B1206C042805D12068006840F400709E
:101F2000216808600120B4E7606A007821680861D0
:101F3000606A401C6062208D401E2085608D401EBE
:101F4000608520684069C0F3800070B1208D60B169
:101F5000606A007821680861606A401C6062208DB8
:101F6000401E2085608D401E6085208D0028CAD1CE
:101F70002A463146204602F03FFA00E01CE050B10C
:101F8000206C042805D12068006840F400702168A6
:101F9000086001207DE72068006840F40070216837
:101FA0000860202084F83D00002084F83E0000BF37
:101FB00084F83C0000BF6CE702206AE702001000D2
:101FC0000000FFFF10B586B00446142101A8FEF7FB
:101FD00031F92A49206888424DD100BF0020009085
:101FE0002748006840F0040025490860084600685A
:101FF00000F00400009000BF00BF00BF0020009070
:102000000846006840F0010008600846006800F0DB
:102010000100009000BF00BF4815019012200290FF
:1020200001200390032004900420059001A9154885
:10203000FFF79CFB4FF4807001901220029001206A
:102040000390032004900420059001A90E48FFF797
:102050008DFB00BF0020009009481030006840F45C
:1020600000000749103108600846006800F40000CD
:10207000009000BF00BF06B010BD0000005C004033
:102080003038024000080240000002400348006867
:102090000349097808440149086070476805002031
:1020A0007005002010B50D48006840F400700B4921
:1020B00008600846006840F48060086008460068D0
:1020C00040F480700860032000F0A6F80F2000F0B4
:1020D00007F800F02BF8002010BD0000003C024083
:1020E00070B504460E4800784FF47A71B1FBF0F0F9
:1020F0000C490968B1FBF0F5284600F0D7FF08B19C
:10210000012070BD102C07D200222146501E00F085
:1021100045F80548046001E00120F2E70020F0E7FF
:1021200070050020740500206C05002008B500BF74
:10213000002000900E48006840F480400C49086080
:102140000846006800F48040009000BF00BF00BF58
:1021500000200090081F006840F08050091F0860B0
:102160000846006800F08050009000BF00BF08BD26
:10217000443802400146084600280DDB00BF00BF7E
:1021800000F01F0301229A4043099B0003F1E02362
:10219000C3F8002100BF00BF00BF70472DE9F05F0A
:1021A00080460D461646002704F028FC07463946AF
:1021B0002A46334601F00700C0F1070ABAF1040FBE
:1021C00002D94FF0040A01E0C0F1070AD14600F13C
:1021D000040ABAF1070F02D24FF0000A01E0A0F1A1
:1021E000030AD4464FF0010A0AFA09FAAAF1010AD1
:1021F0000AEA020A0AFA0CFA4FF0010B0BFA0CFB7E
:10220000ABF1010B0BEA030B4AEA0B0421464046F3
:1022100004F0FCFBBDE8F09F00BF00F00702064B96
:1022200019684FF6FF031940044B0B4343EA0221A0
:10223000014B196000BF70470CED00E00000FA058B
:1022400070B504460D460CB9012070BD58480068B1
:1022500000F00700A84209D255490D7008460068F1
:1022600000F00700A84201D00120EEE7207800F03E
:10227000020002281DD1207800F00400042805D1B6
:102280004C48006840F4E0504A490860207800F06B
:102290000800082805D14748006840F460404549D7
:1022A00008604448006820F0F000A16808434149F4
:1022B0000860207800F00100A8B36068012807D109
:1022C0003C4808380068C0F34040B8B90120BCE77A
:1022D0006068022802D06068032807D135480838B2
:1022E0000068C0F3406048B90120AEE731480838C3
:1022F0000068C0F3400008B90120A6E72D48006837
:1023000020F00300616808432A490860FFF736FBA4
:10231000064609E0FFF732FB801B41F28831884214
:1023200002D9032091E707E02248006800F00C0082
:102330006168B0EB810FEDD11D48006800F0070027
:10234000A84209D91A490D700846006800F0070034
:10235000A84201D0012078E7207800F0040004288A
:1023600007D11448006820F4E050E168084311499F
:102370000860207800F00800082808D10D4800689F
:1023800020F46040216940EAC1000A49086000F079
:102390003FF808490968C1F30311074A515CC84076
:1023A0000649086006480068FFF79AFE00204CE7DF
:1023B000003C024008380240A8BF00087405002015
:1023C0006C0500200148006870470000740500207B
:1023D00000B5FFF7F7FF04490968C1F38221034AFA
:1023E000515CC84000BD000008380240B8BF00087A
:1023F00000B5FFF7E7FF04490968C1F34231034A1A
:10240000515CC84000BD000008380240B8BF000859
:102410002DE9F047002400250026A1462548006844
:1024200000F00C0020B1042805D008283AD105E0BE
:10243000DFF8849039E0DFF8849036E01D48001F13
:10244000006800F03F041B48001F006800F4800093
:1024500078B11A481749091F0968C1F38811A0FB10
:1024600001700146224600233846FDF7ABFE0546C3
:102470000EE011480F49091F0968C1F38811A0FB3C
:1024800001700146224600233846FDF79BFE0546B3
:102490000848001F0068C0F30140401C4600B5FB1F
:1024A000F6F902E0DFF8109000BF00BF4846BDE833
:1024B000F0870000083802400024F40000127A007F
:1024C000F8B504460CB90120F8BD207800F00100F1
:1024D000002874D0F948006800F00C0004280DD0E2
:1024E000F648006800F00C00082813D1F348001FDC
:1024F000006800F48000B0F5800F0BD1EF48083879
:102500000068C0F34040002859D06068002856D1C8
:102510000120D9E700BF6068B0F5803F08D1E748E7
:102520000838006840F48030E449083908601EE04B
:102530006068B0F5A02F0DD1E0480838006840F47D
:102540008020DE49083908600846006840F4803081
:1025500008600CE0D9480838006820F48030D7497A
:10256000083908600846006820F48020086000BF31
:10257000606890B1FFF702FA054606E0FFF7FEF942
:10258000401B642801D903209EE7CC480838006826
:10259000C0F340400028F1D011E0FFF7EFF9054605
:1025A00006E0FFF7EBF9401B642801D903208BE715
:1025B000C24808380068C0F340400028F1D12078B4
:1025C00000F0020002285FD1BC48006800F00C0057
:1025D00058B1BA48006800F00C0008281CD1B74870
:1025E000001F006800F48000B0B9B44808380068E3
:1025F000C0F3400020B1E068012801D0012063E76A
:10260000AE480838006820F0F800216940EAC100AF
:10261000AA490839086037E0E06800B30120A849FA
:102620000860FFF7ABF9054606E0FFF7A7F9401B86
:10263000022801D9032047E7A04808380068C0F302
:1026400040000028F1D09D480838006820F0F800CC
:10265000216940EAC10099490839086014E0002066
:1026600097490860FFF78AF9054606E0FFF786F903
:10267000401B022801D9032026E79048083800684B
:10268000C0F340000028F1D1207800F008000828AD
:102690002CD16069A8B101208A490860FFF76EF962
:1026A000054606E0FFF76AF9401B022801D903201E
:1026B0000AE782486C300068C0F340000028F1D07F
:1026C00014E000207F490860FFF758F9054606E04E
:1026D000FFF754F9401B022801D90320F4E677489C
:1026E0006C300068C0F340000028F1D1207800F081
:1026F0000400042870D1002770483830006800F0CA
:10270000805090B900BF002000906C4838300068BD
:1027100040F080506949383108600846006800F090
:102720008050009000BF00BF01276748006800F498
:102730008070B0B96448006840F4807062490860F5
:10274000FFF71CF9054606E0FFF718F9401B0228C1
:1027500001D90320B8E65C48006800F480700028C6
:10276000F2D000BFA068012808D154486830006842
:1027700040F001005149683108601DE0A06805285B
:102780000DD14E486830006840F004004B49683174
:1027900008600846006840F0010008600CE0474807
:1027A0006830006820F0010044496831086008463C
:1027B000006820F00400086000BFA068A8B1FFF71F
:1027C000DDF8054609E0FFF7D9F8401B41F28831F2
:1027D000884202D9032077E626E03848683000684E
:1027E000C0F340000028EED013E0FFF7C7F805461D
:1027F00008E0FFF7C3F8401B41F28831884201D955
:10280000032061E62D4868300068C0F340000028CE
:10281000EFD1012F07D129483830006820F08050CF
:1028200026493831086000BFA069002845D02348F8
:10283000006800F00C0008285DD0A069022845D18E
:1028400000201F490866FFF799F8054606E0FFF7E4
:1028500095F8401B022801D9032035E617480838AF
:102860000068C0F340600028F1D1D4E907010843B3
:10287000616A40EA81110122A06AC2EB500041EA7C
:1028800000412C20005D41EA00600C49091F0860EE
:1028900001200B490866FFF771F8054606E0FFF7CF
:1028A0006DF8401B022801D903200DE603480838C3
:1028B0000068C0F340600028F1D049E008380240C9
:1028C00000004742800E474200700040002021492E
:1028D0000866FFF753F8054606E0FFF74FF8401B80
:1028E000022801D90320EFE51B480068C0F34060CF
:1028F0000028F2D12CE0A069012800D1E4E51648B7
:10290000001D0668A069012820D006F48001E06956
:1029100081421BD106F03F01206A814216D147F661
:10292000C0703040616AB0EB811F0FD106F44031B6
:102930000122A06AC2EB5000B1EB004F06D106F0B5
:1029400070612C20005DB1EB006F01D00120BBE570
:102950000020B9E5000047420038024010B50446A7
:102960000CB9012010BD606A38B96068B0F5827F8B
:1029700000D105E00021E16102E0002121616161F7
:102980000021A16294F8510028B9002084F8500079
:10299000204600F047F8022084F8510020680068C3
:1029A00020F0400021680860A08800F4827021892E
:1029B00001F404410843A18901F400610843217C2A
:1029C00001F002010843217D01F001010843218B40
:1029D00001F400710843217F01F0380108432021F0
:1029E000095D01F080010843218D01F40051084385
:1029F000216808600421A06901EA104094F82410BD
:102A000001F010010843216848602068C06920F483
:102A100000602168C86100206065012084F85100D1
:102A200000209FE710B586B00446142101A8FDF7E9
:102A300001FC37492068884230D100BF0020009057
:102A40003448006840F48050324908600846006805
:102A500000F48050009000BF00BF00BF0020009035
:102A60002C481438006840F001002A4914390860E5
:102A70000846006800F00100009000BF00BFE020A1
:102A80000190022002900020039003200490052072
:102A9000059001A92048FEF769FE36E01F4920682D
:102AA000884232D100BF002000901A48001F006801
:102AB00040F400401749091F08600846006800F408
:102AC0000040009000BF00BF00BF002000901148F0
:102AD0001438006840F004000E49143908600846B4
:102AE000006800F00400009000BF00BF4FF4A05049
:102AF0000190022002900020039003200490062001
:102B0000059001A90648FEF731FE06B010BD000091
:102B1000003001404438024000000240003C0040C8
:102B2000000802402DE9F8430446884616461D4633
:102B300094F85100012802D00220BDE8F8836068B3
:102B4000B0F5827F0CD1A06850B9042084F8510000
:102B50003346424641462046009500F083F9ECE7B3
:102B6000FEF70CFF0746B8F1000F00D00EB90120A8
:102B7000E3E700BF94F85000012801D10220DCE710
:102B8000012084F8500000BF042084F85100002088
:102B90006065C4F83880A687E6872063A086E08653
:102BA00020646064A068B0F5004F0BD12068006815
:102BB00020F04000216808602068006820F4804010
:102BC000216808602068006800F04000402805D0B7
:102BD0002068006840F0400021680860E06830BB71
:102BE00021E02068806800F0010050B12068007B7F
:102BF000A16B0870A06B401CA063E08F401EE087B3
:102C000011E0FEF7BBFEC01BA84201D3681C00B94F
:102C10004DB9012084F8510000BF002084F8500015
:102C200000BF032089E7E08F0028DAD125E021E00A
:102C30002068806800F0010050B12068C068A16B76
:102C40000880A06B801CA063E08F401EE08711E02D
:102C5000FEF794FEC01BA84201D3681C00B94DB911
:102C6000012084F8510000BF002084F8500000BF0C
:102C7000032062E7E08F0028DAD13A462946204651
:102C800003F011FA08B120206065012084F851009A
:102C900000BF002084F8500000BF606D08B1012023
:102CA0004BE7002049E72DE9F84304460F46164656
:102CB0001D46FEF763FE8046B14694F85100012898
:102CC00002D00220BDE8F88307B10EB90120F9E770
:102CD00000BF94F85000012801D10220F2E7012042
:102CE00084F8500000BF032084F851000020606584
:102CF0002763A686E686A063A087E08760642064D9
:102D0000A068B0F5004F0BD12068006820F04000AB
:102D1000216808602068006840F4804021680860ED
:102D20002068006800F04000402805D02068006856
:102D300040F0400021680860E068B0F5006F37D1CE
:102D4000606810B1B9F1010F09D1206B00882168CA
:102D5000C860206B801C2063E08E401EE08623E06C
:102D60002068806800F0020002280AD1206B0088E9
:102D70002168C860206B801C2063E08E401EE086C6
:102D800012E0FEF7FBFDA0EB0800A84201D3681C8F
:102D900000B94DB9012084F8510000BF002084F82B
:102DA000500000BF03208DE7E08E0028D8D136E028
:102DB000606810B1B9F1010F09D1206B007821686A
:102DC0000873206B401C2063E08E401EE08623E0E9
:102DD0002068806800F0020002280AD1206B007889
:102DE00021680873206B401C2063E08E401EE08643
:102DF00012E0FEF7C3FDA0EB0800A84201D3681C57
:102E000000B94DB9012084F8510000BF002084F8BA
:102E1000500000BF032055E7E08E0028D8D142467D
:102E20002946204603F08AF908B120206065A06891
:102E300050B900BF002000902068C0680090206852
:102E40008068009000BF00BF012084F8510000BFDF
:102E5000002084F8500000BF606D08B1012031E708
:102E600000202FE72DE9FE4F04460F4690461D46F1
:102E70000C9E01200190FEF781FD814694F851B02F
:102E800060680290AA46BBF1010F0BD00298B0F522
:102E9000827F04D1A06810B9BBF1040F02D00220D8
:102EA000BDE8FE8F1FB1B8F1000F00D00DB90120B1
:102EB000F6E700BF94F85000012801D10220EFE7A7
:102EC000012084F8500000BF94F85100042802D07B
:102ED000052084F8510000206065C4F83880E5873B
:102EE000A5872763E586A58620646064206800685E
:102EF00000F04000402805D02068006840F0400005
:102F000021680860E068B0F5006F52D1606810B1C8
:102F1000BAF1010F09D1206B00882168C860206BCD
:102F2000801C2063E08E401EE0863BE020688068C5
:102F300000F00200022810D1E08E70B10198012843
:102F40000BD1206B00882168C860206B801C206337
:102F5000E08E401EE086002001902068806800F02E
:102F6000010068B1E08F58B12068C068A16B08808B
:102F7000A06B801CA063E08F401EE08701200190C1
:102F8000FEF7FCFCA0EB0900B0420BD3701C48B16B
:102F9000012084F8510000BF002084F8500000BFD9
:102FA00003207DE7E08E0028C0D1E08F0028BDD14E
:102FB00052E0606810B1BAF1010F09D1206B0078BE
:102FC00021680873206B401C2063E08E401EE08661
:102FD0003CE02068806800F00200022810D1E08EFA
:102FE00070B1019801280BD1206B0078216808731B
:102FF000206B401C2063E08E401EE0860020019084
:103000002068806800F0010068B1E08F58B1206846
:10301000C068A16B0870A06B401CA063E08F401ECD
:10302000E08701200190FEF7A9FCA0EB0900B04267
:1030300001D3701C00B94EB9012084F8510000BFC3
:10304000002084F8500000BF032029E7E08E00280C
:10305000BFD1E08F0028BCD14A463146204603F05C
:103060006DF840B12020606500BF002084F850005A
:1030700000BF012014E7A06850B900BF00200090F5
:103080002068C068009020688068009000BF00BF82
:10309000012084F8510000BF002084F8500000BFD8
:1030A000606D08B10120FBE60020F9E670B504462A
:1030B0002546681EB0F1807F01D301200FE0681E15
:1030C0004FF0E02148610F214FF0FF3003F09EFCEC
:1030D00000204FF0E021886107200861002070BDCA
:1030E0007047704710B50346002200BF93F83C00BC
:1030F000012801D1022010BD012083F83C0000BF4F
:1031000022F0FF00CC6840EA040222F440708C6890
:1031100040EA040222F480604C6840EA040222F48F
:1031200000600C6840EA040222F480500C6940EA16
:10313000040222F400504C6940EA040222F4804068
:10314000CC6940EA04021868426400BF002083F89A
:103150003C0000BF00BFCEE730B502460B4600BFC3
:1031600092F83C00012801D1022030BD012082F8F4
:103170003C0000BF022082F83D00106844681068DF
:10318000816824F070041868044310684460184D86
:103190001068A8421BD01068B0F1804F17D0154DB1
:1031A0001068A84213D0144D1068A8420FD0134DD8
:1031B0001068A8420BD0124D1068A84207D0114DDC
:1031C0001068A84203D0104D1068A84205D121F024
:1031D00080015868014310688160012082F83D0039
:1031E00000BF002082F83C0000BF00BFBDE7000028
:1031F000000001400004004000080040000C0040B6
:1032000000040140004001400018004010B5044691
:103210000CB9012010BD94F83D0028B9002084F8B5
:103220003C00204600F026F8022084F83D00211DD5
:10323000206803F0B9F8012084F8460000BF84F844
:103240003E0001213F2001554020015541200155FC
:1032500000BF00BF012084F84200432001554420F4
:1032600001554520015500BF012084F83D00002094
:10327000D0E7000038B5044659492068884218D183
:1032800000BF002000905748006840F001005549F9
:1032900008600846006800F00100009000BF00BF11
:1032A000002211461820FEF779FF1820FEF762FF72
:1032B00095E02068B0F1804F40D100BF0020009021
:1032C0004848001F006840F001004649091F086097
:1032D0000846006800F00100009000BF00BF4248AF
:1032E000424908604FF0C060486040213F4881601B
:1032F0000021C1604FF48061016189004161890052
:1033000081618911C161002101624162FEF7A8F962
:1033100008B1FEF771F800BF3449A1620846846322
:1033200000BF00BF2163846300BF002211461C2040
:10333000FEF734FF1C20FEF71DFF50E02C492068EB
:1033400088421AD100BF002000902648001F006864
:1033500040F002002349091F08600846006800F099
:103360000200009000BF00BF002211461D20FEF7A2
:1033700015FF1D20FEF7FEFE31E01E492068884241
:1033800011D100BF002000901648001F006840F0D7
:1033900008001449091F08600846006800F008008A
:1033A000009000BF1BE014492068884217D100BF7D
:1033B000002000900B48006840F480300949086004
:1033C0000846006800F48030009000BF00BF002273
:1033D00011461820FEF7E2FE1820FEF7CBFE38BD9E
:1033E0000000014044380240A0600240D80C002098
:1033F00000040040000C004000400140014691F8EC
:103400003D00012801D001207047022081F83D00D5
:103410000868C06840F001000B68D8601A4B086863
:1034200098421BD00868B0F1804F17D0174B08683E
:10343000984213D0164B086898420FD0154B086875
:1034400098420BD0144B0868984207D0134B086879
:10345000984203D0124B086898420CD108688068E3
:1034600000F00702062A0CD00868006840F001004E
:103470000B68186005E00868006840F001000B6800
:1034800018600020C0E70000000001400004004078
:1034900000080040000C00400004014000400140D2
:1034A0000018004001460868C06820F001000A6862
:1034B000D06000BF0868006A41F21112104050B994
:1034C0000868006A9210104028B90868006820F067
:1034D00001000A68106000BF012081F83D00002053
:1034E00070472DE9F04104460D46002700BF94F8CF
:1034F0003C00012802D10220BDE8F081012084F8BF
:103500003C0000BF022084F83D002068866826F059
:10351000770626F47F46206886602868502833D0D6
:103520000CDC202850D004DC00284BD0102851D1CE
:1035300049E0302849D040284CD139E060282DD0CE
:10354000702807D0B0F5805F03D0B0F5005F41D19F
:103550000DE041E0D5E902136A68206802F0A9FF96
:103560002068866846F077062068866034E0D5E9F2
:1035700002136A68206802F09CFF2068806840F4AB
:1035800080402168886027E0EA686968206803F065
:1035900081F85021206802F097FF1DE0EA68696811
:1035A000206803F08AF86021206802F08DFF13E0A4
:1035B000EA686968206803F06DF84021206802F02D
:1035C00083FF09E000BF00BF00BF2968206802F048
:1035D0007BFF01E0012700BF00BF012084F83D0010
:1035E00000BF002084F83C0000BF384684E72DE986
:1035F000F04104460D4614B90120BDE8F08194F86D
:103600003D0028B9002084F83C00204600F054F822
:10361000022084F83D002068806844F20701884356
:1036200021688860211D206802F0BEFE2068D0F865
:103630000880206886692068076A286840EA0808C8
:1036400040F203308643A969A86840EA0120064396
:1036500040F60C4086434FF2F0008643E969E86883
:1036600040EA0120064328690001296A40EA013046
:10367000064327F0220727F088076969686840EA4F
:10368000011007432068C0F8088020688661206820
:103690000762012084F8460084F83E0001213F20A3
:1036A0000155012084F8420043200155012084F88F
:1036B0003D000020A1E7000010B586B004461421AB
:1036C00001A8FCF7B7FD36492068884230D100BF19
:1036D000002000903348006840F004003149086041
:1036E0000846006800F00400009000BF00BF00BF63
:1036F000002000902B481038006840F0080029494D
:10370000103908600846006800F00800009000BF0B
:1037100000BF4FF44050019002200290002003901F
:1037200004900220059001A91F48FEF71FF834E01D
:103730001E492068884230D100BF002000901948FF
:10374000001D006840F002001649091D0860084687
:10375000006800F00200009000BF00BF00BF002022
:10376000009010481038006840F004000D491039EE
:1037700008600846006800F00400009000BF00BF29
:10378000C0200190022002900020039004900320AA
:10379000059001A90648FDF7E9FF06B010BD00003D
:1037A0000008004040380240000C02400004014084
:1037B000000802402DE9F04304460D4694F83E60AF
:1037C0003F20075D94F84280432010F804906DB9C3
:1037D000012E02D1B8F1010F02D00120BDE8F08323
:1037E000022084F83E0084F8420025E0042D0CD12C
:1037F000012F02D1B9F1010F01D00120EEE7022122
:103800003F2001554320015516E0012E07D1012F1D
:1038100005D1B8F1010F02D1B9F1010F01D001209A
:10382000DCE7022084F83E0002213F2001550220FF
:1038300084F842004320015515B1042D0CD105E058
:1038400001220021206802F023FE10E00122042161
:10385000206802F01DFE0AE001220021206802F02B
:1038600017FE01220421206802F012FE00BF00BFF3
:103870002068006840F00100216808600020ADE782
:10388000704770B504462068C5682068066906F070
:103890000200022819D105F00200022815D1401FAC
:1038A00021680861012020772068806900F003000A
:1038B00018B12046FFF7E4FF05E0204600F010F9BC
:1038C000204600F0C4F90020207706F00400042808
:1038D00019D105F00400042815D1C04321680861FE
:1038E000022020772068806900F4407018B12046DB
:1038F000FFF7C6FF05E0204600F0F2F8204600F092
:10390000A6F90020207706F00800082819D105F054
:103910000800082815D1C0432168086104202077D9
:103920002068C06900F0030018B12046FFF7A8FF27
:1039300005E0204600F0D4F8204600F088F9002089
:10394000207706F01000102819D105F0100010287B
:1039500015D1C04321680861082020772068C0691C
:1039600000F4407018B12046FFF78AFF05E02046BA
:1039700000F0B6F8204600F06AF90020207706F043
:10398000010048B105F0010030B16FF0010021687D
:103990000861204600F0E2F906F08000802809D195
:1039A00005F08000802805D1C043216808612046C9
:1039B000FFF796FB06F04000402809D105F04000D3
:1039C000402805D1C04321680861204600F052FB21
:1039D00006F02000202809D105F02000202805D17C
:1039E000C043216808612046FFF77BFB70BD0000E3
:1039F00010B586B00446142101A8FCF71BFC33491E
:103A0000206888421DD100BF002000903048006827
:103A100040F010002E4908600846006800F01000D1
:103A2000009000BF00BF48150190022002900020C6
:103A3000039004900120059001A92648FDF796FE09
:103A400042E02068B0F1804F1DD100BF00200090FF
:103A50001F48006840F001001D49086008460068E2
:103A600000F00100009000BF00BF0820019002207C
:103A700002900020039004900120059001A91648AF
:103A8000FDF774FE20E01549206888421CD100BF74
:103A9000002000900E48006840F001000C490860CA
:103AA0000846006800F00100009000BF00BF012040
:103AB00001900220029000200390049002200590C3
:103AC00001A90548FDF752FE06B010BD00000140F7
:103AD000303802400010024000000240000C00405C
:103AE00070472DE9F04104460D461646002700BFF9
:103AF00094F83C00012802D10220BDE8F0810120A9
:103B000084F83C0000BF36B1042E1BD0082E31D003
:103B10000C2E5ED145E02946206802F0DFFC2068CB
:103B2000806940F00800216888612068806920F081
:103B30000400216888612068806929690843216838
:103B4000886148E02946206802F000FD206880690D
:103B500040F40060216888612068806920F48060FA
:103B60002168886120688069296940EA012021680C
:103B7000886130E02946206802F026FD2068C0698F
:103B800040F008002168C8612068C06920F0040086
:103B90002168C8612068C069296908432168C86133
:103BA00019E02946206802F04BFD2068C06940F406
:103BB00000602168C8612068C06920F480602168C5
:103BC000C8612068C069296940EA01202168C8618C
:103BD00001E0012700BF00BF00BF002084F83C00C7
:103BE00000BF384689E710B504460CB9012010BD66
:103BF00094F83D0028B9002084F83C00204600F0ED
:103C000025F8022084F83D00211D206802F0CCFB3D
:103C1000012084F8460000BF84F83E0001213F20C7
:103C20000155402001554120015500BF00BF012032
:103C300084F8420043200155442001554520015598
:103C400000BF012084F83D000020D0E77047704796
:103C500070B504460D4615B994F83E000BE0042DEE
:103C600002D13F20005D06E0082D02D14020005D1A
:103C700001E04120005D012801D0012070BD1DB987
:103C8000022084F83E000EE0042D03D102213F20E3
:103C9000015508E0082D03D102214020015502E022
:103CA00002214120015501222946206802F0F0FB43
:103CB00023492068884203D022492068884201D1E4
:103CC000012000E0002028B12068406C40F4004052
:103CD000216848641A49206888421BD02068B0F1E6
:103CE000804F17D018492068884213D017492068A0
:103CF00088420FD01649206888420BD011492068AD
:103D0000884207D013492068884203D012492068AE
:103D100088420CD12068806800F00706062E0CD07F
:103D20002068006840F001002168086005E0206814
:103D3000006840F001002168086000209EE7000054
:103D40000000014000040140000400400008004061
:103D5000000C004000400140001800402DE9F041F7
:103D60000446B048844209D1AF480068401CAE49BF
:103D70000860AE480068401CAC490860AB48006869
:103D8000AB49884208D10020A849086000F0BCFC7B
:103D90009FEDA80A00F0B6FDA3480068A449884238
:103DA0007ED10020A0490860A3480068406AA3496A
:103DB0000860A3480068406AA24908609F480068FC
:103DC0004042A14909680844A049086008460068C3
:103DD0004EF66021884206DD9C480068A0F57F40D1
:103DE000FF389A490860994800689949884205DA7D
:103DF00096480068090C0844944908609148006896
:103E000094490968401A94490860084600684EF6CB
:103E10006021884206DD90480068A0F57F40FF38A9
:103E20008D4908608C4800688949884205DA8A48CB
:103E30000068090C08448849086080480068824985
:103E400008608048006883490860002506E0A8B241
:103E500000231A46194602F05DFD6D1C082DF6DBA5
:103E60007E480068032818D87D4840780A2190FBD6
:103E7000F1F0C5B27A48007890FBF1F0C6B278480C
:103E8000807890FBF1F0C7B27449097801F0030023
:103E90002B463246394602F03DFD7048006800E08E
:103EA00093E070B16D48006804280AD86C4D6B78B7
:103EB0002A78A978694D2D786D1E05F0030002F06F
:103EC00029FD6648006802281DD36448006805285B
:103ED00019D8634840780A2190FBF1F0C5B26048D8
:103EE000007890FBF1F0C6B25D48807890FBF1F06D
:103EF000C7B25A490978891E01F003002B463246A1
:103F0000394602F007FD5548006803281AD854487E
:103F100040780A2190FBF1F0C5B25148007890FB3F
:103F2000F1F0C6B24E48807890FBF1F0C7B24B4931
:103F3000097801F00301C1F107002B4632463946EA
:103F400002F0E8FC4548006880B144480068042855
:103F50000CD8434D6B782A78A978404D2D786D1E8A
:103F600005F00305C5F1070002F0D4FC3B480068EA
:103F700002281FD33948006805281BD838484078E4
:103F80000A2190FBF1F0C5B23548007890FBF1F0C2
:103F9000C6B23348807890FBF1F0C7B22F49097858
:103FA000891E01F00301C1F107002B463246394654
:103FB00002F0B0FC29480068401C28490860084607
:103FC0000068082801D1002008602648844226D1D4
:103FD0004FF480512448FDF7C3FC10B9FC2023495D
:103FE00008704FF400512048FDF7BAFC10B9FD20CD
:103FF0001E49087004211E48FDF7B2FC10B9FF20CD
:104000001A49087008211A48FDF7AAFC10B9FE20C9
:1040100016490870FDF734F81248FFF743FABDE877
:10402000F0810000280B00200C000020140000206C
:1040300080380100CDCCCC3DB80B0020180000200A
:10404000480C0020200000201C000020040000205C
:10405000A015FFFF24000020080000201000002011
:1040600000000020900C00200004024030000020DE
:1040700000080240704710B504460CB9012010BD7D
:10408000A06900B100E000BF94F8410028B9002009
:1040900084F84000204600F029F8242084F84100EC
:1040A0002068C06820F400502168C860204602F0F3
:1040B00019FB2068006920F490402168086120689D
:1040C000406920F02A00216848612068C06840F4F7
:1040D00000502168C86000206064202084F84100FE
:1040E00084F842000020606300BFC8E710B586B0C6
:1040F0000446142101A8FCF79DF81B49206888425A
:1041000030D100BF002000901848006840F0100037
:10411000164908600846006800F01000009000BFD3
:1041200000BF00BF0020009010481438006840F025
:1041300001000E49143908600846006800F00100CB
:10414000009000BF00BF4FF4C060019002200290B9
:1041500000200390032004900720059001A9044843
:10416000FDF704FB06B010BD0010014044380240CA
:104170000000024000BFFEE7014608684069C0F346
:104180008020B0B16FF480600A685061002008633D
:10419000202081F83D00002081F83E00086C40F0AE
:1041A0000400086400BF002081F83C0000BF01202B
:1041B00070470020FCE700002DE9F84304460F4655
:1041C00015469946DDE908862068006840F480605D
:1041D000216808602068006840F4807021680860E9
:1041E000434600224FF001112046009600F037F9B7
:1041F00060B12068006800F48070B0F5807F02D163
:104200004FF4007020640320BDE8F88307F0FE003F
:1042100021680861334642463E49204600F07EF957
:1042200008B10120F0E700BF00200090206840693D
:10423000009020688069009000BF00BF3246414670
:10424000204600F02DFA50B1206C042805D12068DA
:10425000006840F40070216808600120D4E7B9F1DB
:10426000010F03D1E8B22168086117E0C5F3072008
:104270002168086132464146204600F011FA50B1EB
:10428000206C042805D12068006840F40070216883
:1042900008600120B8E7E8B221680861324641466B
:1042A000204600F0FDF950B1206C042805D12068AB
:1042B000006840F40070216808600120A4E72068CD
:1042C000006840F4807021680860434600224FF087
:1042D00001112046009600F0C2F858B1206800682D
:1042E00000F48070B0F5807F02D14FF4007020643C
:1042F000032089E7F8B240F00100216808613346E5
:1043000042460449204600F009F908B101207BE744
:10431000002079E7020001002DE9F84304468846B1
:1043200015469946DDE908672068006840F480700A
:1043300021680860334600224FF0011120460097A3
:1043400000F08DF860B12068006800F48070B0F56E
:10435000807F02D14FF4007020640320BDE8F88311
:1043600008F0FE00216808613B463246214920469C
:1043700000F0D4F808B10120F0E700BF0020009061
:1043800020684069009020688069009000BF00BFED
:104390003A463146204600F083F950B1206C04289B
:1043A00005D12068006840F4007021680860012091
:1043B000D4E7B9F1010F03D1E8B22168086117E031
:1043C000C5F30720216808613A463146204600F0CF
:1043D00067F950B1206C042805D12068006840F4CA
:1043E0000070216808600120B8E7E8B22168086120
:1043F0000020B3E70200010070B504460D461646E2
:1044000025E02046FFF7B8FE08B1012070BD681C0A
:10441000E8B1FDF7B3FA801BA84200D8BDB9206807
:104420004069C0F3800090B900202063202084F808
:104430003D00002084F83E00206C40F02000206405
:1044400000BF002084F83C0000BF0120DEE72068A8
:104450004069C0F380000028D3D00020D6E72DE9C2
:10446000F04104460D4617461E46DDF8188038E038
:10447000701CA8B3FDF782FAA0EB0800B04200D888
:1044800076BBC5F3074001280AD120684069A9B26C
:104490000840A9B2884201D101200BE0002009E0C8
:1044A00020688069A9B20840A9B2884201D10120E0
:1044B00000E00020B84214D100202063202084F8BE
:1044C0003D00002084F83E00206C40F02000206475
:1044D00000BF002084F83C0000BF0120BDE8F0814F
:1044E000FFE7C5F3074001280AD120684069A9B257
:1044F0000840A9B2884201D101200BE0002009E068
:1045000020688069A9B20840A9B2884201D101207F
:1045100000E00020B842ABD00020DFE72DE9F041F9
:1045200004460D4616461F4658E020684069C0F311
:104530008020E8B12068006840F4007021680860BD
:104540006FF480602168486100202063202084F897
:104550003D00002084F83E00206C40F00400206400
:1045600000BF002084F83C0000BF0120BDE8F081BE
:10457000701C90B3FDF702FAC01BB04200D866BBB6
:10458000C5F3074001280AD120684069A9B2084054
:10459000A9B2884201D101200BE0002009E0206887
:1045A0008069A9B20840A9B2884201D1012000E087
:1045B000002090B900202063202084F83D000020D6
:1045C00084F83E00206C40F02000206400BF0020F2
:1045D00084F83C0000BF0120C8E7FFE7C5F30740AF
:1045E00001280AD120684069A9B20840A9B28842CE
:1045F00001D101200BE0002009E020688069A9B208
:104600000840A9B2884201D1012000E00020002822
:104610008BD00020AAE770B504460D46164637E059
:1046200020684069C0F30010A0B16FF0100021684D
:10463000486100202063202084F83D00002084F899
:104640003E00206C206400BF002084F83C0000BFC6
:10465000012070BDFDF792F9801BA84200D8BDB9BA
:1046600020684069C0F3801090B9002020632020AA
:1046700084F83D00002084F83E00206C40F02000CB
:10468000206400BF002084F83C0000BF0120E0E768
:1046900020684069C0F380100028C1D00020D8E70E
:1046A00070B504460D46164625E02046FFF764FD2A
:1046B00008B1012070BD681CE8B1FDF75FF9801BEF
:1046C000A84200D8BDB920684069C0F3C01090B9B5
:1046D00000202063202084F83D00002084F83E0064
:1046E000206C40F02000206400BF002084F83C00D3
:1046F00000BF0120DEE720684069C0F3C010002839
:10470000D3D00020D6E7000010B590B000200D9067
:104710000E900F900A900B900C90079008900990C3
:1047200004900590069002F0A9FE02F083FE704806
:10473000B0F9000000EE900AF8EEE00AB0EE600A70
:104740006C4802F001FF6B4890ED020ABDEEC00A12
:1047500010EE100A00B200EE100AB8EEC00A8DED9D
:104760000A0A9DED0A0AF2EE040A80EE201AB2EE61
:10477000040A21EE000A8DED0A0A5D48B0F9020034
:1047800000EE900AF8EEE00AB0EE600A59481830E0
:1047900002F0DAFE574890ED080ABDEEC00A10EEAE
:1047A000100A00B200EE100AB8EEC00A8DED0B0A36
:1047B0009DED0B0AB2EE041AC0EE010AB2EE040A35
:1047C00020EE800A8DED0B0A4948B0F9040000EE96
:1047D000900AF8EEE00AB0EE600A4648303002F087
:1047E000B3FE444890ED0E0ABDEEC00A10EE100A6A
:1047F00000B200EE100AB8EEC00A8DED0C0A9DED75
:104800000C0AF2EE040A80EE201AB2EE040A21EE3F
:10481000000A8DED0C0A364800883749098B401A8A
:1048200000B23549C880324841883348408B081A65
:1048300001B2314801812E4881882F48808B081AA7
:1048400001B22D4841812A48C088ADF808002848A7
:104850000089ADF80A0026484089ADF80C00002414
:104860002CE002A830F9140000EE100AB8EEC00ADD
:1048700004EB4400214901EB800080ED010A04EBC8
:1048800044011E4A02EB81009FED1D0A00F030FF3B
:10489000BDEEC00A10EE100A00B22DF8140002A8F6
:1048A00030F9140000EE100AB8EEC00A04EB440020
:1048B000124901EB800080ED000A641C032CD0DB60
:1048C0000B48C0880C49498A401A00B20A4908803E
:1048D00007480089498A401A00B2074948800448BD
:1048E0004089498A401A00B20349888010B010BD3F
:1048F000CC09002078050020800D0020C005002094
:104900000AD7A33B10B52DED108B8CB0B0EE409ABA
:10491000B6EE000A29EE000AF0EE408AFE4890ED5D
:10492000010AD0ED030A20EE200AD0ED000A90ED36
:10493000021A00EEC10AF0EE000A20EE200A8DED08
:10494000090A90ED000AD0ED010A20EE200AD0ED10
:10495000020A90ED031A00EE810AF0EE000A20EE42
:10496000200A8DED0A0A90ED010AD0ED010A20EE31
:10497000200AD0ED020A90ED021A00EE810AF7EE4D
:10498000000AB0EE001A41EE400ACDED0B0AE348F2
:10499000B0F9000000EE900AF8EEE00AB0EE600A0E
:1049A00002F04FFEF0EE40BADC48B0F9020000EE33
:1049B000900AF8EEE00AB0EE600A02F042FE7BEEEA
:1049C00080BAD648B0F9040000EE900AF8EEE00A8A
:1049D000B0EE600A02F035FE3BEE800AB0EE40BA5F
:1049E00002F094FDB0EE408ACC48B0F9000000EE31
:1049F000100AB8EEC00A20EE080A8DED060AC74874
:104A0000B0F9020000EE100AB8EEC00A20EE080A63
:104A10008DED070AC148B0F9040000EE100AB8EEA7
:104A2000C00A20EE080A8DED080A9DED070ADDEDAB
:104A30000B0A20EE200ADDED080A9DED0A1A00EEB1
:104A4000C10A8DED000A9DED080ADDED090A20EE90
:104A5000200ADDED060A9DED0B1A00EEC10A8DED70
:104A6000010A9DED060ADDED0A0A20EE200ADDEDC1
:104A7000070A9DED091A00EEC10A8DED020AA84849
:104A800090ED000ADDED000AA64890ED001A00EE58
:104A9000810AA34880ED000A90ED010ADDED010ACC
:104AA000A04890ED001A00EE810A9D4880ED010AB1
:104AB00090ED020ADDED020A9A4890ED001A00EE30
:104AC000810A974880ED020A9448B0F9060000EE8A
:104AD000100AB8EEC00ADFED940A20EE200ADDEDE0
:104AE000000A924890ED001A01EE200A8C48D0EDA1
:104AF000000A30EE200A8DED030A8848B0F908005C
:104B000000EE100AB8EEC00ADFED870A20EE200A98
:104B1000DDED010A854890ED001A01EE200A80487B
:104B2000D0ED010A30EE200A8DED040A7B48B0F981
:104B30000A0000EE100AB8EEC00ADFED7B0A20EE94
:104B4000200ADDED020A794890ED001A01EE200AF4
:104B50007348D0ED020A30EE200A8DED050A6E484A
:104B600090ED010AB1EE400ADDED030A20EE200AC5
:104B7000D0ED020A9DED041A00EEC10AD0ED030A41
:104B80009DED051A00EEC10A20EE280AB0EE40AAFB
:104B900090ED000ADDED030A20EE200AD0ED030AB5
:104BA0009DED041A00EEC10AD0ED020A9DED051A32
:104BB00000EE810A20EE280AF0EE40AA90ED030AEA
:104BC000DDED030A20EE200AD0ED000A9DED041A67
:104BD00000EE810AD0ED010A9DED051A00EEC10A32
:104BE00020EE280AB0EE40EA90ED020AB1EE400A4B
:104BF000DDED030A20EE200AD0ED010A9DED041A36
:104C000000EE810AD0ED000A9DED051A00EE810A42
:104C100020EE280AF0EE40EA90ED000A30EE0A0A93
:104C200080ED000A90ED010A30EE2A0A80ED010ABB
:104C300090ED020A30EE0E0A80ED020A90ED030AB2
:104C400030EE2E0A80ED030AD0ED000AB0EE600AC5
:104C500002F0F7FCF0EE40BA2F48D0ED010AB0EEBA
:104C6000600A02F0EEFC7BEE80BA2B48D0ED020A1F
:104C7000B0EE600A02F0E5FC7BEE80BA2648D0ED8B
:104C8000030AB0EE600A02F0DCFC3BEE800AB0EEF4
:104C900040BA02F03BFCB0EE408A1F4890ED000A9B
:104CA00020EE080A80ED000A90ED010A20EE080AC5
:104CB00080ED010A90ED020A20EE080A80ED020A5A
:104CC00090ED030A20EE080A80ED030A90ED000A39
:104CD000F0EE000A20EE200AD0ED020A20EE200AB3
:104CE000D0ED010AB0EE001A60EE810A90ED031AD1
:104CF00000EEC10A10EE104A90ED020AF0EE000A32
:104D000020EE200AD0ED030A20EE200AD0ED000AA2
:104D1000B0EE001A0CE00000EC050020800D002031
:104D2000B00D0020E805002045798B3AE40500200D
:104D300060EE810A90ED011A00EE810AB0EE40FAB1
:104D400090ED010AF0EE000A60EE200A90ED011AE3
:104D5000B7EE000A00EEC10AD0ED020AB0EE001A6A
:104D600060EE810A90ED021A00EEC10AF0EE40FA00
:104D70002748B0F90A0000EE100AB8EEC00ADFEDCD
:104D8000250A20EE200AF0EE409AB7EE000AF4EE73
:104D9000C09AF1EE10FA06DCBFEE000AF4EEC09AFB
:104DA000F1EE10FA06D21C4890ED020A09EE890ACB
:104DB00080ED020A2046FBF7BAFA41EC1D0BB0EE7B
:104DC0004D0AF0EE6D0A01F037FEB0EE40CAF0EE8B
:104DD00060CA9FED120B53EC102B51EC1C0BFBF730
:104DE00034FA41EC1B0BFBF7B5FA0B494860F0EEC7
:104DF0006F0AB0EE4F0A01F0CFFFDFED0A0A20EE96
:104E0000200A054880ED000A0CB0BDEC108B10BDE7
:104E1000800D0020E200FA3CA40D0020000000609C
:104E200094A94C40A34C65422DE9F04107460C463D
:104E300015461E462A2000F02FFC384600F022FCC2
:104E4000284600F01FFC2B2000F026FC204600F036
:104E500019FC304600F016FC2C2000F01DFCBDE8CB
:104E6000F08170B504460D4616462B46224629466B
:104E70002046FFF7D9FF304600F004FC70BD2DE955
:104E8000F04706460F4614461D46DDF820A0681E72
:104E900083B2601E82B239463046FFF7C5FFB8467E
:104EA0000EE0B14606E0504600F0ECFB09F10100CF
:104EB0001FFA80F9A145F6DB08F101001FFA80F81E
:104EC000A845EEDBBDE8F0872DE9FF5F80468A4606
:104ED00017469B460F9D00200290CDF80080284683
:104EE00005EBD071C1F347042046E21704EB527280
:104EF000D2102146E31704EB5373DB10A4EBC3037A
:104F00000BB1012300E000231A446A4392B20192DC
:104F1000A7F12000C7B20AEB0500401E83B208EBE0
:104F20000400401E82B251464046FFF77DFF002636
:104F300069E00C2D07D107EB4700354901EB8000F4
:104F4000805D03901BE0102D05D1324800EB071067
:104F5000805D039013E0182D07D107EB47002E4921
:104F600001EB0010805D039009E0202D05D12B4856
:104F700000EB8710805D039001E0BDE8FF9F4FF0DC
:104F800000093AE01098C8B9012000FA09F0039925
:104F9000084018B1584600F075FB02E00E9800F08A
:104FA00071FB0298401CC0B20290029890FBF4F191
:104FB00004FB1100E8B90020029021E0012000FA72
:104FC00009F00399084020B15A4651464046FFF780
:104FD00048FF08F101001FFA80F80098A8EB0000D4
:104FE000A04206D1DDF800800AF101001FFA80FA24
:104FF00006E009F1010000F0FF09B9F1080FC1DB7B
:1050000000BF701C86B20198864292DB00BFB4E7F5
:10501000BA7600082E7B00081E810008EE92000878
:105020002DE9FE4F8046894617469A46DDE90D4632
:105030000C9D36E00C2C09D153463A464946404671
:10504000CDE90146009500F031F825E0102C09D19A
:1050500053463A4649464046CDE90146009500F0A0
:10506000C9F819E0182C09D153463A46494640463A
:10507000CDE90146009500F059F90DE0202C09D149
:1050800053463A4649464046CDE90146009500F070
:10509000F1F901E0BDE8FE8FBF1C08EB04001FFA28
:1050A00080F838780028C5D100BFF3E72DE9FF5F0D
:1050B0000646894692469B460F9C00200390009628
:1050C0002046E21704EB5272D2102146E31704EB9C
:1050D0005373DB10A4EBC3030BB1012300E00023E7
:1050E0001A44624392B2019205200290002579E0B1
:1050F00005EB850000EBC5003D4911F810009AF85A
:10510000001088426BD105EB850000EBC5003849E3
:1051100001EB400040789AF8011088425FD109EB1A
:105120000400401E83B23019401E82B24946304608
:10513000FFF77AFE00274FE04FF0000846E0109896
:1051400008BB05EB850000EBC500294901EB4000D9
:10515000801CC05D012101FA08F1084018B15846D1
:1051600000F090FA02E00E9800F08CFA0398401CD0
:10517000C0B20390039890FBF4F104FB110008BB4C
:105180000020039025E005EB850000EBC5001849E1
:1051900001EB4000801CC05D012101FA08F10840CC
:1051A00020B15A4649463046FFF75BFE701C86B276
:1051B0000098301AA04205D1009E09F101001FFAA3
:1051C00080F906E008F1010000F0FF08B8F1080FCF
:1051D000B5DB00BF781CC7B201988742ACDB00BFCB
:1051E000681C85B20298854282DBBDE8FF9F000003
:1051F000AEAA00082DE9FF5F0646894692469B4607
:105200000F9C0020039000962046E21704EB527298
:10521000D2102146E31704EB5373DB10A4EBC30356
:105220000BB1012300E000231A44624392B20192C1
:1052300005200290002571E005EB05103A4911F8B0
:1052400010009AF80010884265D105EB0510364928
:1052500001EB400040789AF8011088425BD109EBDD
:105260000400401E83B23019401E82B249463046C7
:10527000FFF7DAFD00274BE04FF0000842E01098FE
:10528000F8B905EB0510284901EB4000801CC05D12
:10529000012101FA08F1084018B1584600F0F2F96E
:1052A00002E00E9800F0EEF90398401CC0B20390A3
:1052B000039890FBF4F104FB1100F8B9002003906F
:1052C00023E005EB0510184901EB4000801CC05D90
:1052D000012101FA08F1084020B15A4649463046FA
:1052E000FFF7BFFD701C86B20098301AA04205D1AE
:1052F000009E09F101001FFA80F906E008F10100A3
:1053000000F0FF08B8F1080FB9DB00BF781CC7B286
:1053100001988742B0DB00BF681C85B202988542C5
:105320008ADBBDE8FF9F000030AB00082DE9FF5F7E
:105330000646894692469B460F9C002003900096A5
:105340002046E21704EB5272D2102146E31704EB19
:105350005373DB10A4EBC3030BB1012300E0002364
:105360001A44624392B201921C200290002579E017
:1053700005EB850000EB45103D4911F810009AF847
:10538000001088426BD105EB850000EB45103849D1
:1053900001EB400040789AF8011088425FD109EB98
:1053A0000400401E83B23019401E82B24946304686
:1053B000FFF73AFD00274FE04FF0000846E0109855
:1053C00008BB05EB850000EB4510294901EB4000C7
:1053D000801CC05D012101FA08F1084018B158464F
:1053E00000F050F902E00E9800F04CF90398401CD0
:1053F000C0B20390039890FBF4F104FB110008BBCA
:105400000020039025E005EB850000EB45101849CE
:1054100001EB4000801CC05D012101FA08F1084049
:1054200020B15A4649463046FFF71BFD701C86B234
:105430000098301AA04205D1009E09F101001FFA20
:1054400080F906E008F1010000F0FF08B8F1080F4C
:10545000B5DB00BF781CC7B201988742ACDB00BF48
:10546000681C85B20298854282DBBDE8FF9F000080
:10547000DAAB00082DE9FF5F0646894692469B4657
:105480000F9C0020039000962046E21704EB527216
:10549000D2102146E31704EB5373DB10A4EBC303D4
:1054A0000BB1012300E000231A44624392B201923F
:1054B00017200290002571E005EB85103A4911F89C
:1054C00010009AF80010884265D105EB8510364926
:1054D00001EB400040789AF8011088425BD109EB5B
:1054E0000400401E83B23019401E82B24946304645
:1054F000FFF79AFC00274BE04FF0000842E01098BD
:10550000F8B905EB8510284901EB4000801CC05D0F
:10551000012101FA08F1084018B1584600F0B2F82C
:1055200002E00E9800F0AEF80398401CC0B2039061
:10553000039890FBF4F104FB1100F8B900200390EC
:1055400023E005EB8510184901EB4000801CC05D8D
:10555000012101FA08F1084020B15A464946304677
:10556000FFF77FFC701C86B20098301AA04205D16C
:10557000009E09F101001FFA80F906E008F1010020
:1055800000F0FF08B8F1080FB9DB00BF781CC7B204
:1055900001988742B0DB00BF681C85B20298854243
:1055A0008ADBBDE8FF9F0000F2B300082DE9FF4F42
:1055B00085B0074691461D46DDE913A600200490FC
:1055C000304606EBD071C1F3470B002434E0281BB2
:1055D000401EC1B20A2002F029F8B9FBF0F00A21FE
:1055E000B0FBF1F201FB12080498A0B9681EA042BA
:1055F00011DDB8F1000F0CD1002004FB0B71CDE9D7
:1056000000A6029088B22022129B0699FFF75CFC4C
:1056100010E001200490002008F13001CAB204FB20
:105620000B71CDE900A6029088B2129B0699FFF794
:105630004BFC00BF601CC4B2AC42C8DB09B0BDE883
:10564000F08F2DE9FE4F06460F4614469846DDE9D9
:105650000D5ADDF8309010E0CDE9015ACDF80090F8
:105660002278434639463046FFF72EFC284605EBA4
:10567000D07106EB61018EB2641C20780028EBD15A
:10568000BDE8FE8F10B50446201200F019F8E0B214
:1056900000F016F810BD000010B5044600224FF4CB
:1056A00000610648FCF764F9204600F009F8012281
:1056B000D1020248FCF75CF910BD0000000802406E
:1056C00001B500224FF400410748FCF751F94FF4AF
:1056D0007A73012269460548FDF7E5FA0122D103F4
:1056E0000148FCF745F908BD00000240880A002087
:1056F000F0EE400A90ED020A9FED0B1A20EE011A1F
:10570000F7EE001A81EE810A30EE200A80EE801A50
:1057100090ED010AD0ED001A70EE611A90ED000ACA
:1057200001EE210A70470000DB0FC9401CB50020C4
:10573000019001A9FE20FBF7DBFD9DF80400122873
:1057400004D1012211021248FCF712F90020009046
:105750006946FF20FBF7CCFD9DF80000552801D1DC
:1057600000201CBD9DF8040012280FD055242146AE
:10577000FF20FBF7E9FD6946FF20FBF7B9FD9DF827
:105780000000552801D10020EBE700BF0120E8E729
:105790000008024008B500BF002000900A480068D9
:1057A00040F40010084908600846006800F4001042
:1057B000009000BF00BF002211461120FCF7EEFC54
:1057C0001120FCF7D7FC08BD3038024000B587B087
:1057D000142102A8FAF72EFD00BF002001906F48A7
:1057E000006840F010006D4908600846006800F04D
:1057F0001000019000BF00BF00BF002001900846CC
:10580000006840F0800008600846006800F08000F2
:10581000019000BF00BF00BF002001900846006853
:1058200040F0040008600846006800F004000190A1
:1058300000BF00BF00BF002001900846006840F094
:10584000010008600846006800F00100019000BFF8
:1058500000BF00BF002001900846006840F0020031
:1058600008600846006800F00200019000BF00BF19
:1058700000BF002001900846006840F00800086062
:105880000846006800F00800019000BF00BF012238
:1058900004214348FCF76CF8002248F20601414815
:1058A000FCF766F800224FF411613F48FCF760F8FE
:1058B00000224FF4C0713A48FCF75AF80022202128
:1058C0003A48FCF755F8042002901120039000207C
:1058D0000490059002A93248FBF748FF0C20029083
:1058E0004FF4041003900120049002A92E48FBF706
:1058F0003DFF48F206000290012003900020049032
:10590000059002A92748FBF731FF4FF41160029080
:105910000120039000200490059002A92248FBF783
:1059200025FF4FF4C07002900120039000200490E6
:10593000059002A91A48FBF719FF4FF44050029056
:105940004FF4041003900120049002A91748FBF7BC
:105950000DFF20200290012003900020049005906C
:1059600002A91248FBF702FF002211460820FCF7AB
:1059700015FC0820FCF7FEFB002211460920FCF76D
:105980000DFC0920FCF7F6FB002211462820FCF74D
:1059900005FC2820FCF7EEFB07B000BD30380240C4
:1059A00000100240000002400008024000040240D3
:1059B00010B50B480B4908600B48486000210948A6
:1059C0008160C1604FF480410161002141618161CA
:1059D000C1610162FBF7D8FF08B1FBF70DFD10BDF7
:1059E000005C0040DC090020A086010010B50F48D3
:1059F0000F4908604FF48270486000210C488160B4
:105A0000C1600221016101214161490281610821D6
:105A1000C16100210162416281620A21C162FCF719
:105A20009DFF08B1FBF7E8FC10BD0000003001400D
:105A3000300A002010B50F480F4908604FF48270FB
:105A400048604FF400410C4881600021C160016151
:105A500041614FF4007181610021C16101624162C5
:105A600081620A21C162FCF779FF08B1FBF7C4FC2F
:105A700010BD0000003C0040880A002000B595B031
:105A8000002011901290139014900F9010901C21F0
:105A900008A8FAF7CFFB20216846FAF7CBFB2B4882
:105AA0002B4908605320486000212948816040F25A
:105AB000E731C1600021016141618161FDF7A6FB11
:105AC00008B1FBF799FC4FF48050119011A92048C0
:105AD000FDF707FD08B1FBF78FFC1D48FEF783F8C3
